{"abi":[{"type":"constructor","inputs":[{"name":"safe_","type":"address","internalType":"address"},{"name":"root_","type":"address","internalType":"address"},{"name":"gateway_","type":"address","internalType":"address"}],"stateMutability":"nonpayable"},{"type":"function","name":"cancelRely","inputs":[{"name":"target","type":"address","internalType":"address"}],"outputs":[],"stateMutability":"nonpayable"},{"type":"function","name":"disputeMessageRecovery","inputs":[{"name":"adapter","type":"address","internalType":"address"},{"name":"messageHash","type":"bytes32","internalType":"bytes32"}],"outputs":[],"stateMutability":"nonpayable"},{"type":"function","name":"gateway","inputs":[],"outputs":[{"name":"","type":"address","internalType":"contract IGateway"}],"stateMutability":"view"},{"type":"function","name":"pause","inputs":[],"outputs":[],"stateMutability":"nonpayable"},{"type":"function","name":"root","inputs":[],"outputs":[{"name":"","type":"address","internalType":"contract Root"}],"stateMutability":"view"},{"type":"function","name":"safe","inputs":[],"outputs":[{"name":"","type":"address","internalType":"contract ISafe"}],"stateMutability":"view"},{"type":"function","name":"scheduleRely","inputs":[{"name":"target","type":"address","internalType":"address"}],"outputs":[],"stateMutability":"nonpayable"},{"type":"function","name":"unpause","inputs":[],"outputs":[],"stateMutability":"nonpayable"}],"bytecode":{"object":"0x60e0346100ec57601f6107e038819003918201601f19168301916001600160401b038311848410176100f0578084926060946040528339810103126100ec5761004781610104565b61005f604061005860208501610104565b9301610104565b6001600160a01b0392831660805290821660a0521660c0526040516106c790816101198239608051818181608b015281816101090152818161022e015281816102d30152610495015260a05181818160d1015281816101fd015281816102a3015281816103600152818161041601528181610465015261061d015260c051818181610390015261052d0152f35b5f80fd5b634e487b7160e01b5f52604160045260245ffd5b51906001600160a01b03821682036100ec5756fe6080806040526004361015610012575f80fd5b5f905f3560e01c908163116191b61461051b5750806311fd3baa14610445578063186f0354146104005780631a3355a41461033f5780633b687461146102825780633f4ba83a146101e65780638456cb59146100bd5763ebf0c71714610076575f80fd5b346100ba57806003193601126100ba576040517f00000000000000000000000000000000000000000000000000000000000000006001600160a01b03168152602090f35b80fd5b50346100ba57806003193601126100ba57337f00000000000000000000000000000000000000000000000000000000000000006001600160a01b03161480156101d7575b1561017c57807f00000000000000000000000000000000000000000000000000000000000000006001600160a01b0316803b1561017957818091600460405180948193638456cb5960e01b83525af1801561016e5761015d5750f35b81610167916105bd565b6100ba5780f35b6040513d84823e3d90fd5b50fd5b60405162461bcd60e51b815260206004820152602d60248201527f477561726469616e2f6e6f742d7468652d617574686f72697a65642d7361666560448201526c16b7b916b4ba3996b7bbb732b960991b6064820152608490fd5b506101e1336105f3565b610101565b50346100ba57806003193601126100ba5761022b337f00000000000000000000000000000000000000000000000000000000000000006001600160a01b031614610572565b807f00000000000000000000000000000000000000000000000000000000000000006001600160a01b0316803b1561017957818091600460405180948193631fa5d41d60e11b83525af1801561016e5761015d5750f35b50346100ba5760203660031901126100ba578061029d61055c565b6102d1337f00000000000000000000000000000000000000000000000000000000000000006001600160a01b031614610572565b7f00000000000000000000000000000000000000000000000000000000000000006001600160a01b031690813b1561033b57604051633b68746160e01b81526001600160a01b0390911660048201529082908290602490829084905af1801561016e5761015d5750f35b5050fd5b50346100ba5760403660031901126100ba578061035a61055c565b61038e337f00000000000000000000000000000000000000000000000000000000000000006001600160a01b031614610572565b7f00000000000000000000000000000000000000000000000000000000000000006001600160a01b031690813b1561033b5760405163068cd56960e21b81526001600160a01b03909116600482015260248035908201529082908290604490829084905af1801561016e5761015d5750f35b50346100ba57806003193601126100ba576040517f00000000000000000000000000000000000000000000000000000000000000006001600160a01b03168152602090f35b50346105175760203660031901126105175761045f61055c565b610493337f00000000000000000000000000000000000000000000000000000000000000006001600160a01b031614610572565b7f00000000000000000000000000000000000000000000000000000000000000006001600160a01b031690813b15610517576040516308fe9dd560e11b81526001600160a01b039091166004820152905f908290602490829084905af1801561050c576104fe575080f35b61050a91505f906105bd565b005b6040513d5f823e3d90fd5b5f80fd5b34610517575f366003190112610517577f00000000000000000000000000000000000000000000000000000000000000006001600160a01b03168152602090f35b600435906001600160a01b038216820361051757565b1561057957565b606460405162461bcd60e51b815260206004820152602060248201527f477561726469616e2f6e6f742d7468652d617574686f72697a65642d736166656044820152fd5b90601f8019910116810190811067ffffffffffffffff8211176105df57604052565b634e487b7160e01b5f52604160045260245ffd5b6040516317aa5fb760e11b81526001600160a01b03918216600482015290602090829060249082907f0000000000000000000000000000000000000000000000000000000000000000165afa5f9181610654575b5061065157505f90565b90565b9091506020813d602011610689575b81610670602093836105bd565b810103126105175751801515810361051757905f610647565b3d915061066356fea2646970667358221220233d4a71f7ca184899730e8ad4a27e9b42c0b9bed7d9975724e8ce4fa8829a3264736f6c634300081a0033","linkReferences":{}},"methodIdentifiers":{"cancelRely(address)":"11fd3baa","disputeMessageRecovery(address,bytes32)":"1a3355a4","gateway()":"116191b6","pause()":"8456cb59","root()":"ebf0c717","safe()":"186f0354","scheduleRely(address)":"3b687461","unpause()":"3f4ba83a"},"id":7}