{"abi":[{"type":"constructor","inputs":[{"name":"root_","type":"address","internalType":"address"},{"name":"escrow_","type":"address","internalType":"address"}],"stateMutability":"nonpayable"},{"type":"function","name":"cancelDepositRequest","inputs":[{"name":"vault","type":"address","internalType":"address"},{"name":"controller","type":"address","internalType":"address"},{"name":"source","type":"address","internalType":"address"}],"outputs":[],"stateMutability":"nonpayable"},{"type":"function","name":"cancelRedeemRequest","inputs":[{"name":"vault","type":"address","internalType":"address"},{"name":"controller","type":"address","internalType":"address"},{"name":"source","type":"address","internalType":"address"}],"outputs":[],"stateMutability":"nonpayable"},{"type":"function","name":"claimCancelDepositRequest","inputs":[{"name":"vault","type":"address","internalType":"address"},{"name":"receiver","type":"address","internalType":"address"},{"name":"controller","type":"address","internalType":"address"}],"outputs":[{"name":"assets","type":"uint256","internalType":"uint256"}],"stateMutability":"nonpayable"},{"type":"function","name":"claimCancelRedeemRequest","inputs":[{"name":"vault","type":"address","internalType":"address"},{"name":"receiver","type":"address","internalType":"address"},{"name":"controller","type":"address","internalType":"address"}],"outputs":[{"name":"shares","type":"uint256","internalType":"uint256"}],"stateMutability":"nonpayable"},{"type":"function","name":"claimableCancelDepositRequest","inputs":[{"name":"vault","type":"address","internalType":"address"},{"name":"user","type":"address","internalType":"address"}],"outputs":[{"name":"assets","type":"uint256","internalType":"uint256"}],"stateMutability":"view"},{"type":"function","name":"claimableCancelRedeemRequest","inputs":[{"name":"vault","type":"address","internalType":"address"},{"name":"user","type":"address","internalType":"address"}],"outputs":[{"name":"shares","type":"uint256","internalType":"uint256"}],"stateMutability":"view"},{"type":"function","name":"convertToAssets","inputs":[{"name":"vault","type":"address","internalType":"address"},{"name":"_shares","type":"uint256","internalType":"uint256"}],"outputs":[{"name":"assets","type":"uint256","internalType":"uint256"}],"stateMutability":"view"},{"type":"function","name":"convertToShares","inputs":[{"name":"vault","type":"address","internalType":"address"},{"name":"_assets","type":"uint256","internalType":"uint256"}],"outputs":[{"name":"shares","type":"uint256","internalType":"uint256"}],"stateMutability":"view"},{"type":"function","name":"deny","inputs":[{"name":"user","type":"address","internalType":"address"}],"outputs":[],"stateMutability":"nonpayable"},{"type":"function","name":"deposit","inputs":[{"name":"vault","type":"address","internalType":"address"},{"name":"assets","type":"uint256","internalType":"uint256"},{"name":"receiver","type":"address","internalType":"address"},{"name":"controller","type":"address","internalType":"address"}],"outputs":[{"name":"shares","type":"uint256","internalType":"uint256"}],"stateMutability":"nonpayable"},{"type":"function","name":"escrow","inputs":[],"outputs":[{"name":"","type":"address","internalType":"address"}],"stateMutability":"view"},{"type":"function","name":"file","inputs":[{"name":"what","type":"bytes32","internalType":"bytes32"},{"name":"data","type":"address","internalType":"address"}],"outputs":[],"stateMutability":"nonpayable"},{"type":"function","name":"fulfillCancelDepositRequest","inputs":[{"name":"poolId","type":"uint64","internalType":"uint64"},{"name":"trancheId","type":"bytes16","internalType":"bytes16"},{"name":"user","type":"address","internalType":"address"},{"name":"assetId","type":"uint128","internalType":"uint128"},{"name":"assets","type":"uint128","internalType":"uint128"},{"name":"fulfillment","type":"uint128","internalType":"uint128"}],"outputs":[],"stateMutability":"nonpayable"},{"type":"function","name":"fulfillCancelRedeemRequest","inputs":[{"name":"poolId","type":"uint64","internalType":"uint64"},{"name":"trancheId","type":"bytes16","internalType":"bytes16"},{"name":"user","type":"address","internalType":"address"},{"name":"assetId","type":"uint128","internalType":"uint128"},{"name":"shares","type":"uint128","internalType":"uint128"}],"outputs":[],"stateMutability":"nonpayable"},{"type":"function","name":"fulfillDepositRequest","inputs":[{"name":"poolId","type":"uint64","internalType":"uint64"},{"name":"trancheId","type":"bytes16","internalType":"bytes16"},{"name":"user","type":"address","internalType":"address"},{"name":"assetId","type":"uint128","internalType":"uint128"},{"name":"assets","type":"uint128","internalType":"uint128"},{"name":"shares","type":"uint128","internalType":"uint128"}],"outputs":[],"stateMutability":"nonpayable"},{"type":"function","name":"fulfillRedeemRequest","inputs":[{"name":"poolId","type":"uint64","internalType":"uint64"},{"name":"trancheId","type":"bytes16","internalType":"bytes16"},{"name":"user","type":"address","internalType":"address"},{"name":"assetId","type":"uint128","internalType":"uint128"},{"name":"assets","type":"uint128","internalType":"uint128"},{"name":"shares","type":"uint128","internalType":"uint128"}],"outputs":[],"stateMutability":"nonpayable"},{"type":"function","name":"gateway","inputs":[],"outputs":[{"name":"","type":"address","internalType":"contract IGateway"}],"stateMutability":"view"},{"type":"function","name":"handle","inputs":[{"name":"message","type":"bytes","internalType":"bytes"}],"outputs":[],"stateMutability":"nonpayable"},{"type":"function","name":"investments","inputs":[{"name":"vault","type":"address","internalType":"address"},{"name":"investor","type":"address","internalType":"address"}],"outputs":[{"name":"maxMint","type":"uint128","internalType":"uint128"},{"name":"maxWithdraw","type":"uint128","internalType":"uint128"},{"name":"depositPrice","type":"uint256","internalType":"uint256"},{"name":"redeemPrice","type":"uint256","internalType":"uint256"},{"name":"pendingDepositRequest","type":"uint128","internalType":"uint128"},{"name":"pendingRedeemRequest","type":"uint128","internalType":"uint128"},{"name":"claimableCancelDepositRequest","type":"uint128","internalType":"uint128"},{"name":"claimableCancelRedeemRequest","type":"uint128","internalType":"uint128"},{"name":"pendingCancelDepositRequest","type":"bool","internalType":"bool"},{"name":"pendingCancelRedeemRequest","type":"bool","internalType":"bool"}],"stateMutability":"view"},{"type":"function","name":"maxDeposit","inputs":[{"name":"vault","type":"address","internalType":"address"},{"name":"user","type":"address","internalType":"address"}],"outputs":[{"name":"assets","type":"uint256","internalType":"uint256"}],"stateMutability":"view"},{"type":"function","name":"maxMint","inputs":[{"name":"vault","type":"address","internalType":"address"},{"name":"user","type":"address","internalType":"address"}],"outputs":[{"name":"shares","type":"uint256","internalType":"uint256"}],"stateMutability":"view"},{"type":"function","name":"maxRedeem","inputs":[{"name":"vault","type":"address","internalType":"address"},{"name":"user","type":"address","internalType":"address"}],"outputs":[{"name":"shares","type":"uint256","internalType":"uint256"}],"stateMutability":"view"},{"type":"function","name":"maxWithdraw","inputs":[{"name":"vault","type":"address","internalType":"address"},{"name":"user","type":"address","internalType":"address"}],"outputs":[{"name":"assets","type":"uint256","internalType":"uint256"}],"stateMutability":"view"},{"type":"function","name":"mint","inputs":[{"name":"vault","type":"address","internalType":"address"},{"name":"shares","type":"uint256","internalType":"uint256"},{"name":"receiver","type":"address","internalType":"address"},{"name":"controller","type":"address","internalType":"address"}],"outputs":[{"name":"assets","type":"uint256","internalType":"uint256"}],"stateMutability":"nonpayable"},{"type":"function","name":"pendingCancelDepositRequest","inputs":[{"name":"vault","type":"address","internalType":"address"},{"name":"user","type":"address","internalType":"address"}],"outputs":[{"name":"isPending","type":"bool","internalType":"bool"}],"stateMutability":"view"},{"type":"function","name":"pendingCancelRedeemRequest","inputs":[{"name":"vault","type":"address","internalType":"address"},{"name":"user","type":"address","internalType":"address"}],"outputs":[{"name":"isPending","type":"bool","internalType":"bool"}],"stateMutability":"view"},{"type":"function","name":"pendingDepositRequest","inputs":[{"name":"vault","type":"address","internalType":"address"},{"name":"user","type":"address","internalType":"address"}],"outputs":[{"name":"assets","type":"uint256","internalType":"uint256"}],"stateMutability":"view"},{"type":"function","name":"pendingRedeemRequest","inputs":[{"name":"vault","type":"address","internalType":"address"},{"name":"user","type":"address","internalType":"address"}],"outputs":[{"name":"shares","type":"uint256","internalType":"uint256"}],"stateMutability":"view"},{"type":"function","name":"poolManager","inputs":[],"outputs":[{"name":"","type":"address","internalType":"contract IPoolManager"}],"stateMutability":"view"},{"type":"function","name":"priceLastUpdated","inputs":[{"name":"vault","type":"address","internalType":"address"}],"outputs":[{"name":"lastUpdated","type":"uint64","internalType":"uint64"}],"stateMutability":"view"},{"type":"function","name":"recoverTokens","inputs":[{"name":"token","type":"address","internalType":"address"},{"name":"to","type":"address","internalType":"address"},{"name":"amount","type":"uint256","internalType":"uint256"}],"outputs":[],"stateMutability":"nonpayable"},{"type":"function","name":"redeem","inputs":[{"name":"vault","type":"address","internalType":"address"},{"name":"shares","type":"uint256","internalType":"uint256"},{"name":"receiver","type":"address","internalType":"address"},{"name":"controller","type":"address","internalType":"address"}],"outputs":[{"name":"assets","type":"uint256","internalType":"uint256"}],"stateMutability":"nonpayable"},{"type":"function","name":"rely","inputs":[{"name":"user","type":"address","internalType":"address"}],"outputs":[],"stateMutability":"nonpayable"},{"type":"function","name":"requestDeposit","inputs":[{"name":"vault","type":"address","internalType":"address"},{"name":"assets","type":"uint256","internalType":"uint256"},{"name":"controller","type":"address","internalType":"address"},{"name":"","type":"address","internalType":"address"},{"name":"source","type":"address","internalType":"address"}],"outputs":[{"name":"","type":"bool","internalType":"bool"}],"stateMutability":"nonpayable"},{"type":"function","name":"requestRedeem","inputs":[{"name":"vault","type":"address","internalType":"address"},{"name":"shares","type":"uint256","internalType":"uint256"},{"name":"controller","type":"address","internalType":"address"},{"name":"","type":"address","internalType":"address"},{"name":"source","type":"address","internalType":"address"}],"outputs":[{"name":"","type":"bool","internalType":"bool"}],"stateMutability":"nonpayable"},{"type":"function","name":"root","inputs":[],"outputs":[{"name":"","type":"address","internalType":"address"}],"stateMutability":"view"},{"type":"function","name":"triggerRedeemRequest","inputs":[{"name":"poolId","type":"uint64","internalType":"uint64"},{"name":"trancheId","type":"bytes16","internalType":"bytes16"},{"name":"user","type":"address","internalType":"address"},{"name":"assetId","type":"uint128","internalType":"uint128"},{"name":"shares","type":"uint128","internalType":"uint128"}],"outputs":[],"stateMutability":"nonpayable"},{"type":"function","name":"wards","inputs":[{"name":"","type":"address","internalType":"address"}],"outputs":[{"name":"","type":"uint256","internalType":"uint256"}],"stateMutability":"view"},{"type":"function","name":"withdraw","inputs":[{"name":"vault","type":"address","internalType":"address"},{"name":"assets","type":"uint256","internalType":"uint256"},{"name":"receiver","type":"address","internalType":"address"},{"name":"controller","type":"address","internalType":"address"}],"outputs":[{"name":"shares","type":"uint256","internalType":"uint256"}],"stateMutability":"nonpayable"},{"type":"event","name":"Deny","inputs":[{"name":"user","type":"address","indexed":true,"internalType":"address"}],"anonymous":false},{"type":"event","name":"File","inputs":[{"name":"what","type":"bytes32","indexed":true,"internalType":"bytes32"},{"name":"data","type":"address","indexed":false,"internalType":"address"}],"anonymous":false},{"type":"event","name":"Rely","inputs":[{"name":"user","type":"address","indexed":true,"internalType":"address"}],"anonymous":false},{"type":"event","name":"TriggerRedeemRequest","inputs":[{"name":"poolId","type":"uint64","indexed":true,"internalType":"uint64"},{"name":"trancheId","type":"bytes16","indexed":true,"internalType":"bytes16"},{"name":"user","type":"address","indexed":false,"internalType":"address"},{"name":"asset","type":"address","indexed":false,"internalType":"address"},{"name":"shares","type":"uint128","indexed":false,"internalType":"uint128"}],"anonymous":false}],"bytecode":{"object":"0x60c03461010157601f614f7738819003918201601f19168301916001600160401b0383118484101761010557808492604094855283398101031261010157610052602061004b83610119565b9201610119565b335f525f602052600160405f205560405191337fdd0e34038ac38b2a1ce960229778ac48a8719bc900b6c4f8d0475c6e8b385a605f80a260805260a052614e49908161012e823960805181612a36015260a0518181816109c40152818161122f015281816115a80152818161215201528181612361015281816129f2015281816134e2015281816136fa01528181613bcf01528181613d9201528181613eaf015281816141760152614a9e0152f35b5f80fd5b634e487b7160e01b5f52604160045260245ffd5b51906001600160a01b03821682036101015756fe60806040526004361015610011575f80fd5b5f3560e01c8062bcc0d0146102835780631066568a1461027e578063116191b61461027957806311dcd791146102745780631495d74f1461026f5780632291371c1461026a57806323b18b471461026557806337fb2bb8146102605780633a4d2cd11461025b5780633e5541f11461025657806350603df3146102515780635544b3d31461024c5780635f3e849f1461024757806365fae35e146102425780636d7e837c1461023d57806372a2fcca1461023857806376016870146102335780637d9492341461022e578063823b6480146102295780638749bfd4146102245780638ae5ecff1461021f5780638b44deb11461021a5780638c025bdc146102155780638c22e9b01461021057806395b734fb1461020b57806397780020146102065780639c52a7f1146102015780639e0223bb146101fc578063a7aaa1d7146101f7578063bf353dbb146101f2578063bf48bcb6146101ed578063c6f1649f146101e8578063d4e8be83146101e3578063dc4c90d3146101de578063dfcd412e146101d9578063e2fdcc17146101d4578063ebf0c717146101cf578063f2e586db146101ca5763fea53be1146101c5575f80fd5b612a7e565b612a65565b612a21565b6129dd565b6129a5565b61297d565b612822565b61272e565b61246c565b612432565b612224565b611ffc565b611f89565b611ea3565b611e71565b611e2a565b611bfa565b611981565b611968565b6117f5565b6117ce565b61165e565b6115ec565b6114f5565b6114a9565b611435565b61131c565b610fe5565b610e65565b610e32565b610da3565b610d22565b610b95565b610acb565b610a7e565b6108fa565b6108a0565b610704565b6102e3565b6001600160a01b0381160361029957565b5f80fd5b60a0906003190112610299576004356102b581610288565b90602435906044356102c681610288565b906064356102d381610288565b906084356102e081610288565b90565b34610299576102f13661029d565b9193929050335f525f60205261030d600160405f205414612b47565b6001600160a01b0383169361032182613f16565b6103356001600160801b0382161515612b89565b604051631f06e1a760e11b8152916020836004818a5afa9283156105fd575f936106d3575b506040516338d52e0f60e01b8152936020856004818b5afa9485156105fd575f956106a2575b5060025461039e906001600160a01b03165b6001600160a01b031690565b6040516305a8f5ef60e21b81526001600160401b03861660048201526001600160a01b03871660248201529790602090899060449082905afa9182156105fd578361042160039361041c6104176104106104369660049f6104749a61040a915f91610673575b50612c6e565b8461316b565b8584613f65565b612cc6565b611e8a565b9060018060a01b03165f5260205260405f2090565b6104526001610449600584015460ff1690565b15151415612d21565b01805461046e9085906001600160801b0316612d93565b612d93565b90612db1565b60015460209061048c906001600160a01b0316610392565b976040519788809263b7adb4c560e01b82525afa9586156105fd575f96610633575b5061051b91906020906104d69060601b6001600160601b0319165b6001600160601b03191690565b6002549095906104ee906001600160a01b0316610392565b6040516317e0b2dd60e11b81526001600160a01b0390921660048301529093849190829081906024820190565b03915afa80156105fd5761059a9461058c935f92610602575b50604051600560fa1b602082015260c09590951b6001600160c01b03191660218601526001600160801b031997881660298601526039850152608090811b871660598501521b90941660698201529283906079820190565b03601f198101845283612bfb565b823b15610299576105c4925f928360405180968195829463202d45d360e01b845260048401612e1d565b03925af180156105fd576105e3575b60405160018152602090f35b0390f35b806105f15f6105f793612bfb565b80610896565b5f6105d3565b612c36565b61062591925060203d60201161062c575b61061d8183612bfb565b810190612e08565b905f610534565b503d610613565b61051b929196506104d66104c9610661602093843d861161066c575b6106598183612bfb565b810190612df3565b9893945050506104ae565b503d61064f565b610695915060203d60201161069b575b61068d8183612bfb565b810190612c56565b5f610404565b503d610683565b6106c591955060203d6020116106cc575b6106bd8183612bfb565b810190612c41565b935f610380565b503d6106b3565b6106f691935060203d6020116106fd575b6106ee8183612bfb565b810190612c21565b915f61035a565b503d6106e4565b346102995760203660031901126102995760043561072181610288565b6002546001600160a01b039182169161073a9116610392565b604051631f06e1a760e11b815291602083600481845afa9283156105fd575f93610875575b5060405163b7adb4c560e01b815291602083600481855afa9182156105fd576004935f93610853575b50602090604051948580926338d52e0f60e01b82525afa9182156105fd576107d1946040945f94610832575b5084516342a1d83f60e11b81529586948593849360048501612e7f565b03915afa80156105fd576105df915f91610801575b506040516001600160401b0390911681529081906020820190565b610823915060403d60401161082b575b61081b8183612bfb565b810190612e5a565b90505f6107e6565b503d610811565b61084c91945060203d6020116106cc576106bd8183612bfb565b925f6107b4565b602091935061086e90823d841161066c576106598183612bfb565b9290610788565b61088f91935060203d6020116106fd576106ee8183612bfb565b915f61075f565b5f91031261029957565b34610299575f366003190112610299576001546040516001600160a01b039091168152602090f35b6060906003190112610299576004356108e081610288565b906024356108ed81610288565b906044356102e081610288565b3461029957600461093361090d366108c8565b939193929092335f525f60205261092a600160405f205414612b47565b61042185611e8a565b0190610962610952610946845460801c90565b6001600160801b031690565b83546001600160801b0316909355565b81610973575b604051828152602090f35b60405163a8d5fd6560e01b815292602090849060049082906001600160a01b03165afa9283156105fd576109ec9360209284925f92610a3a575b505f6040518097819582946323b872dd60e01b84527f000000000000000000000000000000000000000000000000000000000000000060048501612ed6565b03926001600160a01b03165af19182156105fd576105df92610a15915f91610a1b575b50612ef8565b5f610968565b610a34915060203d60201161069b5761068d8183612bfb565b5f610a0f565b610a52919250843d86116106cc576106bd8183612bfb565b905f6109ad565b604090600319011261029957600435610a7181610288565b906024356102e081610288565b34610299576020610a8e36610a59565b6001600160a01b039182165f908152600384526040808220929093168152602091909152206001600160801b03906004905b015416604051908152f35b346102995760206004610b08610ae036610a59565b6001600160a01b039182165f9081526003865260408082209290931681526020919091522090565b015460801c604051908152f35b6001600160401b0381160361029957565b6001600160801b031981160361029957565b6001600160801b0381160361029957565b60a090600319011261029957600435610b6181610b15565b90602435610b6e81610b26565b90604435610b7b81610288565b90606435610b8881610b38565b906084356102e081610b38565b3461029957610bf76020610ba836610b49565b959390919492335f525f8452610bc4600160405f205414612b47565b600254610bd9906001600160a01b0316610392565b91604051958694859384936340de452360e11b855260048501613094565b03915afa9081156105fd575f91610d03575b50610c178261042183611e8a565b60036005820191610c3a6001610c32855460ff9060081c1690565b1515146130c8565b610c5660048201610c5088610469835460801c90565b90612eb3565b0184610c63825460801c90565b6001600160801b038281169082161115610cf857610c8a91610c849161312f565b82612eb3565b5460801c15610ce9575b506001600160a01b031691823b1561029957610cc9925f92836040518096819582946384ce2bf760e01b845260048401613148565b03925af180156105fd57610cd957005b806105f15f610ce793612bfb565b005b805461ff00191690555f610c94565b5050610c8a5f610c84565b610d1c915060203d6020116106cc576106bd8183612bfb565b5f610c09565b34610299576020610d3236610a59565b6001600160a01b039091165f908152600380845260409091206001600160801b0392610ac0919060018060a01b03165f5260205260405f2090565b608090600319011261029957600435610d8581610288565b9060243590604435610d9681610288565b906064356102e081610288565b34610299576020610e18610e29610e08610e0e610dbf36610d6d565b9692939196949094335f525f8952610ddd600160405f205414612b47565b6001600160a01b0385165f90815260038a52604090209060018060a01b03165f5260205260405f2090565b95613f16565b92828480886140e5565b6001808060801b03940154916141fa565b16604051908152f35b34610299576040366003190112610299576020610e5d600435610e5481610288565b6024359061316b565b604051908152f35b3461029957604036600319011261029957600435610e8281610288565b6024356002546001600160a01b0383811691610e9e9116610392565b604051631f06e1a760e11b815291602083600481845afa9283156105fd575f93610fc4575b5060405163b7adb4c560e01b815291602083600481855afa9182156105fd576004935f93610fa2575b50602090604051948580926338d52e0f60e01b82525afa9182156105fd57610f34946040945f94610832575084516342a1d83f60e11b81529586948593849360048501612e7f565b03915afa80156105fd576105df93610f6c93610946935f93610f7c575b50610f5b90613f16565b6001600160801b03909216916141fa565b6040519081529081906020820190565b610f5b919350610f9a9060403d60401161082b5761081b8183612bfb565b509290610f51565b6020919350610fbd90823d841161066c576106598183612bfb565b9290610eec565b610fde91935060203d6020116106fd576106ee8183612bfb565b915f610ec3565b3461029957610ff336610b49565b9390929192335f525f60205261100f600160405f205414612b47565b6001600160801b03851692611025841515613581565b60025461103a906001600160a01b0316610392565b93602060405180966340de452360e11b8252818061105d88888b60048501613094565b03915afa9485156105fd575f956112fb575b5061107d8661042187611e8a565b805488926001600160801b0390911690819081106112c757505080545f92506110b5919061046e908a906001600160801b031661312f565b6110c96110c433888a8961431d565b6135e4565b6001600160801b0381166111df575b50600254611122926020916110f5906001600160a01b0316610392565b60405163cee8983d60e01b81526001600160801b0390921660048301529093849190829081906024820190565b03915afa9182156105fd575f926111a6575b506040516001600160801b0319909116926001600160401b0316915f80516020614df48339815191529190819061116e90899089846136c9565b0390a36001600160a01b031691823b1561029957610cc9925f9283604051809681958294632cdfbae560e01b845280600485016136c9565b5f80516020614df48339815191529192506111d76001600160401b039160203d6020116106cc576106bd8183612bfb565b929150611134565b60405163a8d5fd6560e01b815292906020846004816001600160a01b038a165afa9384156105fd575f946020926112599287926112a8575b5060405163887ca24960e01b815296879384928391907f00000000000000000000000000000000000000000000000000000000000000008e8060048601613640565b03926001600160a01b03165af19081156105fd57611284602092611122955f9161128b575b50613673565b92506110d8565b6112a29150843d861161069b5761068d8183612bfb565b5f61127e565b6112c0919250843d86116106cc576106bd8183612bfb565b905f611217565b6112d3575b50506110b5565b6112f49192506112e3908961312f565b82546001600160801b031916909255565b5f806112cc565b61131591955060203d6020116106cc576106bd8183612bfb565b935f61106f565b34610299576060366003190112610299575f8060043561133b81610288565b60243561134781610288565b82604435338252816020526113626001604084205414612b47565b60405163a9059cbb60e01b602082019081526001600160a01b03909416602482015260448082019290925290815261139b606482612bfb565b51925af16113a76145ea565b81611406575b50156113b557005b60405162461bcd60e51b8152602060048201526024808201527f536166655472616e736665724c69622f736166652d7472616e736665722d66616044820152631a5b195960e21b6064820152608490fd5b805180159250821561141b575b50505f6113ad565b61142e9250602080918301019101612c56565b5f80611413565b346102995760203660031901126102995760043561145281610288565b335f525f602052611469600160405f205414612b47565b6001600160a01b03165f818152602081905260408120600190557fdd0e34038ac38b2a1ce960229778ac48a8719bc900b6c4f8d0475c6e8b385a609080a2005b3461029957602060ff60056114e86114c036610a59565b6001600160a01b039182165f9081526003875260408082209290931681526020919091522090565b0154166040519015158152f35b3461029957600461152d611508366108c8565b9391929093335f525f602052611524600160405f205414612b47565b61042184611e8a565b01805490919061155a90611549906001600160801b0316610946565b83546001600160801b031916909355565b8161156a57604051828152602090f35b6040516338d52e0f60e01b815290602090829060049082906001600160a01b03165afa9081156105fd576105df93610a159284925f916115cd575b507f000000000000000000000000000000000000000000000000000000000000000090614619565b6115e6915060203d6020116106cc576106bd8183612bfb565b5f6115a5565b34610299576020610e5d6115ff36610a59565b906136f3565b60c09060031901126102995760043561161d81610b15565b9060243561162a81610b26565b9060443561163781610288565b9060643561164481610b38565b9060843561165181610b38565b9060a4356102e081610b38565b34610299576116c2602061167136611605565b9396949096959295335f525f845261168f600160405f205414612b47565b6002546116a4906001600160a01b0316610392565b91604051968794859384936340de452360e11b855260048501613094565b03915afa9182156105fd575f926117ad575b506116e28361042184611e8a565b906003600583019261170260016116fa865460ff1690565b151514613861565b600481018054611721919061046e908a906001600160801b0316612d93565b0180549091906001600160801b039081169082168111156117a25761174f916117499161312f565b82612db1565b546001600160801b031615611794575b506001600160a01b031691823b1561029957610cc9925f92836040518096819582946325afeb3360e11b845260048401613148565b805460ff191690555f61175f565b505061174f5f611749565b6117c791925060203d6020116106cc576106bd8183612bfb565b905f6116d4565b3461029957602060ff60056117e56114c036610a59565b015460081c166040519015158152f35b34610299576118286118063661029d565b929050939093335f525f602052611823600160405f205414612b47565b613f16565b9261183d6001600160801b0385161515612b89565b6002546001600160a01b0384811695916118579116610392565b604051631f06e1a760e11b815295602087600481845afa9687156105fd575f97611941575b50906020600492604051938480926338d52e0f60e01b82525afa9081156105fd576118e9976020935f93611922575b506040516305a8f5ef60e21b81526001600160401b0390911660048201526001600160a01b0390921660248301529096879190829081906044820190565b03915afa9384156105fd5761190b611910956105df975f916106735750612c6e565b6145a3565b60405190151581529081906020820190565b61193a919350843d86116106cc576106bd8183612bfb565b915f6118ab565b60049291975061195f602091823d84116106fd576106ee8183612bfb565b9791925061187c565b34610299576020610e5d61197b36610a59565b906138c9565b346102995761198f366108c8565b335f525f6020526119a6600160405f205414612b47565b6119fb60056119d78461042160018060a01b0388169761041c6104176119cc85846138c9565b6104108115156138f7565b016119ec6001610449835460ff9060081c1690565b805461ff001916610100179055565b600154611a10906001600160a01b0316610392565b92604051631f06e1a760e11b8152602081600481855afa9081156105fd575f91611bdb575b5060405163b7adb4c560e01b815293602085600481865afa9485156105fd575f95611bb2575b50611a729060601b6001600160601b0319166104c9565b9160046020611a8b61039260025460018060a01b031690565b92604051928380926338d52e0f60e01b82525afa80156105fd57611ae1926020925f92611b93575b506040516317e0b2dd60e11b81526001600160a01b0390921660048301529092839190829081906024820190565b03915afa80156105fd57611b489361058c925f92611b72575b50604051601960f81b602082015260c09490941b6001600160c01b03191660218501526001600160801b03199687166029850152603984015260801b90941660598201529283906069820190565b823b1561029957610cc9925f928360405180968195829463202d45d360e01b845260048401612e1d565b611b8c91925060203d60201161062c5761061d8183612bfb565b905f611afa565b611bab919250833d85116106cc576106bd8183612bfb565b905f611ab3565b611a72919550611bd36104c99160203d60201161066c576106598183612bfb565b959150611a5b565b611bf4915060203d6020116106fd576106ee8183612bfb565b5f611a35565b3461029957611c08366108c8565b335f525f602052611c1f600160405f205414612b47565b611c756005611c3a8461042160018060a01b03881697611e8a565b6003810154611c57906001600160801b039081165b161515613957565b01611c686001610449835460ff1690565b805460ff19166001179055565b600154611c8a906001600160a01b0316610392565b92604051631f06e1a760e11b8152602081600481855afa9081156105fd575f91611e0b575b5060405163b7adb4c560e01b815293602085600481865afa9485156105fd575f95611de2575b50611cec9060601b6001600160601b0319166104c9565b9160046020611d0561039260025460018060a01b031690565b92604051928380926338d52e0f60e01b82525afa80156105fd57611d5a926020925f92611b9357506040516317e0b2dd60e11b81526001600160a01b0390921660048301529092839190829081906024820190565b03915afa80156105fd57611b489361058c925f92611dc1575b50604051600360fb1b602082015260c09490941b6001600160c01b03191660218501526001600160801b03199687166029850152603984015260801b90941660598201529283906069820190565b611ddb91925060203d60201161062c5761061d8183612bfb565b905f611d73565b611cec919550611e036104c99160203d60201161066c576106598183612bfb565b959150611cd5565b611e24915060203d6020116106fd576106ee8183612bfb565b5f611caf565b34610299576020611e65611e3d36610a59565b6001600160a01b039182165f9081526003855260408082209290931681526020919091522090565b5460801c604051908152f35b34610299576020610e5d611e8436610a59565b906139c8565b6001600160a01b03165f90815260036020526040902090565b3461029957611ee1611eb436610a59565b6001600160a01b039091165f9081526003602052604090209060018060a01b03165f5260205260405f2090565b80546001820154600283015460038401546004850154919492936105df9390926005611f176001600160801b0383169260801c90565b92015460ff808216949160081c16604080516001600160801b038089168252608098891c602083015291810199909952606089019990995288821686890152941c60a0870152861660c086015290941660e0840152921515610100830152911515610120820152908190610140820190565b3461029957602036600319011261029957600435611fa681610288565b335f525f602052611fbd600160405f205414612b47565b6001600160a01b03165f8181526020819052604081208190557f184450df2e323acec0ed3b5c7531b81f9b4cdef7914dfd4c0a4317416bb5251b9080a2005b346102995761202c602061200f36611605565b94909693959295335f525f8452610bc4600160405f205414612b47565b03915afa9081156105fd575f91612205575b5061204c8361042183611e8a565b6003810180546120f09161094691612073906001600160801b039060801c5b1615156138f7565b8561208389610469875460801c90565b6120b26120908a896139c8565b6001600160801b03841692906120ab90611823908590613c96565b90896147ab565b60028701556120cf6120c98b610469895460801c90565b87612eb3565b825460801c908111156121fa576120e991610c849161312f565b5460801c90565b156121e8575b5060405163a8d5fd6560e01b81526001600160a01b039190911690602081600481855afa9081156105fd575f916121c9575b506001600160a01b0316803b15610299575f6040518092632770a7eb60e21b825281838161217a897f000000000000000000000000000000000000000000000000000000000000000060048401613148565b03925af180156105fd576121b5575b50803b1561029957610cc9935f809460405196879586948593630263704b60e01b855260048501613ca3565b806105f15f6121c393612bfb565b5f612189565b6121e2915060203d6020116106cc576106bd8183612bfb565b5f612128565b600501805461ff00191690555f6120f6565b50506120e95f610c84565b61221e915060203d6020116106cc576106bd8183612bfb565b5f61203e565b3461029957612237602061200f36611605565b03915afa9081156105fd575f91612413575b506122578361042183611e8a565b6003810180546122ff9161094691612279906001600160801b03908116611c4f565b6122a761228a896104698a896146f1565b85546122a09089906001600160801b0316612d93565b90876147ab565b600185015583546122cc906122c69088906001600160801b0316612d93565b85612db1565b805488906001600160801b03908116908216811115612408576122f2916117499161312f565b546001600160801b031690565b156123f7575b5060405163a8d5fd6560e01b81526001600160a01b039190911690602081600481855afa9081156105fd575f916123d8575b506001600160a01b0316803b15610299575f60405180926340c10f1960e01b8252818381612389897f000000000000000000000000000000000000000000000000000000000000000060048401613148565b03925af180156105fd576123c4575b50803b1561029957610cc9935f80946040519687958694859363a21ec79f60e01b855260048501613ca3565b806105f15f6123d293612bfb565b5f612398565b6123f1915060203d6020116106cc576106bd8183612bfb565b5f612337565b600501805460ff191690555f612305565b50506122f25f611749565b61242c915060203d6020116106cc576106bd8183612bfb565b5f612249565b346102995760203660031901126102995760043561244f81610288565b60018060a01b03165f525f602052602060405f2054604051908152f35b34610299576020366003190112610299576004356001600160401b0381116102995736602382011215610299578060040135906001600160401b03821161029957366024838301011161029957602401335f525f6020526124d3600160405f205414612b47565b6124e66124e1368484613e73565b614808565b6124ef81612de4565b601681036125775750610ce79161250f61250a368385613e73565b61485f565b9161252361251e368484613e73565b6148ab565b612536612531368585613e73565b6148f8565b9061257161256c61255061254b368888613e73565b614948565b9461256461255f368984613e73565b614995565b963691613e73565b6149a5565b94613ccd565b61258081612de4565b601781036125d35750610ce79161259b61250a368385613e73565b916125aa61251e368484613e73565b6125b8612531368585613e73565b906125cd61256c61255061254b368888613e73565b94613b09565b6125dc81612de4565b601a810361262f5750610ce7916125f761250a368385613e73565b9161260661251e368484613e73565b612614612531368585613e73565b9061262961256c61255061254b368888613e73565b94613741565b61263881612de4565b601b81036126935750610ce79161265361250a368385613e73565b9161266261251e368484613e73565b61268d61255f612676612531368787613e73565b9361268561254b368884613e73565b953691613e73565b93612f5d565b8061269f601c92612de4565b036126df57610ce7916126b661250a368385613e73565b916126c561251e368484613e73565b6126d961255f612676612531368787613e73565b936132db565b60405162461bcd60e51b815260206004820152602160248201527f496e766573746d656e744d616e616765722f696e76616c69642d6d65737361676044820152606560f81b6064820152608490fd5b346102995761273c36610d6d565b90335f525f602052612754600160405f205414612b47565b6001600160801b0361276683866146f1565b1683116127cf57836127816127b5936104216105df97611e8a565b6127ad82806127a86127a26127958a613f16565b600187015494859161428f565b98613f16565b6142e1565b9485916140e5565b6040516001600160801b0390911681529081906020820190565b60405162461bcd60e51b815260206004820152602560248201527f496e766573746d656e744d616e616765722f657863656564732d6d61782d64656044820152641c1bdcda5d60da1b6064820152608490fd5b346102995760403660031901126102995760043560243561284281610288565b335f525f602052612859600160405f205414612b47565b666761746577617960c81b82036128cb57600180546001600160a01b0319166001600160a01b0383161790557f8fef588b5fc1afbf5b2f06c1a435d513f208da2e6704c3d8f0e0ec91167066ba906128c6905b6040516001600160a01b0390911681529081906020820190565b0390a2005b6a3837b7b626b0b730b3b2b960a91b820361292657600280546001600160a01b0319166001600160a01b0383161790557f8fef588b5fc1afbf5b2f06c1a435d513f208da2e6704c3d8f0e0ec91167066ba906128c6906128ac565b60405162461bcd60e51b815260206004820152602960248201527f496e766573746d656e744d616e616765722f66696c652d756e7265636f676e696044820152687a65642d706172616d60b81b6064820152608490fd5b34610299575f366003190112610299576002546040516001600160a01b039091168152602090f35b346102995760206129cb610e29610e086129c1610dbf36610d6d565b9282848088614a11565b600260018060801b03940154916142e1565b34610299575f366003190112610299576040517f00000000000000000000000000000000000000000000000000000000000000006001600160a01b03168152602090f35b34610299575f366003190112610299576040517f00000000000000000000000000000000000000000000000000000000000000006001600160a01b03168152602090f35b34610299576020610e5d612a7836610a59565b90613ea9565b3461029957612a8c36610d6d565b90335f525f602052612aa4600160405f205414612b47565b612aae82856139c8565b8311612af65783612ac86127b5936104216105df97611e8a565b612aee8280612ae96127a2612adc8a613f16565b6002870154948591614252565b6141fa565b948591614a11565b60405162461bcd60e51b8152602060048201526024808201527f496e766573746d656e744d616e616765722f657863656564732d6d61782d72656044820152636465656d60e01b6064820152608490fd5b15612b4e57565b60405162461bcd60e51b8152602060048201526013602482015272105d5d1a0bdb9bdd0b585d5d1a1bdc9a5e9959606a1b6044820152606490fd5b15612b9057565b60405162461bcd60e51b815260206004820152602960248201527f496e766573746d656e744d616e616765722f7a65726f2d616d6f756e742d6e6f6044820152681d0b585b1b1bddd95960ba1b6064820152608490fd5b634e487b7160e01b5f52604160045260245ffd5b90601f801991011681019081106001600160401b03821117612c1c57604052565b612be7565b9081602091031261029957516102e081610b15565b6040513d5f823e3d90fd5b9081602091031261029957516102e081610288565b90816020910312610299575180151581036102995790565b15612c7557565b60405162461bcd60e51b815260206004820152602360248201527f496e766573746d656e744d616e616765722f61737365742d6e6f742d616c6c6f6044820152621dd95960ea1b6064820152608490fd5b15612ccd57565b60405162461bcd60e51b815260206004820152602660248201527f496e766573746d656e744d616e616765722f7472616e736665722d6e6f742d616044820152651b1b1bddd95960d21b6064820152608490fd5b15612d2857565b60405162461bcd60e51b815260206004820152602960248201527f496e766573746d656e744d616e616765722f63616e63656c6c6174696f6e2d69604482015268732d70656e64696e6760b81b6064820152608490fd5b634e487b7160e01b5f52601160045260245ffd5b6001600160801b039182169082160191908211612dac57565b612d7f565b80546001600160801b0319166001600160801b03909216919091179055565b634e487b7160e01b5f52602160045260245ffd5b601d1115612dee57565b612dd0565b9081602091031261029957516102e081610b26565b9081602091031261029957516102e081610b38565b90606060208092959495604085528051918291826040880152018386015e5f828286010152601f80199101168301019360018060a01b0316910152565b91908260409103126102995760208251612e7381610b38565b9201516102e081610b15565b6001600160401b0390911681526001600160801b031990911660208201526001600160a01b03909116604082015260600190565b80546001600160801b031660809290921b6001600160801b031916919091179055565b6001600160a01b03918216815291166020820152604081019190915260600190565b15612eff57565b60405162461bcd60e51b815260206004820152603060248201527f496e766573746d656e744d616e616765722f7472616e6368652d746f6b656e7360448201526f0b5d1c985b9cd9995c8b59985a5b195960821b6064820152608490fd5b92612f7c9293602092335f525f8452610bc4600160405f205414612b47565b03915afa9081156105fd575f91613075575b50612f9c8261042183611e8a565b60036005820191612fb76001610c32855460ff9060081c1690565b612fcd60048201610c5088610469835460801c90565b0184612fda825460801c90565b6001600160801b03828116908216111561306a57612ffb91610c849161312f565b5460801c1561305b575b506001600160a01b031691823b156102995761303a925f92836040518096819582946384ce2bf760e01b845260048401613148565b03925af180156105fd5761304b5750565b806105f15f61305993612bfb565b565b805461ff00191690555f613005565b5050612ffb5f610c84565b61308e915060203d6020116106cc576106bd8183612bfb565b5f612f8e565b6001600160401b0390911681526001600160801b031990911660208201526001600160801b03909116604082015260600190565b156130cf57565b60405162461bcd60e51b815260206004820152603260248201527f496e766573746d656e744d616e616765722f6e6f2d70656e64696e672d63616e60448201527118d95b0b5c995919595b4b5c995c5d595cdd60721b6064820152608490fd5b6001600160801b039182169082160391908211612dac57565b6001600160a01b0390911681526001600160801b03909116602082015260400190565b6002546001600160a01b0382811692916131859116610392565b604051631f06e1a760e11b815292602084600481845afa9384156105fd575f946132ba575b5060405163b7adb4c560e01b815291602083600481855afa9182156105fd576004935f93613298575b50602090604051948580926338d52e0f60e01b82525afa9182156105fd5761321c956040945f94613277575b5084516342a1d83f60e11b81529687948593849360048501612e7f565b03915afa9081156105fd576102e093610946935f93613251575b5061324090613f16565b6001600160801b03909216916142e1565b61324091935061326f9060403d60401161082b5761081b8183612bfb565b509290613236565b61329191945060203d6020116106cc576106bd8183612bfb565b925f6131ff565b60209193506132b390823d841161066c576106598183612bfb565b92906131d3565b6132d491945060203d6020116106fd576106ee8183612bfb565b925f6131aa565b909192335f525f6020526132f5600160405f205414612b47565b6001600160801b0385169261330b841515613581565b600254613320906001600160a01b0316610392565b93602060405180966340de452360e11b8252818061334388888b60048501613094565b03915afa9485156105fd575f95613560575b506133638661042187611e8a565b805488926001600160801b03909116908190811061353d57505080545f925061339b919061046e908a906001600160801b031661312f565b6133aa6110c433888a8961431d565b6001600160801b038116613493575b506002546133d6926020916110f5906001600160a01b0316610392565b03915afa9182156105fd575f9261345a575b506040516001600160801b0319909116926001600160401b0316915f80516020614df48339815191529190819061342290899089846136c9565b0390a36001600160a01b031691823b156102995761303a925f9283604051809681958294632cdfbae560e01b845280600485016136c9565b5f80516020614df483398151915291925061348b6001600160401b039160203d6020116106cc576106bd8183612bfb565b9291506133e8565b60405163a8d5fd6560e01b815292906020846004816001600160a01b038a165afa9384156105fd575f9460209261350c9287926112a8575060405163887ca24960e01b815296879384928391907f00000000000000000000000000000000000000000000000000000000000000008e8060048601613640565b03926001600160a01b03165af19081156105fd576135366020926133d6955f9161128b5750613673565b92506133b9565b613549575b505061339b565b6135599192506112e3908961312f565b5f80613542565b61357a91955060203d6020116106cc576106bd8183612bfb565b935f613355565b1561358857565b60405162461bcd60e51b815260206004820152602e60248201527f496e766573746d656e744d616e616765722f7472616e6368652d746f6b656e2d60448201526d616d6f756e742d69732d7a65726f60901b6064820152608490fd5b156135eb57565b60405162461bcd60e51b815260206004820152602760248201527f496e766573746d656e744d616e616765722f6661696c65642d72656465656d2d6044820152661c995c5d595cdd60ca1b6064820152608490fd5b6001600160a01b039182168152918116602083015290911660408201526001600160801b03909116606082015260800190565b1561367a57565b60405162461bcd60e51b815260206004820152602160248201527f496e766573746d656e744d616e616765722f7472616e736665722d6661696c656044820152601960fa1b6064820152608490fd5b6001600160a01b039182168152911660208201526001600160801b03909116604082015260600190565b9061371f817f000000000000000000000000000000000000000000000000000000000000000084614012565b1561373b576001600160801b039161373791906146f1565b1690565b50505f90565b926137639360209296939596335f525f845261168f600160405f205414612b47565b03915afa9182156105fd575f92613840575b506137838361042184611e8a565b906003600583019261379b60016116fa865460ff1690565b6004810180546137ba919061046e908a906001600160801b0316612d93565b0180549091906001600160801b03908116908216811115613835576137e2916117499161312f565b546001600160801b031615613827575b506001600160a01b031691823b156102995761303a925f92836040518096819582946325afeb3360e11b845260048401613148565b805460ff191690555f6137f2565b50506137e25f611749565b61385a91925060203d6020116106cc576106bd8183612bfb565b905f613775565b1561386857565b60405162461bcd60e51b815260206004820152603360248201527f496e766573746d656e744d616e616765722f6e6f2d70656e64696e672d63616e60448201527218d95b0b59195c1bdcda5d0b5c995c5d595cdd606a1b6064820152608490fd5b6001600160a01b039081165f9081526003602081815260408084209590941683529390935220015460801c90565b156138fe57565b60405162461bcd60e51b815260206004820152602b60248201527f496e766573746d656e744d616e616765722f6e6f2d70656e64696e672d72656460448201526a19595b4b5c995c5d595cdd60aa1b6064820152608490fd5b1561395e57565b60405162461bcd60e51b815260206004820152602c60248201527f496e766573746d656e744d616e616765722f6e6f2d70656e64696e672d64657060448201526b1bdcda5d0b5c995c5d595cdd60a21b6064820152608490fd5b6040519061305961014083612bfb565b610946906139fc6102e09360018060a01b0383165f52600360205260405f209060018060a01b03165f5260205260405f2090565b90613b01613a086139b8565b8354613af490613a3390613a2d6001600160801b0382165b6001600160801b03168552565b60801c90565b6001600160801b0316602083019081529160018601546040820152610120613aed600560028901549860608501998a52613aa0613a906003830154613a2d613a808260018060801b031690565b6001600160801b031660808a0152565b6001600160801b031660a0870152565b60048101546001600160801b03811660c0870152613ad190613ac190613a2d565b6001600160801b031660e0870152565b0154613ae460ff82161515610100860152565b60081c60ff1690565b1515910152565b516001600160801b031690565b9151916142e1565b92613b2a92949593602092335f525f8452610bc4600160405f205414612b47565b03915afa9081156105fd575f91613c77575b50613b4a8361042183611e8a565b600381018054613b6d9161094691612073906001600160801b039060801c61206b565b15613c65575b5060405163a8d5fd6560e01b81526001600160a01b039190911690602081600481855afa9081156105fd575f91613c46575b506001600160a01b0316803b15610299575f6040518092632770a7eb60e21b8252818381613bf7897f000000000000000000000000000000000000000000000000000000000000000060048401613148565b03925af180156105fd57613c32575b50803b156102995761303a935f809460405196879586948593630263704b60e01b855260048501613ca3565b806105f15f613c4093612bfb565b5f613c06565b613c5f915060203d6020116106cc576106bd8183612bfb565b5f613ba5565b600501805461ff00191690555f613b73565b613c90915060203d6020116106cc576106bd8183612bfb565b5f613b3c565b91908201809211612dac57565b6001600160a01b0390911681526001600160801b0391821660208201529116604082015260600190565b92613cee92949593602092335f525f8452610bc4600160405f205414612b47565b03915afa9081156105fd575f91613e39575b50613d0e8361042183611e8a565b600381018054613d309161094691612279906001600160801b03908116611c4f565b15613e28575b5060405163a8d5fd6560e01b81526001600160a01b039190911690602081600481855afa9081156105fd575f91613e09575b506001600160a01b0316803b15610299575f60405180926340c10f1960e01b8252818381613dba897f000000000000000000000000000000000000000000000000000000000000000060048401613148565b03925af180156105fd57613df5575b50803b156102995761303a935f80946040519687958694859363a21ec79f60e01b855260048501613ca3565b806105f15f613e0393612bfb565b5f613dc9565b613e22915060203d6020116106cc576106bd8183612bfb565b5f613d68565b600501805460ff191690555f613d36565b613e52915060203d6020116106cc576106bd8183612bfb565b5f613d00565b6001600160401b038111612c1c57601f01601f191660200190565b929192613e7f82613e58565b91613e8d6040519384612bfb565b829481845281830111610299578281602093845f960137010152565b613ed4827f000000000000000000000000000000000000000000000000000000000000000083614012565b1561373b576001600160a01b03165f9081526003602052604090206001600160801b0391613f11919060018060a01b03165f5260205260405f2090565b541690565b6001600160801b038111156109465760405162461bcd60e51b81526020600482015260186024820152774d6174684c69622f75696e743132382d6f766572666c6f7760401b6044820152606490fd5b60405163a8d5fd6560e01b8152919290602090839060049082906001600160a01b03165afa80156105fd57613fbc936020935f92613ff3575b50604051809581948293630fa1e71360e41b84525f60048501612ed6565b03916001600160a01b03165afa9081156105fd575f91613fda575090565b6102e0915060203d60201161069b5761068d8183612bfb565b61400b919250843d86116106cc576106bd8183612bfb565b905f613f9e565b60405163a8d5fd6560e01b815290602090829060049082906001600160a01b03165afa80156105fd57613fbc936020935f938493614069575b50604051630fa1e71360e41b81529586948593849360048501612ed6565b614081919350853d87116106cc576106bd8183612bfb565b915f61404b565b1561408f57565b60405162461bcd60e51b815260206004820152602860248201527f496e766573746d656e744d616e616765722f657863656564732d6465706f7369604482015267742d6c696d69747360c01b6064820152608490fd5b8054614115926001600160801b039182169181168261410681831115614088565b11156141e05761046e9161312f565b6001600160801b03811661412857505050565b60405163a8d5fd6560e01b815291602090839060049082906001600160a01b03165afa80156105fd5761419e936020935f926141c1575b505f6040518096819582946323b872dd60e01b84527f0000000000000000000000000000000000000000000000000000000000000000600485016136c9565b03926001600160a01b03165af180156105fd57613059915f91610a1b5750612ef8565b6141d9919250843d86116106cc576106bd8183612bfb565b905f61415f565b50505f90612db1565b60ff16604d8111612dac57600a0a90565b909180158015614241575b15614211575050505f90565b5f61423c9161422c6142256102e096614ae5565b9095614c38565b90670de0b6b3a764000091614c95565b614cf2565b506001600160801b03821615614205565b90918015801561427e575b15614269575050505f90565b600161423c9161422c6142256102e096614ae5565b506001600160801b0382161561425d565b9091801580156142d0575b156142a6575050505f90565b600161423c916142c16142bb6102e096614ae5565b95614c38565b670de0b6b3a764000090614c95565b506001600160801b0382161561429a565b90918015801561430c575b156142f8575050505f90565b5f61423c916142c16142bb6102e096614ae5565b506001600160801b038216156142ec565b9290919261436e600361433c8661042160018060a01b03861695611e8a565b600581015460019060081c60ff1615151480159061459b575b61435e90612d21565b01610c5085610469835460801c90565b600154614383906001600160a01b0316610392565b9360405191631f06e1a760e11b8352602083600481845afa9283156105fd575f9361457a575b5060405163b7adb4c560e01b815294602086600481855afa9586156105fd575f96614559575b506002546004906020906143eb906001600160a01b0316610392565b93604051928380926338d52e0f60e01b82525afa80156105fd57614441936020925f9261453a575b506040516317e0b2dd60e11b81526001600160a01b0390921660048301529093849190829081906024820190565b03915afa80156105fd576144c69461058c935f92614519575b5060405197889560601b6001600160601b0319169160208701601560f81b815260c09190911b6001600160c01b03191660018201526001600160801b031991821660098201526019810192909252608092831b811660398301529290911b909116604982015260590190565b823b15610299576144f0925f928360405180968195829463202d45d360e01b845260048401612e1d565b03925af180156105fd57614505575b50600190565b806105f15f61451393612bfb565b5f6144ff565b61453391925060203d60201161062c5761061d8183612bfb565b905f61445a565b614552919250833d85116106cc576106bd8183612bfb565b905f614413565b61457391965060203d60201161066c576106598183612bfb565b945f6143cf565b61459491935060203d6020116106fd576106ee8183612bfb565b915f6143a9565b506001614355565b9290919261436e60036145c28661042160018060a01b03861695611e8a565b600581015460019060081c60ff161515148015906145e35761435e90612d21565b505f614355565b3d15614614573d906145fb82613e58565b916146096040519384612bfb565b82523d5f602084013e565b606090565b905f8094614651829561464360405193849260208401976323b872dd60e01b895260248501612ed6565b03601f198101835282612bfb565b51925af161465d6145ea565b816146c2575b501561466b57565b60405162461bcd60e51b815260206004820152602960248201527f536166655472616e736665724c69622f736166652d7472616e736665722d66726044820152681bdb4b59985a5b195960ba1b6064820152608490fd5b80518015925082156146d7575b50505f614663565b6146ea9250602080918301019101612c56565b5f806146cf565b6001600160a01b0381165f9081526003602052604090206102e092614725919060018060a01b03165f5260205260405f2090565b906147a36147316139b8565b835461475d9061474d90613a2d6001600160801b038216613a20565b6001600160801b03166020830152565b613af461479960056001870154966040850197885260028101546060860152613aa0613a906003830154613a2d613a808260018060801b031690565b1515610120830152565b9151916141fa565b916001600160801b0382161580156147f7575b6147f0576147ea6147da6147d46102e095614ae5565b94614c38565b92670de0b6b3a764000092614c38565b91614d68565b5050505f90565b506001600160801b038116156147be565b6001815110614824576001015160ff16601d811015612dee5790565b60405162461bcd60e51b8152602060048201526013602482015272746f55696e74385f6f75744f66426f756e647360681b6044820152606490fd5b600981511061486f576009015190565b60405162461bcd60e51b8152602060048201526014602482015273746f55696e7436345f6f75744f66426f756e647360601b6044820152606490fd5b60198151106148bb576029015190565b60405162461bcd60e51b8152602060048201526015602482015274746f427974657331365f6f75744f66426f756e647360581b6044820152606490fd5b602d81511061490b576039015160601c90565b60405162461bcd60e51b8152602060048201526015602482015274746f416464726573735f6f75744f66426f756e647360581b6044820152606490fd5b6049815110614958576049015190565b60405162461bcd60e51b8152602060048201526015602482015274746f55696e743132385f6f75744f66426f756e647360581b6044820152606490fd5b6059815110614958576059015190565b6069815110614958576069015190565b156149bc57565b60405162461bcd60e51b815260206004820152602760248201527f496e766573746d656e744d616e616765722f657863656564732d72656465656d6044820152662d6c696d69747360c81b6064820152608490fd5b614a5491949394614a23825460801c90565b906001600160801b0382166001600160801b03821690614a45818311156149b5565b1115614ac357610c509161312f565b6001600160801b03169081614a6857505050565b6040516338d52e0f60e01b815292602090849060049082906001600160a01b03165afa80156105fd57613059935f916115cd57507f000000000000000000000000000000000000000000000000000000000000000090614619565b50505f90612eb3565b90816020910312610299575160ff811681036102995790565b6040516338d52e0f60e01b81526001600160a01b03919091169190602081600481865afa9081156105fd576004916020915f91614c0a575b5060405163313ce56760e01b815292839182906001600160a01b03165afa9081156105fd576004916020915f91614bed575b50936040519283809263a8d5fd6560e01b82525afa9081156105fd576004916020915f91614bd0575b5060405163313ce56760e01b815292839182906001600160a01b03165afa9081156105fd575f91614ba7575090565b6102e0915060203d602011614bc9575b614bc18183612bfb565b810190614acc565b503d614bb7565b614be79150823d84116106cc576106bd8183612bfb565b5f614b78565b614c049150823d8411614bc957614bc18183612bfb565b5f614b4f565b614c219150823d84116106cc576106bd8183612bfb565b5f614b1d565b60ff166012039060ff8211612dac57565b60ff8216601214614c73576001600160801b031690614c5f90614c5a90614c27565b6141e9565b90818102918183041490151715612dac5790565b6001600160801b0316919050565b634e487b7160e01b5f52601260045260245ffd5b9190614ca2828285614d68565b936003811015612dee576001149283614cce575b505050614cc05790565b60018101809111612dac5790565b909180935015614ce3570915155f8080614cb6565b614c81565b8115614ce3570490565b9060ff8116601214614d1a57614c5a614d0a91614c27565b8015614ce3576102e09104613f16565b506102e090613f16565b15614d2b57565b60405162461bcd60e51b81526020600482015260156024820152744d6174683a206d756c446976206f766572666c6f7760581b6044820152606490fd5b90915f198383099280830292838086109503948086039514614de657908291614d92868411614d24565b09600182190182168092046002816003021880820260020302808202600203028082026002030280820260020302808202600203028091026002030293600183805f03040190848311900302920304170290565b5050906102e09250614ce856fee1ef93ae5e860a3df3489160f5a3c48229d1e48740043991b7f4741cba0f7366a2646970667358221220e6b9d5cc4ec6107bba1235608dd14520303e783d636bbad996bab6fec5bb60a164736f6c634300081a0033","linkReferences":{}},"methodIdentifiers":{"cancelDepositRequest(address,address,address)":"8c025bdc","cancelRedeemRequest(address,address,address)":"8b44deb1","claimCancelDepositRequest(address,address,address)":"72a2fcca","claimCancelRedeemRequest(address,address,address)":"11dcd791","claimableCancelDepositRequest(address,address)":"1495d74f","claimableCancelRedeemRequest(address,address)":"2291371c","convertToAssets(address,uint256)":"50603df3","convertToShares(address,uint256)":"3e5541f1","deny(address)":"9c52a7f1","deposit(address,uint256,address,address)":"c6f1649f","escrow()":"e2fdcc17","file(bytes32,address)":"d4e8be83","fulfillCancelDepositRequest(uint64,bytes16,address,uint128,uint128,uint128)":"7d949234","fulfillCancelRedeemRequest(uint64,bytes16,address,uint128,uint128)":"23b18b47","fulfillDepositRequest(uint64,bytes16,address,uint128,uint128,uint128)":"a7aaa1d7","fulfillRedeemRequest(uint64,bytes16,address,uint128,uint128,uint128)":"9e0223bb","gateway()":"116191b6","handle(bytes)":"bf48bcb6","investments(address,address)":"97780020","maxDeposit(address,address)":"76016870","maxMint(address,address)":"f2e586db","maxRedeem(address,address)":"95b734fb","maxWithdraw(address,address)":"8c22e9b0","mint(address,uint256,address,address)":"3a4d2cd1","pendingCancelDepositRequest(address,address)":"6d7e837c","pendingCancelRedeemRequest(address,address)":"823b6480","pendingDepositRequest(address,address)":"37fb2bb8","pendingRedeemRequest(address,address)":"8ae5ecff","poolManager()":"dc4c90d3","priceLastUpdated(address)":"1066568a","recoverTokens(address,address,uint256)":"5f3e849f","redeem(address,uint256,address,address)":"fea53be1","rely(address)":"65fae35e","requestDeposit(address,uint256,address,address,address)":"00bcc0d0","requestRedeem(address,uint256,address,address,address)":"8749bfd4","root()":"ebf0c717","triggerRedeemRequest(uint64,bytes16,address,uint128,uint128)":"5544b3d3","wards(address)":"bf353dbb","withdraw(address,uint256,address,address)":"dfcd412e"},"id":4}