{"abi":[{"type":"constructor","inputs":[{"name":"name","type":"string","internalType":"string"},{"name":"symbol","type":"string","internalType":"string"},{"name":"decimals_","type":"uint8","internalType":"uint8"},{"name":"maxSupply_","type":"uint256","internalType":"uint256"}],"stateMutability":"nonpayable"},{"type":"function","name":"acceptOwnership","inputs":[],"outputs":[],"stateMutability":"nonpayable"},{"type":"function","name":"allowance","inputs":[{"name":"owner","type":"address","internalType":"address"},{"name":"spender","type":"address","internalType":"address"}],"outputs":[{"name":"","type":"uint256","internalType":"uint256"}],"stateMutability":"view"},{"type":"function","name":"approve","inputs":[{"name":"spender","type":"address","internalType":"address"},{"name":"amount","type":"uint256","internalType":"uint256"}],"outputs":[{"name":"","type":"bool","internalType":"bool"}],"stateMutability":"nonpayable"},{"type":"function","name":"balanceOf","inputs":[{"name":"account","type":"address","internalType":"address"}],"outputs":[{"name":"","type":"uint256","internalType":"uint256"}],"stateMutability":"view"},{"type":"function","name":"burn","inputs":[{"name":"amount","type":"uint256","internalType":"uint256"}],"outputs":[],"stateMutability":"nonpayable"},{"type":"function","name":"burn","inputs":[{"name":"account","type":"address","internalType":"address"},{"name":"amount","type":"uint256","internalType":"uint256"}],"outputs":[],"stateMutability":"nonpayable"},{"type":"function","name":"burnFrom","inputs":[{"name":"account","type":"address","internalType":"address"},{"name":"amount","type":"uint256","internalType":"uint256"}],"outputs":[],"stateMutability":"nonpayable"},{"type":"function","name":"decimals","inputs":[],"outputs":[{"name":"","type":"uint8","internalType":"uint8"}],"stateMutability":"view"},{"type":"function","name":"decreaseAllowance","inputs":[{"name":"spender","type":"address","internalType":"address"},{"name":"subtractedValue","type":"uint256","internalType":"uint256"}],"outputs":[{"name":"","type":"bool","internalType":"bool"}],"stateMutability":"nonpayable"},{"type":"function","name":"decreaseApproval","inputs":[{"name":"spender","type":"address","internalType":"address"},{"name":"subtractedValue","type":"uint256","internalType":"uint256"}],"outputs":[{"name":"success","type":"bool","internalType":"bool"}],"stateMutability":"nonpayable"},{"type":"function","name":"getBurners","inputs":[],"outputs":[{"name":"","type":"address[]","internalType":"address[]"}],"stateMutability":"view"},{"type":"function","name":"getMinters","inputs":[],"outputs":[{"name":"","type":"address[]","internalType":"address[]"}],"stateMutability":"view"},{"type":"function","name":"grantBurnRole","inputs":[{"name":"burner","type":"address","internalType":"address"}],"outputs":[],"stateMutability":"nonpayable"},{"type":"function","name":"grantMintAndBurnRoles","inputs":[{"name":"burnAndMinter","type":"address","internalType":"address"}],"outputs":[],"stateMutability":"nonpayable"},{"type":"function","name":"grantMintRole","inputs":[{"name":"minter","type":"address","internalType":"address"}],"outputs":[],"stateMutability":"nonpayable"},{"type":"function","name":"increaseAllowance","inputs":[{"name":"spender","type":"address","internalType":"address"},{"name":"addedValue","type":"uint256","internalType":"uint256"}],"outputs":[{"name":"","type":"bool","internalType":"bool"}],"stateMutability":"nonpayable"},{"type":"function","name":"increaseApproval","inputs":[{"name":"spender","type":"address","internalType":"address"},{"name":"addedValue","type":"uint256","internalType":"uint256"}],"outputs":[],"stateMutability":"nonpayable"},{"type":"function","name":"isBurner","inputs":[{"name":"burner","type":"address","internalType":"address"}],"outputs":[{"name":"","type":"bool","internalType":"bool"}],"stateMutability":"view"},{"type":"function","name":"isMinter","inputs":[{"name":"minter","type":"address","internalType":"address"}],"outputs":[{"name":"","type":"bool","internalType":"bool"}],"stateMutability":"view"},{"type":"function","name":"maxSupply","inputs":[],"outputs":[{"name":"","type":"uint256","internalType":"uint256"}],"stateMutability":"view"},{"type":"function","name":"mint","inputs":[{"name":"account","type":"address","internalType":"address"},{"name":"amount","type":"uint256","internalType":"uint256"}],"outputs":[],"stateMutability":"nonpayable"},{"type":"function","name":"name","inputs":[],"outputs":[{"name":"","type":"string","internalType":"string"}],"stateMutability":"view"},{"type":"function","name":"owner","inputs":[],"outputs":[{"name":"","type":"address","internalType":"address"}],"stateMutability":"view"},{"type":"function","name":"revokeBurnRole","inputs":[{"name":"burner","type":"address","internalType":"address"}],"outputs":[],"stateMutability":"nonpayable"},{"type":"function","name":"revokeMintRole","inputs":[{"name":"minter","type":"address","internalType":"address"}],"outputs":[],"stateMutability":"nonpayable"},{"type":"function","name":"supportsInterface","inputs":[{"name":"interfaceId","type":"bytes4","internalType":"bytes4"}],"outputs":[{"name":"","type":"bool","internalType":"bool"}],"stateMutability":"pure"},{"type":"function","name":"symbol","inputs":[],"outputs":[{"name":"","type":"string","internalType":"string"}],"stateMutability":"view"},{"type":"function","name":"totalSupply","inputs":[],"outputs":[{"name":"","type":"uint256","internalType":"uint256"}],"stateMutability":"view"},{"type":"function","name":"transfer","inputs":[{"name":"to","type":"address","internalType":"address"},{"name":"amount","type":"uint256","internalType":"uint256"}],"outputs":[{"name":"","type":"bool","internalType":"bool"}],"stateMutability":"nonpayable"},{"type":"function","name":"transferAndCall","inputs":[{"name":"to","type":"address","internalType":"address"},{"name":"amount","type":"uint256","internalType":"uint256"},{"name":"data","type":"bytes","internalType":"bytes"}],"outputs":[{"name":"success","type":"bool","internalType":"bool"}],"stateMutability":"nonpayable"},{"type":"function","name":"transferFrom","inputs":[{"name":"from","type":"address","internalType":"address"},{"name":"to","type":"address","internalType":"address"},{"name":"amount","type":"uint256","internalType":"uint256"}],"outputs":[{"name":"","type":"bool","internalType":"bool"}],"stateMutability":"nonpayable"},{"type":"function","name":"transferOwnership","inputs":[{"name":"to","type":"address","internalType":"address"}],"outputs":[],"stateMutability":"nonpayable"},{"type":"event","name":"Approval","inputs":[{"name":"owner","type":"address","indexed":true,"internalType":"address"},{"name":"spender","type":"address","indexed":true,"internalType":"address"},{"name":"value","type":"uint256","indexed":false,"internalType":"uint256"}],"anonymous":false},{"type":"event","name":"BurnAccessGranted","inputs":[{"name":"burner","type":"address","indexed":true,"internalType":"address"}],"anonymous":false},{"type":"event","name":"BurnAccessRevoked","inputs":[{"name":"burner","type":"address","indexed":true,"internalType":"address"}],"anonymous":false},{"type":"event","name":"MintAccessGranted","inputs":[{"name":"minter","type":"address","indexed":true,"internalType":"address"}],"anonymous":false},{"type":"event","name":"MintAccessRevoked","inputs":[{"name":"minter","type":"address","indexed":true,"internalType":"address"}],"anonymous":false},{"type":"event","name":"OwnershipTransferRequested","inputs":[{"name":"from","type":"address","indexed":true,"internalType":"address"},{"name":"to","type":"address","indexed":true,"internalType":"address"}],"anonymous":false},{"type":"event","name":"OwnershipTransferred","inputs":[{"name":"from","type":"address","indexed":true,"internalType":"address"},{"name":"to","type":"address","indexed":true,"internalType":"address"}],"anonymous":false},{"type":"event","name":"Transfer","inputs":[{"name":"from","type":"address","indexed":true,"internalType":"address"},{"name":"to","type":"address","indexed":true,"internalType":"address"},{"name":"value","type":"uint256","indexed":false,"internalType":"uint256"},{"name":"data","type":"bytes","indexed":false,"internalType":"bytes"}],"anonymous":false},{"type":"event","name":"Transfer","inputs":[{"name":"from","type":"address","indexed":true,"internalType":"address"},{"name":"to","type":"address","indexed":true,"internalType":"address"},{"name":"value","type":"uint256","indexed":false,"internalType":"uint256"}],"anonymous":false},{"type":"error","name":"MaxSupplyExceeded","inputs":[{"name":"supplyAfterMint","type":"uint256","internalType":"uint256"}]},{"type":"error","name":"SenderNotBurner","inputs":[{"name":"sender","type":"address","internalType":"address"}]},{"type":"error","name":"SenderNotMinter","inputs":[{"name":"sender","type":"address","internalType":"address"}]}],"bytecode":{"object":"0x60c0604052346103ab57611c8380380380610019816103af565b9283398101906080818303126103ab5780516001600160401b0381116103ab57826100459183016103d4565b602082015190926001600160401b0382116103ab576100659183016103d4565b9060408101519060ff821682036103ab576060015183519091906001600160401b0381116102bc57600354600181811c911680156103a1575b602082101461029e57601f811161033e575b50602094601f82116001146102db579481929394955f926102d0575b50508160011b915f199060031b1c1916176003555b82516001600160401b0381116102bc57600454600181811c911680156102b2575b602082101461029e57601f811161023b575b506020601f82116001146101d857819293945f926101cd575b50508160011b915f199060031b1c1916176004555b331561018857600580546001600160a01b0319163317905560805260a05260405161185d9081610426823960805181610c4f015260a05181818161032e01526109a70152f35b60405162461bcd60e51b815260206004820152601860248201527f43616e6e6f7420736574206f776e657220746f207a65726f00000000000000006044820152606490fd5b015190505f8061012d565b601f1982169060045f52805f20915f5b8181106102235750958360019596971061020b575b505050811b01600455610142565b01515f1960f88460031b161c191690555f80806101fd565b9192602060018192868b0151815501940192016101e8565b60045f527f8a35acfbc15ff81a39ae7d344fd709f28e8600b4aa8c65c6b64bfe7fe36bd19b601f830160051c81019160208410610294575b601f0160051c01905b8181106102895750610114565b5f815560010161027c565b9091508190610273565b634e487b7160e01b5f52602260045260245ffd5b90607f1690610102565b634e487b7160e01b5f52604160045260245ffd5b015190505f806100cc565b601f1982169560035f52805f20915f5b8881106103265750836001959697981061030e575b505050811b016003556100e1565b01515f1960f88460031b161c191690555f8080610300565b919260206001819286850151815501940192016102eb565b60035f527fc2575a0e9e593c00f959f8c92f12db2869c3395a3b0502d05e2516446f71f85b601f830160051c81019160208410610397575b601f0160051c01905b81811061038c57506100b0565b5f815560010161037f565b9091508190610376565b90607f169061009e565b5f80fd5b6040519190601f01601f191682016001600160401b038111838210176102bc57604052565b81601f820112156103ab578051906001600160401b0382116102bc57610403601f8301601f19166020016103af565b92828452602083830101116103ab57815f9260208093018386015e830101529056fe6080806040526004361015610012575f80fd5b5f905f3560e01c90816301ffc9a71461103c5750806306fdde0314610f48578063095ea7b314610e3357806318160ddd14610e1657806323b872dd14610c73578063313ce56714610c365780633950935114610c185780634000aea014610aa557806340c10f191461095c57806342966c68146109115780634334614a146108d85780634f5632f81461087557806366188463146104f65780636b32810b1461080057806370a08231146107c857806379ba50971461071957806379cc6790146104fb57806386fe8b43146106985780638da5cb5b1461066f57806395d89b411461055e5780639dc29fac146104fb578063a457c2d7146104f6578063a9059cbb146104ce578063aa271e1a1461048b578063c2e3273d14610428578063c630948d146103b4578063c64d0ebc14610351578063d5abeb0114610316578063d73dd623146102ec578063dd62ed3e14610299578063f2fde38b146101e35763f81094f31461017e575f80fd5b346101e05760203660031901126101e0576101976110e3565b61019f61144e565b6001600160a01b03166101b181611697565b6101b9575080f35b7fed998b960f6340d045f620c119730f7aa7995e7425c2401d3a5b64ff998a59e98280a280f35b80fd5b50346101e05760203660031901126101e0576101fd6110e3565b61020561144e565b6001600160a01b031633811461025a57600680546001600160a01b031916821790556005546001600160a01b03167fed8889f560326eb138920d842192f0eb3dd22b4f139c87a2c57538e05bae12788380a380f35b60405162461bcd60e51b815260206004820152601760248201527621b0b73737ba103a3930b739b332b9103a379039b2b63360491b6044820152606490fd5b50346101e05760403660031901126101e05760406102b56110e3565b916102be6110f9565b9260018060a01b031681526001602052209060018060a01b03165f52602052602060405f2054604051908152f35b50346101e05760403660031901126101e0576103126103096110e3565b60243590611285565b5080f35b50346101e057806003193601126101e05760206040517f00000000000000000000000000000000000000000000000000000000000000008152f35b50346101e05760203660031901126101e05761036b6110e3565b61037361144e565b6001600160a01b031661038581611797565b61038d575080f35b7f92308bb7573b2a3d17ddb868b39d8ebec433f3194421abc22d084f89658c9bad8280a280f35b50346101e05760203660031901126101e0576103ce6110e3565b6103d661144e565b6001600160a01b03166103e881611742565b6103fe575b6103f561144e565b61038581611797565b807fe46fef8bbff1389d9010703cf8ebb363fb3daf5bf56edc27080b67bc8d9251ea8380a26103ed565b50346101e05760203660031901126101e0576104426110e3565b61044a61144e565b6001600160a01b031661045c81611742565b610464575080f35b7fe46fef8bbff1389d9010703cf8ebb363fb3daf5bf56edc27080b67bc8d9251ea8280a280f35b50346101e05760203660031901126101e05760206104c46001600160a01b036104b26110e3565b165f52600860205260405f2054151590565b6040519015158152f35b50346101e05760403660031901126101e05760206104c46104ed6110e3565b60243590611303565b611131565b50346101e05760403660031901126101e0576105156110e3565b6024359061052e335f52600a60205260405f2054151590565b1561054b579061054891610543823383611371565b6114a0565b80f35b63c820b10b60e01b835233600452602483fd5b50346101e057806003193601126101e0576040519080600454908160011c91600181168015610665575b6020841081146106515783865290811561062a57506001146105cd575b6105c9846105b58186038261110f565b6040519182916020835260208301906110bf565b0390f35b600481527f8a35acfbc15ff81a39ae7d344fd709f28e8600b4aa8c65c6b64bfe7fe36bd19b939250905b808210610610575090915081016020016105b5826105a5565b9192600181602092548385880101520191019092916105f7565b60ff191660208087019190915292151560051b850190920192506105b591508390506105a5565b634e487b7160e01b83526022600452602483fd5b92607f1692610588565b50346101e057806003193601126101e0576005546040516001600160a01b039091168152602090f35b50346101e057806003193601126101e05760405160098054808352908352909160208301917f6e1540171b6c0c960b71a7020d9f60077f6af931a8bbf590da0223dacf75c7af915b818110610703576105c9856106f78187038261110f565b60405191829182611222565b82548452602090930192600192830192016106e0565b50346101e057806003193601126101e0576006546001600160a01b038116330361078a5760058054336001600160a01b03198083168217909355929091166006556001600160a01b03167f8be0079c531659141344cd1fd0a4f28419497f9722a3daafe3b4186f6b6457e08380a380f35b60405162461bcd60e51b815260206004820152601660248201527526bab9ba10313290383937b837b9b2b21037bbb732b960511b6044820152606490fd5b50346101e05760203660031901126101e0576020906040906001600160a01b036107f06110e3565b1681528083522054604051908152f35b50346101e057806003193601126101e05760405160078054808352908352909160208301917fa66cc928b5edb82af9bd49922954155ab7b0942694bea4ce44661d9a8736c688915b81811061085f576105c9856106f78187038261110f565b8254845260209093019260019283019201610848565b50346101e05760203660031901126101e05761088f6110e3565b61089761144e565b6001600160a01b03166108a9816115bc565b6108b1575080f35b7f0a675452746933cefe3d74182e78db7afe57ba60eaa4234b5d85e9aa41b0610c8280a280f35b50346101e05760203660031901126101e05760206104c46001600160a01b036108ff6110e3565b165f52600a60205260405f2054151590565b50346101e05760203660031901126101e057610938335f52600a60205260405f2054151590565b1561094957610548600435336114a0565b63c820b10b60e01b815233600452602490fd5b50346101e05760403660031901126101e0576109766110e3565b6024359061098f335f52600860205260405f2054151590565b15610a92576001600160a01b031690308214610a8e577f00000000000000000000000000000000000000000000000000000000000000008015159081610a79575b50610a5b578115610a16575f805160206117e88339815191526020826109f98694600254611264565b60025584845283825260408420818154019055604051908152a380f35b60405162461bcd60e51b815260206004820152601f60248201527f45524332303a206d696e7420746f20746865207a65726f2061646472657373006044820152606490fd5b82610a6a602492600254611264565b63cbbf111360e01b8252600452fd5b9050610a8782600254611264565b115f6109d0565b8280fd5b63e2c8c9d560e01b835233600452602483fd5b34610c00576060366003190112610c0057610abe6110e3565b60243560443567ffffffffffffffff8111610c005736602382011215610c0057806004013567ffffffffffffffff8111610c045760405191610b0a601f8301601f19166020018461110f565b8183523660248383010111610c0057815f926024602093018386013783010152610b348284611303565b5060018060a01b0383169283604051848152604060208201527fe19260aff97b920c7df27010903aeb9c8d2be5d310a2c67824cf3f15396e4c16339180610b7e60408201886110bf565b0390a33b610b92575b602060405160018152f35b823b15610c0057610bcf925f9283604051809681958294635260769b60e11b845233600485015260248401526060604484015260648301906110bf565b03925af18015610bf557610be5575b8080610b87565b5f610bef9161110f565b5f610bde565b6040513d5f823e3d90fd5b5f80fd5b634e487b7160e01b5f52604160045260245ffd5b34610c00576040366003190112610c005760206104c46103096110e3565b34610c00575f366003190112610c0057602060405160ff7f0000000000000000000000000000000000000000000000000000000000000000168152f35b34610c00576060366003190112610c0057610c8c6110e3565b610c946110f9565b60443590610ca3823385611371565b6001600160a01b031691308314610c00576001600160a01b0316908115610dc3578215610d7257815f525f60205260405f2054818110610d1e57815f805160206117e883398151915292602092855f525f84520360405f2055845f525f825260405f20818154019055604051908152a3602060405160018152f35b60405162461bcd60e51b815260206004820152602660248201527f45524332303a207472616e7366657220616d6f756e7420657863656564732062604482015265616c616e636560d01b6064820152608490fd5b60405162461bcd60e51b815260206004820152602360248201527f45524332303a207472616e7366657220746f20746865207a65726f206164647260448201526265737360e81b6064820152608490fd5b60405162461bcd60e51b815260206004820152602560248201527f45524332303a207472616e736665722066726f6d20746865207a65726f206164604482015264647265737360d81b6064820152608490fd5b34610c00575f366003190112610c00576020600254604051908152f35b34610c00576040366003190112610c0057610e4c6110e3565b6001600160a01b0316602435308214610c00573315610ef7578115610ea757335f52600160205260405f20825f526020528060405f20556040519081525f8051602061180883398151915260203392a3602060405160018152f35b60405162461bcd60e51b815260206004820152602260248201527f45524332303a20617070726f766520746f20746865207a65726f206164647265604482015261737360f01b6064820152608490fd5b60405162461bcd60e51b8152602060048201526024808201527f45524332303a20617070726f76652066726f6d20746865207a65726f206164646044820152637265737360e01b6064820152608490fd5b34610c00575f366003190112610c00576040515f6003548060011c90600181168015611032575b60208310811461101e57828552908115610ffa5750600114610f9c575b6105c9836105b58185038261110f565b60035f9081527fc2575a0e9e593c00f959f8c92f12db2869c3395a3b0502d05e2516446f71f85b939250905b808210610fe0575090915081016020016105b5610f8c565b919260018160209254838588010152019101909291610fc8565b60ff191660208086019190915291151560051b840190910191506105b59050610f8c565b634e487b7160e01b5f52602260045260245ffd5b91607f1691610f6f565b34610c00576020366003190112610c00576004359063ffffffff60e01b8216809203610c00576020916336372b0760e01b81149081156110ae575b811561109d575b811561108c575b5015158152f35b6301ffc9a760e01b14905083611085565b63e6599b4d60e01b8114915061107e565b630200057560e51b81149150611077565b805180835260209291819084018484015e5f828201840152601f01601f1916010190565b600435906001600160a01b0382168203610c0057565b602435906001600160a01b0382168203610c0057565b90601f8019910116810190811067ffffffffffffffff821117610c0457604052565b34610c00576040366003190112610c005761114a6110e3565b602435335f52600160205260405f2060018060a01b0383165f5260205260405f20548181106111cf576001600160a01b039092169103308214610c00573315610ef7578115610ea757335f52600160205260405f20825f526020528060405f20556040519081525f8051602061180883398151915260203392a3602060405160018152f35b60405162461bcd60e51b815260206004820152602560248201527f45524332303a2064656372656173656420616c6c6f77616e63652062656c6f77604482015264207a65726f60d81b6064820152608490fd5b60206040818301928281528451809452019201905f5b8181106112455750505090565b82516001600160a01b0316845260209384019390920191600101611238565b9190820180921161127157565b634e487b7160e01b5f52601160045260245ffd5b906112ae90335f52600160205260405f2060018060a01b0384165f5260205260405f2054611264565b6001600160a01b0390911690308214610c00573315610ef7578115610ea757335f52600160205260405f20825f526020528060405f20556040519081525f8051602061180883398151915260203392a3600190565b6001600160a01b031690308214610c00573315610dc3578115610d7257335f525f60205260405f2054818110610d1e578190335f525f6020520360405f2055815f525f60205260405f208181540190556040519081525f805160206117e883398151915260203392a3600190565b6001600160a01b039081165f81815260016020818152604080842095871684529490529290205492939092909181016113ab575b50505050565b818110611409576001600160a01b039093169203308314610c00578115610ef7578215610ea75760205f8051602061180883398151915291835f526001825260405f20855f5282528060405f2055604051908152a35f8080806113a5565b60405162461bcd60e51b815260206004820152601d60248201527f45524332303a20696e73756666696369656e7420616c6c6f77616e63650000006044820152606490fd5b6005546001600160a01b0316330361146257565b60405162461bcd60e51b815260206004820152601660248201527527b7363c9031b0b63630b1363290313c9037bbb732b960511b6044820152606490fd5b6001600160a01b0316801561154457805f525f60205260405f2054918083106114f4576020815f805160206117e8833981519152925f958587528684520360408620558060025403600255604051908152a3565b60405162461bcd60e51b815260206004820152602260248201527f45524332303a206275726e20616d6f756e7420657863656564732062616c616e604482015261636560f01b6064820152608490fd5b60405162461bcd60e51b815260206004820152602160248201527f45524332303a206275726e2066726f6d20746865207a65726f206164647265736044820152607360f81b6064820152608490fd5b80548210156115a8575f5260205f2001905f90565b634e487b7160e01b5f52603260045260245ffd5b5f818152600a60205260409020548015611691575f198101818111611271576009545f1981019190821161127157808203611643575b505050600954801561162f575f190161160c816009611593565b8154905f199060031b1b191690556009555f52600a6020525f6040812055600190565b634e487b7160e01b5f52603160045260245ffd5b61167b611654611665936009611593565b90549060031b1c9283926009611593565b819391549060031b91821b915f19901b19161790565b90555f52600a60205260405f20555f80806115f2565b50505f90565b5f818152600860205260409020548015611691575f198101818111611271576007545f198101919082116112715780820361170a575b505050600754801561162f575f19016116e7816007611593565b8154905f199060031b1b191690556007555f5260086020525f6040812055600190565b61172c61171b611665936007611593565b90549060031b1c9283926007611593565b90555f52600860205260405f20555f80806116cd565b805f52600860205260405f2054155f1461179257600754600160401b811015610c045761177b6116658260018594016007556007611593565b9055600754905f52600860205260405f2055600190565b505f90565b805f52600a60205260405f2054155f1461179257600954600160401b811015610c04576117d06116658260018594016009556009611593565b9055600954905f52600a60205260405f205560019056feddf252ad1be2c89b69c2b068fc378daa952ba7f163c4a11628f55a4df523b3ef8c5be1e5ebec7d5bd14f71427d1e84f3dd0314c0f7b2291e5b200ac8c7c3b925a2646970667358221220d32b080a8768822d3f2905df5d827232b2974e411f166146c9342763cc06667d64736f6c634300081a0033","linkReferences":{}},"methodIdentifiers":{"acceptOwnership()":"79ba5097","allowance(address,address)":"dd62ed3e","approve(address,uint256)":"095ea7b3","balanceOf(address)":"70a08231","burn(address,uint256)":"9dc29fac","burn(uint256)":"42966c68","burnFrom(address,uint256)":"79cc6790","decimals()":"313ce567","decreaseAllowance(address,uint256)":"a457c2d7","decreaseApproval(address,uint256)":"66188463","getBurners()":"86fe8b43","getMinters()":"6b32810b","grantBurnRole(address)":"c64d0ebc","grantMintAndBurnRoles(address)":"c630948d","grantMintRole(address)":"c2e3273d","increaseAllowance(address,uint256)":"39509351","increaseApproval(address,uint256)":"d73dd623","isBurner(address)":"4334614a","isMinter(address)":"aa271e1a","maxSupply()":"d5abeb01","mint(address,uint256)":"40c10f19","name()":"06fdde03","owner()":"8da5cb5b","revokeBurnRole(address)":"4f5632f8","revokeMintRole(address)":"f81094f3","supportsInterface(bytes4)":"01ffc9a7","symbol()":"95d89b41","totalSupply()":"18160ddd","transfer(address,uint256)":"a9059cbb","transferAndCall(address,uint256,bytes)":"4000aea0","transferFrom(address,address,uint256)":"23b872dd","transferOwnership(address)":"f2fde38b"},"id":100}