{"abi":[{"type":"function","name":"fetchPrice","inputs":[],"outputs":[{"name":"","type":"uint256","internalType":"uint256"}],"stateMutability":"nonpayable"},{"type":"function","name":"latestRoundData","inputs":[],"outputs":[{"name":"","type":"uint80","internalType":"uint80"},{"name":"","type":"int256","internalType":"int256"},{"name":"","type":"uint256","internalType":"uint256"},{"name":"","type":"uint256","internalType":"uint256"},{"name":"","type":"uint80","internalType":"uint80"}],"stateMutability":"view"},{"type":"function","name":"setPrice","inputs":[{"name":"_price","type":"uint256","internalType":"uint256"}],"outputs":[],"stateMutability":"nonpayable"}],"bytecode":{"object":"0x60808060405234601c576305f5e1005f5561010190816100218239f35b5f80fdfe60808060405260043610156011575f80fd5b5f3560e01c9081630fdb11cf1460855750806391b7f5ed14606f5763feaf968c146039575f80fd5b34606b575f366003190112606b5760a05f54604051905f825260208201525f60408201525f60608201525f6080820152f35b5f80fd5b34606b576020366003190112606b576004355f55005b34606b575f366003190112606b575f54906402540be4008202918083046402540be400149015171560b7576020918152f35b634e487b7160e01b5f52601160045260245ffdfea264697066735822122011642317720f365782545f0b215b67186cd2f21a713bafaa8993c923a2d3ce6264736f6c634300081a0033","linkReferences":{}},"methodIdentifiers":{"fetchPrice()":"0fdb11cf","latestRoundData()":"feaf968c","setPrice(uint256)":"91b7f5ed"},"id":51}