{"abi":[{"type":"constructor","inputs":[{"name":"_root","type":"address","internalType":"address"},{"name":"deployer","type":"address","internalType":"address"}],"stateMutability":"nonpayable"},{"type":"function","name":"deny","inputs":[{"name":"user","type":"address","internalType":"address"}],"outputs":[],"stateMutability":"nonpayable"},{"type":"function","name":"getAddress","inputs":[{"name":"poolId","type":"uint64","internalType":"uint64"},{"name":"trancheId","type":"bytes16","internalType":"bytes16"},{"name":"decimals","type":"uint8","internalType":"uint8"}],"outputs":[{"name":"","type":"address","internalType":"address"}],"stateMutability":"view"},{"type":"function","name":"newTranche","inputs":[{"name":"poolId","type":"uint64","internalType":"uint64"},{"name":"trancheId","type":"bytes16","internalType":"bytes16"},{"name":"name","type":"string","internalType":"string"},{"name":"symbol","type":"string","internalType":"string"},{"name":"decimals","type":"uint8","internalType":"uint8"},{"name":"trancheWards","type":"address[]","internalType":"address[]"}],"outputs":[{"name":"","type":"address","internalType":"address"}],"stateMutability":"nonpayable"},{"type":"function","name":"rely","inputs":[{"name":"user","type":"address","internalType":"address"}],"outputs":[],"stateMutability":"nonpayable"},{"type":"function","name":"root","inputs":[],"outputs":[{"name":"","type":"address","internalType":"address"}],"stateMutability":"view"},{"type":"function","name":"wards","inputs":[{"name":"","type":"address","internalType":"address"}],"outputs":[{"name":"","type":"uint256","internalType":"uint256"}],"stateMutability":"view"},{"type":"event","name":"Deny","inputs":[{"name":"user","type":"address","indexed":true,"internalType":"address"}],"anonymous":false},{"type":"event","name":"Rely","inputs":[{"name":"user","type":"address","indexed":true,"internalType":"address"}],"anonymous":false}],"bytecode":{"object":"0x60a0346100b257601f612c7b38819003918201601f19168301916001600160401b038311848410176100b65780849260409485528339810103126100b257610046816100ca565b906001600160a01b039061005c906020016100ca565b1690815f525f602052600160405f2055604051917fdd0e34038ac38b2a1ce960229778ac48a8719bc900b6c4f8d0475c6e8b385a605f80a2608052612b9c90816100df8239608051818181607101526102b00152f35b5f80fd5b634e487b7160e01b5f52604160045260245ffd5b51906001600160a01b03821682036100b25756fe60806040526004361015610011575f80fd5b5f803560e01c806365fae35e1461062557806367f28ce7146104ff5780639c52a7f11461048f578063bf353dbb14610454578063e3e0cbfd146100a35763ebf0c7171461005c575f80fd5b346100a057806003193601126100a0576040517f00000000000000000000000000000000000000000000000000000000000000006001600160a01b03168152602090f35b80fd5b503461043c5760c036600319011261043c576100bd610696565b6100c56106ac565b906044356001600160401b03811161043c576100e59036906004016106e4565b906064356001600160401b03811161043c576101059036906004016106e4565b60843560ff811680910361043c5760a435926001600160401b03841161043c573660238501121561043c578360040135956001600160401b03871161043c573660248860051b8701011161043c576101b56101a791335f525f602052610171600160405f205414610739565b60405160c09490941b6001600160c01b031916602085019081526001600160801b03199091166028850152929182906038820190565b03601f1981018352826106c3565b51902090604051906123c78083018381106001600160401b038211176104405760209284926107a0843981520301905ff58015610431576001600160a01b031692833b1561043c575f61023191604051809381926304bd623760e11b8352636e616d6560e01b600484015260406024840152604483019061077b565b038183885af1801561043157610418575b5090829185933b1561036d578361028491604051809381926304bd623760e11b8352651cde5b589bdb60d21b600484015260406024840152604483019061077b565b038183875af19081156103f8578491610403575b5050813b156103f4576040516332fd71af60e11b81527f00000000000000000000000000000000000000000000000000000000000000006001600160a01b03166004820152838160248183875af19081156103f85784916103df575b5050825b84811015610380576024600582901b830101356001600160a01b0381169081900361037c57833b1561037c57604051906332fd71af60e11b82526004820152848160248183885af1908115610371578591610358575b50506001016102f8565b81610362916106c3565b61036d57835f61034e565b8380fd5b6040513d87823e3d90fd5b8480fd5b5050803b156103d057604051639c52a7f160e01b8152306004820152828160248183865af180156103d4576103bb575b602082604051908152f35b6103c68380926106c3565b6103d057816103b0565b5080fd5b6040513d85823e3d90fd5b816103e9916106c3565b6103f457825f6102f4565b8280fd5b6040513d86823e3d90fd5b8161040d916106c3565b6103f457825f610298565b61042791939295505f906106c3565b5f9390915f610242565b6040513d5f823e3d90fd5b5f80fd5b634e487b7160e01b5f52604160045260245ffd5b3461043c57602036600319011261043c576004356001600160a01b0381169081900361043c575f525f602052602060405f2054604051908152f35b3461043c57602036600319011261043c576004356001600160a01b0381169081900361043c57335f525f6020526104cc600160405f205414610739565b805f525f6020525f60408120557f184450df2e323acec0ed3b5c7531b81f9b4cdef7914dfd4c0a4317416bb5251b5f80a2005b3461043c57606036600319011261043c57610518610696565b6105206106ac565b906044359060ff821680920361043c5760405160c09190911b6001600160c01b03191660208281019182526001600160801b031990941660288301529061056a81603881016101a7565b51902060405190916105da6123c7610584868201856106c3565b808452858401906107a0823985604051938185019081528185526105a96040866106c3565b60405194859383850197518091895e840190838201905f8252519283915e01015f815203601f1981018352826106c3565b51902090604051918383019160ff60f81b83523060601b6021850152603584015260558301526055825261060f6075836106c3565b905190206040516001600160a01b039091168152f35b3461043c57602036600319011261043c576004356001600160a01b0381169081900361043c57335f525f602052610662600160405f205414610739565b805f525f602052600160405f20557fdd0e34038ac38b2a1ce960229778ac48a8719bc900b6c4f8d0475c6e8b385a605f80a2005b600435906001600160401b038216820361043c57565b602435906001600160801b03198216820361043c57565b90601f801991011681019081106001600160401b0382111761044057604052565b81601f8201121561043c578035906001600160401b0382116104405760405192610718601f8401601f1916602001856106c3565b8284526020838301011161043c57815f926020809301838601378301015290565b1561074057565b60405162461bcd60e51b8152602060048201526013602482015272105d5d1a0bdb9bdd0b585d5d1a1bdc9a5e9959606a1b6044820152606490fd5b805180835260209291819084018484015e5f828201840152601f01601f191601019056fe610120806040523461017f576020816123c780380380916100208285610183565b83398101031261017f575160ff8116810361017f57335f525f602052600160405f2055337fdd0e34038ac38b2a1ce960229778ac48a8719bc900b6c4f8d0475c6e8b385a605f80a2608052604051610079604082610183565b600a81526943656e7472696675676560b01b6020909101527fe416b338a274162320c79445ae6604141d1cb08275eb27011b69f002dc094d0560a05260408051906100c49082610183565b600181526020810190603160f81b82525190208060c0524660e05260a051906040519060208201927f8b73c3c69bb8fe3d512ecc4cf759cc79239f7b179b0ffacaa9a75d522b39400f8452604083015260608201524660808201523060a082015260a0815261013460c082610183565b5190206101005260405161220c90816101bb8239608051816107e2015260a0518161146f015260c05181611495015260e05181818161110f01526113fa015261010051816114200152f35b5f80fd5b601f909101601f19168101906001600160401b038211908210176101a657604052565b634e487b7160e01b5f52604160045260245ffdfe60806040526004361015610011575f80fd5b5f3560e01c806301ffc9a71461021457806306fdde031461020f578063095ea7b31461020a578063097ac46e1461020557806318160ddd146102005780631b451d28146101fb57806323b872dd146101f657806330adf81f146101f1578063313ce567146101ec5780633644e515146101e757806340c10f19146101e257806365fae35e146101dd5780636a9154aa146101d857806370a08231146101d35780637ecebe00146101ce5780637f4ab1dd146101c95780637f5a7c7b146101c4578063887ca249146101bf57806395d89b41146101ba5780639c52a7f1146101b55780639dc29fac146101b05780639fd5a6cf146101ab578063a9059cbb146101a6578063bf353dbb146101a1578063cd0d00961461019c578063d4ce141514610197578063d4e8be8314610192578063d505accf1461018d578063dd62ed3e14610188578063e8e6dc7514610183578063f815c03d1461017e5763fa1e713014610179575f80fd5b611396565b611356565b611315565b6112be565b611248565b611156565b611132565b6110f8565b6110c1565b610ff3565b610f8f565b610e55565b610de6565b610d41565b610b6e565b610b46565b610ab9565b610a71565b610a18565b610964565b6108f4565b610828565b610806565b6107c9565b61078f565b61075d565b610690565b610673565b610537565b61044c565b610330565b61022f565b6001600160e01b031981160361022b57565b5f80fd5b3461022b57602036600319011261022b57602060043561024e81610219565b63ffffffff60e01b1663f815c03d60e01b8114908115610274575b506040519015158152f35b6301ffc9a760e01b1490505f610269565b90600182811c921680156102b3575b602083101461029f57565b634e487b7160e01b5f52602260045260245ffd5b91607f1691610294565b634e487b7160e01b5f52604160045260245ffd5b90601f8019910116810190811067ffffffffffffffff8211176102f357604052565b6102bd565b805180835260209291819084018484015e5f828201840152601f01601f1916010190565b90602061032d9281815201906102f8565b90565b3461022b575f36600319011261022b576040515f60015461035081610285565b80845290600181169081156103e65750600114610388575b61038483610378818503826102d1565b6040519182918261031c565b0390f35b60015f9081527fb10e2d527612073b26eecdfd717e6a320cf44b4afac2b0732d9fcbe2b7fa0cf6939250905b8082106103cc57509091508101602001610378610368565b9192600181602092548385880101520191019092916103b4565b60ff191660208086019190915291151560051b840190910191506103789050610368565b600435906001600160a01b038216820361022b57565b602435906001600160a01b038216820361022b57565b604435906001600160a01b038216820361022b57565b3461022b57604036600319011261022b5761046561040a565b60243590335f5260056020528161048f8260405f209060018060a01b03165f5260205260405f2090565b556040519182526001600160a01b03169033907f8c5be1e5ebec7d5bd14f71427d1e84f3dd0314c0f7b2291e5b200ac8c7c3b92590602090a360405160018152602090f35b604051906104e36040836102d1565b565b67ffffffffffffffff81116102f357601f01601f191660200190565b92919261050d826104e5565b9161051b60405193846102d1565b82948184528183011161022b578281602093845f960137010152565b3461022b57604036600319011261022b5760043560243567ffffffffffffffff811161022b573660238201121561022b5761057c903690602481600401359101610501565b335f525f602052610593600160405f2054146113b5565b335f525f6020526105aa600160405f2054146113b5565b636e616d6560e01b82036105eb576105e6816103787fe42e0b9a029dc87ccb1029c632e6359090acd0eb032b2b59c811e3ec70160dc693611a3c565b0390a2005b651cde5b589bdb60d21b820361062e576105e6816106297fe42e0b9a029dc87ccb1029c632e6359090acd0eb032b2b59c811e3ec70160dc693611958565b610378565b60405162461bcd60e51b815260206004820152601d60248201527f45524332302f66696c652d756e7265636f676e697a65642d706172616d0000006044820152606490fd5b3461022b575f36600319011261022b576020600354604051908152f35b3461022b57604036600319011261022b576106a961040a565b7fd8c6b8f6ca4977137bd0c05f8e49099e0bbbefe5ed3010bf828a76dbab95831360206106d4610420565b92335f525f82526106eb600160405f2054146113b5565b6001600160a01b039081165f8181526009845260409081902080546001600160a01b03191696909316958617909255905193845292a2005b606090600319011261022b576004356001600160a01b038116810361022b57906024356001600160a01b038116810361022b579060443590565b3461022b57602061078561077036610723565b9061077f828285969533611e76565b93611cad565b6040519015158152f35b3461022b575f36600319011261022b5760206040517f6e71edae12b1b97f4d1f60370fef10105fa2faae0126114a169c64845d6126c98152f35b3461022b575f36600319011261022b57602060405160ff7f0000000000000000000000000000000000000000000000000000000000000000168152f35b3461022b575f36600319011261022b5760206108206113f7565b604051908152f35b3461022b57604036600319011261022b576108e861084461040a565b60243590335f525f60205261085f600160405f2054146113b5565b6001600160a01b038116801515806108ea575b61087b90611d79565b5f8181526007602052604090205461089e906001600160801b031684018361212e565b6108b26108ad84600354611dbd565b600355565b6040518381525f905f805160206121b783398151915290602090a36003546108e3906001600160801b0310156114da565b611b14565b005b5030811415610872565b3461022b57602036600319011261022b5761090d61040a565b335f525f602052610924600160405f2054146113b5565b6001600160a01b03165f818152602081905260408120600190557fdd0e34038ac38b2a1ce960229778ac48a8719bc900b6c4f8d0475c6e8b385a609080a2005b3461022b57604036600319011261022b5761097d61040a565b6024356001600160801b03198116919082900361022b5760207f8fa29948e0a84e3c738d2e921e65fab6e5a02291fe898fd94d60c3c8ee614c4591335f525f8252600160405f2054148015610a04575b6109d690611526565b6001600160a01b03165f8181526007835260409081902080546001600160801b0316861790555193845292a2005b506008546001600160a01b031633146109cd565b3461022b57602036600319011261022b576001600160a01b03610a3961040a565b165f526007602052602060018060801b0360405f205416604051908152f35b6001600160a01b03165f90815260076020526040902090565b3461022b57602036600319011261022b576001600160a01b03610a9261040a565b165f526006602052602060405f2054604051908152f35b6004359060ff8216820361022b57565b3461022b57602036600319011261022b5760ff610ad4610aa9565b16610b1357610384604051610aea6040826102d1565b601081526f1d1c985b9cd9995c8b585b1b1bddd95960821b60208201526040519182918261031c565b610384604051610b246040826102d1565b601081526f1d1c985b9cd9995c8b589b1bd8dad95960821b6020820152610378565b3461022b575f36600319011261022b576008546040516001600160a01b039091168152602090f35b3461022b57608036600319011261022b57610b8761040a565b610b8f610420565b90610b98610436565b60643590335f525f602052610bb3600160405f2054146113b5565b610bbf82828686611e76565b6008546001600160a01b0316801595919491908615610bf8575b61038486610be68961158b565b60405190151581529081906020820190565b9395506020935f90610c1a906001600160a01b03165b6001600160a01b031690565b92610cd6610c38610c2a85610a58565b546001600160801b03191690565b610c72610c47610c2a89610a58565b610c62610c526104d4565b6001600160801b03199094168452565b6001600160801b031916828a0152565b60405163078d18cd60e01b8152998a9788968795600487016001600160a01b03918216815291811660208084019190915292166040820152606081019290925282516001600160801b0319908116608084015292015190911660a082015260c00190565b03925af1918215610d3c5761038492610be6915f91610d0d575b506001600160e01b03191663078d18cd60e01b14925f8080610bd9565b610d2f915060203d602011610d35575b610d2781836102d1565b81019061156b565b5f610cf0565b503d610d1d565b611580565b3461022b575f36600319011261022b576040515f600254610d6181610285565b80845290600181169081156103e65750600114610d885761038483610378818503826102d1565b60025f9081527f405787fa12a823e0f2b7631cc41b3ba8828b3321ca811111fa75cd3aa3bb5ace939250905b808210610dcc57509091508101602001610378610368565b919260018160209254838588010152019101909291610db4565b3461022b57602036600319011261022b57610dff61040a565b335f525f602052610e16600160405f2054146113b5565b6001600160a01b03165f8181526020819052604081208190557f184450df2e323acec0ed3b5c7531b81f9b4cdef7914dfd4c0a4317416bb5251b9080a2005b3461022b57604036600319011261022b576108e8610e7161040a565b60243590335f525f602052610e8c600160405f2054146113b5565b610ebf82610eb8610eac610e9f85610a58565b546001600160801b031690565b6001600160801b031690565b1015611dde565b5f6001600160a01b038216338103610f17575b610eec84610ee5610eac610e9f87610a58565b038461212e565b610ef98460035403600355565b6040518481525f805160206121b783398151915290602090a3611c08565b83610f4b33610f368660018060a01b03165f52600560205260405f2090565b9060018060a01b03165f5260205260405f2090565b5483198103610f5c575b5050610ed2565b610f6882821015611e2a565b03610f8733610f368660018060a01b03165f52600560205260405f2090565b55835f610f55565b3461022b5760a036600319011261022b57610fa861040a565b610fb0610420565b90604435606435906084359367ffffffffffffffff851161022b573660238601121561022b57610fed6108e8953690602481600401359101610501565b9361165d565b3461022b57604036600319011261022b576110ab61100f61040a565b602435906001600160a01b038116801515806110b7575b61102f90611d79565b335f90815260076020526040902054611056908490610eb8906001600160801b0316610eac565b61107083611069610eac610e9f33610a58565b033361212e565b61108a83611083610eac610e9f86610a58565b018361212e565b60405183815233905f805160206121b783398151915290602090a333611cad565b60405160018152602090f35b5030811415611026565b3461022b57602036600319011261022b576001600160a01b036110e261040a565b165f525f602052602060405f2054604051908152f35b3461022b575f36600319011261022b5760206040517f00000000000000000000000000000000000000000000000000000000000000008152f35b3461022b57602061114b61114536610723565b9161181d565b60ff60405191168152f35b3461022b57604036600319011261022b57600435611172610420565b335f525f602052600160405f2054148015611234575b61119190611526565b63686f6f6b60e01b82036111ef57600880546001600160a01b0319166001600160a01b0390921691821790556040519081527f8fef588b5fc1afbf5b2f06c1a435d513f208da2e6704c3d8f0e0ec91167066ba9080602081016105e6565b60405162461bcd60e51b815260206004820152601f60248201527f5472616e6368652f66696c652d756e7265636f676e697a65642d706172616d006044820152606490fd5b506008546001600160a01b03163314611188565b3461022b5760e036600319011261022b5761126161040a565b611269610420565b604435606435906084359260ff8416840361022b576108e89460a4359460c43560408051602081019890985287015260f81b6001600160f81b0319166060860152604185526112b96061866102d1565b61165d565b3461022b57604036600319011261022b57602061130c6112dc61040a565b6112e4610420565b6001600160a01b039182165f9081526005855260408082209290931681526020919091522090565b54604051908152f35b3461022b57602036600319011261022b576001600160a01b0361133661040a565b165f526007602052602060405f20546040519060018060801b0319168152f35b3461022b57602036600319011261022b576001600160a01b0361137761040a565b165f526009602052602060018060a01b0360405f205416604051908152f35b3461022b57602060ff6113ab61114536610723565b1615604051908152f35b156113bc57565b60405162461bcd60e51b8152602060048201526013602482015272105d5d1a0bdb9bdd0b585d5d1a1bdc9a5e9959606a1b6044820152606490fd5b467f000000000000000000000000000000000000000000000000000000000000000003611442577f000000000000000000000000000000000000000000000000000000000000000090565b60405160208101907f8b73c3c69bb8fe3d512ecc4cf759cc79239f7b179b0ffacaa9a75d522b39400f82527f000000000000000000000000000000000000000000000000000000000000000060408201527f000000000000000000000000000000000000000000000000000000000000000060608201524660808201523060a082015260a081526114d460c0826102d1565b51902090565b156114e157565b60405162461bcd60e51b815260206004820152601a60248201527f5472616e6368652f657863656564732d6d61782d737570706c790000000000006044820152606490fd5b1561152d57565b60405162461bcd60e51b8152602060048201526016602482015275151c985b98da194bdb9bdd0b585d5d1a1bdc9a5e995960521b6044820152606490fd5b9081602091031261022b575161032d81610219565b6040513d5f823e3d90fd5b1561159257565b60405162461bcd60e51b815260206004820152601b60248201527f5472616e6368652f7265737472696374696f6e732d6661696c656400000000006044820152606490fd5b156115de57565b60405162461bcd60e51b8152602060048201526014602482015273115490cc8c0bdc195c9b5a5d0b595e1c1a5c995960621b6044820152606490fd5b1561162157565b60405162461bcd60e51b8152602060048201526014602482015273115490cc8c0bda5b9d985b1a590b5c195c9b5a5d60621b6044820152606490fd5b939061177e6117796117bc937f8c5be1e5ebec7d5bd14f71427d1e84f3dd0314c0f7b2291e5b200ac8c7c3b9259596611698814211156115d7565b6117386117708a8a611746896117386116c18560018060a01b03165f52600660205260405f2090565b9788549860018a0190556116d36113f7565b98604051958694602086019889919260a093969594919660c08401977f6e71edae12b1b97f4d1f60370fef10105fa2faae0126114a169c64845d6126c98552600180871b03166020850152600180861b03166040840152606083015260808201520152565b03601f1981018352826102d1565b519020604051928391602083019586909160429261190160f01b8352600283015260228201520190565b51902088612026565b61161a565b8361179d82610f368860018060a01b03165f52600560205260405f2090565b556040519384526001600160a01b039081169416929081906020820190565b0390a3565b9081602091031261022b5751801515810361022b5790565b6001600160a01b0391821681529116602080830191909152604082019290925282516001600160801b03199081166060830152919092015116608082015260a00190565b60085490926001600160a01b0390911691821561190157602092611849906001600160a01b0316610c0e565b90611856610c2a86610a58565b94611891611866610c2a84610a58565b6118816118716104d4565b6001600160801b03199099168952565b6001600160801b03191687870152565b6118b1604051968795869485946377acde4960e11b8652600486016117d9565b03915afa908115610d3c575f916118d2575b50156118cd575f90565b600190565b6118f4915060203d6020116118fa575b6118ec81836102d1565b8101906117c1565b5f6118c3565b503d6118e2565b505050505f90565b601f821161191657505050565b5f5260205f20906020601f840160051c8301931061194e575b601f0160051c01905b818110611943575050565b5f8155600101611938565b909150819061192f565b90815167ffffffffffffffff81116102f35761198081611979600254610285565b6002611909565b602092601f82116001146119c0576119b0929382915f926119b5575b50508160011b915f199060031b1c19161790565b600255565b015190505f8061199c565b60025f52601f198216937f405787fa12a823e0f2b7631cc41b3ba8828b3321ca811111fa75cd3aa3bb5ace915f5b868110611a245750836001959610611a0c575b505050811b01600255565b01515f1960f88460031b161c191690555f8080611a01565b919260206001819286850151815501940192016119ee565b90815167ffffffffffffffff81116102f357611a6481611a5d600154610285565b6001611909565b602092601f8211600114611a9857611a93929382915f926119b55750508160011b915f199060031b1c19161790565b600155565b60015f52601f198216937fb10e2d527612073b26eecdfd717e6a320cf44b4afac2b0732d9fcbe2b7fa0cf6915f5b868110611afc5750836001959610611ae4575b505050811b01600155565b01515f1960f88460031b161c191690555f8080611ad9565b91926020600181928685015181550194019201611ac6565b6008546001600160a01b031691821591908215611b38575b50506104e3915061158b565b611bb99360209350611b52906001600160a01b0316610c0e565b905f611b60610c2a82610a58565b93611b9b611b70610c2a83610a58565b611b8b611b7b6104d4565b6001600160801b03199098168852565b6001600160801b03191686880152565b604051631fb8c88760e11b81529687958694859385600486016117d9565b03925af18015610d3c576104e3915f91611be9575b506001600160e01b031916631fb8c88760e11b145f80611b2c565b611c02915060203d602011610d3557610d2781836102d1565b5f611bce565b60085490916001600160a01b03909116801591908215611c2e5750506104e3915061158b565b60209250611c44906001600160a01b0316610c0e565b5f80611c52610c2a87610a58565b95611c8d611c62610c2a84610a58565b611c7d611c6d6104d4565b6001600160801b0319909a168a52565b6001600160801b03191688880152565b611bb960405197889687958694631fb8c88760e11b8652600486016117d9565b60085490926001600160a01b03909116801592908315611cd5575b5050506104e3915061158b565b60209350611ceb906001600160a01b0316610c0e565b905f611cf9610c2a87610a58565b95611d09611c62610c2a85610a58565b611d2960405197889687958694631fb8c88760e11b8652600486016117d9565b03925af18015610d3c576104e3915f91611d5a575b506001600160e01b031916631fb8c88760e11b145f8080611cc8565b611d73915060203d602011610d3557610d2781836102d1565b5f611d3e565b15611d8057565b60405162461bcd60e51b815260206004820152601560248201527445524332302f696e76616c69642d6164647265737360581b6044820152606490fd5b91908201809211611dca57565b634e487b7160e01b5f52601160045260245ffd5b15611de557565b60405162461bcd60e51b815260206004820152601a60248201527f45524332302f696e73756666696369656e742d62616c616e63650000000000006044820152606490fd5b15611e3157565b60405162461bcd60e51b815260206004820152601c60248201527f45524332302f696e73756666696369656e742d616c6c6f77616e6365000000006044820152606490fd5b6001600160a01b0383169390925f805160206121b783398151915292611f199291611f0991611ef29088151580611f8a575b611eb190611d79565b611ec485610eb8610eac610e9f85610a58565b6001600160a01b03818116989081168903611f21575b5084611eeb610eac610e9f84610a58565b039061212e565b82611f02610eac610e9f84610a58565b019061212e565b6040519081529081906020820190565b0390a3600190565b6001600160a01b0382165f908152600560205260409020611f43908290610f36565b548660018201611f55575b5050611eda565b81611f6582611f81941015611e2a565b0391610f368460018060a01b03165f52600560205260405f2090565b555f8086611f4e565b5030891415611ea8565b15611f9b57565b60405162461bcd60e51b815260206004820152601b60248201527f5369676e61747572654c69622f696e76616c69642d7369676e657200000000006044820152606490fd5b60409061032d9392815281602082015201906102f8565b3d15612021573d90612008826104e5565b9161201660405193846102d1565b82523d5f602084013e565b606090565b5f93929091906001600160a01b038316612041811515611f94565b60418251146120d7575b50823b61205757505050565b5f939450906117386120838594936040519283916020830195630b135d3f60e11b875260248401611fe0565b51915afa61208f611ff7565b816120cb575b8161209e575090565b8051630b135d3f60e11b92506001600160e01b0319916120c69181016020908101910161156b565b161490565b80516020149150612095565b60208281015160408085015160608087015183518981525f91821a818801529384019490945282015281805260809060015afa15610d3c575f516001600160a01b031614612125575f61204b565b50600193505050565b906001600160801b0381111561217e5760405162461bcd60e51b81526020600482015260186024820152774d6174684c69622f75696e743132382d6f766572666c6f7760401b6044820152606490fd5b6001600160a01b039091165f90815260076020526040902080546001600160801b0319166001600160801b039290921691909117905556feddf252ad1be2c89b69c2b068fc378daa952ba7f163c4a11628f55a4df523b3efa2646970667358221220cd438c71baea2bc659cd7b7ba1bbdacd759c2fd152e4fe531963c1c3330fd89f64736f6c634300081a0033a2646970667358221220b8728cab3b43a1f05ae5c2fb4b17341f1351049a6a5f64ad36a4c622dcc114e364736f6c634300081a0033","linkReferences":{}},"methodIdentifiers":{"deny(address)":"9c52a7f1","getAddress(uint64,bytes16,uint8)":"67f28ce7","newTranche(uint64,bytes16,string,string,uint8,address[])":"e3e0cbfd","rely(address)":"65fae35e","root()":"ebf0c717","wards(address)":"bf353dbb"},"id":10}