{"abi":[{"type":"constructor","inputs":[{"name":"_escrow","type":"address","internalType":"address"},{"name":"_delay","type":"uint256","internalType":"uint256"},{"name":"deployer","type":"address","internalType":"address"}],"stateMutability":"nonpayable"},{"type":"function","name":"cancelRely","inputs":[{"name":"target","type":"address","internalType":"address"}],"outputs":[],"stateMutability":"nonpayable"},{"type":"function","name":"delay","inputs":[],"outputs":[{"name":"","type":"uint256","internalType":"uint256"}],"stateMutability":"view"},{"type":"function","name":"deny","inputs":[{"name":"user","type":"address","internalType":"address"}],"outputs":[],"stateMutability":"nonpayable"},{"type":"function","name":"denyContract","inputs":[{"name":"target","type":"address","internalType":"address"},{"name":"user","type":"address","internalType":"address"}],"outputs":[],"stateMutability":"nonpayable"},{"type":"function","name":"endorse","inputs":[{"name":"user","type":"address","internalType":"address"}],"outputs":[],"stateMutability":"nonpayable"},{"type":"function","name":"endorsed","inputs":[{"name":"user","type":"address","internalType":"address"}],"outputs":[{"name":"","type":"bool","internalType":"bool"}],"stateMutability":"view"},{"type":"function","name":"endorsements","inputs":[{"name":"","type":"address","internalType":"address"}],"outputs":[{"name":"","type":"uint256","internalType":"uint256"}],"stateMutability":"view"},{"type":"function","name":"escrow","inputs":[],"outputs":[{"name":"","type":"address","internalType":"address"}],"stateMutability":"view"},{"type":"function","name":"executeScheduledRely","inputs":[{"name":"target","type":"address","internalType":"address"}],"outputs":[],"stateMutability":"nonpayable"},{"type":"function","name":"file","inputs":[{"name":"what","type":"bytes32","internalType":"bytes32"},{"name":"data","type":"uint256","internalType":"uint256"}],"outputs":[],"stateMutability":"nonpayable"},{"type":"function","name":"handle","inputs":[{"name":"message","type":"bytes","internalType":"bytes"}],"outputs":[],"stateMutability":"nonpayable"},{"type":"function","name":"pause","inputs":[],"outputs":[],"stateMutability":"nonpayable"},{"type":"function","name":"paused","inputs":[],"outputs":[{"name":"","type":"bool","internalType":"bool"}],"stateMutability":"view"},{"type":"function","name":"recoverTokens","inputs":[{"name":"target","type":"address","internalType":"address"},{"name":"token","type":"address","internalType":"address"},{"name":"to","type":"address","internalType":"address"},{"name":"amount","type":"uint256","internalType":"uint256"}],"outputs":[],"stateMutability":"nonpayable"},{"type":"function","name":"rely","inputs":[{"name":"user","type":"address","internalType":"address"}],"outputs":[],"stateMutability":"nonpayable"},{"type":"function","name":"relyContract","inputs":[{"name":"target","type":"address","internalType":"address"},{"name":"user","type":"address","internalType":"address"}],"outputs":[],"stateMutability":"nonpayable"},{"type":"function","name":"schedule","inputs":[{"name":"relyTarget","type":"address","internalType":"address"}],"outputs":[{"name":"timestamp","type":"uint256","internalType":"uint256"}],"stateMutability":"view"},{"type":"function","name":"scheduleRely","inputs":[{"name":"target","type":"address","internalType":"address"}],"outputs":[],"stateMutability":"nonpayable"},{"type":"function","name":"unpause","inputs":[],"outputs":[],"stateMutability":"nonpayable"},{"type":"function","name":"veto","inputs":[{"name":"user","type":"address","internalType":"address"}],"outputs":[],"stateMutability":"nonpayable"},{"type":"function","name":"wards","inputs":[{"name":"","type":"address","internalType":"address"}],"outputs":[{"name":"","type":"uint256","internalType":"uint256"}],"stateMutability":"view"},{"type":"event","name":"CancelRely","inputs":[{"name":"target","type":"address","indexed":true,"internalType":"address"}],"anonymous":false},{"type":"event","name":"Deny","inputs":[{"name":"user","type":"address","indexed":true,"internalType":"address"}],"anonymous":false},{"type":"event","name":"DenyContract","inputs":[{"name":"target","type":"address","indexed":true,"internalType":"address"},{"name":"user","type":"address","indexed":true,"internalType":"address"}],"anonymous":false},{"type":"event","name":"Endorse","inputs":[{"name":"user","type":"address","indexed":true,"internalType":"address"}],"anonymous":false},{"type":"event","name":"File","inputs":[{"name":"what","type":"bytes32","indexed":true,"internalType":"bytes32"},{"name":"data","type":"uint256","indexed":false,"internalType":"uint256"}],"anonymous":false},{"type":"event","name":"Pause","inputs":[],"anonymous":false},{"type":"event","name":"RecoverTokens","inputs":[{"name":"target","type":"address","indexed":true,"internalType":"address"},{"name":"token","type":"address","indexed":true,"internalType":"address"},{"name":"to","type":"address","indexed":true,"internalType":"address"},{"name":"amount","type":"uint256","indexed":false,"internalType":"uint256"}],"anonymous":false},{"type":"event","name":"Rely","inputs":[{"name":"user","type":"address","indexed":true,"internalType":"address"}],"anonymous":false},{"type":"event","name":"RelyContract","inputs":[{"name":"target","type":"address","indexed":true,"internalType":"address"},{"name":"user","type":"address","indexed":true,"internalType":"address"}],"anonymous":false},{"type":"event","name":"ScheduleRely","inputs":[{"name":"target","type":"address","indexed":true,"internalType":"address"},{"name":"scheduledTime","type":"uint256","indexed":true,"internalType":"uint256"}],"anonymous":false},{"type":"event","name":"Unpause","inputs":[],"anonymous":false},{"type":"event","name":"Veto","inputs":[{"name":"user","type":"address","indexed":true,"internalType":"address"}],"anonymous":false}],"bytecode":{"object":"0x60a03461010457601f6111c138819003918201601f19168301916001600160401b0383118484101761010857808492606094604052833981010312610104576100478161011c565b6020820151916001600160a01b03906100629060400161011c565b16805f525f602052600160405f2055604051907fdd0e34038ac38b2a1ce960229778ac48a8719bc900b6c4f8d0475c6e8b385a605f80a26224ea0083116100c257506080526002556040516110909081610131823960805181610b860152f35b62461bcd60e51b815260206004820152601360248201527f526f6f742f64656c61792d746f6f2d6c6f6e67000000000000000000000000006044820152606490fd5b5f80fd5b634e487b7160e01b5f52604160045260245ffd5b51906001600160a01b03821682036101045756fe60806040526004361015610011575f80fd5b5f3560e01c806301257c1a1461016457806301d156021461015f57806311fd3baa1461015a57806326ae21a91461015557806329ae811414610150578063316bef981461014b578063373e73f8146101465780633b687461146101415780633f4ba83a1461013c5780635c975abb1461013757806365fae35e146101325780636a42b8f81461012d5780636ea5511f146101285780638456cb5914610123578063854b89d51461011e57806395a2ef2a146101195780639c52a7f114610114578063bf353dbb1461010f578063bf48bcb61461010a578063e2fdcc17146101055763fe0ac3e714610100575f80fd5b610bb5565b610b71565b6109fc565b6109c5565b610956565b610863565b610828565b6107cf565b61075f565b610742565b6106d2565b6106b0565b610659565b6105d2565b610512565b6104da565b6103d0565b610361565b6102db565b6101e7565b6101af565b600435906001600160a01b038216820361017f57565b5f80fd5b602435906001600160a01b038216820361017f57565b604435906001600160a01b038216820361017f57565b3461017f57602036600319011261017f576001600160a01b036101d0610169565b165f526003602052602060405f2054604051908152f35b3461017f57602036600319011261017f57610200610169565b6001600160a01b0381165f81815260046020526040902054610223901515610c70565b805f52600460205260405f2054421061029e578161029b9161025e6102585f9560018060a01b03165f525f60205260405f2090565b60019055565b7fdd0e34038ac38b2a1ce960229778ac48a8719bc900b6c4f8d0475c6e8b385a608480a26001600160a01b03165f90815260046020526040902090565b55005b60405162461bcd60e51b8152602060048201526015602482015274526f6f742f7461726765742d6e6f742d726561647960581b6044820152606490fd5b3461017f57602036600319011261017f576102f4610169565b335f525f60205261030b600160405f205414610cb8565b6001600160a01b03165f8181526004602052604090205461032d901515610c70565b805f5260046020525f60408120557f12954ba8e01160103c697e7401f753d82b965f8d0a45781718b422502ff774fe5f80a2005b3461017f57602036600319011261017f5761037a610169565b335f525f602052610391600160405f205414610cb8565b6001600160a01b03165f8181526003602052604081208190557f1c24a27ac669c0278656c76cc711441c8dd32d21c32227dad2b42bf6271e8fae9080a2005b3461017f57604036600319011261017f57600435602435335f525f6020526103fe600160405f205414610cb8565b6464656c617960d81b8203610495576224ea00811161045a57610455816104457fe986e40cc8c151830d4f61050f4fb2e4add8567caad2d5f5496f9158e91fe4c793600255565b6040519081529081906020820190565b0390a2005b60405162461bcd60e51b8152602060048201526013602482015272526f6f742f64656c61792d746f6f2d6c6f6e6760681b6044820152606490fd5b60405162461bcd60e51b815260206004820152601c60248201527f526f6f742f66696c652d756e7265636f676e697a65642d706172616d000000006044820152606490fd5b3461017f57602036600319011261017f576001600160a01b036104fb610169565b165f526004602052602060405f2054604051908152f35b3461017f575f604036600319011261017f5761052c610169565b610534610183565b90335f525f60205261054c600160405f205414610cb8565b6001600160a01b0316803b1561017f576040516332fd71af60e11b81526001600160a01b0390921660048301819052915f8160248183865af180156105cd576105b8575b507fe032f99b24b97d34237bef09a8f08752cb036f47cd0ff63043ae749d4ffd18838380a380f35b6105c59193505f90610d7b565b5f915f610590565b610da2565b3461017f57602036600319011261017f576105eb610169565b335f525f602052610602600160405f205414610cb8565b61060e60025442610e11565b6001600160a01b039091165f8181526004602052604081208390557f642e41875b0eb08854d0256dba9a007f64aa9cd4cf23e127426c2afb166a372b9080a3005b5f91031261017f57565b3461017f575f36600319011261017f57335f525f602052610680600160405f205414610cb8565b60ff19600154166001557f7805862f689e2f13df9f062ff482ad3ad112aca9e0847911ed832e158c525b335f80a1005b3461017f575f36600319011261017f57602060ff600154166040519015158152f35b3461017f57602036600319011261017f576106eb610169565b335f525f602052610702600160405f205414610cb8565b6001600160a01b03165f818152602081905260408120600190557fdd0e34038ac38b2a1ce960229778ac48a8719bc900b6c4f8d0475c6e8b385a609080a2005b3461017f575f36600319011261017f576020600254604051908152f35b3461017f57602036600319011261017f57610778610169565b335f525f60205261078f600160405f205414610cb8565b6001600160a01b03165f818152600360205260408120600190557fcf09648f68da83a35dee880bfc05f635fe373c3ba860b4322a8190febc6a1ac19080a2005b3461017f575f36600319011261017f57335f525f6020526107f6600160405f205414610cb8565b600160ff19815416176001557f6985a02210a168e66602d3235cb6db0e70f92b3ba4d376a33c0f3d9434bff6255f80a1005b3461017f57602036600319011261017f576001600160a01b03610849610169565b165f5260036020526020600160405f205414604051908152f35b3461017f57608036600319011261017f5761087c610169565b610884610183565b61088c610199565b9060643592335f525f6020526108a8600160405f205414610cb8565b6001600160a01b031690813b1561017f57604051635f3e849f60e01b81526001600160a01b0391821660048201819052939091166024820181905260448201859052935f8260648183875af19081156105cd577fa6e4b0db65070e00ef7e36f84930a21033d32cce5b93c77cbe0641c7147df21f926109379261093c575b506040519081529081906020820190565b0390a4005b8061094a5f61095093610d7b565b8061064f565b5f610926565b3461017f57602036600319011261017f5761096f610169565b335f525f602052610986600160405f205414610cb8565b6001600160a01b03165f8181526020819052604081208190557f184450df2e323acec0ed3b5c7531b81f9b4cdef7914dfd4c0a4317416bb5251b9080a2005b3461017f57602036600319011261017f576001600160a01b036109e6610169565b165f525f602052602060405f2054604051908152f35b3461017f57602036600319011261017f5760043567ffffffffffffffff811161017f573660238201121561017f5780600401359067ffffffffffffffff821161017f57366024838301011161017f57602401335f525f602052610a65600160405f205414610cb8565b610a78610a73368484610edc565b610f40565b610a8181610f22565b60058103610aa85750610a9c610aa191610aa6933691610edc565b610f97565b610dad565b005b610ab181610f22565b60068103610ad15750610a9c610acc91610aa6933691610edc565b610cfa565b80610add600792610f22565b03610b3557610aa691610af4610a9c368385610edc565b91610b2f610b2a610b0e610b09368686610edc565b610fe7565b92610b22610b1d368784610edc565b610ffa565b943691610edc565b61100d565b92610e32565b60405162461bcd60e51b8152602060048201526014602482015273526f6f742f696e76616c69642d6d65737361676560601b6044820152606490fd5b3461017f575f36600319011261017f576040517f00000000000000000000000000000000000000000000000000000000000000006001600160a01b03168152602090f35b3461017f575f604036600319011261017f57610bcf610169565b610bd7610183565b90335f525f602052610bef600160405f205414610cb8565b6001600160a01b0316803b1561017f57604051639c52a7f160e01b81526001600160a01b0390921660048301819052915f8160248183865af180156105cd57610c5b575b507fd23b91392450f5cbcbeacb8d5fd17534719b16f8bdde4b9b637d25c3e155cd2a8380a380f35b610c689193505f90610d7b565b5f915f610c33565b15610c7757565b60405162461bcd60e51b8152602060048201526019602482015278149bdbdd0bdd185c99d95d0b5b9bdd0b5cd8da19591d5b1959603a1b6044820152606490fd5b15610cbf57565b60405162461bcd60e51b8152602060048201526013602482015272105d5d1a0bdb9bdd0b585d5d1a1bdc9a5e9959606a1b6044820152606490fd5b335f525f602052610d11600160405f205414610cb8565b6001600160a01b03165f81815260046020526040902054610d33901515610c70565b805f5260046020525f60408120557f12954ba8e01160103c697e7401f753d82b965f8d0a45781718b422502ff774fe5f80a2565b634e487b7160e01b5f52604160045260245ffd5b90601f8019910116810190811067ffffffffffffffff821117610d9d57604052565b610d67565b6040513d5f823e3d90fd5b335f525f602052610dc4600160405f205414610cb8565b610dd060025442610e11565b6001600160a01b039091165f8181526004602052604081208390557f642e41875b0eb08854d0256dba9a007f64aa9cd4cf23e127426c2afb166a372b9080a3565b91908201809211610e1e57565b634e487b7160e01b5f52601160045260245ffd5b335f525f602052610e49600160405f205414610cb8565b6001600160a01b031690813b1561017f57604051635f3e849f60e01b81526001600160a01b0391821660048201819052939091166024820181905260448201859052935f8260648183875af19081156105cd577fa6e4b0db65070e00ef7e36f84930a21033d32cce5b93c77cbe0641c7147df21f92610ed79261093c57506040519081529081906020820190565b0390a4565b92919267ffffffffffffffff8211610d9d5760405191610f06601f8201601f191660200184610d7b565b82948184528183011161017f578281602093845f960137010152565b601d1115610f2c57565b634e487b7160e01b5f52602160045260245ffd5b6001815110610f5c576001015160ff16601d811015610f2c5790565b60405162461bcd60e51b8152602060048201526013602482015272746f55696e74385f6f75744f66426f756e647360681b6044820152606490fd5b6015815110610faa576021015160601c90565b60405162461bcd60e51b8152602060048201526015602482015274746f416464726573735f6f75744f66426f756e647360581b6044820152606490fd5b6035815110610faa576041015160601c90565b6055815110610faa576061015160601c90565b608181511061101d576081015190565b60405162461bcd60e51b8152602060048201526015602482015274746f55696e743235365f6f75744f66426f756e647360581b6044820152606490fdfea264697066735822122056fd4743f05fa8dd9eb0cb316e51cbb25c8135a069dd4777f80424ea77ab2fa864736f6c634300081a0033","linkReferences":{}},"methodIdentifiers":{"cancelRely(address)":"11fd3baa","delay()":"6a42b8f8","deny(address)":"9c52a7f1","denyContract(address,address)":"fe0ac3e7","endorse(address)":"6ea5511f","endorsed(address)":"854b89d5","endorsements(address)":"01257c1a","escrow()":"e2fdcc17","executeScheduledRely(address)":"01d15602","file(bytes32,uint256)":"29ae8114","handle(bytes)":"bf48bcb6","pause()":"8456cb59","paused()":"5c975abb","recoverTokens(address,address,address,uint256)":"95a2ef2a","rely(address)":"65fae35e","relyContract(address,address)":"373e73f8","schedule(address)":"316bef98","scheduleRely(address)":"3b687461","unpause()":"3f4ba83a","veto(address)":"26ae21a9","wards(address)":"bf353dbb"},"id":6}