{"abi":[{"type":"constructor","inputs":[{"name":"escrow_","type":"address","internalType":"address"},{"name":"gateway_","type":"address","internalType":"address"},{"name":"poolManager_","type":"address","internalType":"address"}],"stateMutability":"nonpayable"},{"type":"function","name":"INITIATOR_SLOT","inputs":[],"outputs":[{"name":"","type":"bytes32","internalType":"bytes32"}],"stateMutability":"view"},{"type":"function","name":"cancelDepositRequest","inputs":[{"name":"vault","type":"address","internalType":"address"},{"name":"topUpAmount","type":"uint256","internalType":"uint256"}],"outputs":[],"stateMutability":"payable"},{"type":"function","name":"cancelRedeemRequest","inputs":[{"name":"vault","type":"address","internalType":"address"},{"name":"topUpAmount","type":"uint256","internalType":"uint256"}],"outputs":[],"stateMutability":"payable"},{"type":"function","name":"claimCancelDepositRequest","inputs":[{"name":"vault","type":"address","internalType":"address"},{"name":"receiver","type":"address","internalType":"address"},{"name":"controller","type":"address","internalType":"address"}],"outputs":[],"stateMutability":"payable"},{"type":"function","name":"claimCancelRedeemRequest","inputs":[{"name":"vault","type":"address","internalType":"address"},{"name":"receiver","type":"address","internalType":"address"},{"name":"controller","type":"address","internalType":"address"}],"outputs":[],"stateMutability":"payable"},{"type":"function","name":"claimDeposit","inputs":[{"name":"vault","type":"address","internalType":"address"},{"name":"receiver","type":"address","internalType":"address"},{"name":"controller","type":"address","internalType":"address"}],"outputs":[],"stateMutability":"payable"},{"type":"function","name":"claimRedeem","inputs":[{"name":"vault","type":"address","internalType":"address"},{"name":"receiver","type":"address","internalType":"address"},{"name":"controller","type":"address","internalType":"address"}],"outputs":[],"stateMutability":"payable"},{"type":"function","name":"deny","inputs":[{"name":"user","type":"address","internalType":"address"}],"outputs":[],"stateMutability":"nonpayable"},{"type":"function","name":"disable","inputs":[{"name":"vault","type":"address","internalType":"address"}],"outputs":[],"stateMutability":"nonpayable"},{"type":"function","name":"enable","inputs":[{"name":"vault","type":"address","internalType":"address"}],"outputs":[],"stateMutability":"nonpayable"},{"type":"function","name":"enableLockDepositRequest","inputs":[{"name":"vault","type":"address","internalType":"address"},{"name":"amount","type":"uint256","internalType":"uint256"}],"outputs":[],"stateMutability":"payable"},{"type":"function","name":"escrow","inputs":[],"outputs":[{"name":"","type":"address","internalType":"contract IEscrow"}],"stateMutability":"view"},{"type":"function","name":"estimate","inputs":[{"name":"payload","type":"bytes","internalType":"bytes"}],"outputs":[{"name":"amount","type":"uint256","internalType":"uint256"}],"stateMutability":"view"},{"type":"function","name":"executeLockedDepositRequest","inputs":[{"name":"vault","type":"address","internalType":"address"},{"name":"controller","type":"address","internalType":"address"},{"name":"topUpAmount","type":"uint256","internalType":"uint256"}],"outputs":[],"stateMutability":"payable"},{"type":"function","name":"gateway","inputs":[],"outputs":[{"name":"","type":"address","internalType":"contract IGateway"}],"stateMutability":"view"},{"type":"function","name":"getVault","inputs":[{"name":"poolId","type":"uint64","internalType":"uint64"},{"name":"trancheId","type":"bytes16","internalType":"bytes16"},{"name":"asset","type":"address","internalType":"address"}],"outputs":[{"name":"","type":"address","internalType":"address"}],"stateMutability":"view"},{"type":"function","name":"hasPermissions","inputs":[{"name":"vault","type":"address","internalType":"address"},{"name":"controller","type":"address","internalType":"address"}],"outputs":[{"name":"","type":"bool","internalType":"bool"}],"stateMutability":"view"},{"type":"function","name":"isEnabled","inputs":[{"name":"vault","type":"address","internalType":"address"},{"name":"controller","type":"address","internalType":"address"}],"outputs":[{"name":"","type":"bool","internalType":"bool"}],"stateMutability":"view"},{"type":"function","name":"lockDepositRequest","inputs":[{"name":"vault","type":"address","internalType":"address"},{"name":"amount","type":"uint256","internalType":"uint256"},{"name":"controller","type":"address","internalType":"address"},{"name":"owner","type":"address","internalType":"address"}],"outputs":[],"stateMutability":"payable"},{"type":"function","name":"lockedRequests","inputs":[{"name":"controller","type":"address","internalType":"address"},{"name":"vault","type":"address","internalType":"address"}],"outputs":[{"name":"amount","type":"uint256","internalType":"uint256"}],"stateMutability":"view"},{"type":"function","name":"multicall","inputs":[{"name":"data","type":"bytes[]","internalType":"bytes[]"}],"outputs":[],"stateMutability":"payable"},{"type":"function","name":"permit","inputs":[{"name":"asset","type":"address","internalType":"address"},{"name":"spender","type":"address","internalType":"address"},{"name":"assets","type":"uint256","internalType":"uint256"},{"name":"deadline","type":"uint256","internalType":"uint256"},{"name":"v","type":"uint8","internalType":"uint8"},{"name":"r","type":"bytes32","internalType":"bytes32"},{"name":"s","type":"bytes32","internalType":"bytes32"}],"outputs":[],"stateMutability":"payable"},{"type":"function","name":"poolManager","inputs":[],"outputs":[{"name":"","type":"address","internalType":"contract IPoolManager"}],"stateMutability":"view"},{"type":"function","name":"recoverTokens","inputs":[{"name":"token","type":"address","internalType":"address"},{"name":"to","type":"address","internalType":"address"},{"name":"amount","type":"uint256","internalType":"uint256"}],"outputs":[],"stateMutability":"nonpayable"},{"type":"function","name":"rely","inputs":[{"name":"user","type":"address","internalType":"address"}],"outputs":[],"stateMutability":"nonpayable"},{"type":"function","name":"requestDeposit","inputs":[{"name":"vault","type":"address","internalType":"address"},{"name":"amount","type":"uint256","internalType":"uint256"},{"name":"controller","type":"address","internalType":"address"},{"name":"owner","type":"address","internalType":"address"},{"name":"topUpAmount","type":"uint256","internalType":"uint256"}],"outputs":[],"stateMutability":"payable"},{"type":"function","name":"requestRedeem","inputs":[{"name":"vault","type":"address","internalType":"address"},{"name":"amount","type":"uint256","internalType":"uint256"},{"name":"controller","type":"address","internalType":"address"},{"name":"owner","type":"address","internalType":"address"},{"name":"topUpAmount","type":"uint256","internalType":"uint256"}],"outputs":[],"stateMutability":"payable"},{"type":"function","name":"transferAssets","inputs":[{"name":"asset","type":"address","internalType":"address"},{"name":"recipient","type":"address","internalType":"address"},{"name":"amount","type":"uint128","internalType":"uint128"},{"name":"topUpAmount","type":"uint256","internalType":"uint256"}],"outputs":[],"stateMutability":"payable"},{"type":"function","name":"transferAssets","inputs":[{"name":"asset","type":"address","internalType":"address"},{"name":"recipient","type":"bytes32","internalType":"bytes32"},{"name":"amount","type":"uint128","internalType":"uint128"},{"name":"topUpAmount","type":"uint256","internalType":"uint256"}],"outputs":[],"stateMutability":"payable"},{"type":"function","name":"transferAssetsFromProxy","inputs":[{"name":"transferProxy","type":"address","internalType":"address"},{"name":"asset","type":"address","internalType":"address"},{"name":"topUpAmount","type":"uint256","internalType":"uint256"}],"outputs":[],"stateMutability":"payable"},{"type":"function","name":"transferTrancheTokens","inputs":[{"name":"vault","type":"address","internalType":"address"},{"name":"domain","type":"uint8","internalType":"enum Domain"},{"name":"chainId","type":"uint64","internalType":"uint64"},{"name":"recipient","type":"bytes32","internalType":"bytes32"},{"name":"amount","type":"uint128","internalType":"uint128"},{"name":"topUpAmount","type":"uint256","internalType":"uint256"}],"outputs":[],"stateMutability":"payable"},{"type":"function","name":"transferTrancheTokens","inputs":[{"name":"vault","type":"address","internalType":"address"},{"name":"domain","type":"uint8","internalType":"enum Domain"},{"name":"chainId","type":"uint64","internalType":"uint64"},{"name":"recipient","type":"address","internalType":"address"},{"name":"amount","type":"uint128","internalType":"uint128"},{"name":"topUpAmount","type":"uint256","internalType":"uint256"}],"outputs":[],"stateMutability":"payable"},{"type":"function","name":"unlockDepositRequest","inputs":[{"name":"vault","type":"address","internalType":"address"},{"name":"receiver","type":"address","internalType":"address"}],"outputs":[],"stateMutability":"payable"},{"type":"function","name":"unwrap","inputs":[{"name":"wrapper","type":"address","internalType":"address"},{"name":"amount","type":"uint256","internalType":"uint256"},{"name":"receiver","type":"address","internalType":"address"}],"outputs":[],"stateMutability":"payable"},{"type":"function","name":"wards","inputs":[{"name":"","type":"address","internalType":"address"}],"outputs":[{"name":"","type":"uint256","internalType":"uint256"}],"stateMutability":"view"},{"type":"function","name":"wrap","inputs":[{"name":"wrapper","type":"address","internalType":"address"},{"name":"amount","type":"uint256","internalType":"uint256"},{"name":"receiver","type":"address","internalType":"address"},{"name":"owner","type":"address","internalType":"address"}],"outputs":[],"stateMutability":"payable"},{"type":"event","name":"Deny","inputs":[{"name":"user","type":"address","indexed":true,"internalType":"address"}],"anonymous":false},{"type":"event","name":"ExecuteLockedDepositRequest","inputs":[{"name":"vault","type":"address","indexed":true,"internalType":"address"},{"name":"controller","type":"address","indexed":true,"internalType":"address"},{"name":"sender","type":"address","indexed":false,"internalType":"address"}],"anonymous":false},{"type":"event","name":"LockDepositRequest","inputs":[{"name":"vault","type":"address","indexed":true,"internalType":"address"},{"name":"controller","type":"address","indexed":true,"internalType":"address"},{"name":"owner","type":"address","indexed":true,"internalType":"address"},{"name":"sender","type":"address","indexed":false,"internalType":"address"},{"name":"amount","type":"uint256","indexed":false,"internalType":"uint256"}],"anonymous":false},{"type":"event","name":"Rely","inputs":[{"name":"user","type":"address","indexed":true,"internalType":"address"}],"anonymous":false},{"type":"event","name":"UnlockDepositRequest","inputs":[{"name":"vault","type":"address","indexed":true,"internalType":"address"},{"name":"controller","type":"address","indexed":true,"internalType":"address"},{"name":"receiver","type":"address","indexed":true,"internalType":"address"}],"anonymous":false}],"bytecode":{"object":"0x60e03461013957601f61327f38819003918201601f19168301916001600160401b0383118484101761013d578084926060946040528339810103126101395761004781610151565b90610060604061005960208401610151565b9201610151565b90335f525f602052600160405f205560405192337fdd0e34038ac38b2a1ce960229778ac48a8719bc900b6c4f8d0475c6e8b385a605f80a26001600160a01b0390811660805290811660a0521660c052613119908161016682396080518181816105ea01528181611a9e0152818161219301526125d6015260a0518181816104a7015281816113280152612dd9015260c0518181816106810152818161079401528181611a6b01528181611d93015281816121600152818161231a01528181612578015281816129cf01528181612ae20152612bc20152f35b5f80fd5b634e487b7160e01b5f52604160045260245ffd5b51906001600160a01b03821682036101395756fe6080806040526004361015610012575f80fd5b5f3560e01c908163116191b6146113165750806311dcd791146112aa5780631ac6efc9146112595780632f80976a146111ea57806332e0a7f01461119857806337daaa911461114757806345e0a315146110db5780634b5b189f146110b35780634cd8026f146110305780635bfa1b6814610fd45780635f3e849f14610ebc57806365fae35e14610e4c57806372a2fcca14610de05780638b30ad5614610d8a5780638fe3b95514610d2a57806399deddda14610cce5780639c52a7f114610c5f578063aa5408fa14610c0f578063ac9650d814610a22578063b667256b146109d0578063b68f434514610969578063bf353dbb14610932578063c2c32ad5146108d6578063ca7004e7146108a0578063d505accf1461081f578063d76cca03146107c3578063dc4c90d31461077f578063dfb3b55114610619578063e2fdcc17146105d5578063e6c09edf14610579578063e766cc121461041a578063e8a67dad14610370578063ec19a49d1461031a578063ef1b950e14610287578063f70216081461021d5763fa485928146101a8575f80fd5b6060366003190112610219576101bc611357565b6101c461136d565b6101cc611383565b5f805160206130c483398151915292909190835c6001600160a01b0316806102025750916101ff915f949333855d612b5e565b5d005b610217945061021290331461151c565b612b5e565b005b5f80fd5b608036600319011261021957610231611357565b60243561023c6113d3565b5f805160206130c4833981519152926064359290845c6001600160a01b0316806102725750915f9493916101ff9333865d612ac8565b610217955061028290331461151c565b612ac8565b60c03660031901126102195761029b611357565b6024356002811015610219576102af61144d565b6064356001600160a01b0381168103610219576102ca6113e9565b5f805160206130c48339815191529460a4359491939190865c6001600160a01b0316806103055750915f969593916101ff959333885d612a73565b610217975061031590331461151c565b612a73565b61032336611463565b5f805160206130c483398151915294909391929190855c6001600160a01b03168061035b5750916101ff93915f96959333875d612984565b610217965061036b90331461151c565b612984565b3461021957604036600319011261021957610389611357565b602061039361136d565b6040516378d77ecb60e01b81526001600160a01b0391821660048201529283916024918391165afa801561040f575f906103d5575b6020906040519015158152f35b506020813d602011610407575b816103ef602093836114b5565b8101031261021957610402602091611782565b6103c8565b3d91506103e2565b6040513d5f823e3d90fd5b34610219576020366003190112610219576004356001600160401b0381116102195736602382011215610219578060040135906001600160401b03821161021957366024838301011161021957602460445f928460405195869485936373b3660960e11b855260206004860152828286015201848401378181018301859052601f01601f191681010301817f00000000000000000000000000000000000000000000000000000000000000006001600160a01b03165afa801561040f575f906104e9575b602090604051908152f35b503d805f833e6104f981836114b5565b81016040828203126102195781516001600160401b0381116102195782019181601f84011215610219578251602080610531836114ea565b61053e60405191826114b5565b838152019160051b850101928311610219576020809401905b83821061056a57505082915001516104de565b81518152908401908401610557565b3461021957602036600319011261021957610592611357565b5f805160206130c483398151915290815c6001600160a01b0316806105c05750906101ff5f9233835d612943565b61021792506105d090331461151c565b612943565b34610219575f366003190112610219576040517f00000000000000000000000000000000000000000000000000000000000000006001600160a01b03168152602090f35b34610219576060366003190112610219576004356001600160401b038116809103610219576024356001600160801b03198116908190036102195761065c611383565b6040516387e3a56960e01b8152600481019390935260248301919091526020826044817f00000000000000000000000000000000000000000000000000000000000000006001600160a01b03165afa91821561040f575f92610741575b5060405163f815c03d60e01b81526001600160a01b0391821660048201529160209183916024918391165afa801561040f575f90610707575b6040516001600160a01b039091168152602090f35b506020813d602011610739575b81610721602093836114b5565b8101031261021957610734602091611722565b6106f2565b3d9150610714565b9091506020813d602011610777575b8161075d602093836114b5565b8101031261021957610770602091611722565b91906106b9565b3d9150610750565b34610219575f366003190112610219576040517f00000000000000000000000000000000000000000000000000000000000000006001600160a01b03168152602090f35b6040366003190112610219576107d7611357565b5f805160206130c48339815191529060243590825c6001600160a01b03168061080a57505f92916101ff9133845d6128f8565b610217935061081a90331461151c565b6128f8565b60e036600319011261021957610833611357565b61083b61136d565b60443560843560643560ff82168203610219575f805160206130c48339815191529460c4359460a4359491875c6001600160a01b03168061088b5750916101ff9593915f9897959333895d61288d565b610217985061089b90331461151c565b61288d565b346102195760403660031901126102195760206108cc6108be611357565b6108c661136d565b90612817565b6040519015158152f35b6040366003190112610219576108ea611357565b5f805160206130c48339815191529060243590825c6001600160a01b03168061091d57505f92916101ff9133845d6127cc565b610217935061092d90331461151c565b6127cc565b34610219576020366003190112610219576001600160a01b03610953611357565b165f525f602052602060405f2054604051908152f35b60603660031901126102195761097d611357565b602435610988611383565b5f805160206130c483398151915292909190835c6001600160a01b0316806109bb5750916101ff915f949333855d612660565b61021794506109cb90331461151c565b612660565b6109d9366113ff565b5f805160206130c483398151915293909290845c6001600160a01b031680610a0d5750915f9493916101ff9333865d6124f5565b6102179550610a1d90331461151c565b6124f5565b6020366003190112610219576004356001600160401b0381116102195736602382011215610219578060040135610a58816114ea565b91610a6660405193846114b5565b8183526024602084019260051b820101903682116102195760248101925b828410610ba957845f805160206130c4833981519152805c6001600160a01b0316610b595733815d8151915f5b838110610abd575f835d005b8151811015610b45575f8060208360051b85010151602081519101305af4610ae36124c6565b9015610af25750600101610ab1565b8051908115610b0057602001fd5b60405162461bcd60e51b815260206004820152601c60248201527f43656e74726966756765526f757465722f63616c6c2d6661696c6564000000006044820152606490fd5b634e487b7160e01b5f52603260045260245ffd5b60405162461bcd60e51b815260206004820152602260248201527f43656e74726966756765526f757465722f616c72656164792d696e6974696174604482015261195960f21b6064820152608490fd5b83356001600160401b0381116102195782013660438201121561021957602481013591610bd583611501565b610be260405191826114b5565b8381523660448486010111610219575f602085819660448397018386013783010152815201930192610a84565b3461021957604036600319011261021957610c28611357565b610c3061136d565b6001600160a01b039182165f908152600160209081526040808320949093168252928352819020549051908152f35b3461021957602036600319011261021957610c78611357565b335f525f602052610c8f600160405f205414611fe9565b6001600160a01b03165f8181526020819052604081208190557f184450df2e323acec0ed3b5c7531b81f9b4cdef7914dfd4c0a4317416bb5251b9080a2005b604036600319011261021957610ce2611357565b5f805160206130c48339815191529060243590825c6001600160a01b031680610d1557505f92916101ff9133845d6122bf565b6102179350610d2590331461151c565b6122bf565b604036600319011261021957610d3e611357565b610d4661136d565b5f805160206130c483398151915291825c6001600160a01b031680610d7557505f92916101ff9133845d6120ef565b6102179350610d8590331461151c565b6120ef565b610d9336611463565b5f805160206130c483398151915294909391929190855c6001600160a01b031680610dcb5750916101ff93915f96959333875d612080565b6102179650610ddb90331461151c565b612080565b606036600319011261021957610df4611357565b610dfc61136d565b610e04611383565b5f805160206130c483398151915292909190835c6001600160a01b031680610e375750916101ff915f949333855d61202b565b6102179450610e4790331461151c565b61202b565b3461021957602036600319011261021957610e65611357565b335f525f602052610e7c600160405f205414611fe9565b6001600160a01b03165f818152602081905260408120600190557fdd0e34038ac38b2a1ce960229778ac48a8719bc900b6c4f8d0475c6e8b385a609080a2005b34610219575f80610f24610f3282610ed336611399565b94919493909333845283602052610ef06001604086205414611fe9565b60405163a9059cbb60e01b602082019081526001600160a01b03909616602482015260448101919091529182906064820190565b03601f1981018352826114b5565b51925af1610f3e6124c6565b81610f9d575b5015610f4c57005b60405162461bcd60e51b8152602060048201526024808201527f536166655472616e736665724c69622f736166652d7472616e736665722d66616044820152631a5b195960e21b6064820152608490fd5b8051801592508215610fb2575b505081610f44565b8192509060209181010312610219576020610fcd9101611782565b8180610faa565b3461021957602036600319011261021957610fed611357565b5f805160206130c483398151915290815c6001600160a01b03168061101b5750906101ff5f9233835d611fa7565b610217925061102b90331461151c565b611fa7565b60c036600319011261021957611044611357565b60243560028110156102195761105861144d565b6064356110636113e9565b5f805160206130c48339815191529460a4359491939190865c6001600160a01b03168061109e5750915f969593916101ff959333885d611d1c565b61021797506110ae90331461151c565b611d1c565b34610219575f3660031901126102195760205f805160206130c4833981519152604051908152f35b6060366003190112610219576110ef611357565b6110f761136d565b6110ff611383565b5f805160206130c483398151915292909190835c6001600160a01b0316806111325750916101ff915f949333855d611c61565b610217945061114290331461151c565b611c61565b61115036611399565b5f805160206130c483398151915292909190835c6001600160a01b0316806111835750916101ff915f949333855d6119ed565b610217945061119390331461151c565b6119ed565b6111a1366113ff565b5f805160206130c483398151915293909290845c6001600160a01b0316806111d55750915f9493916101ff9333865d61178f565b61021795506111e590331461151c565b61178f565b6080366003190112610219576111fe611357565b61120661136d565b61120e6113d3565b5f805160206130c4833981519152926064359290845c6001600160a01b0316806112445750915f9493916101ff9333865d611682565b610217955061125490331461151c565b611682565b61126236611399565b5f805160206130c483398151915292909190835c6001600160a01b0316806112955750916101ff915f949333855d611622565b61021794506112a590331461151c565b611622565b6060366003190112610219576112be611357565b6112c661136d565b6112ce611383565b5f805160206130c483398151915292909190835c6001600160a01b0316806113015750916101ff915f949333855d6115a3565b610217945061131190331461151c565b6115a3565b34610219575f366003190112610219577f00000000000000000000000000000000000000000000000000000000000000006001600160a01b03168152602090f35b600435906001600160a01b038216820361021957565b602435906001600160a01b038216820361021957565b604435906001600160a01b038216820361021957565b6060906003190112610219576004356001600160a01b038116810361021957906024356001600160a01b0381168103610219579060443590565b604435906001600160801b038216820361021957565b608435906001600160801b038216820361021957565b6080906003190112610219576004356001600160a01b03811681036102195790602435906044356001600160a01b038116810361021957906064356001600160a01b03811681036102195790565b604435906001600160401b038216820361021957565b60a0906003190112610219576004356001600160a01b03811681036102195790602435906044356001600160a01b038116810361021957906064356001600160a01b0381168103610219579060843590565b90601f801991011681019081106001600160401b038211176114d657604052565b634e487b7160e01b5f52604160045260245ffd5b6001600160401b0381116114d65760051b60200190565b6001600160401b0381116114d657601f01601f191660200190565b1561152357565b60405162461bcd60e51b8152602060048201526024808201527f43656e74726966756765526f757465722f756e617574686f72697a65642d7365604482015263373232b960e11b6064820152608490fd5b90816020910312610219575190565b9081526001600160a01b0391821660208201529116604082015260600190565b9160646020926115b4838287612d3a565b60405162a06d1960e01b81525f600482018190526001600160a01b039283166024830152938216604482015294859384929091165af1801561040f576115f75750565b6116189060203d60201161161b575b61161081836114b5565b810190611574565b50565b503d611606565b909161162d90612dd0565b6001600160a01b031690813b15610219576040516301a6952360e41b81526001600160a01b039091166004820152905f908290602490829084905af1801561040f576116765750565b5f611680916114b5565b565b5f805160206130c483398151915293929160601b6001600160601b03191690845c6001600160a01b0316806116c65750915f9493916116c39333865d612ac8565b5d565b611680955061028290331461151c565b156116dd57565b60405162461bcd60e51b815260206004820152601e60248201527f43656e74726966756765526f757465722f696e76616c69642d6f776e657200006044820152606490fd5b51906001600160a01b038216820361021957565b1561173d57565b60405162461bcd60e51b815260206004820152601d60248201527f43656e74726966756765526f757465722f7a65726f2d62616c616e63650000006044820152606490fd5b5190811515820361021957565b9092916001600160a01b0383169133831480156119a6575b6117b0906116d6565b604051636f307dc360e01b8152946001600160a01b0382169390602087600481885afa96871561040f575f9761196a575b506040516370a0823160e01b815260048101929092526020826024816001600160a01b038b165afa91821561040f575f92611928575b50916118869661184a61184f936020989796958181115f1461191f575080975b611842821515611736565b309084612e7d565b612f6f565b6040516317a790f160e11b81526001600160a01b0390911660048201526024810192909252909283919082905f9082906044820190565b03925af190811561040f575f916118e5575b50156118a057565b60405162461bcd60e51b815260206004820152601c60248201527f43656e74726966756765526f757465722f777261702d6661696c6564000000006044820152606490fd5b90506020813d602011611917575b81611900602093836114b5565b810103126102195761191190611782565b5f611898565b3d91506118f3565b90508097611837565b959493929091506020863d602011611962575b81611948602093836114b5565b810103126102195794519394929391929190611886611817565b3d915061193b565b9096506020813d60201161199e575b81611986602093836114b5565b810103126102195761199790611722565b955f6117e1565b3d9150611979565b503083146117a7565b9190826040910312610219576119d060206119c984611722565b9301611782565b90565b6001600160a01b0391821681529116602082015260400190565b6001600160a01b038083165f8181526001602090815260408083209486168352939052918220549094929391908015611c11575f8681526001602090815260408083206001600160a01b0389811680865291909352818420939093558051631953acf960e31b815260048101849052929792959291869060249082907f0000000000000000000000000000000000000000000000000000000000000000165afa94851561040f575f95611bdf575b507f00000000000000000000000000000000000000000000000000000000000000006001600160a01b031694853b156102195760405163aec42a1760e01b8152965f8880611aed3086600484016119d3565b0381838b5af197881561040f57611b3f98611bba575b509061184a611b229392611b1d876020999a309086612e7d565b612dd0565b6040516385b77f4560e01b81529485928392309160048501611583565b038184875af1908115611bae5750611b7f575b507f7efb3d35072e1f595e60928b6ef21264b660503a36b21208983546d21c8ce7966020604051338152a3565b6020813d602011611ba6575b81611b98602093836114b5565b810103126102195751611b52565b3d9150611b8b565b604051903d90823e3d90fd5b60209650611b22939291611bd15f61184a936114b5565b5f9750929350909190611b03565b611c0291955060403d604011611c0a575b611bfa81836114b5565b8101906119af565b50935f611a9b565b503d611bf0565b60405162461bcd60e51b815260206004820152602260248201527f43656e74726966756765526f757465722f6e6f2d6c6f636b65642d72657175656044820152611cdd60f21b6064820152608490fd5b919091611c6f828483612d3a565b60405163631ebadb60e11b81526001600160a01b0383811660048301529190911690602081602481855afa90811561040f575f91611ce2575b5060405163da39b3e760e01b81529360209385939284925f928492611cd1929060048501611583565b03925af1801561040f576115f75750565b929190506020833d602011611d14575b81611cff602093836114b5565b81010312610219579151909190611cd1611ca8565b3d9150611cf2565b60405163a8d5fd6560e01b81526001600160a01b039091169594909392906020856004818a5afa94851561040f575f95611f68575b506001600160801b031693611d6b90859030903390612e7d565b60405163a8d5fd6560e01b8152946020866004818a5afa95861561040f575f96611f29575b507f00000000000000000000000000000000000000000000000000000000000000006001600160a01b031695611dcc9190611b1d908890612f6f565b604051631f06e1a760e11b815295602087600481845afa96871561040f575f97611ee4575b5060206004916040519283809263b7adb4c560e01b82525afa90811561040f575f91611ea1575b50853b15610219576040516355707c9960e11b81526001600160401b039790971660048801526001600160801b03191660248701526002821015611e8d575f94869460c4946001600160401b03889488966044880152166064860152608485015260a48401525af1801561040f576116765750565b634e487b7160e01b5f52602160045260245ffd5b90506020813d602011611edc575b81611ebc602093836114b5565b8101031261021957516001600160801b031981168103610219575f611e18565b3d9150611eaf565b9096506020813d602011611f21575b81611f00602093836114b5565b8101031261021957516001600160401b038116810361021957956020611df1565b3d9150611ef3565b9095506020813d602011611f60575b81611f45602093836114b5565b8101031261021957611f59611dcc91611722565b9590611d90565b3d9150611f38565b9094506020813d602011611f9f575b81611f84602093836114b5565b8101031261021957611f98611d6b91611722565b9490611d51565b3d9150611f77565b6001600160a01b0316803b15610219575f80916044604051809481936310f83af760e11b8352336004840152600160248401525af1801561040f576116765750565b15611ff057565b60405162461bcd60e51b8152602060048201526013602482015272105d5d1a0bdb9bdd0b585d5d1a1bdc9a5e9959606a1b6044820152606490fd5b91606460209261203c838287612d3a565b604051631a75de9160e21b81525f600482018190526001600160a01b039283166024830152938216604482015294859384929091165af1801561040f576115f75750565b6120cb946020949391925f916120ae90611b1d6001600160a01b0388163381149081156120e5575b506116d6565b604051633ea0e43760e11b81529687958694859360048501611583565b03926001600160a01b03165af1801561040f576115f75750565b905030145f6120a8565b905f90335f52600160205260405f2060018060a01b0384165f5260205260405f2054801561226f57335f9081526001602090815260408083206001600160a01b039788168085529252808320929092558151631953acf960e31b8152600481018290529095909190829060249082907f0000000000000000000000000000000000000000000000000000000000000000165afa90811561040f575f9161224f575b507f00000000000000000000000000000000000000000000000000000000000000006001600160a01b031690813b156102195760405163aec42a1760e01b81525f81806121e13086600484016119d3565b038183875af1801561040f57612231575b506121ff92918491612e7d565b6001600160a01b03169133917fce22df1da78f9f81222be9826ad7f8f48ae3b9fb3a09e58bab69382178d593959080a4565b84919550916122445f6121ff95946114b5565b5f95915091926121f2565b612268915060403d604011611c0a57611bfa81836114b5565b505f612190565b60405162461bcd60e51b815260206004820152602260248201527f43656e74726966756765526f757465722f6e6f2d6c6f636b65642d62616c616e604482015261636560f01b6064820152608490fd5b5f805160206130c48339815191529190825c6001600160a01b0316806124ad575033835d6122ec81611fa7565b5f835d5b60408051631953acf960e31b81526001600160a01b038381166004830152909190829060249082907f0000000000000000000000000000000000000000000000000000000000000000165afa801561040f575f915f9161248c575b506040516370a0823160e01b81523360048201526020816024816001600160a01b0387165afa801561040f5785915f91612457575b508261244d575b50501561240f57835c6001600160a01b031690816123f2576123b1915033855d339084309161178f565b5f835d5b825c6001600160a01b0316806123d957505f92916116c39133845d309133916124f5565b61168093506123e990331461151c565b309133916124f5565b61240061240a92331461151c565b339084309161178f565b6123b5565b50825c6001600160a01b03168061243457505f92916116c39133845d339133916124f5565b611680935061244490331461151c565b339133916124f5565b109050835f612387565b9150506020813d602011612484575b81612473602093836114b5565b81010312610219578490515f612380565b3d9150612466565b90506124a7915060403d604011611c0a57611bfa81836114b5565b5f61234b565b6124b890331461151c565b6124c181611fa7565b6122f0565b3d156124f0573d906124d782611501565b916124e560405193846114b5565b82523d5f602084013e565b606090565b6001600160a01b03841693923385148015612657575b612514906116d6565b60018060a01b031692835f52600160205260405f2060018060a01b0383165f5260205260405f20805490848201809211612643575560408051631953acf960e31b81526001600160a01b0393841660048201819052949093909190849060249082907f0000000000000000000000000000000000000000000000000000000000000000165afa91821561040f578161261c93612604927f1949b5a141e6f22245eec6948252ade90f959e8acd649355c7e80f21c52d4056965f92612621575b507f00000000000000000000000000000000000000000000000000000000000000006001600160a01b031691612e7d565b60408051338152602081019290925290918291820190565b0390a4565b61263b91925060403d604011611c0a57611bfa81836114b5565b50905f6125d3565b634e487b7160e01b5f52601160045260245ffd5b5030851461250b565b6040516370a0823160e01b81523060048201526001600160a01b039091169291602082602481875afa91821561040f575f92612790575b5092602092916126ef948181115f146127885750915b6126b8831515611736565b60405163040b850f60e31b81526001600160a01b0390911660048201526024810192909252909283919082905f9082906044820190565b03925af190811561040f575f9161274e575b501561270957565b60405162461bcd60e51b815260206004820152601e60248201527f43656e74726966756765526f757465722f756e777261702d6661696c656400006044820152606490fd5b90506020813d602011612780575b81612769602093836114b5565b810103126102195761277a90611782565b5f612701565b3d915061275c565b9050916126ad565b929150926020833d6020116127c4575b816127ad602093836114b5565b8101031261021957915191929091906126ef612697565b3d91506127a0565b906127d690612dd0565b6001600160a01b0316803b15610219575f8091604460405180948193632b9d9c1f60e01b83528160048401523360248401525af1801561040f576116765750565b61283b916020916040518080958194635b1b1e7960e11b83523090600484016119d3565b03916001600160a01b03165afa90811561040f575f91612859575090565b90506020813d602011612885575b81612874602093836114b5565b81010312610219576119d090611782565b3d9150612867565b929594919391929091906001600160a01b0316803b15610219575f9560e49460ff88946040519a8b998a9863d505accf60e01b8a523360048b015260018060a01b031660248a01526044890152606488015216608486015260a485015260c48401525af16116765750565b9061290290612dd0565b6001600160a01b0316803b15610219575f8091604460405180948193632e73c18d60e21b83528160048401523360248401525af1801561040f576116765750565b6001600160a01b0316803b15610219575f80916044604051809481936310f83af760e11b83523360048401528160248401525af1801561040f576116765750565b92916001600160a01b0383163381148015612a6a575b6129a3906116d6565b60408051631953acf960e31b81526001600160a01b0387811660048301819052959290829060249082907f0000000000000000000000000000000000000000000000000000000000000000165afa97881561040f57611cd1986020985f95612a1b948793612a48575b503014612a38575b5050612dd0565b6040516385b77f4560e01b81529687958694859360048501611583565b612a4191612f6f565b5f80612a14565b612a6291935060403d604011611c0a57611bfa81836114b5565b50915f612a0c565b5030811461299a565b5f805160206130c483398151915295949360601b6001600160601b031916929190865c6001600160a01b031680612ab85750915f969593916116c3959333885d611d1c565b61168097506110ae90331461151c565b6001600160801b0390921692612ae084303386612e7d565b7f00000000000000000000000000000000000000000000000000000000000000006001600160a01b031690612b1990611b1d8386612f6f565b803b15610219575f9283606492604051968795869463b21ea40960e01b865260018060a01b03166004860152602485015260448401525af1801561040f576116765750565b612b69838383612d3a565b60405163ce96cb7760e01b81526001600160a01b03848116600483018190529491921690602083602481855afa92831561040f575f93612d06575b5060408051631953acf960e31b8152600481018490529590866024817f00000000000000000000000000000000000000000000000000000000000000006001600160a01b03165afa90811561040f575f965f92612ce2575b5081612cd7575b5015612cae57612c2f5f92602092604051948580948193632d182be560e21b8352308a60048501611583565b03925af1801561040f57612c7f575b505f805160206130c483398151915292835c6001600160a01b031680612c6f5750916116c3915f949333855d612660565b61168094506109cb90331461151c565b6020813d602011612ca6575b81612c98602093836114b5565b810103126102195751612c3e565b3d9150612c8b565b604051632d182be560e21b81529450602093859384925f928492611cd192919060048501611583565b90503314155f612c03565b909650612cfe915060403d604011611c0a57611bfa81836114b5565b90955f612bfc565b9092506020813d602011612d32575b81612d22602093836114b5565b810103126102195751915f612ba4565b3d9150612d15565b6001600160a01b0383163381149391928415612da1575b5050505015612d5c57565b60405162461bcd60e51b815260206004820152601f60248201527f43656e74726966756765526f757465722f696e76616c69642d73656e646572006044820152606490fd5b6001600160a01b03161492509082612dbf575b50505f808080612d51565b612dc99250612817565b5f80612db4565b478111612e2c577f00000000000000000000000000000000000000000000000000000000000000006001600160a01b0316803b15610219575f90600460405180948193636e14f8ef60e11b83525af1801561040f576116765750565b60405162461bcd60e51b815260206004820152602360248201527f43656e74726966756765526f757465722f696e73756666696369656e742d66756044820152626e647360e81b6064820152608490fd5b6040516323b872dd60e01b602082019081526001600160a01b0393841660248301529390921660448301526064808301949094529281525f92839290918390612ec76084826114b5565b51925af1612ed36124c6565b81612f38575b5015612ee157565b60405162461bcd60e51b815260206004820152602960248201527f536166655472616e736665724c69622f736166652d7472616e736665722d66726044820152681bdb4b59985a5b195960ba1b6064820152608490fd5b8051801592508215612f4d575b50505f612ed9565b8192509060209181010312610219576020612f689101611782565b5f80612f45565b90604051636eb1769f60e11b815260208180612f8f8530600484016119d3565b03816001600160a01b0387165afa90811561040f575f91613091575b5015612fb5575050565b5f91829182604051602081019263095ea7b360e01b845260018060a01b031660248201528119604482015260448152612fef6064826114b5565b51925af1612ffb6124c6565b8161305a575b501561300957565b60405162461bcd60e51b815260206004820152602360248201527f536166655472616e736665724c69622f736166652d617070726f76652d6661696044820152621b195960ea1b6064820152608490fd5b805180159250821561306f575b50505f613001565b819250906020918101031261021957602061308a9101611782565b5f80613067565b90506020813d6020116130bb575b816130ac602093836114b5565b8101031261021957515f612fab565b3d915061309f56fe0854a58eba33f017620a8b0a8425e9c8f6e5327eaa71dec351be5277aee342dda26469706673582212202fcd99772ba7f2371382ee9c4fa62fcbc8797b48810be1ffaecdac0a431eec9264736f6c634300081a0033","linkReferences":{}},"methodIdentifiers":{"INITIATOR_SLOT()":"4b5b189f","cancelDepositRequest(address,uint256)":"d76cca03","cancelRedeemRequest(address,uint256)":"c2c32ad5","claimCancelDepositRequest(address,address,address)":"72a2fcca","claimCancelRedeemRequest(address,address,address)":"11dcd791","claimDeposit(address,address,address)":"45e0a315","claimRedeem(address,address,address)":"fa485928","deny(address)":"9c52a7f1","disable(address)":"e6c09edf","enable(address)":"5bfa1b68","enableLockDepositRequest(address,uint256)":"99deddda","escrow()":"e2fdcc17","estimate(bytes)":"e766cc12","executeLockedDepositRequest(address,address,uint256)":"37daaa91","gateway()":"116191b6","getVault(uint64,bytes16,address)":"dfb3b551","hasPermissions(address,address)":"e8a67dad","isEnabled(address,address)":"ca7004e7","lockDepositRequest(address,uint256,address,address)":"b667256b","lockedRequests(address,address)":"aa5408fa","multicall(bytes[])":"ac9650d8","permit(address,address,uint256,uint256,uint8,bytes32,bytes32)":"d505accf","poolManager()":"dc4c90d3","recoverTokens(address,address,uint256)":"5f3e849f","rely(address)":"65fae35e","requestDeposit(address,uint256,address,address,uint256)":"ec19a49d","requestRedeem(address,uint256,address,address,uint256)":"8b30ad56","transferAssets(address,address,uint128,uint256)":"2f80976a","transferAssets(address,bytes32,uint128,uint256)":"f7021608","transferAssetsFromProxy(address,address,uint256)":"1ac6efc9","transferTrancheTokens(address,uint8,uint64,address,uint128,uint256)":"ef1b950e","transferTrancheTokens(address,uint8,uint64,bytes32,uint128,uint256)":"4cd8026f","unlockDepositRequest(address,address)":"8fe3b955","unwrap(address,uint256,address)":"b68f4345","wards(address)":"bf353dbb","wrap(address,uint256,address,address)":"32e0a7f0"},"id":1}