{"abi":[{"type":"constructor","inputs":[{"name":"root_","type":"address","internalType":"address"},{"name":"deployer","type":"address","internalType":"address"}],"stateMutability":"nonpayable"},{"type":"function","name":"deny","inputs":[{"name":"user","type":"address","internalType":"address"}],"outputs":[],"stateMutability":"nonpayable"},{"type":"function","name":"file","inputs":[{"name":"what","type":"bytes32","internalType":"bytes32"},{"name":"data","type":"address","internalType":"address"}],"outputs":[],"stateMutability":"nonpayable"},{"type":"function","name":"getAddress","inputs":[{"name":"destination","type":"bytes32","internalType":"bytes32"}],"outputs":[{"name":"","type":"address","internalType":"address"}],"stateMutability":"view"},{"type":"function","name":"newTransferProxy","inputs":[{"name":"destination","type":"bytes32","internalType":"bytes32"}],"outputs":[{"name":"","type":"address","internalType":"address"}],"stateMutability":"nonpayable"},{"type":"function","name":"poolManager","inputs":[],"outputs":[{"name":"","type":"address","internalType":"address"}],"stateMutability":"view"},{"type":"function","name":"proxies","inputs":[{"name":"id","type":"bytes32","internalType":"bytes32"}],"outputs":[{"name":"proxy","type":"address","internalType":"address"}],"stateMutability":"view"},{"type":"function","name":"rely","inputs":[{"name":"user","type":"address","internalType":"address"}],"outputs":[],"stateMutability":"nonpayable"},{"type":"function","name":"root","inputs":[],"outputs":[{"name":"","type":"address","internalType":"address"}],"stateMutability":"view"},{"type":"function","name":"wards","inputs":[{"name":"","type":"address","internalType":"address"}],"outputs":[{"name":"","type":"uint256","internalType":"uint256"}],"stateMutability":"view"},{"type":"event","name":"Deny","inputs":[{"name":"user","type":"address","indexed":true,"internalType":"address"}],"anonymous":false},{"type":"event","name":"DeployTransferProxy","inputs":[{"name":"destination","type":"bytes32","indexed":true,"internalType":"bytes32"},{"name":"proxy","type":"address","indexed":false,"internalType":"address"}],"anonymous":false},{"type":"event","name":"File","inputs":[{"name":"what","type":"bytes32","indexed":true,"internalType":"bytes32"},{"name":"data","type":"address","indexed":false,"internalType":"address"}],"anonymous":false},{"type":"event","name":"Rely","inputs":[{"name":"user","type":"address","indexed":true,"internalType":"address"}],"anonymous":false}],"bytecode":{"object":"0x60a0346100b257601f61105f38819003918201601f19168301916001600160401b038311848410176100b65780849260409485528339810103126100b257610046816100ca565b906001600160a01b039061005c906020016100ca565b1690815f525f602052600160405f2055604051917fdd0e34038ac38b2a1ce960229778ac48a8719bc900b6c4f8d0475c6e8b385a605f80a2608052610f8090816100df8239608051818181609601526102ee0152f35b5f80fd5b634e487b7160e01b5f52604160045260245ffd5b51906001600160a01b03821682036100b25756fe6080806040526004361015610012575f80fd5b5f905f3560e01c90816321f8a7211461058b5750806365fae35e1461051b5780636932af36146104e95780639c52a7f11461047a578063aaa715131461021e578063bf353dbb146101e6578063d4e8be83146100f1578063dc4c90d3146100c85763ebf0c71714610081575f80fd5b346100c557806003193601126100c5576040517f00000000000000000000000000000000000000000000000000000000000000006001600160a01b03168152602090f35b80fd5b50346100c557806003193601126100c5576001546040516001600160a01b039091168152602090f35b50346100c55760403660031901126100c5576004356024356001600160a01b038116908190036101e25733835282602052610132600160408520541461068e565b6a3837b7b626b0b730b3b2b960a91b820361018857600180546001600160a01b031916821790556040519081527f8fef588b5fc1afbf5b2f06c1a435d513f208da2e6704c3d8f0e0ec91167066ba90602090a280f35b60405162461bcd60e51b815260206004820152602c60248201527f5472616e7366657250726f7879466163746f72792f66696c652d756e7265636f60448201526b676e697a65642d706172616d60a01b6064820152608490fd5b8280fd5b50346100c55760203660031901126100c5576020906040906001600160a01b0361020e610656565b1681528083522054604051908152f35b503461040f57602036600319011261040f576004355f818152600260205260409020546001600160a01b03166104275760405161087a9081810181811067ffffffffffffffff821117610413578160209185946106d183398481520301905ff58015610404576001546001600160a01b03918216929116823b1561040f576040519063d4e8be8360e01b82526a3837b7b626b0b730b3b2b960a91b600483015260248201525f8160448183875af18015610404576103ef575b50813b156101e2576040516332fd71af60e11b81527f00000000000000000000000000000000000000000000000000000000000000006001600160a01b031660048201528390818160248183885af180156103e4576103cf575b5050813b156101e257604051639c52a7f160e01b8152306004820152838160248183875af180156103c4576103af575b50604083826020955260028552208260018060a01b03198254161790557fa04a7609169307ec28f4cf7798156dfb7b549809fe928a21d2b522d6bd839a5b83604051848152a2604051908152f35b6103ba84809261066c565b6101e2575f610361565b6040513d86823e3d90fd5b816103d99161066c565b6101e257825f610331565b6040513d84823e3d90fd5b6103fc9193505f9061066c565b5f915f6102d7565b6040513d5f823e3d90fd5b5f80fd5b634e487b7160e01b5f52604160045260245ffd5b60405162461bcd60e51b815260206004820152602560248201527f5472616e7366657250726f7879466163746f72792f616c72656164792d6465706044820152641b1bde595960da1b6064820152608490fd5b3461040f57602036600319011261040f57610493610656565b335f525f6020526104aa600160405f20541461068e565b6001600160a01b03165f8181526020819052604081208190557f184450df2e323acec0ed3b5c7531b81f9b4cdef7914dfd4c0a4317416bb5251b9080a2005b3461040f57602036600319011261040f576004355f526002602052602060018060a01b0360405f205416604051908152f35b3461040f57602036600319011261040f57610534610656565b335f525f60205261054b600160405f20541461068e565b6001600160a01b03165f818152602081905260408120600190557fdd0e34038ac38b2a1ce960229778ac48a8719bc900b6c4f8d0475c6e8b385a609080a2005b3461040f57602036600319011261040f576020906004359061087a6105b28482018361066c565b808252838201906106d1823961060b60405191858084018681528185526105da60408661066c565b60405194859383850197518091895e840190838201905f8252519283915e01015f815203601f19810183528261066c565b51902090604051918383019160ff60f81b83523060601b6021850152603584015260558301526055825261064060758361066c565b905190206040516001600160a01b039091168152f35b600435906001600160a01b038216820361040f57565b90601f8019910116810190811067ffffffffffffffff82111761041357604052565b1561069557565b60405162461bcd60e51b8152602060048201526013602482015272105d5d1a0bdb9bdd0b585d5d1a1bdc9a5e9959606a1b6044820152606490fdfe60a034609257601f61087a38819003918201601f19168301916001600160401b0383118484101760965780849260209460405283398101031260925751335f525f602052600160405f205560405190337fdd0e34038ac38b2a1ce960229778ac48a8719bc900b6c4f8d0475c6e8b385a605f80a26080526107cf90816100ab82396080518181816101da01526104ff0152f35b5f80fd5b634e487b7160e01b5f52604160045260245ffdfe6080806040526004361015610012575f80fd5b5f905f3560e01c9081631a695230146103ed575080635f3e849f146102de57806365fae35e1461026d5780639c52a7f1146101fd578063b269681d146101c2578063bf353dbb1461018a578063d4e8be83146100a15763dc4c90d314610076575f80fd5b3461009e578060031936011261009e576001546040516001600160a01b039091168152602090f35b80fd5b503461009e57604036600319011261009e576004356100be6106b4565b338352826020526100d56001604085205414610700565b6a3837b7b626b0b730b3b2b960a91b820361013757600180546001600160a01b0319166001600160a01b0390921691821790556040519081527f8fef588b5fc1afbf5b2f06c1a435d513f208da2e6704c3d8f0e0ec91167066ba90602090a280f35b60405162461bcd60e51b815260206004820152602560248201527f5472616e7366657250726f78792f66696c652d756e7265636f676e697a65642d604482015264706172616d60d81b6064820152608490fd5b503461009e57602036600319011261009e576020906040906001600160a01b036101b261069e565b1681528083522054604051908152f35b503461009e578060031936011261009e5760206040517f00000000000000000000000000000000000000000000000000000000000000008152f35b503461009e57602036600319011261009e5761021761069e565b3382528160205261022e6001604084205414610700565b6001600160a01b03168082526020829052604082208290557f184450df2e323acec0ed3b5c7531b81f9b4cdef7914dfd4c0a4317416bb5251b8280a280f35b503461009e57602036600319011261009e5761028761069e565b3382528160205261029e6001604084205414610700565b6001600160a01b0316808252602082905260408220600190557fdd0e34038ac38b2a1ce960229778ac48a8719bc900b6c4f8d0475c6e8b385a608280a280f35b503461009e57606036600319011261009e5780806102fa61069e565b6103026106b4565b338352826020526103196001604085205414610700565b60405163a9059cbb60e01b602082019081526001600160a01b0390921660248201526044803581830152815283906103526064826106ca565b51925af161035e610742565b816103be575b501561036d5780f35b60405162461bcd60e51b8152602060048201526024808201527f536166655472616e736665724c69622f736166652d7472616e736665722d66616044820152631a5b195960e21b6064820152608490fd5b80518015925082156103d3575b50505f610364565b6103e69250602080918301019101610781565b5f806103cb565b9050346105665760203660031901126105665761040861069e565b6370a0823160e01b8252306004830152906001600160a01b03821690602081602481855afa90811561055b575f9161066c575b506001600160801b0381111561048b5760405162461bcd60e51b81526020600482015260186024820152774d6174684c69622f75696e743132382d6f766572666c6f7760401b6044820152606490fd5b600154604051636eb1769f60e11b81523060048201526001600160a01b0390911660248201819052936001600160801b03929092169190602081604481875afa90811561055b575f9161063a575b501561056a575b50823b156105665760405163b21ea40960e01b815260048101929092527f000000000000000000000000000000000000000000000000000000000000000060248301526001600160801b03166044820152905f908290606490829084905af1801561055b5761054d575080f35b61055991505f906106ca565b005b6040513d5f823e3d90fd5b5f80fd5b5f809160405182602082019163095ea7b360e01b8352886024820152811960448201526044815261059c6064826106ca565b51925af16105a8610742565b8161060b575b50156105ba575f6104e0565b60405162461bcd60e51b815260206004820152602360248201527f536166655472616e736665724c69622f736166652d617070726f76652d6661696044820152621b195960ea1b6064820152608490fd5b8051801592508215610620575b50505f6105ae565b6106339250602080918301019101610781565b5f80610618565b90506020813d602011610664575b81610655602093836106ca565b8101031261056657515f6104d9565b3d9150610648565b90506020813d602011610696575b81610687602093836106ca565b8101031261056657515f61043b565b3d915061067a565b600435906001600160a01b038216820361056657565b602435906001600160a01b038216820361056657565b90601f8019910116810190811067ffffffffffffffff8211176106ec57604052565b634e487b7160e01b5f52604160045260245ffd5b1561070757565b60405162461bcd60e51b8152602060048201526013602482015272105d5d1a0bdb9bdd0b585d5d1a1bdc9a5e9959606a1b6044820152606490fd5b3d1561077c573d9067ffffffffffffffff82116106ec5760405191610771601f8201601f1916602001846106ca565b82523d5f602084013e565b606090565b9081602091031261056657518015158103610566579056fea2646970667358221220b61c3f810f2bf1d86eca28cd2920712326f331b741e13e49c42cfdec6e7b6bc564736f6c634300081a0033a26469706673582212205cc272534347831a29d3514656a4371249ec5b39a6f3398cbd4bc689bd0b616164736f6c634300081a0033","linkReferences":{}},"methodIdentifiers":{"deny(address)":"9c52a7f1","file(bytes32,address)":"d4e8be83","getAddress(bytes32)":"21f8a721","newTransferProxy(bytes32)":"aaa71513","poolManager()":"dc4c90d3","proxies(bytes32)":"6932af36","rely(address)":"65fae35e","root()":"ebf0c717","wards(address)":"bf353dbb"},"id":11}