{"abi":[{"type":"constructor","inputs":[{"name":"destination_","type":"bytes32","internalType":"bytes32"}],"stateMutability":"nonpayable"},{"type":"function","name":"deny","inputs":[{"name":"user","type":"address","internalType":"address"}],"outputs":[],"stateMutability":"nonpayable"},{"type":"function","name":"destination","inputs":[],"outputs":[{"name":"","type":"bytes32","internalType":"bytes32"}],"stateMutability":"view"},{"type":"function","name":"file","inputs":[{"name":"what","type":"bytes32","internalType":"bytes32"},{"name":"data","type":"address","internalType":"address"}],"outputs":[],"stateMutability":"nonpayable"},{"type":"function","name":"poolManager","inputs":[],"outputs":[{"name":"","type":"address","internalType":"contract IPoolManager"}],"stateMutability":"view"},{"type":"function","name":"recoverTokens","inputs":[{"name":"token","type":"address","internalType":"address"},{"name":"to","type":"address","internalType":"address"},{"name":"amount","type":"uint256","internalType":"uint256"}],"outputs":[],"stateMutability":"nonpayable"},{"type":"function","name":"rely","inputs":[{"name":"user","type":"address","internalType":"address"}],"outputs":[],"stateMutability":"nonpayable"},{"type":"function","name":"transfer","inputs":[{"name":"token","type":"address","internalType":"address"}],"outputs":[],"stateMutability":"nonpayable"},{"type":"function","name":"wards","inputs":[{"name":"","type":"address","internalType":"address"}],"outputs":[{"name":"","type":"uint256","internalType":"uint256"}],"stateMutability":"view"},{"type":"event","name":"Deny","inputs":[{"name":"user","type":"address","indexed":true,"internalType":"address"}],"anonymous":false},{"type":"event","name":"File","inputs":[{"name":"what","type":"bytes32","indexed":true,"internalType":"bytes32"},{"name":"data","type":"address","indexed":false,"internalType":"address"}],"anonymous":false},{"type":"event","name":"Rely","inputs":[{"name":"user","type":"address","indexed":true,"internalType":"address"}],"anonymous":false}],"bytecode":{"object":"0x60a034609257601f61087a38819003918201601f19168301916001600160401b0383118484101760965780849260209460405283398101031260925751335f525f602052600160405f205560405190337fdd0e34038ac38b2a1ce960229778ac48a8719bc900b6c4f8d0475c6e8b385a605f80a26080526107cf90816100ab82396080518181816101da01526104ff0152f35b5f80fd5b634e487b7160e01b5f52604160045260245ffdfe6080806040526004361015610012575f80fd5b5f905f3560e01c9081631a695230146103ed575080635f3e849f146102de57806365fae35e1461026d5780639c52a7f1146101fd578063b269681d146101c2578063bf353dbb1461018a578063d4e8be83146100a15763dc4c90d314610076575f80fd5b3461009e578060031936011261009e576001546040516001600160a01b039091168152602090f35b80fd5b503461009e57604036600319011261009e576004356100be6106b4565b338352826020526100d56001604085205414610700565b6a3837b7b626b0b730b3b2b960a91b820361013757600180546001600160a01b0319166001600160a01b0390921691821790556040519081527f8fef588b5fc1afbf5b2f06c1a435d513f208da2e6704c3d8f0e0ec91167066ba90602090a280f35b60405162461bcd60e51b815260206004820152602560248201527f5472616e7366657250726f78792f66696c652d756e7265636f676e697a65642d604482015264706172616d60d81b6064820152608490fd5b503461009e57602036600319011261009e576020906040906001600160a01b036101b261069e565b1681528083522054604051908152f35b503461009e578060031936011261009e5760206040517f00000000000000000000000000000000000000000000000000000000000000008152f35b503461009e57602036600319011261009e5761021761069e565b3382528160205261022e6001604084205414610700565b6001600160a01b03168082526020829052604082208290557f184450df2e323acec0ed3b5c7531b81f9b4cdef7914dfd4c0a4317416bb5251b8280a280f35b503461009e57602036600319011261009e5761028761069e565b3382528160205261029e6001604084205414610700565b6001600160a01b0316808252602082905260408220600190557fdd0e34038ac38b2a1ce960229778ac48a8719bc900b6c4f8d0475c6e8b385a608280a280f35b503461009e57606036600319011261009e5780806102fa61069e565b6103026106b4565b338352826020526103196001604085205414610700565b60405163a9059cbb60e01b602082019081526001600160a01b0390921660248201526044803581830152815283906103526064826106ca565b51925af161035e610742565b816103be575b501561036d5780f35b60405162461bcd60e51b8152602060048201526024808201527f536166655472616e736665724c69622f736166652d7472616e736665722d66616044820152631a5b195960e21b6064820152608490fd5b80518015925082156103d3575b50505f610364565b6103e69250602080918301019101610781565b5f806103cb565b9050346105665760203660031901126105665761040861069e565b6370a0823160e01b8252306004830152906001600160a01b03821690602081602481855afa90811561055b575f9161066c575b506001600160801b0381111561048b5760405162461bcd60e51b81526020600482015260186024820152774d6174684c69622f75696e743132382d6f766572666c6f7760401b6044820152606490fd5b600154604051636eb1769f60e11b81523060048201526001600160a01b0390911660248201819052936001600160801b03929092169190602081604481875afa90811561055b575f9161063a575b501561056a575b50823b156105665760405163b21ea40960e01b815260048101929092527f000000000000000000000000000000000000000000000000000000000000000060248301526001600160801b03166044820152905f908290606490829084905af1801561055b5761054d575080f35b61055991505f906106ca565b005b6040513d5f823e3d90fd5b5f80fd5b5f809160405182602082019163095ea7b360e01b8352886024820152811960448201526044815261059c6064826106ca565b51925af16105a8610742565b8161060b575b50156105ba575f6104e0565b60405162461bcd60e51b815260206004820152602360248201527f536166655472616e736665724c69622f736166652d617070726f76652d6661696044820152621b195960ea1b6064820152608490fd5b8051801592508215610620575b50505f6105ae565b6106339250602080918301019101610781565b5f80610618565b90506020813d602011610664575b81610655602093836106ca565b8101031261056657515f6104d9565b3d9150610648565b90506020813d602011610696575b81610687602093836106ca565b8101031261056657515f61043b565b3d915061067a565b600435906001600160a01b038216820361056657565b602435906001600160a01b038216820361056657565b90601f8019910116810190811067ffffffffffffffff8211176106ec57604052565b634e487b7160e01b5f52604160045260245ffd5b1561070757565b60405162461bcd60e51b8152602060048201526013602482015272105d5d1a0bdb9bdd0b585d5d1a1bdc9a5e9959606a1b6044820152606490fd5b3d1561077c573d9067ffffffffffffffff82116106ec5760405191610771601f8201601f1916602001846106ca565b82523d5f602084013e565b606090565b9081602091031261056657518015158103610566579056fea2646970667358221220b61c3f810f2bf1d86eca28cd2920712326f331b741e13e49c42cfdec6e7b6bc564736f6c634300081a0033","linkReferences":{}},"methodIdentifiers":{"deny(address)":"9c52a7f1","destination()":"b269681d","file(bytes32,address)":"d4e8be83","poolManager()":"dc4c90d3","recoverTokens(address,address,uint256)":"5f3e849f","rely(address)":"65fae35e","transfer(address)":"1a695230","wards(address)":"bf353dbb"},"id":11}