{"abi":[{"type":"function","name":"adapter1","inputs":[],"outputs":[{"name":"","type":"address","internalType":"contract MockAdapter"}],"stateMutability":"view"},{"type":"function","name":"adapter2","inputs":[],"outputs":[{"name":"","type":"address","internalType":"contract MockAdapter"}],"stateMutability":"view"},{"type":"function","name":"adapter3","inputs":[],"outputs":[{"name":"","type":"address","internalType":"contract MockAdapter"}],"stateMutability":"view"},{"type":"function","name":"centrifugeChain","inputs":[],"outputs":[{"name":"","type":"address","internalType":"contract MockCentrifugeChain"}],"stateMutability":"view"},{"type":"function","name":"chainlinkMock","inputs":[],"outputs":[{"name":"","type":"address","internalType":"contract mockChainlink"}],"stateMutability":"view"},{"type":"function","name":"erc20","inputs":[],"outputs":[{"name":"","type":"address","internalType":"contract ERC20"}],"stateMutability":"view"},{"type":"function","name":"mockedGasService","inputs":[],"outputs":[{"name":"","type":"address","internalType":"contract MockGasService"}],"stateMutability":"view"},{"type":"function","name":"setupMocks","inputs":[{"name":"deployer","type":"address","internalType":"address"}],"outputs":[{"name":"","type":"address[]","internalType":"address[]"},{"name":"","type":"address","internalType":"address"},{"name":"","type":"address","internalType":"address"}],"stateMutability":"nonpayable"},{"type":"function","name":"testAdapters","inputs":[{"name":"","type":"uint256","internalType":"uint256"}],"outputs":[{"name":"","type":"address","internalType":"address"}],"stateMutability":"view"}],"bytecode":{"object":"0x60808060405234601557617712908161001a8239f35b5f80fdfe6080806040526004361015610012575f80fd5b5f905f3560e01c9081631fcaecb8146107735750806355d9311d1461074b578063785e9e86146107235780637b792ace146106ab578063a964f81f14610683578063d5c597de146100fe578063e3b5eeb3146100d5578063eed7e6a6146100ac5763f59e207514610081575f80fd5b346100a957806003193601126100a9576001546040516001600160a01b039091168152602090f35b80fd5b50346100a957806003193601126100a9576002546040516001600160a01b039091168152602090f35b50346100a957806003193601126100a9576003546040516001600160a01b039091168152602090f35b503461066b57602036600319011261066b576004356001600160a01b0381160361066b576040516117698082018281106001600160401b0382111761066f578291615f74833903905ff0801561066057600480546001600160a01b0319166001600160a01b03929092169182179055604051611ad4908181016001600160401b0381118282101761066f57816020916120ae958587843981520301905ff08015610660575f80546001600160a01b0319166001600160a01b039283161790556004546040519183830191166001600160401b0382118383101761066f5760209183918587843981520301905ff0801561066057600180546001600160a01b0319166001600160a01b03928316179055600454604051939183850191166001600160401b0382118583101761066f576020938593843981520301905ff0801561066057600280546001600160a01b0319166001600160a01b03929092169190911790556040516123f28082016001600160401b0381118382101761066f576020610291918493613b82853981815201610795565b03905ff0801561066057600380546001600160a01b0319166001600160a01b039290921691909117905560405161172e808201906001600160401b0382118383101761066f57602091839161085e8339600681520301905ff0801561066057600580546001600160a01b0319166001600160a01b03929092169182179055803b1561066b575f80916084604051809481936304bd623760e11b8352636e616d6560e01b600484015260406024840152600a6044840152692c13b9902237b63630b960b11b60648401525af180156106605761064d575b5060055481906001600160a01b0316803b156105ea578180916084604051809481936304bd623760e11b8352651cde5b589bdb60d21b60048401526040602484015260046044840152630aaa688b60e31b60648401525af180156105df57610638575b5050604051610122808201908282106001600160401b0383111761062457908291611f8c8339039082f0801561061757600680546001600160a01b0319166001600160a01b039283161790558154829116803b156105ea578180916044604051809481936302b0157960e61b835267657374696d61746560c01b6004840152633b9aca0060248401525af180156105df57610602575b506001546001600160a01b0316803b156105ea578180916044604051809481936302b0157960e61b835267657374696d61746560c01b6004840152634a817c8060248401525af180156105df576105ed575b506002546001600160a01b0316803b156105ea578180916044604051809481936302b0157960e61b835267657374696d61746560c01b600484015263684ee18060248401525af180156105df576105ca575b5050805461051a906001600160a01b03166107f8565b60015461052f906001600160a01b03166107f8565b600254610544906001600160a01b03166107f8565b6005546006546040516001600160a01b03928316929091166105708261056981610795565b03836107d7565b604051926060840194606085528351809652602060808601940190955b8087106105a7575050839450602084015260408301520390f35b81516001600160a01b03168552600196909601956020948501949091019061058d565b816105d4916107d7565b6100a957805f610504565b6040513d84823e3d90fd5b50fd5b816105f7916107d7565b6100a957805f6104b2565b8161060c916107d7565b6100a957805f610460565b50604051903d90823e3d90fd5b634e487b7160e01b84526041600452602484fd5b81610642916107d7565b6100a957805f6103ca565b61065991505f906107d7565b5f80610367565b6040513d5f823e3d90fd5b5f80fd5b634e487b7160e01b5f52604160045260245ffd5b3461066b575f36600319011261066b576006546040516001600160a01b039091168152602090f35b3461066b57602036600319011261066b5760043560075481101561066b5760075481101561070f5760075f527fa66cc928b5edb82af9bd49922954155ab7b0942694bea4ce44661d9a8736c68801546040516001600160a01b039091168152602090f35b634e487b7160e01b5f52603260045260245ffd5b3461066b575f36600319011261066b576005546040516001600160a01b039091168152602090f35b3461066b575f36600319011261066b576004546040516001600160a01b039091168152602090f35b3461066b575f36600319011261066b575f546001600160a01b03168152602090f35b602060075491828152019060075f5260205f20905f5b8181106107b85750505090565b82546001600160a01b03168452602090930192600192830192016107ab565b90601f801991011681019081106001600160401b0382111761066f57604052565b600754600160401b81101561066f576001810160075560075481101561070f5760075f527fa66cc928b5edb82af9bd49922954155ab7b0942694bea4ce44661d9a8736c6880180546001600160a01b0319166001600160a01b0390921691909117905556fe610120806040523461017f5760208161172e80380380916100208285610183565b83398101031261017f575160ff8116810361017f57335f525f602052600160405f2055337fdd0e34038ac38b2a1ce960229778ac48a8719bc900b6c4f8d0475c6e8b385a605f80a2608052604051610079604082610183565b600a81526943656e7472696675676560b01b6020909101527fe416b338a274162320c79445ae6604141d1cb08275eb27011b69f002dc094d0560a05260408051906100c49082610183565b600181526020810190603160f81b82525190208060c0524660e05260a051906040519060208201927f8b73c3c69bb8fe3d512ecc4cf759cc79239f7b179b0ffacaa9a75d522b39400f8452604083015260608201524660808201523060a082015260a0815261013460c082610183565b5190206101005260405161157390816101bb823960805181610713015260a05181611022015260c05181611048015260e051818181610c6d0152610fad01526101005181610fd30152f35b5f80fd5b601f909101601f19168101906001600160401b038211908210176101a657604052565b634e487b7160e01b5f52604160045260245ffdfe60806040526004361015610011575f80fd5b5f3560e01c806306fdde0314610164578063095ea7b31461015f578063097ac46e1461015a57806318160ddd1461015557806323b872dd1461015057806330adf81f1461014b578063313ce567146101465780633644e5151461014157806340c10f191461013c57806365fae35e1461013757806370a08231146101325780637ecebe001461012d57806395d89b41146101285780639c52a7f1146101235780639dc29fac1461011e5780639fd5a6cf14610119578063a9059cbb14610114578063bf353dbb1461010f578063cd0d00961461010a578063d505accf146101055763dd62ed3e14610100575f80fd5b610d06565b610c90565b610c56565b610c1f565b610b85565b610b1f565b610a13565b6109a4565b6108ff565b6108c7565b61088f565b61081f565b610759565b610737565b6106fa565b6106c0565b61053a565b61051d565b6103f8565b61031e565b610214565b90600182811c92168015610197575b602083101461018357565b634e487b7160e01b5f52602260045260245ffd5b91607f1691610178565b634e487b7160e01b5f52604160045260245ffd5b90601f8019910116810190811067ffffffffffffffff8211176101d757604052565b6101a1565b805180835260209291819084018484015e5f828201840152601f01601f1916010190565b9060206102119281815201906101dc565b90565b346102ee575f3660031901126102ee576040515f60015461023481610169565b80845290600181169081156102ca575060011461026c575b6102688361025c818503826101b5565b60405191829182610200565b0390f35b60015f9081527fb10e2d527612073b26eecdfd717e6a320cf44b4afac2b0732d9fcbe2b7fa0cf6939250905b8082106102b05750909150810160200161025c61024c565b919260018160209254838588010152019101909291610298565b60ff191660208086019190915291151560051b8401909101915061025c905061024c565b5f80fd5b600435906001600160a01b03821682036102ee57565b602435906001600160a01b03821682036102ee57565b346102ee5760403660031901126102ee576103376102f2565b60243590335f526005602052816103618260405f209060018060a01b03165f5260205260405f2090565b556040519182526001600160a01b03169033907f8c5be1e5ebec7d5bd14f71427d1e84f3dd0314c0f7b2291e5b200ac8c7c3b92590602090a360405160018152602090f35b67ffffffffffffffff81116101d757601f01601f191660200190565b9291926103ce826103a6565b916103dc60405193846101b5565b8294818452818301116102ee578281602093845f960137010152565b346102ee5760403660031901126102ee5760043560243567ffffffffffffffff81116102ee57366023820112156102ee5761043d9036906024816004013591016103c2565b335f525f602052610454600160405f205414610d5d565b636e616d6560e01b8203610495576104908161025c7fe42e0b9a029dc87ccb1029c632e6359090acd0eb032b2b59c811e3ec70160dc693610ed2565b0390a2005b651cde5b589bdb60d21b82036104d857610490816104d37fe42e0b9a029dc87ccb1029c632e6359090acd0eb032b2b59c811e3ec70160dc693610dee565b61025c565b60405162461bcd60e51b815260206004820152601d60248201527f45524332302f66696c652d756e7265636f676e697a65642d706172616d0000006044820152606490fd5b346102ee575f3660031901126102ee576020600354604051908152f35b346102ee5760603660031901126102ee576105536102f2565b61055b610308565b905f8051602061151e83398151915261062f6044356001600160a01b0385169461061f90861515806106b6575b6105919061108d565b6001600160a01b0386165f9081526004602052604090206105b79084905b5410156110d1565b6001600160a01b038616956106019033880361063e575b6001600160a01b0381165f90815260046020526040902085905b54039060018060a01b03165f52600460205260405f2055565b6001600160a01b03165f908152600460205260409020805483019055565b6040519081529081906020820190565b0390a360405160018152602090f35b846106723361065d8460018060a01b03165f52600560205260405f2090565b9060018060a01b03165f5260205260405f2090565b5460018101610683575b50506105ce565b61068f8282101561111d565b036106ae3361065d8460018060a01b03165f52600560205260405f2090565b55845f61067c565b5030871415610588565b346102ee575f3660031901126102ee5760206040517f6e71edae12b1b97f4d1f60370fef10105fa2faae0126114a169c64845d6126c98152f35b346102ee575f3660031901126102ee57602060405160ff7f0000000000000000000000000000000000000000000000000000000000000000168152f35b346102ee575f3660031901126102ee576020610751610faa565b604051908152f35b346102ee5760403660031901126102ee576107726102f2565b602435335f525f60205261078c600160405f205414610d5d565b6001600160a01b038216916107d29083151580610815575b6107ad9061108d565b5f84815260046020526040808220546001600160a01b03909316825290209083019055565b60035490808201809211610801576107fc5f8051602061151e8339815191529161061f5f94600355565b0390a3005b634e487b7160e01b5f52601160045260245ffd5b50308414156107a4565b346102ee5760203660031901126102ee576108386102f2565b335f525f60205261084f600160405f205414610d5d565b6001600160a01b03165f818152602081905260408120600190557fdd0e34038ac38b2a1ce960229778ac48a8719bc900b6c4f8d0475c6e8b385a609080a2005b346102ee5760203660031901126102ee576001600160a01b036108b06102f2565b165f526004602052602060405f2054604051908152f35b346102ee5760203660031901126102ee576001600160a01b036108e86102f2565b165f526006602052602060405f2054604051908152f35b346102ee575f3660031901126102ee576040515f60025461091f81610169565b80845290600181169081156102ca5750600114610946576102688361025c818503826101b5565b60025f9081527f405787fa12a823e0f2b7631cc41b3ba8828b3321ca811111fa75cd3aa3bb5ace939250905b80821061098a5750909150810160200161025c61024c565b919260018160209254838588010152019101909291610972565b346102ee5760203660031901126102ee576109bd6102f2565b335f525f6020526109d4600160405f205414610d5d565b6001600160a01b03165f8181526020819052604081208190557f184450df2e323acec0ed3b5c7531b81f9b4cdef7914dfd4c0a4317416bb5251b9080a2005b346102ee5760403660031901126102ee575f610a2d6102f2565b5f8051602061151e8339815191526107fc60243533855284602052610a586001604087205414610d5d565b6001600160a01b0384165f908152600460205260409020610a7a9082906105af565b6001600160a01b03841693610aaf90338603610abc575b6001600160a01b0381165f90815260046020526040902083906105e8565b61061f8160035403600355565b82610adb3361065d8460018060a01b03165f52600560205260405f2090565b5488198103610aec575b5050610a91565b610af88282101561111d565b03610b173361065d8460018060a01b03165f52600560205260405f2090565b55825f610ae5565b346102ee5760a03660031901126102ee57610b386102f2565b610b40610308565b90604435606435906084359367ffffffffffffffff85116102ee57366023860112156102ee57610b7d610b839536906024816004013591016103c2565b936111ef565b005b346102ee5760403660031901126102ee57610b9e6102f2565b6024356001600160a01b03821691610bf49083151580610c15575b610bc29061108d565b335f526004602052610bda8360405f205410156110d1565b335f90815260046020526040902080548490039055610601565b60405190815233905f8051602061151e83398151915290806020810161062f565b5030841415610bb9565b346102ee5760203660031901126102ee576001600160a01b03610c406102f2565b165f525f602052602060405f2054604051908152f35b346102ee575f3660031901126102ee5760206040517f00000000000000000000000000000000000000000000000000000000000000008152f35b346102ee5760e03660031901126102ee57610ca96102f2565b610cb1610308565b604435606435906084359260ff841684036102ee57610b839460a4359460c43560408051602081019890985287015260f81b6001600160f81b031916606086015260418552610d016061866101b5565b6111ef565b346102ee5760403660031901126102ee576020610d54610d246102f2565b610d2c610308565b6001600160a01b039182165f9081526005855260408082209290931681526020919091522090565b54604051908152f35b15610d6457565b60405162461bcd60e51b8152602060048201526013602482015272105d5d1a0bdb9bdd0b585d5d1a1bdc9a5e9959606a1b6044820152606490fd5b601f8211610dac57505050565b5f5260205f20906020601f840160051c83019310610de4575b601f0160051c01905b818110610dd9575050565b5f8155600101610dce565b9091508190610dc5565b90815167ffffffffffffffff81116101d757610e1681610e0f600254610169565b6002610d9f565b602092601f8211600114610e5657610e46929382915f92610e4b575b50508160011b915f199060031b1c19161790565b600255565b015190505f80610e32565b60025f52601f198216937f405787fa12a823e0f2b7631cc41b3ba8828b3321ca811111fa75cd3aa3bb5ace915f5b868110610eba5750836001959610610ea2575b505050811b01600255565b01515f1960f88460031b161c191690555f8080610e97565b91926020600181928685015181550194019201610e84565b90815167ffffffffffffffff81116101d757610efa81610ef3600154610169565b6001610d9f565b602092601f8211600114610f2e57610f29929382915f92610e4b5750508160011b915f199060031b1c19161790565b600155565b60015f52601f198216937fb10e2d527612073b26eecdfd717e6a320cf44b4afac2b0732d9fcbe2b7fa0cf6915f5b868110610f925750836001959610610f7a575b505050811b01600155565b01515f1960f88460031b161c191690555f8080610f6f565b91926020600181928685015181550194019201610f5c565b467f000000000000000000000000000000000000000000000000000000000000000003610ff5577f000000000000000000000000000000000000000000000000000000000000000090565b60405160208101907f8b73c3c69bb8fe3d512ecc4cf759cc79239f7b179b0ffacaa9a75d522b39400f82527f000000000000000000000000000000000000000000000000000000000000000060408201527f000000000000000000000000000000000000000000000000000000000000000060608201524660808201523060a082015260a0815261108760c0826101b5565b51902090565b1561109457565b60405162461bcd60e51b815260206004820152601560248201527445524332302f696e76616c69642d6164647265737360581b6044820152606490fd5b156110d857565b60405162461bcd60e51b815260206004820152601a60248201527f45524332302f696e73756666696369656e742d62616c616e63650000000000006044820152606490fd5b1561112457565b60405162461bcd60e51b815260206004820152601c60248201527f45524332302f696e73756666696369656e742d616c6c6f77616e6365000000006044820152606490fd5b1561117057565b60405162461bcd60e51b8152602060048201526014602482015273115490cc8c0bdc195c9b5a5d0b595e1c1a5c995960621b6044820152606490fd5b156111b357565b60405162461bcd60e51b8152602060048201526014602482015273115490cc8c0bda5b9d985b1a590b5c195c9b5a5d60621b6044820152606490fd5b939061131061130b61134e937f8c5be1e5ebec7d5bd14f71427d1e84f3dd0314c0f7b2291e5b200ac8c7c3b925959661122a81421115611169565b6112ca6113028a8a6112d8896112ca6112538560018060a01b03165f52600660205260405f2090565b9788549860018a019055611265610faa565b98604051958694602086019889919260a093969594919660c08401977f6e71edae12b1b97f4d1f60370fef10105fa2faae0126114a169c64845d6126c98552600180871b03166020850152600180861b03166040840152606083015260808201520152565b03601f1981018352826101b5565b519020604051928391602083019586909160429261190160f01b8352600283015260228201520190565b51902088611410565b6111ac565b8361132f8261065d8860018060a01b03165f52600560205260405f2090565b556040519384526001600160a01b039081169416929081906020820190565b0390a3565b1561135a57565b60405162461bcd60e51b815260206004820152601b60248201527f5369676e61747572654c69622f696e76616c69642d7369676e657200000000006044820152606490fd5b6040513d5f823e3d90fd5b6040906102119392815281602082015201906101dc565b3d156113eb573d906113d2826103a6565b916113e060405193846101b5565b82523d5f602084013e565b606090565b908160209103126102ee57516001600160e01b0319811681036102ee5790565b5f93929091906001600160a01b03831661142b811515611353565b60418251146114c1575b50823b61144157505050565b5f939450906112ca61146d8594936040519283916020830195630b135d3f60e11b8752602484016113aa565b51915afa6114796113c1565b816114b5575b81611488575090565b8051630b135d3f60e11b92506001600160e01b0319916114b0918101602090810191016113f0565b161490565b8051602014915061147f565b60208281015160408085015160608087015183518981525f91821a818801529384019490945282015281805260809060015afa15611518575f516001600160a01b03161461150f575f611435565b50600193505050565b61139f56feddf252ad1be2c89b69c2b068fc378daa952ba7f163c4a11628f55a4df523b3efa2646970667358221220176c06e07ea4f008c72b14e1c1805a50e6e12aa3964a8505cb9c02bf4c634a2e64736f6c634300081a003360808060405234601c576305f5e1005f5561010190816100218239f35b5f80fdfe60808060405260043610156011575f80fd5b5f3560e01c9081630fdb11cf1460855750806391b7f5ed14606f5763feaf968c146039575f80fd5b34606b575f366003190112606b5760a05f54604051905f825260208201525f60408201525f60608201525f6080820152f35b5f80fd5b34606b576020366003190112606b576004355f55005b34606b575f366003190112606b575f54906402540be4008202918083046402540be400149015171560b7576020918152f35b634e487b7160e01b5f52601160045260245ffdfea264697066735822122011642317720f365782545f0b215b67186cd2f21a713bafaa8993c923a2d3ce6264736f6c634300081a003360a03460bd57601f611ad438819003918201601f19168301916001600160401b0383118484101760c15780849260209460405283398101031260bd57516001600160a01b0381169081900360bd57335f525f602052600160405f205560405190337fdd0e34038ac38b2a1ce960229778ac48a8719bc900b6c4f8d0475c6e8b385a605f80a2600160ff19600d541617600d55600160ff1960205416176020556080526119fe90816100d6823960805181818161112801526111df0152f35b5f80fd5b634e487b7160e01b5f52604160045260245ffdfe6080806040526004361015610012575f80fd5b5f905f3560e01c9081630364562a1461126a5750806309c5eabe146111ce5780630bfb963b14611157578063116191b6146111125780631d9279e5146110e85780631ed7831c1461106a5780631fc502901461103757806321e8e12a146110085780632ade388014610ea15780632bb1ae7c14610d205780632d0c758314610c855780633655626e14610c525780633e5e3c2314610bd45780633f7286f414610b5657806357c4b20714610b2c578063618c0ca314610a8557806365fae35e14610a1457806366d9a9a0146108f35780636edfc001146108c15780636efa427b1461085657806377ebf4131461081757806385226c811461078557806387000b491461075b578063916a17c6146106b35780639c52a7f1146106435780639ea4f95814610616578063a9573598146105e3578063a98d6f4f146105b9578063ac055e401461059a578063b0464fdc146104f2578063b1831105146104a5578063b5508aa914610413578063ba414fa6146103ee578063bdde3565146103bb578063bf353dbb14610383578063bf3e9d7c14610354578063c69586b214610310578063cff10265146102e6578063d9596218146102b2578063e20c9f7114610224578063f8a8fd6d146102105763fa7626d4146101ec575f80fd5b3461020d578060031936011261020d57602060ff8154166040519015158152f35b80fd5b503461020d578060031936011261020d5780f35b503461020d578060031936011261020d5760405160168054808352908352909160208301917fd833147d7dc355ba459fc788f669e58cfaf9dc25ddcd0702e87d69c7b5124289915b8181106102935761028f856102838187038261138d565b60405191829182611475565b0390f35b82546001600160a01b031684526020909301926001928301920161026c565b503461020d57602080806102c5366113d2565b604051928184925191829101835e8101603181520301902054604051908152f35b503461020d57602036600319011261020d5760406020916004358152602183522054604051908152f35b503461020d57604036600319011261020d57604060209161032f61152e565b6004358252602f84528282206001600160a01b03909116825283522054604051908152f35b503461020d57602036600319011261020d5760ff60406020926004358152602584522054166040519015158152f35b503461020d57602036600319011261020d576020906040906001600160a01b036103ab611544565b1681528083522054604051908152f35b503461020d57602036600319011261020d576001600160401b036040602092600435815260278452205416604051908152f35b503461020d578060031936011261020d57602061040961191f565b6040519015158152f35b503461020d578060031936011261020d57601a54610430816116c4565b9161043e604051938461138d565b818352601a81527f057c384a7d1c54f3a1b2e5e67b2617b8224fdfd1ea7234eea573a6ff665ff63e602084015b838310610488576040516020808252819061028f908201886114d6565b600160208192610497856115ad565b81520192019201919061046b565b503461020d57604036600319011261020d576024356001600160801b038116908190036104ee57600435825260246020526040822080546001600160801b031916909117905580f35b5080fd5b503461020d578060031936011261020d57601d5461050f816116c4565b9161051d604051938461138d565b818352601d81527f6d4407e7be21f808e6509aa9fa9143369579dd7d760fe20a2c09680fc146134f602084015b83831061055f576040518061028f878261164d565b600260206001926040516105728161135e565b848060a01b03865416815261058885870161171d565b8382015281520192019201919061054a565b503461020d576105a936611597565b9082526023602052604082205580f35b503461020d57602036600319011261020d5760406020916004358152602c83522054604051908152f35b503461020d57602036600319011261020d57602090600435815260288252604060018060801b0391205416604051908152f35b503461020d57602036600319011261020d5760ff6040602092600435815260268452205416604051908152f35b503461020d57602036600319011261020d5761065d611544565b3382528160205261067460016040842054146116db565b6001600160a01b03168082526020829052604082208290557f184450df2e323acec0ed3b5c7531b81f9b4cdef7914dfd4c0a4317416bb5251b8280a280f35b503461020d578060031936011261020d57601e546106d0816116c4565b916106de604051938461138d565b818352601e81527f50bb669a95c7b50b7e8a6f09454034b2b14cf2b85c730dca9a539ca82cb6e350602084015b838310610720576040518061028f878261164d565b600260206001926040516107338161135e565b848060a01b03865416815261074985870161171d565b8382015281520192019201919061070b565b503461020d57602036600319011261020d5760406020916004358152602383522054604051908152f35b503461020d578060031936011261020d57601b546107a2816116c4565b916107b0604051938461138d565b818352601b81527f3ad8aa4f87544323a9d1e5dd902f40c356527a7955687113db5f9a85ad579dc1602084015b8383106107fa576040516020808252819061028f908201886114d6565b600160208192610809856115ad565b8152019201920191906107dd565b503461020d57602036600319011261020d57610842604061028f926004358152602e602052206115ad565b6040519182916020835260208301906113ae565b503461020d5761086536611597565b908252602260205260408220805490600160401b8210156108ad576001820180825582101561089957835260208320015580f35b634e487b7160e01b84526032600452602484fd5b634e487b7160e01b84526041600452602484fd5b503461020d576108f06108d3366114b7565b9083526030602052604083209060ff801983541691151516179055565b80f35b503461020d578060031936011261020d57601c54610910816116c4565b61091d604051918261138d565b818152601c83526020810191837f0e4562a10381dec21b205ed72637e6b1b523bdd0e4d4d50af5cd23dd4500a211845b8383106109d957868587604051928392602084019060208552518091526040840160408260051b8601019392905b82821061098a57505050500390f35b919360019193955060206109c98192603f198a8203018652885190836109b983516040845260408401906113ae565b920151908481840391015261155a565b960192019201859493919261097b565b600260206001926040516109ec8161135e565b6109f5866115ad565b8152610a0285870161171d565b8382015281520192019201919061094d565b503461020d57602036600319011261020d57610a2e611544565b33825281602052610a4560016040842054146116db565b6001600160a01b0316808252602082905260408220600190557fdd0e34038ac38b2a1ce960229778ac48a8719bc900b6c4f8d0475c6e8b385a608280a280f35b503461020d57602036600319011261020d576004358152602260205260408120604051908160208254918281520190819285526020852090855b818110610b165750505082610ad591038361138d565b604051928392602084019060208552518091526040840192915b818110610afd575050500390f35b8251845285945060209384019390920191600101610aef565b8254845260209093019260019283019201610abf565b503461020d57602036600319011261020d5760406020916004358152602983522054604051908152f35b503461020d578060031936011261020d5760405160188054808352908352909160208301917fb13d2d76d1f4b7be834882e410b3e3a8afaf69f83600ae24db354391d2378d2e915b818110610bb55761028f856102838187038261138d565b82546001600160a01b0316845260209093019260019283019201610b9e565b503461020d578060031936011261020d5760405160198054808352908352909160208301917f944998273e477b495144fb8794c914197f3ccb46be2900f4698fd0ef743c9695915b818110610c335761028f856102838187038261138d565b82546001600160a01b0316845260209093019260019283019201610c1c565b503461020d57602036600319011261020d576020906004358152602a8252604060018060a01b0391205416604051908152f35b50604036600319011261020d576004356001600160401b0381116104ee57610cb1903690600401611448565b5050610cbb61152e565b506270617960e81b8152602260205260408120805490600160401b821015610d0c5760018201808255821015610cf8578252349060208320015580f35b634e487b7160e01b83526032600452602483fd5b634e487b7160e01b83526041600452602483fd5b503461020d57602036600319011261020d576004356001600160401b0381116104ee57610d51903690600401611448565b631cd95b9960e21b8352602d6020526040832092916001600160401b038211610d0c57610d7e8454611326565b601f8111610e5c575b508293601f8311600114610df9578284956020949591610dee575b508460011b905f198660031b1c19161790555b8260405193849283378101603181520301902080545f198114610dda57600101905580f35b634e487b7160e01b83526011600452602483fd5b90508201355f610da2565b80845260208420601f19841695855b878110610e44575084602095969710610e2b575b5050600184811b019055610db5565b8301355f19600387901b60f8161c191690555f80610e1c565b90916020600181928588013581550193019101610e08565b84845260208420601f840160051c81019160208510610e97575b601f0160051c01905b818110610e8c5750610d87565b848155600101610e7f565b9091508190610e76565b503461020d578060031936011261020d57601f54610ebe816116c4565b610ecb604051918261138d565b818152601f83526020810191837fa03837a25210ee280c2113ff4b77ca23440b19d4866cca721c801278fd08d807845b838310610f7f57868587604051928392602084019060208552518091526040840160408260051b8601019392905b828210610f3857505050500390f35b91936001919395506020610f6f8192603f198a82030186526040838a51878060a01b038151168452015191818582015201906114d6565b9601920192018594939192610f29565b604051610f8b8161135e565b82546001600160a01b03168152600183018054610fa7816116c4565b91610fb5604051938461138d565b8183528a526020808b20908b9084015b838210610feb575050505060019282602092836002950152815201920192019190610efb565b600160208192610ffa866115ad565b815201930191019091610fc5565b503461020d576108f061101a366114b7565b9083526025602052604083209060ff801983541691151516179055565b503461020d57602036600319011261020d57602090600435815260248252604060018060801b0391205416604051908152f35b503461020d578060031936011261020d5760405160178054808352908352909160208301917fc624b66cc0138b8fabc209247f72d758e1cf3343756d543badbf24212bed8c15915b8181106110c95761028f856102838187038261138d565b82546001600160a01b03168452602090930192600192830192016110b2565b503461020d57602036600319011261020d5760406020916004358152602b83522054604051908152f35b503461020d578060031936011261020d576040517f00000000000000000000000000000000000000000000000000000000000000006001600160a01b03168152602090f35b503461020d57604036600319011261020d576004356001600160401b0381116104ee57611188903690600401611448565b505067657374696d61746560c01b8152602360205260408120546024358101919082106111ba57602082604051908152f35b634e487b7160e01b81526011600452602490fd5b5034611266576111dd366113d2565b7f00000000000000000000000000000000000000000000000000000000000000006001600160a01b0316803b1561126657604051635fa45e5b60e11b815260206004820152915f91839182908490829061123b9060248301906113ae565b03925af1801561125b5761124d575080f35b61125991505f9061138d565b005b6040513d5f823e3d90fd5b5f80fd5b34611266576020366003190112611266576004355f52602d60205260405f205f9080549061129782611326565b80855291600181169081156112ff57506001146112bf575b61028f846108428186038261138d565b5f90815260208120939250905b8082106112e557509091508101602001610842826112af565b9192600181602092548385880101520191019092916112cc565b60ff191660208087019190915292151560051b8501909201925061084291508390506112af565b90600182811c92168015611354575b602083101461134057565b634e487b7160e01b5f52602260045260245ffd5b91607f1691611335565b604081019081106001600160401b0382111761137957604052565b634e487b7160e01b5f52604160045260245ffd5b90601f801991011681019081106001600160401b0382111761137957604052565b805180835260209291819084018484015e5f828201840152601f01601f1916010190565b6020600319820112611266576004356001600160401b0381116112665781602382011215611266578060040135906001600160401b0382116113795760405192611426601f8401601f19166020018561138d565b8284526024838301011161126657815f92602460209301838601378301015290565b9181601f84011215611266578235916001600160401b038311611266576020838186019501011161126657565b60206040818301928281528451809452019201905f5b8181106114985750505090565b82516001600160a01b031684526020938401939092019160010161148b565b6040906003190112611266576004359060243580151581036112665790565b9080602083519182815201916020808360051b8301019401925f915b83831061150157505050505090565b909192939460208061151f600193601f1986820301875289516113ae565b970193019301919392906114f2565b602435906001600160a01b038216820361126657565b600435906001600160a01b038216820361126657565b90602080835192838152019201905f5b8181106115775750505090565b82516001600160e01b03191684526020938401939092019160010161156a565b6040906003190112611266576004359060243590565b9060405191825f8254926115c084611326565b808452936001811690811561162b57506001146115e7575b506115e59250038361138d565b565b90505f9291925260205f20905f915b81831061160f5750509060206115e5928201015f6115d8565b60209193508060019154838589010152019101909184926115f6565b9050602092506115e594915060ff191682840152151560051b8201015f6115d8565b602081016020825282518091526040820191602060408360051b8301019401925f915b83831061167f57505050505090565b90919293946020806116b5600193603f198682030187526040838b51878060a01b0381511684520151918185820152019061155a565b97019301930191939290611670565b6001600160401b0381116113795760051b60200190565b156116e257565b60405162461bcd60e51b8152602060048201526013602482015272105d5d1a0bdb9bdd0b585d5d1a1bdc9a5e9959606a1b6044820152606490fd5b90604051918281549182825260208201905f5260205f20925f905b80600783011061187a576115e594549181811061185b575b81811061183c575b81811061181d575b8181106117fe575b8181106117df575b8181106117c0575b8181106117a3575b1061178e575b50038361138d565b6001600160e01b03191681526020015f611786565b602083811b6001600160e01b031916855290930192600101611780565b604083901b6001600160e01b0319168452602090930192600101611778565b606083901b6001600160e01b0319168452602090930192600101611770565b608083901b6001600160e01b0319168452602090930192600101611768565b60a083901b6001600160e01b0319168452602090930192600101611760565b60c083901b6001600160e01b0319168452602090930192600101611758565b60e083901b6001600160e01b0319168452602090930192600101611750565b916008919350610100600191865463ffffffff60e01b8160e01b16825263ffffffff60e01b8160c01b16602083015263ffffffff60e01b8160a01b16604083015263ffffffff60e01b8160801b16606083015263ffffffff60e01b8160601b16608083015263ffffffff60e01b8160401b1660a083015263ffffffff60e01b8160201b1660c083015263ffffffff60e01b1660e0820152019401920185929391611738565b60095460ff16801561192e5790565b50604051630667f9d760e41b8152737109709ecfa91a80626ff3989d68f67f5b1dd12d60048201526519985a5b195960d21b6024820152602081604481737109709ecfa91a80626ff3989d68f67f5b1dd12d5afa90811561125b575f91611996575b50151590565b90506020813d6020116119c0575b816119b16020938361138d565b8101031261126657515f611990565b3d91506119a456fea264697066735822122094a4934c883de44f7d1d56757e403ccff1df280c6fb568a3d81d36ac2a258e6c64736f6c634300081a003360806040523461017e576123f28038038061001981610182565b92833981019060208183031261017e578051906001600160401b03821161017e570181601f8201121561017e578051916001600160401b03831161013b578260051b9160208061006a818601610182565b80968152019382010191821161017e57602001915b81831061015e5783600160ff19600c541617600c55600160ff19601f541617601f555f5b815181101561014f576020600582901b8301810151905491906001600160a01b03166801000000000000000083101561013b5760018301806020558310156101275760205f527fc97bfaf2f8ee708c303a06d134f5ecd8389ae0432af62dc132a24118292866bb90920180546001600160a01b0319169092179091556001016100a3565b634e487b7160e01b5f52603260045260245ffd5b634e487b7160e01b5f52604160045260245ffd5b60405161224a90816101a88239f35b82516001600160a01b038116810361017e5781526020928301920161007f565b5f80fd5b6040519190601f01601f191682016001600160401b0381118382101761013b5760405256fe60806040526004361015610011575f80fd5b5f3560e01c806304f2ce6e14610274578063089948b51461026f57806309c5eabe1461026a578063189eb692146102655780631ed7831c14610260578063290cd5521461025b5780632ade3880146102565780632b8961011461025157806338ef96811461024c5780633e5e3c23146102475780633ef46309146102425780633f7286f41461023d5780633fb930f3146102385780634ef501ac1461023357806366d9a9a01461022e5780637b042669146102295780637b2209251461022457806385226c811461021f578063868d91461461021a5780638aa2e5b0146102155780638f971c8b14610210578063916a17c61461020b57806391ba22751461020657806395a2ef2a14610201578063b0464fdc146101fc578063b5508aa9146101f7578063ba414fa6146101f2578063bef5ad50146101ed578063c47744ab146101e8578063c77d5fe6146101e3578063cb5cbeef146101de578063dafd6bfa146101d9578063dd4b0c40146101d4578063e20c9f71146101cf578063ea01e89a146101ca578063f8a8fd6d146101c5578063fa7626d4146101c05763fe2b2faf146101bb575f80fd5b611a29565b611a07565b6119f5565b61195b565b6118de565b61186d565b611820565b61177e565b6116fe565b611697565b6115e9565b6115c5565b61153a565b611491565b611415565b611398565b6112ef565b611122565b6110bb565b61101a565b610f8f565b610f07565b610e39565b610d75565b610c77565b610bfe565b610b81565b610ade565b610a61565b6109f0565b6109a2565b6108f9565b610789565b6106fc565b610633565b610581565b610493565b6103a5565b600435906001600160401b038216820361028f57565b5f80fd5b608435906001600160401b038216820361028f57565b604435906001600160401b038216820361028f57565b606435906001600160401b038216820361028f57565b602435906001600160801b03198216820361028f57565b600435906001600160a01b038216820361028f57565b602435906001600160a01b038216820361028f57565b606435906001600160a01b038216820361028f57565b604435906001600160a01b038216820361028f57565b60a435906001600160a01b038216820361028f57565b606090600319011261028f576004356001600160401b038116810361028f57906024356001600160801b03198116810361028f57906044356001600160a01b038116810361028f5790565b3461028f5761040f6103b63661035a565b604051600160fc1b602082015260c09390931b6001600160c01b03191660218401526001600160801b0319909116602983015260601b6001600160601b0319166039820152602d815261040a604d8261050f565b612017565b005b602435906001600160801b038216820361028f57565b604435906001600160801b038216820361028f57565b606435906001600160801b038216820361028f57565b600435906001600160801b038216820361028f57565b608435906001600160801b038216820361028f57565b35906001600160801b038216820361028f57565b3461028f57604036600319011261028f5761040f6104af610279565b61040a6104ba610411565b916104cd60405193849260208401611a91565b03601f19810183528261050f565b634e487b7160e01b5f52604160045260245ffd5b604081019081106001600160401b0382111761050a57604052565b6104db565b90601f801991011681019081106001600160401b0382111761050a57604052565b6001600160401b03811161050a57601f01601f191660200190565b92919261055782610530565b91610565604051938461050f565b82948184528183011161028f578281602093845f960137010152565b3461028f57602036600319011261028f576004356001600160401b03811161028f573660238201121561028f5761040a61040f91369060248160040135910161054b565b60c090600319011261028f576004356001600160401b038116810361028f57906024356001600160801b03198116810361028f5790604435906064356001600160801b038116810361028f57906084356001600160801b038116810361028f579061063060a461047f565b90565b3461028f5761040f610644366105c5565b604051601760f81b602082015260c09690961b6001600160c01b03191660218701526001600160801b031994851660298701526039860193909352608091821b84166059860152811b831660698086019190915291901b9091166079830152815261040a60898261050f565b5f91031261028f57565b60206040818301928281528451809452019201905f5b8181106106dd5750505090565b82516001600160a01b03168452602093840193909201916001016106d0565b3461028f575f36600319011261028f57604051601680548083525f91825260208301917fd833147d7dc355ba459fc788f669e58cfaf9dc25ddcd0702e87d69c7b512428991905b81811061076a576107668561075a8187038261050f565b604051918291826106ba565b0390f35b82546001600160a01b0316845260209093019260019283019201610743565b3461028f5761040f61079a366105c5565b604051600d60f91b602082015260c09690961b6001600160c01b03191660218701526001600160801b031994851660298701526039860193909352608091821b84166059860152811b831660698086019190915291901b9091166079830152815261040a60898261050f565b805180835260209291819084018484015e5f828201840152601f01601f1916010190565b9080602083519182815201916020808360051b8301019401925f915b83831061085557505050505090565b9091929394602080610873600193601f198682030187528951610806565b97019301930191939290610846565b602081016020825282518091526040820191602060408360051b8301019401925f915b8383106108b457505050505090565b90919293946020806108ea600193603f198682030187526040838b51878060a01b0381511684520151918185820152019061082a565b970193019301919392906108a5565b3461028f575f36600319011261028f57601e5461091581611ac8565b90610923604051928361050f565b808252601e5f9081527f50bb669a95c7b50b7e8a6f09454034b2b14cf2b85c730dca9a539ca82cb6e350602084015b83831061096757604051806107668782610882565b6002602060019260405161097a816104ef565b848060a01b038654168152610990858701611ba7565b83820152815201920192019190610952565b3461028f57602036600319011261028f5761040f6104cd61040a6109c4610279565b604051600560f91b602082015260c09190911b6001600160c01b03191660218201529182906029820190565b3461028f5761040f610a013661035a565b604051601360f81b602082015260c09390931b6001600160c01b03191660218401526001600160801b03199091166029830152600160f91b603983015260601b6001600160601b031916603a80830191909152815261040a605a8261050f565b3461028f575f36600319011261028f57604051601880548083525f91825260208301917fb13d2d76d1f4b7be834882e410b3e3a8afaf69f83600ae24db354391d2378d2e91905b818110610abf576107668561075a8187038261050f565b82546001600160a01b0316845260209093019260019283019201610aa8565b3461028f5760a036600319011261028f5761040f610afa610279565b610b026102d5565b610b0a610427565b610b1261043d565b90610b1b610293565b604051600760f91b60208201526001600160c01b031960c096871b811660218301526001600160801b03199586166029830152608093841b861660398301529390921b90931660498201529190921b90911660598201526041815261040a60618261050f565b3461028f575f36600319011261028f57604051601780548083525f91825260208301917fc624b66cc0138b8fabc209247f72d758e1cf3343756d543badbf24212bed8c1591905b818110610bdf576107668561075a8187038261050f565b82546001600160a01b0316845260209093019260019283019201610bc8565b3461028f57602036600319011261028f5761040f610c1a6102ec565b604051600560f81b602082015260609190911b6001600160601b03191660218201526015815261040a60358261050f565b602054811015610c635760205f5260205f2001905f90565b634e487b7160e01b5f52603260045260245ffd5b3461028f57602036600319011261028f5760043560205481101561028f57610ca0602091610c4b565b905460405160039290921b1c6001600160a01b03168152f35b90602080835192838152019201905f5b818110610cd65750505090565b82516001600160e01b031916845260209384019390920191600101610cc9565b602081016020825282518091526040820191602060408360051b8301019401925f915b838310610d2857505050505090565b9091929394602080610d66600193603f1986820301875289519083610d568351604084526040840190610806565b9201519084818403910152610cb9565b97019301930191939290610d19565b3461028f575f36600319011261028f57601b54610d9181611ac8565b90610d9f604051928361050f565b808252601b5f9081527f3ad8aa4f87544323a9d1e5dd902f40c356527a7955687113db5f9a85ad579dc1602084015b838310610de357604051806107668782610cf6565b60026020600192604051610df6816104ef565b610dff86611adf565b8152610e0c858701611bfc565b83820152815201920192019190610dce565b9080601f8301121561028f578160206106309335910161054b565b3461028f57608036600319011261028f57610e52610279565b610e5a6102d5565b6044356001600160401b03811161028f57610e79903690600401610e1e565b6064356001600160401b03811161028f5761040f9361040a92610ef9610eb7610eb1610eab6020963690600401610e1e565b93612106565b92612175565b604051600f60f81b8682015260c09490941b6001600160c01b03191660218501526001600160801b031990961660298401529194859290916039840190611e1e565b90815203808452018261050f565b3461028f57604036600319011261028f57610f20610453565b602435906001600160401b038216820361028f57604051600160fb1b602082015260809190911b6001600160801b031916602182015260c09190911b6001600160c01b03191660318201526019815261040f9061040a60398261050f565b90602061063092818152019061082a565b3461028f575f36600319011261028f57601a54610fab81611ac8565b90610fb9604051928361050f565b808252601a5f9081527f057c384a7d1c54f3a1b2e5e67b2617b8224fdfd1ea7234eea573a6ff665ff63e602084015b838310610ffd57604051806107668782610f7e565b60016020819261100c85611adf565b815201920192019190610fe8565b3461028f57604036600319011261028f5761040f611036610279565b61040a611041610411565b604051600560f91b602082015260c084901b6001600160c01b0319166021820152926110909061107e85602981015b03601f19810187528661050f565b6104cd60405193849260208401611a91565b6104cd61109f845161ffff1690565b916110ac815161ffff1690565b60405195869460208601611e30565b3461028f57604036600319011261028f5761040f6110d7610453565b6110df610302565b604051600960f81b602082015260809290921b6001600160801b031916602183015260601b6001600160601b03191660318201526025815261040a60458261050f565b3461028f5760a036600319011261028f5761107061113e610279565b6111466102d5565b9061114f6102a9565b611157610318565b61118f611162610469565b604051600160f81b602082015260c09490941b6001600160c01b0319166021850152929586906029820190565b6111996001612197565b6111a76009865110156121d4565b60405160098082019601601282015b808810611265575050916104cd916112076111fa6111e98661040f9a600961040a9a9952601f8019910116604052611e76565b9260601b6001600160601b03191690565b6001600160601b03191690565b604051600960f91b602082015260c09590951b6001600160c01b03191660218601526001600160801b031996871660298601526001600160b81b03199091166039850152604284015260801b90931660628201529182906072820190565b90966020809189518152019701906111b6565b602081016020825282518091526040820191602060408360051b8301019401925f915b8383106112aa57505050505090565b90919293946020806112e0600193603f198682030187526040838b51878060a01b03815116845201519181858201520190610cb9565b9701930193019193929061129b565b3461028f575f36600319011261028f57601d5461130b81611ac8565b90611319604051928361050f565b808252601d5f9081527f6d4407e7be21f808e6509aa9fa9143369579dd7d760fe20a2c09680fc146134f602084015b83831061135d57604051806107668782611278565b60026020600192604051611370816104ef565b848060a01b038654168152611386858701611bfc565b83820152815201920192019190611348565b3461028f5761040f6113a9366105c5565b604051600b60f91b602082015260c09690961b6001600160c01b03191660218701526001600160801b031994851660298701526039860193909352608091821b84166059860152811b831660698086019190915291901b9091166079830152815261040a60898261050f565b3461028f57608036600319011261028f5761040f6114316102ec565b611439610302565b9061144261032e565b604051600760f81b60208201526001600160601b0319606093841b8116602183015293831b84166041820152911b9091166061820152606435608180830191909152815261040a60a18261050f565b3461028f575f36600319011261028f57601c546114ad81611ac8565b906114bb604051928361050f565b808252601c5f9081527f0e4562a10381dec21b205ed72637e6b1b523bdd0e4d4d50af5cd23dd4500a211602084015b8383106114ff57604051806107668782611278565b60026020600192604051611512816104ef565b848060a01b038654168152611528858701611bfc565b838201528152019201920191906114ea565b3461028f575f36600319011261028f5760195461155681611ac8565b90611564604051928361050f565b80825260195f9081527f944998273e477b495144fb8794c914197f3ccb46be2900f4698fd0ef743c9695602084015b8383106115a857604051806107668782610f7e565b6001602081926115b785611adf565b815201920192019190611593565b3461028f575f36600319011261028f5760206115df611ecd565b6040519015158152f35b3461028f5760a036600319011261028f5761040f611605610279565b61160d6102d5565b61161561032e565b9061161e61043d565b90611627610469565b926001600160601b03199060601b8116604051600760fa1b602082015260c09690961b6001600160c01b03191660218701526001600160801b03199283166029870152166039850152608091821b81166059808601919091529290911b166069830152815261040a60798261050f565b3461028f57604036600319011261028f5761040f6116b3610279565b6116bb610411565b604051600d60f81b602082015260c09290921b6001600160c01b031916602183015260801b6001600160801b03191660298201526019815261040a60398261050f565b3461028f5760c036600319011261028f57611717610279565b61171f6102d5565b906044356001600160401b03811161028f5761173f903690600401610e1e565b6064356001600160401b03811161028f5761175e903690600401610e1e565b6084359160ff8316830361028f5761040f94611778610344565b94611f69565b3461028f57608036600319011261028f5761040f61179a610279565b6117a26102d5565b6117aa61032e565b906117b36102bf565b604051601360f81b60208201526001600160c01b031960c095861b811660218301526001600160801b0319939093166029820152600160f81b603982015260609390931b6001600160601b031916603a84015290921b909116605a8201526042815261040a60628261050f565b3461028f57602036600319011261028f5761040f61183c6102ec565b604051600360f91b602082015260609190911b6001600160601b03191660218201526015815261040a60358261050f565b3461028f5761040f61187e3661035a565b604051601360f81b602082015260c09390931b6001600160c01b03191660218401526001600160801b03199091166029830152600360f81b603983015260601b6001600160601b031916603a80830191909152815261040a605a8261050f565b3461028f575f36600319011261028f57604051601580548083525f91825260208301917f55f448fdea98c4d29eb340757ef0a66cd03dbb9538908a6a81d96026b71ec47591905b81811061193c576107668561075a8187038261050f565b82546001600160a01b0316845260209093019260019283019201611925565b3461028f5760a036600319011261028f5761040f611977610279565b61197f6102d5565b60443561198a61043d565b90611993610469565b604051601b60f81b602082015260c09590951b6001600160c01b03191660218601526001600160801b031993841660298601526039850191909152608091821b8316605980860191909152911b9091166069830152815261040a60798261050f565b3461028f575f36600319011261028f57005b3461028f575f36600319011261028f57602060ff601f54166040519015158152f35b3461028f57606036600319011261028f5761040f611a45610453565b602435611a50610427565b604051601160f81b60208201526001600160801b0319608094851b811660218301526031820193909352921b1660518201526041815261040a60618261050f565b600360fa1b815260c09190911b6001600160c01b031916600182015260809190911b6001600160801b031916600982015260190190565b6001600160401b03811161050a5760051b60200190565b90604051915f8154908160011c9260018316908115611b9d575b602085108214611b895784875286936020850192908115611b6c5750600114611b2d575b5050611b2b9250038361050f565b565b611b3c9192505f5260205f2090565b905f915b848310611b555750611b2b9350015f80611b1d565b805482840152869350602090920191600101611b40565b915050611b2b9491925060ff19168252151560051b015f80611b1d565b634e487b7160e01b5f52602260045260245ffd5b93607f1693611af9565b908154611bb381611ac8565b92611bc1604051948561050f565b81845260208401905f5260205f205f915b838310611bdf5750505050565b600160208192611bee85611adf565b815201920192019190611bd2565b60405181548082529092918390611c1a60208301915f5260205f2090565b925f905b806007830110611d6157611b2b945491818110611d42575b818110611d23575b818110611d04575b818110611ce5575b818110611cc6575b818110611ca7575b818110611c89575b10611c74575b50038361050f565b6001600160e01b03191681526020015f611c6c565b602083811b6001600160e01b03191685529093600191019301611c66565b604083901b6001600160e01b0319168452926001906020019301611c5e565b606083901b6001600160e01b0319168452926001906020019301611c56565b608083901b6001600160e01b0319168452926001906020019301611c4e565b60a083901b6001600160e01b0319168452926001906020019301611c46565b60c083901b6001600160e01b0319168452926001906020019301611c3e565b6001600160e01b031960e084901b168452926001906020019301611c36565b916008919350610100600191611e108754611d87838260e01b63ffffffff60e01b169052565b60c081901b6001600160e01b031916602084015260a081901b6001600160e01b0319166040840152608081901b6001600160e01b0319166060840152606081901b6001600160e01b0319166080840152604081901b6001600160e01b03191660a0840152602081901b6001600160e01b03191660c08401526001600160e01b03191660e0830152565b019401920185929391611c1e565b805191908290602001825e015f815290565b6002926003611e5d92610630979694600160fa1b825261ffff60f01b9060f01b1660018201520190611e1e565b60f09190911b6001600160f01b03191681520190611e1e565b80516020909101516001600160b81b0319811692919060098210611e98575050565b6001600160b81b031960099290920360031b82901b16169150565b9081602091031261028f575190565b6040513d5f823e3d90fd5b60085460ff168015611edc5790565b50604051630667f9d760e41b8152737109709ecfa91a80626ff3989d68f67f5b1dd12d600482018190526519985a5b195960d21b6024830152602090829060449082905afa908115611f64575f91611f35575b50151590565b611f57915060203d602011611f5d575b611f4f818361050f565b810190611eb3565b5f611f2f565b503d611f45565b611ec2565b909392611b2b9561040a94611fce611f8b611f85603597612106565b94612175565b604051600b60f81b602082015260c09690961b6001600160c01b03191660218701526001600160801b031990981660298601529396879490936039860190611e1e565b92835260f81b6001600160f81b031916602083015260601b6001600160601b031916602182015260159190039081018452018261050f565b906020610630928181520190610806565b90612043916120518151602083012060405194859160208301602191600160f81b825260018201520190565b03601f19810185528461050f565b5f5b6020548110156121005761209061208461208461206f84610c4b565b905460039190911b1c6001600160a01b031690565b6001600160a01b031690565b90806120f95782915b803b1561028f576040516304e2f55f60e11b8152925f9184918290849082906120c59060048301612006565b03925af1918215611f64576001926120df575b5001612053565b806120ed5f6120f39361050f565b806106b0565b5f6120d8565b8491612099565b50509050565b8051608003608081116121615761215b916104cd8261212761063094610530565b90612135604051928361050f565b808252612144601f1991610530565b013660208301376040519485936020850190611e1e565b90611e1e565b634e487b7160e01b5f52601160045260245ffd5b602081519101519060208110612189575090565b5f199060200360031b1b1690565b1561219e57565b60405162461bcd60e51b815260206004820152600e60248201526d736c6963655f6f766572666c6f7760901b6044820152606490fd5b156121db57565b60405162461bcd60e51b8152602060048201526011602482015270736c6963655f6f75744f66426f756e647360781b6044820152606490fdfea2646970667358221220a489f6eafd07f9648f33391ea8040b80ff5657414b55a161dcc71e18da9c5e0e64736f6c634300081a003360808060405234602f57600160ff19600c541617600c55600160ff19601f541617601f5561173590816100348239f35b5f80fdfe60806040526004361015610011575f80fd5b5f3560e01c80630364562a146102345780631d9279e51461022f5780631ed7831c1461022a5780631fc502901461022557806321e8e12a146102205780632ade38801461021b5780633655626e146102165780633e5e3c23146102115780633f7286f41461020c578063492fac911461020757806357c4b20714610202578063618c0ca3146101fd57806366d9a9a0146101f85780636edfc001146101f35780636efa427b146101ee57806377ebf413146101e957806385226c81146101e457806387000b49146101df578063916a17c6146101da5780639ea4f958146101d5578063a9573598146101d0578063a98d6f4f146101cb578063ac055e40146101c6578063b0464fdc146101c1578063b1831105146101bc578063b5508aa9146101b7578063ba414fa6146101b2578063bdde3565146101ad578063bf3e9d7c146101a8578063c69586b2146101a3578063cff102651461019e578063e20c9f7114610199578063e766cc12146101945763fa7626d41461018f575f80fd5b611274565b611231565b6111b4565b61118b565b611141565b611112565b6110df565b6110bb565b611030565b610fe6565b610f3d565b610f1e565b610ef4565b610ec2565b610e95565b610dec565b610d4b565b610cc0565b610c71565b610b7a565b610b36565b610a8d565b610961565b6108fe565b61082f565b61076f565b6106f2565b6106c0565b610617565b610518565b6104c7565b61043e565b6103d2565b6102fe565b90600182811c92168015610267575b602083101461025357565b634e487b7160e01b5f52602260045260245ffd5b91607f1691610248565b634e487b7160e01b5f52604160045260245ffd5b604081019081106001600160401b038211176102a057604052565b610271565b90601f801991011681019081106001600160401b038211176102a057604052565b805180835260209291819084018484015e5f828201840152601f01601f1916010190565b9060206102fb9281815201906102c6565b90565b346103ce5760203660031901126103ce576004355f52602c60205260405f20604051905f9080549061032f82610239565b80855291600181169081156103a75750600114610367575b61036384610357818603826102a5565b604051918291826102ea565b0390f35b5f90815260208120939250905b80821061038d5750909150810160200161035782610347565b919260018160209254838588010152019101909291610374565b60ff191660208087019190915292151560051b850190920192506103579150839050610347565b5f80fd5b346103ce5760203660031901126103ce576004355f52602a602052602060405f2054604051908152f35b60206040818301928281528451809452019201905f5b81811061041f5750505090565b82516001600160a01b0316845260209384019390920191600101610412565b346103ce575f3660031901126103ce57604051601680548083525f91825260208301917fd833147d7dc355ba459fc788f669e58cfaf9dc25ddcd0702e87d69c7b512428991905b8181106104a8576103638561049c818703826102a5565b604051918291826103fc565b82546001600160a01b0316845260209093019260019283019201610485565b346103ce5760203660031901126103ce576004355f526023602052602060018060801b0360405f205416604051908152f35b60409060031901126103ce576004359060243580151581036103ce5790565b346103ce57610546610529366104f9565b905f52602460205260405f209060ff801983541691151516179055565b005b9080602083519182815201916020808360051b8301019401925f915b83831061057357505050505090565b9091929394602080610591600193601f1986820301875289516102c6565b97019301930191939290610564565b602081016020825282518091526040820191602060408360051b8301019401925f915b8383106105d257505050505090565b9091929394602080610608600193603f198682030187526040838b51878060a01b03815116845201519181858201520190610548565b970193019301919392906105c3565b346103ce575f3660031901126103ce57601e5461063381611296565b9061064160405192836102a5565b808252601e5f9081527f50bb669a95c7b50b7e8a6f09454034b2b14cf2b85c730dca9a539ca82cb6e350602084015b838310610685576040518061036387826105a0565b6002602060019260405161069881610285565b848060a01b0386541681526106ae8587016112ad565b83820152815201920192019190610670565b346103ce5760203660031901126103ce576004355f526029602052602060018060a01b0360405f205416604051908152f35b346103ce575f3660031901126103ce57604051601880548083525f91825260208301917fb13d2d76d1f4b7be834882e410b3e3a8afaf69f83600ae24db354391d2378d2e91905b818110610750576103638561049c818703826102a5565b82546001600160a01b0316845260209093019260019283019201610739565b346103ce575f3660031901126103ce57604051601780548083525f91825260208301917fc624b66cc0138b8fabc209247f72d758e1cf3343756d543badbf24212bed8c1591905b8181106107cd576103638561049c818703826102a5565b82546001600160a01b03168452602090930192600192830192016107b6565b600435906001600160a01b03821682036103ce57565b9181601f840112156103ce578235916001600160401b0383116103ce57602083818601950101116103ce57565b346103ce5760403660031901126103ce576108486107ec565b506024356001600160401b0381116103ce57610868903690600401610802565b50506b1cda1bdd5b191499599d595b60a21b5f52602080527f3441bca7665d3066003af07a73fec17acb888ff5b7c6553c621fda7dd4b3834380545f1981146108f95760010190556b1cda1bdd5b191499599d595b60a21b5f52602460209081527f5b714df63717ef7865890aef6ea4b423157b8448fa9c8e1a9bf2d3353c2a0c965460405160ff90911615158152f35b6116eb565b346103ce5760203660031901126103ce576004355f526028602052602060405f2054604051908152f35b60206040818301928281528451809452019201905f5b81811061094b5750505090565b825184526020938401939092019160010161093e565b346103ce5760203660031901126103ce576004355f52602160205260405f206040519081602082549182815201915f5260205f20905f5b8181106109bb57610363856109af818703826102a5565b60405191829182610928565b8254845260209093019260019283019201610998565b90602080835192838152019201905f5b8181106109ee5750505090565b82516001600160e01b0319168452602093840193909201916001016109e1565b602081016020825282518091526040820191602060408360051b8301019401925f915b838310610a4057505050505090565b9091929394602080610a7e600193603f1986820301875289519083610a6e83516040845260408401906102c6565b92015190848184039101526109d1565b97019301930191939290610a31565b346103ce575f3660031901126103ce57601b54610aa981611296565b90610ab760405192836102a5565b808252601b5f9081527f3ad8aa4f87544323a9d1e5dd902f40c356527a7955687113db5f9a85ad579dc1602084015b838310610afb57604051806103638782610a0e565b60026020600192604051610b0e81610285565b610b1786610bd1565b8152610b24858701611302565b83820152815201920192019190610ae6565b346103ce57610546610b47366104f9565b905f52602f60205260405f209060ff801983541691151516179055565b60409060031901126103ce576004359060243590565b346103ce57610b8836610b64565b905f52602160205260405f20805490600160401b8210156102a05760018201808255821015610bbd575f5260205f2001555f80f35b634e487b7160e01b5f52603260045260245ffd5b9060405191825f825492610be484610239565b8084529360018116908115610c4f5750600114610c0b575b50610c09925003836102a5565b565b90505f9291925260205f20905f915b818310610c33575050906020610c09928201015f610bfc565b6020919350806001915483858901015201910190918492610c1a565b905060209250610c0994915060ff191682840152151560051b8201015f610bfc565b346103ce5760203660031901126103ce576004355f52602d602052610363610c9b60405f20610bd1565b6040519182916020835260208301906102c6565b9060206102fb928181520190610548565b346103ce575f3660031901126103ce57601a54610cdc81611296565b90610cea60405192836102a5565b808252601a5f9081527f057c384a7d1c54f3a1b2e5e67b2617b8224fdfd1ea7234eea573a6ff665ff63e602084015b838310610d2e57604051806103638782610caf565b600160208192610d3d85610bd1565b815201920192019190610d19565b346103ce5760203660031901126103ce576004355f526022602052602060405f2054604051908152f35b602081016020825282518091526040820191602060408360051b8301019401925f915b838310610da757505050505090565b9091929394602080610ddd600193603f198682030187526040838b51878060a01b038151168452015191818582015201906109d1565b97019301930191939290610d98565b346103ce575f3660031901126103ce57601d54610e0881611296565b90610e1660405192836102a5565b808252601d5f9081527f6d4407e7be21f808e6509aa9fa9143369579dd7d760fe20a2c09680fc146134f602084015b838310610e5a57604051806103638782610d75565b60026020600192604051610e6d81610285565b848060a01b038654168152610e83858701611302565b83820152815201920192019190610e45565b346103ce5760203660031901126103ce576004355f526025602052602060ff60405f205416604051908152f35b346103ce5760203660031901126103ce576004355f526027602052602060018060801b0360405f205416604051908152f35b346103ce5760203660031901126103ce576004355f52602b602052602060405f2054604051908152f35b346103ce57610f2c36610b64565b905f52602260205260405f20555f80f35b346103ce575f3660031901126103ce57601c54610f5981611296565b90610f6760405192836102a5565b808252601c5f9081527f0e4562a10381dec21b205ed72637e6b1b523bdd0e4d4d50af5cd23dd4500a211602084015b838310610fab57604051806103638782610d75565b60026020600192604051610fbe81610285565b848060a01b038654168152610fd4858701611302565b83820152815201920192019190610f96565b346103ce5760403660031901126103ce576024356001600160801b03811690600435908290036103ce575f90815260236020526040902080546001600160801b0319169091179055005b346103ce575f3660031901126103ce5760195461104c81611296565b9061105a60405192836102a5565b80825260195f9081527f944998273e477b495144fb8794c914197f3ccb46be2900f4698fd0ef743c9695602084015b83831061109e57604051806103638782610caf565b6001602081926110ad85610bd1565b815201920192019190611089565b346103ce575f3660031901126103ce5760206110d561153e565b6040519015158152f35b346103ce5760203660031901126103ce576004355f52602660205260206001600160401b0360405f205416604051908152f35b346103ce5760203660031901126103ce576004355f526024602052602060ff60405f2054166040519015158152f35b346103ce5760403660031901126103ce576024356001600160a01b03811690600435908290036103ce575f52602e60205260405f20905f52602052602060405f2054604051908152f35b346103ce5760203660031901126103ce576004355f5260208052602060405f2054604051908152f35b346103ce575f3660031901126103ce57604051601580548083525f91825260208301917f55f448fdea98c4d29eb340757ef0a66cd03dbb9538908a6a81d96026b71ec47591905b818110611212576103638561049c818703826102a5565b82546001600160a01b03168452602090930192600192830192016111fb565b346103ce5760203660031901126103ce576004356001600160401b0381116103ce5761126c6112666020923690600401610802565b906115da565b604051908152f35b346103ce575f3660031901126103ce57602060ff601f54166040519015158152f35b6001600160401b0381116102a05760051b60200190565b9081546112b981611296565b926112c760405194856102a5565b81845260208401905f5260205f205f915b8383106112e55750505050565b6001602081926112f485610bd1565b8152019201920191906112d8565b6040518154808252909291839061132060208301915f5260205f2090565b925f905b80600783011061146757610c09945491818110611448575b818110611429575b81811061140a575b8181106113eb575b8181106113cc575b8181106113ad575b81811061138f575b1061137a575b5003836102a5565b6001600160e01b03191681526020015f611372565b602083811b6001600160e01b0319168552909360019101930161136c565b604083901b6001600160e01b0319168452926001906020019301611364565b606083901b6001600160e01b031916845292600190602001930161135c565b608083901b6001600160e01b0319168452926001906020019301611354565b60a083901b6001600160e01b031916845292600190602001930161134c565b60c083901b6001600160e01b0319168452926001906020019301611344565b6001600160e01b031960e084901b16845292600190602001930161133c565b916008919350610100600191611516875461148d838260e01b63ffffffff60e01b169052565b60c081901b6001600160e01b031916602084015260a081901b6001600160e01b0319166040840152608081901b6001600160e01b0319166060840152606081901b6001600160e01b0319166080840152604081901b6001600160e01b03191660a0840152602081901b6001600160e01b03191660c08401526001600160e01b03191660e0830152565b019401920185929391611324565b908160209103126103ce575190565b6040513d5f823e3d90fd5b60085460ff16801561154d5790565b50604051630667f9d760e41b8152737109709ecfa91a80626ff3989d68f67f5b1dd12d600482018190526519985a5b195960d21b6024830152602090829060449082905afa9081156115d5575f916115a6575b50151590565b6115c8915060203d6020116115ce575b6115c081836102a5565b810190611524565b5f6115a0565b503d6115b6565b611533565b906001600160401b0381116102a05760405191611601601f8301601f1916602001846102a5565b81835236828201116103ce57815f92602092838601378301015260018151106116b05760ff6001809201511614611672576f6d6573736167655f657374696d61746560801b5f5260226020527ff6d0a8c4d29a6c40ec20e9d296bdd352737d40420ca47a215d38bbb0f70f54dd5490565b6d70726f6f665f657374696d61746560901b5f5260226020527f1aa6958768a1fb882d44b7683c3835427cad8e4c92861ec0e077ef0d72171eb95490565b60405162461bcd60e51b8152602060048201526013602482015272746f55696e74385f6f75744f66426f756e647360681b6044820152606490fd5b634e487b7160e01b5f52601160045260245ffdfea2646970667358221220daa7f661ceac58349d84cc836c923042e1f6627261e7c42becdc0b7316b34f4564736f6c634300081a0033a26469706673582212203ca789a3285591e7d4ab12ab2a86b7943d672c7abf62effa8ed6e2cb9f437a4264736f6c634300081a0033","linkReferences":{}},"methodIdentifiers":{"adapter1()":"1fcaecb8","adapter2()":"f59e2075","adapter3()":"eed7e6a6","centrifugeChain()":"e3b5eeb3","chainlinkMock()":"a964f81f","erc20()":"785e9e86","mockedGasService()":"55d9311d","setupMocks(address)":"d5c597de","testAdapters(uint256)":"7b792ace"},"id":143}