{"abi":[{"type":"function","name":"EIP712_DOMAIN_TYPEHASH","inputs":[],"outputs":[{"name":"","type":"bytes32","internalType":"bytes32"}],"stateMutability":"view"}],"bytecode":{"object":"0x60808060405234601757608f9081601c823930815050f35b5f80fdfe60808060405260043610156011575f80fd5b5f3560e01c63c7977be7146023575f80fd5b5f366003190112605557807f8b73c3c69bb8fe3d512ecc4cf759cc79239f7b179b0ffacaa9a75d522b39400f60209252f35b5f80fdfea26469706673582212201d3af961b4b3c31c83e247129701ee1df5dece397d1b6d49005e4dd13500e69964736f6c634300081a0033","linkReferences":{}},"methodIdentifiers":{"EIP712_DOMAIN_TYPEHASH()":"c7977be7"},"id":40}