{"abi":[{"type":"constructor","inputs":[{"name":"root_","type":"address","internalType":"address"},{"name":"deployer","type":"address","internalType":"address"}],"stateMutability":"nonpayable"},{"type":"function","name":"FREEZE_BIT","inputs":[],"outputs":[{"name":"","type":"uint8","internalType":"uint8"}],"stateMutability":"view"},{"type":"function","name":"checkERC20Transfer","inputs":[{"name":"from","type":"address","internalType":"address"},{"name":"to","type":"address","internalType":"address"},{"name":"","type":"uint256","internalType":"uint256"},{"name":"hookData","type":"tuple","internalType":"struct HookData","components":[{"name":"from","type":"bytes16","internalType":"bytes16"},{"name":"to","type":"bytes16","internalType":"bytes16"}]}],"outputs":[{"name":"","type":"bool","internalType":"bool"}],"stateMutability":"view"},{"type":"function","name":"deny","inputs":[{"name":"user","type":"address","internalType":"address"}],"outputs":[],"stateMutability":"nonpayable"},{"type":"function","name":"freeze","inputs":[{"name":"token","type":"address","internalType":"address"},{"name":"user","type":"address","internalType":"address"}],"outputs":[],"stateMutability":"nonpayable"},{"type":"function","name":"isFrozen","inputs":[{"name":"token","type":"address","internalType":"address"},{"name":"user","type":"address","internalType":"address"}],"outputs":[{"name":"","type":"bool","internalType":"bool"}],"stateMutability":"view"},{"type":"function","name":"isMember","inputs":[{"name":"token","type":"address","internalType":"address"},{"name":"user","type":"address","internalType":"address"}],"outputs":[{"name":"isValid","type":"bool","internalType":"bool"},{"name":"validUntil","type":"uint64","internalType":"uint64"}],"stateMutability":"view"},{"type":"function","name":"onERC20AuthTransfer","inputs":[{"name":"","type":"address","internalType":"address"},{"name":"","type":"address","internalType":"address"},{"name":"","type":"address","internalType":"address"},{"name":"","type":"uint256","internalType":"uint256"},{"name":"","type":"tuple","internalType":"struct HookData","components":[{"name":"from","type":"bytes16","internalType":"bytes16"},{"name":"to","type":"bytes16","internalType":"bytes16"}]}],"outputs":[{"name":"","type":"bytes4","internalType":"bytes4"}],"stateMutability":"pure"},{"type":"function","name":"onERC20Transfer","inputs":[{"name":"from","type":"address","internalType":"address"},{"name":"to","type":"address","internalType":"address"},{"name":"value","type":"uint256","internalType":"uint256"},{"name":"hookData","type":"tuple","internalType":"struct HookData","components":[{"name":"from","type":"bytes16","internalType":"bytes16"},{"name":"to","type":"bytes16","internalType":"bytes16"}]}],"outputs":[{"name":"","type":"bytes4","internalType":"bytes4"}],"stateMutability":"nonpayable"},{"type":"function","name":"rely","inputs":[{"name":"user","type":"address","internalType":"address"}],"outputs":[],"stateMutability":"nonpayable"},{"type":"function","name":"root","inputs":[],"outputs":[{"name":"","type":"address","internalType":"contract IRoot"}],"stateMutability":"view"},{"type":"function","name":"supportsInterface","inputs":[{"name":"interfaceId","type":"bytes4","internalType":"bytes4"}],"outputs":[{"name":"","type":"bool","internalType":"bool"}],"stateMutability":"pure"},{"type":"function","name":"unfreeze","inputs":[{"name":"token","type":"address","internalType":"address"},{"name":"user","type":"address","internalType":"address"}],"outputs":[],"stateMutability":"nonpayable"},{"type":"function","name":"updateMember","inputs":[{"name":"token","type":"address","internalType":"address"},{"name":"user","type":"address","internalType":"address"},{"name":"validUntil","type":"uint64","internalType":"uint64"}],"outputs":[],"stateMutability":"nonpayable"},{"type":"function","name":"updateRestriction","inputs":[{"name":"token","type":"address","internalType":"address"},{"name":"update","type":"bytes","internalType":"bytes"}],"outputs":[],"stateMutability":"nonpayable"},{"type":"function","name":"wards","inputs":[{"name":"","type":"address","internalType":"address"}],"outputs":[{"name":"","type":"uint256","internalType":"uint256"}],"stateMutability":"view"},{"type":"event","name":"Deny","inputs":[{"name":"user","type":"address","indexed":true,"internalType":"address"}],"anonymous":false},{"type":"event","name":"Freeze","inputs":[{"name":"token","type":"address","indexed":true,"internalType":"address"},{"name":"user","type":"address","indexed":true,"internalType":"address"}],"anonymous":false},{"type":"event","name":"Rely","inputs":[{"name":"user","type":"address","indexed":true,"internalType":"address"}],"anonymous":false},{"type":"event","name":"Unfreeze","inputs":[{"name":"token","type":"address","indexed":true,"internalType":"address"},{"name":"user","type":"address","indexed":true,"internalType":"address"}],"anonymous":false},{"type":"event","name":"UpdateMember","inputs":[{"name":"token","type":"address","indexed":true,"internalType":"address"},{"name":"user","type":"address","indexed":true,"internalType":"address"},{"name":"validUntil","type":"uint64","indexed":false,"internalType":"uint64"}],"anonymous":false}],"bytecode":{"object":"0x60a0346100df57601f61164638819003918201601f19168301916001600160401b038311848410176100e35780849260409485528339810103126100df57610046816100f7565b906001600160a01b039061005c906020016100f7565b1690815f525f602052600160405f2055604051917fdd0e34038ac38b2a1ce960229778ac48a8719bc900b6c4f8d0475c6e8b385a605f80a26001600160a01b031660805261153a908161010c823960805181818161026f0152818161066501528181610adc01528181610bb601528181610eab015281816112c101526113b60152f35b5f80fd5b634e487b7160e01b5f52604160045260245ffd5b51906001600160a01b03821682036100df5756fe60806040526004361015610011575f80fd5b5f3560e01c806301ffc9a714610104578063078d18cd146100ff57806315748250146100fa57806339ac7a08146100f55780633f71910e146100f057806346de0fb1146100eb5780635156eb17146100e65780635adb6ddb146100e157806365fae35e146100dc5780637aeba8d5146100d75780637f5ca5a3146100d25780639c52a7f1146100cd578063bf353dbb146100c8578063ebf0c717146100c35763ef59bc92146100be575f80fd5b610b0b565b610ac7565b610a90565b610a21565b610a07565b610971565b6108c7565b6107a0565b6105e3565b6105ad565b61052c565b6103ec565b6101f9565b6101b1565b3461015a57602036600319011261015a5760043563ffffffff60e01b811680910361015a57602090632b53a76160e21b8114908115610149575b506040519015158152f35b6301ffc9a760e01b1490505f61013e565b5f80fd5b600435906001600160a01b038216820361015a57565b602435906001600160a01b038216820361015a57565b604435906001600160a01b038216820361015a57565b604090608319011261015a57608490565b3461015a5760c036600319011261015a576101ca61015e565b506101d3610174565b506101dc61018a565b506101e6366101a0565b5060405163078d18cd60e01b8152602090f35b3461015a57604036600319011261015a5761021261015e565b61021a610174565b335f525f602052610231600160405f205414610b1e565b6001600160a01b03811691610247831515610cb8565b60405163854b89d560e01b81526001600160a01b0383166004820152602081806024810103817f00000000000000000000000000000000000000000000000000000000000000006001600160a01b03165afa8015610389576102b1915f916103bd575b5015610d3d565b60405163e8e6dc7560e01b81526001600160a01b038381166004830152919091169190602081602481865afa9081156103895761030d916102fd915f9161038e575b5060801c60011790565b60801b6001600160801b03191690565b90823b1561015a57604051633548aa5560e11b8152915f9183918291610337919060048401610dcd565b038183865af180156103895761036f575b507f51d18786e9cb144f87d46e7b796309ea84c7c687d91e09c97f051eacf59bc5285f80a3005b8061037d5f6103839361094b565b806109fd565b5f610348565b610d32565b6103b0915060203d6020116103b6575b6103a8818361094b565b810190610db5565b5f6102f3565b503d61039e565b6103df915060203d6020116103e5575b6103d7818361094b565b810190610d1a565b5f6102aa565b503d6103cd565b3461015a57604036600319011261015a5761043e602061040a61015e565b610412610174565b60405163e8e6dc7560e01b81526001600160a01b03909116600482015292839190829081906024820190565b03916001600160a01b03165afa908115610389576104866104946104c093610499935f916104c4575b506040516001600160801b031990911660208201529182906030820190565b03601f19810183528261094b565b61140d565b60408051426001600160401b03909316928310158152602081019290925290918291820190565b0390f35b6104dd915060203d6020116103b6576103a8818361094b565b5f610467565b9060a060031983011261015a576004356001600160a01b038116810361015a57916024356001600160a01b038116810361015a5791604060443592606319011261015a57606490565b3461015a5761054561053d366104e3565b92905061126a565b1561055c57604051631fb8c88760e11b8152602090f35b60405162461bcd60e51b815260206004820152602360248201527f5265737472696374696f6e4d616e616765722f7472616e736665722d626c6f636044820152621ad95960ea1b6064820152608490fd5b3461015a57604036600319011261015a5760206105d96105cb61015e565b6105d3610174565b90610df1565b6040519015158152f35b3461015a57606036600319011261015a576105fc61015e565b610604610174565b604435916001600160401b03831680840361015a57335f525f602052610630600160405f205414610b1e565b61063c81421115610f9e565b60405163854b89d560e01b81526001600160a01b038416600482015290602082806024810103817f00000000000000000000000000000000000000000000000000000000000000006001600160a01b03165afa918215610389576106bf926106ac915f91610781575b5015610ff9565b60401b67ffffffffffffffff60401b1690565b906106ca8382610df1565b506001600160a01b031691823b1561015a57604051633548aa5560e11b8152915f908390819061070b9060801b6001600160801b0319168560048401610dcd565b038183875af1908115610389577f2cb446aa76cf148ccee709c872ab53d7064340c84a66351f6a16ec660434c8cc926107689261076d575b506040516001600160401b0390951685526001600160a01b0316939081906020820190565b0390a3005b8061037d5f61077b9361094b565b5f610743565b61079a915060203d6020116103e5576103d7818361094b565b5f6106a5565b3461015a57604036600319011261015a576107b961015e565b6107c1610174565b90335f525f6020526107d9600160405f205414610b1e565b60405163e8e6dc7560e01b81526001600160a01b038381166004830152919091169190602081602481865afa9081156103895761082b916102fd915f916108a8575b5060801c6002600160801b031690565b823b1561015a575f6108529160405180938192633548aa5560e11b83528660048401610dcd565b038183875af1801561038957610894575b506001600160a01b0316907f4f3ab9ff0cc4f039268532098e01239544b0420171876e36889d01c62c784c795f80a3005b8061037d5f6108a29361094b565b5f610863565b6108c1915060203d6020116103b6576103a8818361094b565b5f61081b565b3461015a57602036600319011261015a576108e061015e565b335f525f6020526108f7600160405f205414610b1e565b6001600160a01b03165f818152602081905260408120600190557fdd0e34038ac38b2a1ce960229778ac48a8719bc900b6c4f8d0475c6e8b385a609080a2005b634e487b7160e01b5f52604160045260245ffd5b90601f801991011681019081106001600160401b0382111761096c57604052565b610937565b3461015a57604036600319011261015a5761098a61015e565b602435906001600160401b03821161015a573660238301121561015a578160040135906001600160401b03821161096c57604051916109d3601f8201601f19166020018461094b565b808352366024828601011161015a576020815f9260246109fb97018387013784010152611145565b005b5f91031261015a57565b3461015a575f36600319011261015a5760206040515f8152f35b3461015a57602036600319011261015a57610a3a61015e565b335f525f602052610a51600160405f205414610b1e565b6001600160a01b03165f8181526020819052604081208190557f184450df2e323acec0ed3b5c7531b81f9b4cdef7914dfd4c0a4317416bb5251b9080a2005b3461015a57602036600319011261015a576001600160a01b03610ab161015e565b165f525f602052602060405f2054604051908152f35b3461015a575f36600319011261015a576040517f00000000000000000000000000000000000000000000000000000000000000006001600160a01b03168152602090f35b3461015a5760206105d961053d366104e3565b15610b2557565b60405162461bcd60e51b8152602060048201526013602482015272105d5d1a0bdb9bdd0b585d5d1a1bdc9a5e9959606a1b6044820152606490fd5b90335f525f602052610b78600160405f205414610b1e565b6001600160a01b03811691610b8e831515610cb8565b60405163854b89d560e01b81526001600160a01b0383166004820152602081806024810103817f00000000000000000000000000000000000000000000000000000000000000006001600160a01b03165afa801561038957610bf7915f916103bd575015610d3d565b60405163e8e6dc7560e01b81526001600160a01b038381166004830152919091169190602081602481865afa90811561038957610c42916102fd915f9161038e575060801c60011790565b90823b1561015a57604051633548aa5560e11b8152915f9183918291610c6c919060048401610dcd565b038183865af1801561038957610ca4575b507f51d18786e9cb144f87d46e7b796309ea84c7c687d91e09c97f051eacf59bc5285f80a3565b8061037d5f610cb29361094b565b5f610c7d565b15610cbf57565b60405162461bcd60e51b815260206004820152602d60248201527f5265737472696374696f6e4d616e616765722f63616e6e6f742d667265657a6560448201526c2d7a65726f2d6164647265737360981b6064820152608490fd5b9081602091031261015a5751801515810361015a5790565b6040513d5f823e3d90fd5b15610d4457565b60405162461bcd60e51b815260206004820152603160248201527f5265737472696374696f6e4d616e616765722f656e646f727365642d7573657260448201527016b1b0b73737ba16b13296b33937bd32b760791b6064820152608490fd5b6001600160801b031981160361015a57565b9081602091031261015a5751610dca81610da3565b90565b6001600160a01b0390911681526001600160801b0319909116602082015260400190565b60405163e8e6dc7560e01b81526001600160a01b0392831660048201529160209183916024918391165afa8015610389576001915f91610e36575b5060801c16151590565b610e4f915060203d6020116103b6576103a8818361094b565b5f610e2c565b335f525f602052610e6c600160405f205414610b1e565b6001600160401b038316610e8281421115610f9e565b60405163854b89d560e01b81526001600160a01b038416600482015290602082806024810103817f00000000000000000000000000000000000000000000000000000000000000006001600160a01b03165afa91821561038957610ef1926106ac915f91610781575015610ff9565b90610efc8382610df1565b506001600160a01b031691823b1561015a57604051633548aa5560e11b8152915f9083908190610f3d9060801b6001600160801b0319168560048401610dcd565b038183875af1908115610389577f2cb446aa76cf148ccee709c872ab53d7064340c84a66351f6a16ec660434c8cc92610f999261076d57506040516001600160401b0390951685526001600160a01b0316939081906020820190565b0390a3565b15610fa557565b60405162461bcd60e51b815260206004820152602660248201527f5265737472696374696f6e4d616e616765722f696e76616c69642d76616c69646044820152650b5d5b9d1a5b60d21b6064820152608490fd5b1561100057565b60405162461bcd60e51b815260206004820152603260248201527f5265737472696374696f6e4d616e616765722f656e646f727365642d757365726044820152710b58d85b9b9bdd0b58994b5d5c19185d195960721b6064820152608490fd5b335f525f602052611077600160405f205414610b1e565b60405163e8e6dc7560e01b81526001600160a01b038381166004830152919091169190602081602481865afa908115610389576110c8916102fd915f916108a8575060801c6002600160801b031690565b823b1561015a575f6110ef9160405180938192633548aa5560e11b83528660048401610dcd565b038183875af1801561038957611131575b506001600160a01b0316907f4f3ab9ff0cc4f039268532098e01239544b0420171876e36889d01c62c784c795f80a3565b8061037d5f61113f9361094b565b5f611100565b335f525f60205261115c600160405f205414610b1e565b61116d61116883611469565b611251565b61117681611233565b6001810361119d57508161119561118f61119b946114b4565b91611459565b91610e55565b565b6111a681611233565b600281036111c157506111bb61119b926114b4565b90610b60565b806111cd600392611233565b036111e4576111de61119b926114b4565b90611060565b60405162461bcd60e51b815260206004820152602160248201527f5265737472696374696f6e4d616e616765722f696e76616c69642d75706461746044820152606560f81b6064820152608490fd5b6004111561123d57565b634e487b7160e01b5f52602160045260245ffd5b60ff16600481101561123d5790565b35610dca81610da3565b600161128961128161127b86611260565b60801c90565b600116151590565b151514908161138b575b506113855760405163854b89d560e01b81526001600160a01b038216600482015290602082806024810103817f00000000000000000000000000000000000000000000000000000000000000006001600160a01b03165afa918215610389575f92611364575b508115611352575b5061134c5761127b60206113159201611260565b60018181161515146113475760401c6001600160401b0316426001600160801b039091161061134357600190565b5f90565b505f90565b50600190565b6001600160a01b03161590505f611301565b61137e91925060203d6020116103e5576103d7818361094b565b905f6112f9565b50505f90565b60405163854b89d560e01b81526001600160a01b0391821660048201529150602090829060249082907f0000000000000000000000000000000000000000000000000000000000000000165afa908115610389575f916113ee575b50155f611293565b611407915060203d6020116103e5576103d7818361094b565b5f6113e6565b600881511061141d576008015190565b60405162461bcd60e51b8152602060048201526014602482015273746f55696e7436345f6f75744f66426f756e647360601b6044820152606490fd5b602981511061141d576029015190565b6001815110611479576001015190565b60405162461bcd60e51b8152602060048201526013602482015272746f55696e74385f6f75744f66426f756e647360681b6044820152606490fd5b60158151106114c7576021015160601c90565b60405162461bcd60e51b8152602060048201526015602482015274746f416464726573735f6f75744f66426f756e647360581b6044820152606490fdfea2646970667358221220264eadc2364b826eaedfbacd78d8d157a3462810869c39c44795ed7b3afc0dfb64736f6c634300081a0033","linkReferences":{}},"methodIdentifiers":{"FREEZE_BIT()":"7f5ca5a3","checkERC20Transfer(address,address,uint256,(bytes16,bytes16))":"ef59bc92","deny(address)":"9c52a7f1","freeze(address,address)":"15748250","isFrozen(address,address)":"46de0fb1","isMember(address,address)":"39ac7a08","onERC20AuthTransfer(address,address,address,uint256,(bytes16,bytes16))":"078d18cd","onERC20Transfer(address,address,uint256,(bytes16,bytes16))":"3f71910e","rely(address)":"65fae35e","root()":"ebf0c717","supportsInterface(bytes4)":"01ffc9a7","unfreeze(address,address)":"5adb6ddb","updateMember(address,address,uint64)":"5156eb17","updateRestriction(address,bytes)":"7aeba8d5","wards(address)":"bf353dbb"},"id":49}