{"abi":[{"type":"function","name":"erc20","inputs":[],"outputs":[{"name":"","type":"address","internalType":"contract ERC20"}],"stateMutability":"view"},{"type":"function","name":"setupERC20","inputs":[],"outputs":[{"name":"","type":"address","internalType":"address"}],"stateMutability":"nonpayable"}],"bytecode":{"object":"0x6080806040523460155761196f908161001a8239f35b5f80fdfe6080806040526004361015610012575f80fd5b5f905f3560e01c90816335ab29ca1461005d575063785e9e8614610034575f80fd5b3461005a578060031936011261005a57546040516001600160a01b039091168152602090f35b80fd5b9050346101d1575f3660031901126101d15761172e8082019082821067ffffffffffffffff8311176101d557602091839161020c8339600681520301905ff080156101c6575f80546001600160a01b0319166001600160a01b03929092169182179055803b156101d1575f80916084604051809481936304bd623760e11b8352636e616d6560e01b600484015260406024840152600a6044840152692c13b9902237b63630b960b11b60648401525af180156101c6576101b3575b50805481906001600160a01b0316803b156101b05781906084604051809481936304bd623760e11b8352651cde5b589bdb60d21b60048401526040602484015260046044840152630aaa688b60e31b60648401525af180156101a557610190575b81546040516001600160a01b039091168152602090f35b61019b8280926101e9565b61005a575f610179565b6040513d84823e3d90fd5b50fd5b6101bf91505f906101e9565b5f80610118565b6040513d5f823e3d90fd5b5f80fd5b634e487b7160e01b5f52604160045260245ffd5b90601f8019910116810190811067ffffffffffffffff8211176101d55760405256fe610120806040523461017f5760208161172e80380380916100208285610183565b83398101031261017f575160ff8116810361017f57335f525f602052600160405f2055337fdd0e34038ac38b2a1ce960229778ac48a8719bc900b6c4f8d0475c6e8b385a605f80a2608052604051610079604082610183565b600a81526943656e7472696675676560b01b6020909101527fe416b338a274162320c79445ae6604141d1cb08275eb27011b69f002dc094d0560a05260408051906100c49082610183565b600181526020810190603160f81b82525190208060c0524660e05260a051906040519060208201927f8b73c3c69bb8fe3d512ecc4cf759cc79239f7b179b0ffacaa9a75d522b39400f8452604083015260608201524660808201523060a082015260a0815261013460c082610183565b5190206101005260405161157390816101bb823960805181610713015260a05181611022015260c05181611048015260e051818181610c6d0152610fad01526101005181610fd30152f35b5f80fd5b601f909101601f19168101906001600160401b038211908210176101a657604052565b634e487b7160e01b5f52604160045260245ffdfe60806040526004361015610011575f80fd5b5f3560e01c806306fdde0314610164578063095ea7b31461015f578063097ac46e1461015a57806318160ddd1461015557806323b872dd1461015057806330adf81f1461014b578063313ce567146101465780633644e5151461014157806340c10f191461013c57806365fae35e1461013757806370a08231146101325780637ecebe001461012d57806395d89b41146101285780639c52a7f1146101235780639dc29fac1461011e5780639fd5a6cf14610119578063a9059cbb14610114578063bf353dbb1461010f578063cd0d00961461010a578063d505accf146101055763dd62ed3e14610100575f80fd5b610d06565b610c90565b610c56565b610c1f565b610b85565b610b1f565b610a13565b6109a4565b6108ff565b6108c7565b61088f565b61081f565b610759565b610737565b6106fa565b6106c0565b61053a565b61051d565b6103f8565b61031e565b610214565b90600182811c92168015610197575b602083101461018357565b634e487b7160e01b5f52602260045260245ffd5b91607f1691610178565b634e487b7160e01b5f52604160045260245ffd5b90601f8019910116810190811067ffffffffffffffff8211176101d757604052565b6101a1565b805180835260209291819084018484015e5f828201840152601f01601f1916010190565b9060206102119281815201906101dc565b90565b346102ee575f3660031901126102ee576040515f60015461023481610169565b80845290600181169081156102ca575060011461026c575b6102688361025c818503826101b5565b60405191829182610200565b0390f35b60015f9081527fb10e2d527612073b26eecdfd717e6a320cf44b4afac2b0732d9fcbe2b7fa0cf6939250905b8082106102b05750909150810160200161025c61024c565b919260018160209254838588010152019101909291610298565b60ff191660208086019190915291151560051b8401909101915061025c905061024c565b5f80fd5b600435906001600160a01b03821682036102ee57565b602435906001600160a01b03821682036102ee57565b346102ee5760403660031901126102ee576103376102f2565b60243590335f526005602052816103618260405f209060018060a01b03165f5260205260405f2090565b556040519182526001600160a01b03169033907f8c5be1e5ebec7d5bd14f71427d1e84f3dd0314c0f7b2291e5b200ac8c7c3b92590602090a360405160018152602090f35b67ffffffffffffffff81116101d757601f01601f191660200190565b9291926103ce826103a6565b916103dc60405193846101b5565b8294818452818301116102ee578281602093845f960137010152565b346102ee5760403660031901126102ee5760043560243567ffffffffffffffff81116102ee57366023820112156102ee5761043d9036906024816004013591016103c2565b335f525f602052610454600160405f205414610d5d565b636e616d6560e01b8203610495576104908161025c7fe42e0b9a029dc87ccb1029c632e6359090acd0eb032b2b59c811e3ec70160dc693610ed2565b0390a2005b651cde5b589bdb60d21b82036104d857610490816104d37fe42e0b9a029dc87ccb1029c632e6359090acd0eb032b2b59c811e3ec70160dc693610dee565b61025c565b60405162461bcd60e51b815260206004820152601d60248201527f45524332302f66696c652d756e7265636f676e697a65642d706172616d0000006044820152606490fd5b346102ee575f3660031901126102ee576020600354604051908152f35b346102ee5760603660031901126102ee576105536102f2565b61055b610308565b905f8051602061151e83398151915261062f6044356001600160a01b0385169461061f90861515806106b6575b6105919061108d565b6001600160a01b0386165f9081526004602052604090206105b79084905b5410156110d1565b6001600160a01b038616956106019033880361063e575b6001600160a01b0381165f90815260046020526040902085905b54039060018060a01b03165f52600460205260405f2055565b6001600160a01b03165f908152600460205260409020805483019055565b6040519081529081906020820190565b0390a360405160018152602090f35b846106723361065d8460018060a01b03165f52600560205260405f2090565b9060018060a01b03165f5260205260405f2090565b5460018101610683575b50506105ce565b61068f8282101561111d565b036106ae3361065d8460018060a01b03165f52600560205260405f2090565b55845f61067c565b5030871415610588565b346102ee575f3660031901126102ee5760206040517f6e71edae12b1b97f4d1f60370fef10105fa2faae0126114a169c64845d6126c98152f35b346102ee575f3660031901126102ee57602060405160ff7f0000000000000000000000000000000000000000000000000000000000000000168152f35b346102ee575f3660031901126102ee576020610751610faa565b604051908152f35b346102ee5760403660031901126102ee576107726102f2565b602435335f525f60205261078c600160405f205414610d5d565b6001600160a01b038216916107d29083151580610815575b6107ad9061108d565b5f84815260046020526040808220546001600160a01b03909316825290209083019055565b60035490808201809211610801576107fc5f8051602061151e8339815191529161061f5f94600355565b0390a3005b634e487b7160e01b5f52601160045260245ffd5b50308414156107a4565b346102ee5760203660031901126102ee576108386102f2565b335f525f60205261084f600160405f205414610d5d565b6001600160a01b03165f818152602081905260408120600190557fdd0e34038ac38b2a1ce960229778ac48a8719bc900b6c4f8d0475c6e8b385a609080a2005b346102ee5760203660031901126102ee576001600160a01b036108b06102f2565b165f526004602052602060405f2054604051908152f35b346102ee5760203660031901126102ee576001600160a01b036108e86102f2565b165f526006602052602060405f2054604051908152f35b346102ee575f3660031901126102ee576040515f60025461091f81610169565b80845290600181169081156102ca5750600114610946576102688361025c818503826101b5565b60025f9081527f405787fa12a823e0f2b7631cc41b3ba8828b3321ca811111fa75cd3aa3bb5ace939250905b80821061098a5750909150810160200161025c61024c565b919260018160209254838588010152019101909291610972565b346102ee5760203660031901126102ee576109bd6102f2565b335f525f6020526109d4600160405f205414610d5d565b6001600160a01b03165f8181526020819052604081208190557f184450df2e323acec0ed3b5c7531b81f9b4cdef7914dfd4c0a4317416bb5251b9080a2005b346102ee5760403660031901126102ee575f610a2d6102f2565b5f8051602061151e8339815191526107fc60243533855284602052610a586001604087205414610d5d565b6001600160a01b0384165f908152600460205260409020610a7a9082906105af565b6001600160a01b03841693610aaf90338603610abc575b6001600160a01b0381165f90815260046020526040902083906105e8565b61061f8160035403600355565b82610adb3361065d8460018060a01b03165f52600560205260405f2090565b5488198103610aec575b5050610a91565b610af88282101561111d565b03610b173361065d8460018060a01b03165f52600560205260405f2090565b55825f610ae5565b346102ee5760a03660031901126102ee57610b386102f2565b610b40610308565b90604435606435906084359367ffffffffffffffff85116102ee57366023860112156102ee57610b7d610b839536906024816004013591016103c2565b936111ef565b005b346102ee5760403660031901126102ee57610b9e6102f2565b6024356001600160a01b03821691610bf49083151580610c15575b610bc29061108d565b335f526004602052610bda8360405f205410156110d1565b335f90815260046020526040902080548490039055610601565b60405190815233905f8051602061151e83398151915290806020810161062f565b5030841415610bb9565b346102ee5760203660031901126102ee576001600160a01b03610c406102f2565b165f525f602052602060405f2054604051908152f35b346102ee575f3660031901126102ee5760206040517f00000000000000000000000000000000000000000000000000000000000000008152f35b346102ee5760e03660031901126102ee57610ca96102f2565b610cb1610308565b604435606435906084359260ff841684036102ee57610b839460a4359460c43560408051602081019890985287015260f81b6001600160f81b031916606086015260418552610d016061866101b5565b6111ef565b346102ee5760403660031901126102ee576020610d54610d246102f2565b610d2c610308565b6001600160a01b039182165f9081526005855260408082209290931681526020919091522090565b54604051908152f35b15610d6457565b60405162461bcd60e51b8152602060048201526013602482015272105d5d1a0bdb9bdd0b585d5d1a1bdc9a5e9959606a1b6044820152606490fd5b601f8211610dac57505050565b5f5260205f20906020601f840160051c83019310610de4575b601f0160051c01905b818110610dd9575050565b5f8155600101610dce565b9091508190610dc5565b90815167ffffffffffffffff81116101d757610e1681610e0f600254610169565b6002610d9f565b602092601f8211600114610e5657610e46929382915f92610e4b575b50508160011b915f199060031b1c19161790565b600255565b015190505f80610e32565b60025f52601f198216937f405787fa12a823e0f2b7631cc41b3ba8828b3321ca811111fa75cd3aa3bb5ace915f5b868110610eba5750836001959610610ea2575b505050811b01600255565b01515f1960f88460031b161c191690555f8080610e97565b91926020600181928685015181550194019201610e84565b90815167ffffffffffffffff81116101d757610efa81610ef3600154610169565b6001610d9f565b602092601f8211600114610f2e57610f29929382915f92610e4b5750508160011b915f199060031b1c19161790565b600155565b60015f52601f198216937fb10e2d527612073b26eecdfd717e6a320cf44b4afac2b0732d9fcbe2b7fa0cf6915f5b868110610f925750836001959610610f7a575b505050811b01600155565b01515f1960f88460031b161c191690555f8080610f6f565b91926020600181928685015181550194019201610f5c565b467f000000000000000000000000000000000000000000000000000000000000000003610ff5577f000000000000000000000000000000000000000000000000000000000000000090565b60405160208101907f8b73c3c69bb8fe3d512ecc4cf759cc79239f7b179b0ffacaa9a75d522b39400f82527f000000000000000000000000000000000000000000000000000000000000000060408201527f000000000000000000000000000000000000000000000000000000000000000060608201524660808201523060a082015260a0815261108760c0826101b5565b51902090565b1561109457565b60405162461bcd60e51b815260206004820152601560248201527445524332302f696e76616c69642d6164647265737360581b6044820152606490fd5b156110d857565b60405162461bcd60e51b815260206004820152601a60248201527f45524332302f696e73756666696369656e742d62616c616e63650000000000006044820152606490fd5b1561112457565b60405162461bcd60e51b815260206004820152601c60248201527f45524332302f696e73756666696369656e742d616c6c6f77616e6365000000006044820152606490fd5b1561117057565b60405162461bcd60e51b8152602060048201526014602482015273115490cc8c0bdc195c9b5a5d0b595e1c1a5c995960621b6044820152606490fd5b156111b357565b60405162461bcd60e51b8152602060048201526014602482015273115490cc8c0bda5b9d985b1a590b5c195c9b5a5d60621b6044820152606490fd5b939061131061130b61134e937f8c5be1e5ebec7d5bd14f71427d1e84f3dd0314c0f7b2291e5b200ac8c7c3b925959661122a81421115611169565b6112ca6113028a8a6112d8896112ca6112538560018060a01b03165f52600660205260405f2090565b9788549860018a019055611265610faa565b98604051958694602086019889919260a093969594919660c08401977f6e71edae12b1b97f4d1f60370fef10105fa2faae0126114a169c64845d6126c98552600180871b03166020850152600180861b03166040840152606083015260808201520152565b03601f1981018352826101b5565b519020604051928391602083019586909160429261190160f01b8352600283015260228201520190565b51902088611410565b6111ac565b8361132f8261065d8860018060a01b03165f52600560205260405f2090565b556040519384526001600160a01b039081169416929081906020820190565b0390a3565b1561135a57565b60405162461bcd60e51b815260206004820152601b60248201527f5369676e61747572654c69622f696e76616c69642d7369676e657200000000006044820152606490fd5b6040513d5f823e3d90fd5b6040906102119392815281602082015201906101dc565b3d156113eb573d906113d2826103a6565b916113e060405193846101b5565b82523d5f602084013e565b606090565b908160209103126102ee57516001600160e01b0319811681036102ee5790565b5f93929091906001600160a01b03831661142b811515611353565b60418251146114c1575b50823b61144157505050565b5f939450906112ca61146d8594936040519283916020830195630b135d3f60e11b8752602484016113aa565b51915afa6114796113c1565b816114b5575b81611488575090565b8051630b135d3f60e11b92506001600160e01b0319916114b0918101602090810191016113f0565b161490565b8051602014915061147f565b60208281015160408085015160608087015183518981525f91821a818801529384019490945282015281805260809060015afa15611518575f516001600160a01b03161461150f575f611435565b50600193505050565b61139f56feddf252ad1be2c89b69c2b068fc378daa952ba7f163c4a11628f55a4df523b3efa2646970667358221220176c06e07ea4f008c72b14e1c1805a50e6e12aa3964a8505cb9c02bf4c634a2e64736f6c634300081a0033a26469706673582212200b76c1acc50abfb457df19bc6503da64f654e6ebf1f6f05a5521289032fd0ef764736f6c634300081a0033","linkReferences":{}},"methodIdentifiers":{"erc20()":"785e9e86","setupERC20()":"35ab29ca"},"id":139}