{"abi":[{"type":"constructor","inputs":[{"name":"deployer","type":"address","internalType":"address"}],"stateMutability":"nonpayable"},{"type":"function","name":"approveMax","inputs":[{"name":"token","type":"address","internalType":"address"},{"name":"spender","type":"address","internalType":"address"}],"outputs":[],"stateMutability":"nonpayable"},{"type":"function","name":"deny","inputs":[{"name":"user","type":"address","internalType":"address"}],"outputs":[],"stateMutability":"nonpayable"},{"type":"function","name":"rely","inputs":[{"name":"user","type":"address","internalType":"address"}],"outputs":[],"stateMutability":"nonpayable"},{"type":"function","name":"unapprove","inputs":[{"name":"token","type":"address","internalType":"address"},{"name":"spender","type":"address","internalType":"address"}],"outputs":[],"stateMutability":"nonpayable"},{"type":"function","name":"wards","inputs":[{"name":"","type":"address","internalType":"address"}],"outputs":[{"name":"","type":"uint256","internalType":"uint256"}],"stateMutability":"view"},{"type":"event","name":"Approve","inputs":[{"name":"token","type":"address","indexed":true,"internalType":"address"},{"name":"spender","type":"address","indexed":true,"internalType":"address"},{"name":"value","type":"uint256","indexed":false,"internalType":"uint256"}],"anonymous":false},{"type":"event","name":"Deny","inputs":[{"name":"user","type":"address","indexed":true,"internalType":"address"}],"anonymous":false},{"type":"event","name":"Rely","inputs":[{"name":"user","type":"address","indexed":true,"internalType":"address"}],"anonymous":false}],"bytecode":{"object":"0x608034608f57601f61061738819003918201601f19168301916001600160401b03831184841017609357808492602094604052833981010312608f57516001600160a01b03811690819003608f57805f525f602052600160405f2055604051907fdd0e34038ac38b2a1ce960229778ac48a8719bc900b6c4f8d0475c6e8b385a605f80a261056f90816100a88239f35b5f80fd5b634e487b7160e01b5f52604160045260245ffdfe60806040526004361015610011575f80fd5b5f3560e01c806365fae35e1461043957806396288991146103045780639c52a7f114610295578063aec42a171461008b5763bf353dbb14610050575f80fd5b34610087576020366003190112610087576001600160a01b036100716104a9565b165f525f602052602060405f2054604051908152f35b5f80fd5b34610087576040366003190112610087576100a46104a9565b6100ac6104bf565b90335f525f6020526100c4600160405f2054146104d5565b604051636eb1769f60e11b81523060048201526001600160a01b03928316602482018190529282169190602081604481865afa90811561028a575f91610258575b501561010d57005b5f809160405182602082019163095ea7b360e01b8352876024820152811960448201526044815261013f606482610517565b51925af13d15610251573d67ffffffffffffffff811161023d5760405190610171601f8201601f191660200183610517565b81523d5f602083013e5b81610205575b50156101b4577f6e11fb1b7f119e3f2fa29896ef5fdf8b8a2d0d4df6fe90ba8668e7d8b2ffa25e60206040515f198152a3005b60405162461bcd60e51b815260206004820152602360248201527f536166655472616e736665724c69622f736166652d617070726f76652d6661696044820152621b195960ea1b6064820152608490fd5b805180159250821561021a575b505083610181565b819250906020918101031261008757602001518015158103610087578380610212565b634e487b7160e01b5f52604160045260245ffd5b606061017b565b90506020813d602011610282575b8161027360209383610517565b81010312610087575184610105565b3d9150610266565b6040513d5f823e3d90fd5b34610087576020366003190112610087576102ae6104a9565b335f525f6020526102c5600160405f2054146104d5565b6001600160a01b03165f8181526020819052604081208190557f184450df2e323acec0ed3b5c7531b81f9b4cdef7914dfd4c0a4317416bb5251b9080a2005b346100875760403660031901126100875761031d6104a9565b6103256104bf565b90335f525f60205261033d600160405f2054146104d5565b5f8060405193602085019063095ea7b360e01b825260018060a01b03169485602482015282604482015260448152610376606482610517565b519082855af13d15610432573d67ffffffffffffffff811161023d57604051906103aa601f8201601f191660200183610517565b81523d5f602083013e5b816103fa575b50156101b4576040515f81526001600160a01b03909116907f6e11fb1b7f119e3f2fa29896ef5fdf8b8a2d0d4df6fe90ba8668e7d8b2ffa25e90602090a3005b805180159250821561040f575b5050836103ba565b819250906020918101031261008757602001518015158103610087578380610407565b60606103b4565b34610087576020366003190112610087576104526104a9565b335f525f602052610469600160405f2054146104d5565b6001600160a01b03165f818152602081905260408120600190557fdd0e34038ac38b2a1ce960229778ac48a8719bc900b6c4f8d0475c6e8b385a609080a2005b600435906001600160a01b038216820361008757565b602435906001600160a01b038216820361008757565b156104dc57565b60405162461bcd60e51b8152602060048201526013602482015272105d5d1a0bdb9bdd0b585d5d1a1bdc9a5e9959606a1b6044820152606490fd5b90601f8019910116810190811067ffffffffffffffff82111761023d5760405256fea2646970667358221220eda925077dc3cc4ae4dba6f920ef6862dceb29b5331500dcbe6533b9569770bc64736f6c634300081a0033","linkReferences":{}},"methodIdentifiers":{"approveMax(address,address)":"aec42a17","deny(address)":"9c52a7f1","rely(address)":"65fae35e","unapprove(address,address)":"96288991","wards(address)":"bf353dbb"},"id":3}