{"abi":[{"type":"function","name":"adapter1","inputs":[],"outputs":[{"name":"","type":"address","internalType":"contract MockAdapter"}],"stateMutability":"view"},{"type":"function","name":"adapter2","inputs":[],"outputs":[{"name":"","type":"address","internalType":"contract MockAdapter"}],"stateMutability":"view"},{"type":"function","name":"adapter3","inputs":[],"outputs":[{"name":"","type":"address","internalType":"contract MockAdapter"}],"stateMutability":"view"},{"type":"function","name":"mockedGasService","inputs":[],"outputs":[{"name":"","type":"address","internalType":"contract MockGasService"}],"stateMutability":"view"},{"type":"function","name":"setupMockAdapters","inputs":[],"outputs":[{"name":"","type":"address[]","internalType":"address[]"}],"stateMutability":"nonpayable"},{"type":"function","name":"testAdapters","inputs":[{"name":"","type":"uint256","internalType":"uint256"}],"outputs":[{"name":"","type":"address","internalType":"address"}],"stateMutability":"view"}],"bytecode":{"object":"0x60808060405234601557613816908161001a8239f35b5f80fdfe6080806040526004361015610012575f80fd5b5f905f3560e01c9081631fcaecb8146104d95750806355d9311d146104b1578063612cd56d146101225780637b792ace146100b4578063eed7e6a61461008b5763f59e207514610060575f80fd5b346100885780600319360112610088576001546040516001600160a01b039091168152602090f35b80fd5b50346100885780600319360112610088576002546040516001600160a01b039091168152602090f35b503461008857602036600319011261008857600435906004548210156100885760045482101561010e57600481525f805160206137c18339815191529091015460405160039290921b1c6001600160a01b03168152602090f35b634e487b7160e01b81526032600452602490fd5b5034610499575f3660031901126104995760405161176980820182811067ffffffffffffffff82111761049d578291612058833903905ff0801561048e57600380546001600160a01b0319166001600160a01b03929092169182179055604051611ad49081810167ffffffffffffffff81118282101761049d5781602091610584958587843981520301905ff0801561048e575f80546001600160a01b0319166001600160a01b0392831617905560035460405191838301911667ffffffffffffffff82118383101761049d5760209183918587843981520301905ff0801561048e57600180546001600160a01b0319166001600160a01b039283161790556003546040519391838501911667ffffffffffffffff82118583101761049d576020938593843981520301905ff0801561048e57600280546001600160a01b0319166001600160a01b039283161790555f5416803b15610499575f80916044604051809481936302b0157960e61b835267657374696d61746560c01b6004840152633b9aca0060248401525af1801561048e5761047b575b5060015481906001600160a01b0316803b15610463578180916044604051809481936302b0157960e61b835267657374696d61746560c01b6004840152634a817c8060248401525af1801561045857610466575b506002546001600160a01b0316803b15610463578180916044604051809481936302b0157960e61b835267657374696d61746560c01b600484015263684ee18060248401525af1801561045857610443575b50508054610375906001600160a01b031661051d565b60015461038a906001600160a01b031661051d565b60025461039f906001600160a01b031661051d565b60405160048054808352908352602082019081905f805160206137c183398151915290855b81811061042457505050826103da9103836104fb565b604051928392602084019060208552518091526040840192915b818110610402575050500390f35b82516001600160a01b03168452859450602093840193909201916001016103f4565b82546001600160a01b03168452602090930192600192830192016103c4565b8161044d916104fb565b61008857805f61035f565b6040513d84823e3d90fd5b50fd5b81610470916104fb565b61008857805f61030d565b61048791505f906104fb565b5f806102b9565b6040513d5f823e3d90fd5b5f80fd5b634e487b7160e01b5f52604160045260245ffd5b34610499575f366003190112610499576003546040516001600160a01b039091168152602090f35b34610499575f366003190112610499575f546001600160a01b03168152602090f35b90601f8019910116810190811067ffffffffffffffff82111761049d57604052565b600454600160401b81101561049d576001810160045560045481101561056f5760045f525f805160206137c18339815191520180546001600160a01b0319166001600160a01b03909216919091179055565b634e487b7160e01b5f52603260045260245ffdfe60a03460bd57601f611ad438819003918201601f19168301916001600160401b0383118484101760c15780849260209460405283398101031260bd57516001600160a01b0381169081900360bd57335f525f602052600160405f205560405190337fdd0e34038ac38b2a1ce960229778ac48a8719bc900b6c4f8d0475c6e8b385a605f80a2600160ff19600d541617600d55600160ff1960205416176020556080526119fe90816100d6823960805181818161112801526111df0152f35b5f80fd5b634e487b7160e01b5f52604160045260245ffdfe6080806040526004361015610012575f80fd5b5f905f3560e01c9081630364562a1461126a5750806309c5eabe146111ce5780630bfb963b14611157578063116191b6146111125780631d9279e5146110e85780631ed7831c1461106a5780631fc502901461103757806321e8e12a146110085780632ade388014610ea15780632bb1ae7c14610d205780632d0c758314610c855780633655626e14610c525780633e5e3c2314610bd45780633f7286f414610b5657806357c4b20714610b2c578063618c0ca314610a8557806365fae35e14610a1457806366d9a9a0146108f35780636edfc001146108c15780636efa427b1461085657806377ebf4131461081757806385226c811461078557806387000b491461075b578063916a17c6146106b35780639c52a7f1146106435780639ea4f95814610616578063a9573598146105e3578063a98d6f4f146105b9578063ac055e401461059a578063b0464fdc146104f2578063b1831105146104a5578063b5508aa914610413578063ba414fa6146103ee578063bdde3565146103bb578063bf353dbb14610383578063bf3e9d7c14610354578063c69586b214610310578063cff10265146102e6578063d9596218146102b2578063e20c9f7114610224578063f8a8fd6d146102105763fa7626d4146101ec575f80fd5b3461020d578060031936011261020d57602060ff8154166040519015158152f35b80fd5b503461020d578060031936011261020d5780f35b503461020d578060031936011261020d5760405160168054808352908352909160208301917fd833147d7dc355ba459fc788f669e58cfaf9dc25ddcd0702e87d69c7b5124289915b8181106102935761028f856102838187038261138d565b60405191829182611475565b0390f35b82546001600160a01b031684526020909301926001928301920161026c565b503461020d57602080806102c5366113d2565b604051928184925191829101835e8101603181520301902054604051908152f35b503461020d57602036600319011261020d5760406020916004358152602183522054604051908152f35b503461020d57604036600319011261020d57604060209161032f61152e565b6004358252602f84528282206001600160a01b03909116825283522054604051908152f35b503461020d57602036600319011261020d5760ff60406020926004358152602584522054166040519015158152f35b503461020d57602036600319011261020d576020906040906001600160a01b036103ab611544565b1681528083522054604051908152f35b503461020d57602036600319011261020d576001600160401b036040602092600435815260278452205416604051908152f35b503461020d578060031936011261020d57602061040961191f565b6040519015158152f35b503461020d578060031936011261020d57601a54610430816116c4565b9161043e604051938461138d565b818352601a81527f057c384a7d1c54f3a1b2e5e67b2617b8224fdfd1ea7234eea573a6ff665ff63e602084015b838310610488576040516020808252819061028f908201886114d6565b600160208192610497856115ad565b81520192019201919061046b565b503461020d57604036600319011261020d576024356001600160801b038116908190036104ee57600435825260246020526040822080546001600160801b031916909117905580f35b5080fd5b503461020d578060031936011261020d57601d5461050f816116c4565b9161051d604051938461138d565b818352601d81527f6d4407e7be21f808e6509aa9fa9143369579dd7d760fe20a2c09680fc146134f602084015b83831061055f576040518061028f878261164d565b600260206001926040516105728161135e565b848060a01b03865416815261058885870161171d565b8382015281520192019201919061054a565b503461020d576105a936611597565b9082526023602052604082205580f35b503461020d57602036600319011261020d5760406020916004358152602c83522054604051908152f35b503461020d57602036600319011261020d57602090600435815260288252604060018060801b0391205416604051908152f35b503461020d57602036600319011261020d5760ff6040602092600435815260268452205416604051908152f35b503461020d57602036600319011261020d5761065d611544565b3382528160205261067460016040842054146116db565b6001600160a01b03168082526020829052604082208290557f184450df2e323acec0ed3b5c7531b81f9b4cdef7914dfd4c0a4317416bb5251b8280a280f35b503461020d578060031936011261020d57601e546106d0816116c4565b916106de604051938461138d565b818352601e81527f50bb669a95c7b50b7e8a6f09454034b2b14cf2b85c730dca9a539ca82cb6e350602084015b838310610720576040518061028f878261164d565b600260206001926040516107338161135e565b848060a01b03865416815261074985870161171d565b8382015281520192019201919061070b565b503461020d57602036600319011261020d5760406020916004358152602383522054604051908152f35b503461020d578060031936011261020d57601b546107a2816116c4565b916107b0604051938461138d565b818352601b81527f3ad8aa4f87544323a9d1e5dd902f40c356527a7955687113db5f9a85ad579dc1602084015b8383106107fa576040516020808252819061028f908201886114d6565b600160208192610809856115ad565b8152019201920191906107dd565b503461020d57602036600319011261020d57610842604061028f926004358152602e602052206115ad565b6040519182916020835260208301906113ae565b503461020d5761086536611597565b908252602260205260408220805490600160401b8210156108ad576001820180825582101561089957835260208320015580f35b634e487b7160e01b84526032600452602484fd5b634e487b7160e01b84526041600452602484fd5b503461020d576108f06108d3366114b7565b9083526030602052604083209060ff801983541691151516179055565b80f35b503461020d578060031936011261020d57601c54610910816116c4565b61091d604051918261138d565b818152601c83526020810191837f0e4562a10381dec21b205ed72637e6b1b523bdd0e4d4d50af5cd23dd4500a211845b8383106109d957868587604051928392602084019060208552518091526040840160408260051b8601019392905b82821061098a57505050500390f35b919360019193955060206109c98192603f198a8203018652885190836109b983516040845260408401906113ae565b920151908481840391015261155a565b960192019201859493919261097b565b600260206001926040516109ec8161135e565b6109f5866115ad565b8152610a0285870161171d565b8382015281520192019201919061094d565b503461020d57602036600319011261020d57610a2e611544565b33825281602052610a4560016040842054146116db565b6001600160a01b0316808252602082905260408220600190557fdd0e34038ac38b2a1ce960229778ac48a8719bc900b6c4f8d0475c6e8b385a608280a280f35b503461020d57602036600319011261020d576004358152602260205260408120604051908160208254918281520190819285526020852090855b818110610b165750505082610ad591038361138d565b604051928392602084019060208552518091526040840192915b818110610afd575050500390f35b8251845285945060209384019390920191600101610aef565b8254845260209093019260019283019201610abf565b503461020d57602036600319011261020d5760406020916004358152602983522054604051908152f35b503461020d578060031936011261020d5760405160188054808352908352909160208301917fb13d2d76d1f4b7be834882e410b3e3a8afaf69f83600ae24db354391d2378d2e915b818110610bb55761028f856102838187038261138d565b82546001600160a01b0316845260209093019260019283019201610b9e565b503461020d578060031936011261020d5760405160198054808352908352909160208301917f944998273e477b495144fb8794c914197f3ccb46be2900f4698fd0ef743c9695915b818110610c335761028f856102838187038261138d565b82546001600160a01b0316845260209093019260019283019201610c1c565b503461020d57602036600319011261020d576020906004358152602a8252604060018060a01b0391205416604051908152f35b50604036600319011261020d576004356001600160401b0381116104ee57610cb1903690600401611448565b5050610cbb61152e565b506270617960e81b8152602260205260408120805490600160401b821015610d0c5760018201808255821015610cf8578252349060208320015580f35b634e487b7160e01b83526032600452602483fd5b634e487b7160e01b83526041600452602483fd5b503461020d57602036600319011261020d576004356001600160401b0381116104ee57610d51903690600401611448565b631cd95b9960e21b8352602d6020526040832092916001600160401b038211610d0c57610d7e8454611326565b601f8111610e5c575b508293601f8311600114610df9578284956020949591610dee575b508460011b905f198660031b1c19161790555b8260405193849283378101603181520301902080545f198114610dda57600101905580f35b634e487b7160e01b83526011600452602483fd5b90508201355f610da2565b80845260208420601f19841695855b878110610e44575084602095969710610e2b575b5050600184811b019055610db5565b8301355f19600387901b60f8161c191690555f80610e1c565b90916020600181928588013581550193019101610e08565b84845260208420601f840160051c81019160208510610e97575b601f0160051c01905b818110610e8c5750610d87565b848155600101610e7f565b9091508190610e76565b503461020d578060031936011261020d57601f54610ebe816116c4565b610ecb604051918261138d565b818152601f83526020810191837fa03837a25210ee280c2113ff4b77ca23440b19d4866cca721c801278fd08d807845b838310610f7f57868587604051928392602084019060208552518091526040840160408260051b8601019392905b828210610f3857505050500390f35b91936001919395506020610f6f8192603f198a82030186526040838a51878060a01b038151168452015191818582015201906114d6565b9601920192018594939192610f29565b604051610f8b8161135e565b82546001600160a01b03168152600183018054610fa7816116c4565b91610fb5604051938461138d565b8183528a526020808b20908b9084015b838210610feb575050505060019282602092836002950152815201920192019190610efb565b600160208192610ffa866115ad565b815201930191019091610fc5565b503461020d576108f061101a366114b7565b9083526025602052604083209060ff801983541691151516179055565b503461020d57602036600319011261020d57602090600435815260248252604060018060801b0391205416604051908152f35b503461020d578060031936011261020d5760405160178054808352908352909160208301917fc624b66cc0138b8fabc209247f72d758e1cf3343756d543badbf24212bed8c15915b8181106110c95761028f856102838187038261138d565b82546001600160a01b03168452602090930192600192830192016110b2565b503461020d57602036600319011261020d5760406020916004358152602b83522054604051908152f35b503461020d578060031936011261020d576040517f00000000000000000000000000000000000000000000000000000000000000006001600160a01b03168152602090f35b503461020d57604036600319011261020d576004356001600160401b0381116104ee57611188903690600401611448565b505067657374696d61746560c01b8152602360205260408120546024358101919082106111ba57602082604051908152f35b634e487b7160e01b81526011600452602490fd5b5034611266576111dd366113d2565b7f00000000000000000000000000000000000000000000000000000000000000006001600160a01b0316803b1561126657604051635fa45e5b60e11b815260206004820152915f91839182908490829061123b9060248301906113ae565b03925af1801561125b5761124d575080f35b61125991505f9061138d565b005b6040513d5f823e3d90fd5b5f80fd5b34611266576020366003190112611266576004355f52602d60205260405f205f9080549061129782611326565b80855291600181169081156112ff57506001146112bf575b61028f846108428186038261138d565b5f90815260208120939250905b8082106112e557509091508101602001610842826112af565b9192600181602092548385880101520191019092916112cc565b60ff191660208087019190915292151560051b8501909201925061084291508390506112af565b90600182811c92168015611354575b602083101461134057565b634e487b7160e01b5f52602260045260245ffd5b91607f1691611335565b604081019081106001600160401b0382111761137957604052565b634e487b7160e01b5f52604160045260245ffd5b90601f801991011681019081106001600160401b0382111761137957604052565b805180835260209291819084018484015e5f828201840152601f01601f1916010190565b6020600319820112611266576004356001600160401b0381116112665781602382011215611266578060040135906001600160401b0382116113795760405192611426601f8401601f19166020018561138d565b8284526024838301011161126657815f92602460209301838601378301015290565b9181601f84011215611266578235916001600160401b038311611266576020838186019501011161126657565b60206040818301928281528451809452019201905f5b8181106114985750505090565b82516001600160a01b031684526020938401939092019160010161148b565b6040906003190112611266576004359060243580151581036112665790565b9080602083519182815201916020808360051b8301019401925f915b83831061150157505050505090565b909192939460208061151f600193601f1986820301875289516113ae565b970193019301919392906114f2565b602435906001600160a01b038216820361126657565b600435906001600160a01b038216820361126657565b90602080835192838152019201905f5b8181106115775750505090565b82516001600160e01b03191684526020938401939092019160010161156a565b6040906003190112611266576004359060243590565b9060405191825f8254926115c084611326565b808452936001811690811561162b57506001146115e7575b506115e59250038361138d565b565b90505f9291925260205f20905f915b81831061160f5750509060206115e5928201015f6115d8565b60209193508060019154838589010152019101909184926115f6565b9050602092506115e594915060ff191682840152151560051b8201015f6115d8565b602081016020825282518091526040820191602060408360051b8301019401925f915b83831061167f57505050505090565b90919293946020806116b5600193603f198682030187526040838b51878060a01b0381511684520151918185820152019061155a565b97019301930191939290611670565b6001600160401b0381116113795760051b60200190565b156116e257565b60405162461bcd60e51b8152602060048201526013602482015272105d5d1a0bdb9bdd0b585d5d1a1bdc9a5e9959606a1b6044820152606490fd5b90604051918281549182825260208201905f5260205f20925f905b80600783011061187a576115e594549181811061185b575b81811061183c575b81811061181d575b8181106117fe575b8181106117df575b8181106117c0575b8181106117a3575b1061178e575b50038361138d565b6001600160e01b03191681526020015f611786565b602083811b6001600160e01b031916855290930192600101611780565b604083901b6001600160e01b0319168452602090930192600101611778565b606083901b6001600160e01b0319168452602090930192600101611770565b608083901b6001600160e01b0319168452602090930192600101611768565b60a083901b6001600160e01b0319168452602090930192600101611760565b60c083901b6001600160e01b0319168452602090930192600101611758565b60e083901b6001600160e01b0319168452602090930192600101611750565b916008919350610100600191865463ffffffff60e01b8160e01b16825263ffffffff60e01b8160c01b16602083015263ffffffff60e01b8160a01b16604083015263ffffffff60e01b8160801b16606083015263ffffffff60e01b8160601b16608083015263ffffffff60e01b8160401b1660a083015263ffffffff60e01b8160201b1660c083015263ffffffff60e01b1660e0820152019401920185929391611738565b60095460ff16801561192e5790565b50604051630667f9d760e41b8152737109709ecfa91a80626ff3989d68f67f5b1dd12d60048201526519985a5b195960d21b6024820152602081604481737109709ecfa91a80626ff3989d68f67f5b1dd12d5afa90811561125b575f91611996575b50151590565b90506020813d6020116119c0575b816119b16020938361138d565b8101031261126657515f611990565b3d91506119a456fea264697066735822122094a4934c883de44f7d1d56757e403ccff1df280c6fb568a3d81d36ac2a258e6c64736f6c634300081a003360808060405234602f57600160ff19600c541617600c55600160ff19601f541617601f5561173590816100348239f35b5f80fdfe60806040526004361015610011575f80fd5b5f3560e01c80630364562a146102345780631d9279e51461022f5780631ed7831c1461022a5780631fc502901461022557806321e8e12a146102205780632ade38801461021b5780633655626e146102165780633e5e3c23146102115780633f7286f41461020c578063492fac911461020757806357c4b20714610202578063618c0ca3146101fd57806366d9a9a0146101f85780636edfc001146101f35780636efa427b146101ee57806377ebf413146101e957806385226c81146101e457806387000b49146101df578063916a17c6146101da5780639ea4f958146101d5578063a9573598146101d0578063a98d6f4f146101cb578063ac055e40146101c6578063b0464fdc146101c1578063b1831105146101bc578063b5508aa9146101b7578063ba414fa6146101b2578063bdde3565146101ad578063bf3e9d7c146101a8578063c69586b2146101a3578063cff102651461019e578063e20c9f7114610199578063e766cc12146101945763fa7626d41461018f575f80fd5b611274565b611231565b6111b4565b61118b565b611141565b611112565b6110df565b6110bb565b611030565b610fe6565b610f3d565b610f1e565b610ef4565b610ec2565b610e95565b610dec565b610d4b565b610cc0565b610c71565b610b7a565b610b36565b610a8d565b610961565b6108fe565b61082f565b61076f565b6106f2565b6106c0565b610617565b610518565b6104c7565b61043e565b6103d2565b6102fe565b90600182811c92168015610267575b602083101461025357565b634e487b7160e01b5f52602260045260245ffd5b91607f1691610248565b634e487b7160e01b5f52604160045260245ffd5b604081019081106001600160401b038211176102a057604052565b610271565b90601f801991011681019081106001600160401b038211176102a057604052565b805180835260209291819084018484015e5f828201840152601f01601f1916010190565b9060206102fb9281815201906102c6565b90565b346103ce5760203660031901126103ce576004355f52602c60205260405f20604051905f9080549061032f82610239565b80855291600181169081156103a75750600114610367575b61036384610357818603826102a5565b604051918291826102ea565b0390f35b5f90815260208120939250905b80821061038d5750909150810160200161035782610347565b919260018160209254838588010152019101909291610374565b60ff191660208087019190915292151560051b850190920192506103579150839050610347565b5f80fd5b346103ce5760203660031901126103ce576004355f52602a602052602060405f2054604051908152f35b60206040818301928281528451809452019201905f5b81811061041f5750505090565b82516001600160a01b0316845260209384019390920191600101610412565b346103ce575f3660031901126103ce57604051601680548083525f91825260208301917fd833147d7dc355ba459fc788f669e58cfaf9dc25ddcd0702e87d69c7b512428991905b8181106104a8576103638561049c818703826102a5565b604051918291826103fc565b82546001600160a01b0316845260209093019260019283019201610485565b346103ce5760203660031901126103ce576004355f526023602052602060018060801b0360405f205416604051908152f35b60409060031901126103ce576004359060243580151581036103ce5790565b346103ce57610546610529366104f9565b905f52602460205260405f209060ff801983541691151516179055565b005b9080602083519182815201916020808360051b8301019401925f915b83831061057357505050505090565b9091929394602080610591600193601f1986820301875289516102c6565b97019301930191939290610564565b602081016020825282518091526040820191602060408360051b8301019401925f915b8383106105d257505050505090565b9091929394602080610608600193603f198682030187526040838b51878060a01b03815116845201519181858201520190610548565b970193019301919392906105c3565b346103ce575f3660031901126103ce57601e5461063381611296565b9061064160405192836102a5565b808252601e5f9081527f50bb669a95c7b50b7e8a6f09454034b2b14cf2b85c730dca9a539ca82cb6e350602084015b838310610685576040518061036387826105a0565b6002602060019260405161069881610285565b848060a01b0386541681526106ae8587016112ad565b83820152815201920192019190610670565b346103ce5760203660031901126103ce576004355f526029602052602060018060a01b0360405f205416604051908152f35b346103ce575f3660031901126103ce57604051601880548083525f91825260208301917fb13d2d76d1f4b7be834882e410b3e3a8afaf69f83600ae24db354391d2378d2e91905b818110610750576103638561049c818703826102a5565b82546001600160a01b0316845260209093019260019283019201610739565b346103ce575f3660031901126103ce57604051601780548083525f91825260208301917fc624b66cc0138b8fabc209247f72d758e1cf3343756d543badbf24212bed8c1591905b8181106107cd576103638561049c818703826102a5565b82546001600160a01b03168452602090930192600192830192016107b6565b600435906001600160a01b03821682036103ce57565b9181601f840112156103ce578235916001600160401b0383116103ce57602083818601950101116103ce57565b346103ce5760403660031901126103ce576108486107ec565b506024356001600160401b0381116103ce57610868903690600401610802565b50506b1cda1bdd5b191499599d595b60a21b5f52602080527f3441bca7665d3066003af07a73fec17acb888ff5b7c6553c621fda7dd4b3834380545f1981146108f95760010190556b1cda1bdd5b191499599d595b60a21b5f52602460209081527f5b714df63717ef7865890aef6ea4b423157b8448fa9c8e1a9bf2d3353c2a0c965460405160ff90911615158152f35b6116eb565b346103ce5760203660031901126103ce576004355f526028602052602060405f2054604051908152f35b60206040818301928281528451809452019201905f5b81811061094b5750505090565b825184526020938401939092019160010161093e565b346103ce5760203660031901126103ce576004355f52602160205260405f206040519081602082549182815201915f5260205f20905f5b8181106109bb57610363856109af818703826102a5565b60405191829182610928565b8254845260209093019260019283019201610998565b90602080835192838152019201905f5b8181106109ee5750505090565b82516001600160e01b0319168452602093840193909201916001016109e1565b602081016020825282518091526040820191602060408360051b8301019401925f915b838310610a4057505050505090565b9091929394602080610a7e600193603f1986820301875289519083610a6e83516040845260408401906102c6565b92015190848184039101526109d1565b97019301930191939290610a31565b346103ce575f3660031901126103ce57601b54610aa981611296565b90610ab760405192836102a5565b808252601b5f9081527f3ad8aa4f87544323a9d1e5dd902f40c356527a7955687113db5f9a85ad579dc1602084015b838310610afb57604051806103638782610a0e565b60026020600192604051610b0e81610285565b610b1786610bd1565b8152610b24858701611302565b83820152815201920192019190610ae6565b346103ce57610546610b47366104f9565b905f52602f60205260405f209060ff801983541691151516179055565b60409060031901126103ce576004359060243590565b346103ce57610b8836610b64565b905f52602160205260405f20805490600160401b8210156102a05760018201808255821015610bbd575f5260205f2001555f80f35b634e487b7160e01b5f52603260045260245ffd5b9060405191825f825492610be484610239565b8084529360018116908115610c4f5750600114610c0b575b50610c09925003836102a5565b565b90505f9291925260205f20905f915b818310610c33575050906020610c09928201015f610bfc565b6020919350806001915483858901015201910190918492610c1a565b905060209250610c0994915060ff191682840152151560051b8201015f610bfc565b346103ce5760203660031901126103ce576004355f52602d602052610363610c9b60405f20610bd1565b6040519182916020835260208301906102c6565b9060206102fb928181520190610548565b346103ce575f3660031901126103ce57601a54610cdc81611296565b90610cea60405192836102a5565b808252601a5f9081527f057c384a7d1c54f3a1b2e5e67b2617b8224fdfd1ea7234eea573a6ff665ff63e602084015b838310610d2e57604051806103638782610caf565b600160208192610d3d85610bd1565b815201920192019190610d19565b346103ce5760203660031901126103ce576004355f526022602052602060405f2054604051908152f35b602081016020825282518091526040820191602060408360051b8301019401925f915b838310610da757505050505090565b9091929394602080610ddd600193603f198682030187526040838b51878060a01b038151168452015191818582015201906109d1565b97019301930191939290610d98565b346103ce575f3660031901126103ce57601d54610e0881611296565b90610e1660405192836102a5565b808252601d5f9081527f6d4407e7be21f808e6509aa9fa9143369579dd7d760fe20a2c09680fc146134f602084015b838310610e5a57604051806103638782610d75565b60026020600192604051610e6d81610285565b848060a01b038654168152610e83858701611302565b83820152815201920192019190610e45565b346103ce5760203660031901126103ce576004355f526025602052602060ff60405f205416604051908152f35b346103ce5760203660031901126103ce576004355f526027602052602060018060801b0360405f205416604051908152f35b346103ce5760203660031901126103ce576004355f52602b602052602060405f2054604051908152f35b346103ce57610f2c36610b64565b905f52602260205260405f20555f80f35b346103ce575f3660031901126103ce57601c54610f5981611296565b90610f6760405192836102a5565b808252601c5f9081527f0e4562a10381dec21b205ed72637e6b1b523bdd0e4d4d50af5cd23dd4500a211602084015b838310610fab57604051806103638782610d75565b60026020600192604051610fbe81610285565b848060a01b038654168152610fd4858701611302565b83820152815201920192019190610f96565b346103ce5760403660031901126103ce576024356001600160801b03811690600435908290036103ce575f90815260236020526040902080546001600160801b0319169091179055005b346103ce575f3660031901126103ce5760195461104c81611296565b9061105a60405192836102a5565b80825260195f9081527f944998273e477b495144fb8794c914197f3ccb46be2900f4698fd0ef743c9695602084015b83831061109e57604051806103638782610caf565b6001602081926110ad85610bd1565b815201920192019190611089565b346103ce575f3660031901126103ce5760206110d561153e565b6040519015158152f35b346103ce5760203660031901126103ce576004355f52602660205260206001600160401b0360405f205416604051908152f35b346103ce5760203660031901126103ce576004355f526024602052602060ff60405f2054166040519015158152f35b346103ce5760403660031901126103ce576024356001600160a01b03811690600435908290036103ce575f52602e60205260405f20905f52602052602060405f2054604051908152f35b346103ce5760203660031901126103ce576004355f5260208052602060405f2054604051908152f35b346103ce575f3660031901126103ce57604051601580548083525f91825260208301917f55f448fdea98c4d29eb340757ef0a66cd03dbb9538908a6a81d96026b71ec47591905b818110611212576103638561049c818703826102a5565b82546001600160a01b03168452602090930192600192830192016111fb565b346103ce5760203660031901126103ce576004356001600160401b0381116103ce5761126c6112666020923690600401610802565b906115da565b604051908152f35b346103ce575f3660031901126103ce57602060ff601f54166040519015158152f35b6001600160401b0381116102a05760051b60200190565b9081546112b981611296565b926112c760405194856102a5565b81845260208401905f5260205f205f915b8383106112e55750505050565b6001602081926112f485610bd1565b8152019201920191906112d8565b6040518154808252909291839061132060208301915f5260205f2090565b925f905b80600783011061146757610c09945491818110611448575b818110611429575b81811061140a575b8181106113eb575b8181106113cc575b8181106113ad575b81811061138f575b1061137a575b5003836102a5565b6001600160e01b03191681526020015f611372565b602083811b6001600160e01b0319168552909360019101930161136c565b604083901b6001600160e01b0319168452926001906020019301611364565b606083901b6001600160e01b031916845292600190602001930161135c565b608083901b6001600160e01b0319168452926001906020019301611354565b60a083901b6001600160e01b031916845292600190602001930161134c565b60c083901b6001600160e01b0319168452926001906020019301611344565b6001600160e01b031960e084901b16845292600190602001930161133c565b916008919350610100600191611516875461148d838260e01b63ffffffff60e01b169052565b60c081901b6001600160e01b031916602084015260a081901b6001600160e01b0319166040840152608081901b6001600160e01b0319166060840152606081901b6001600160e01b0319166080840152604081901b6001600160e01b03191660a0840152602081901b6001600160e01b03191660c08401526001600160e01b03191660e0830152565b019401920185929391611324565b908160209103126103ce575190565b6040513d5f823e3d90fd5b60085460ff16801561154d5790565b50604051630667f9d760e41b8152737109709ecfa91a80626ff3989d68f67f5b1dd12d600482018190526519985a5b195960d21b6024830152602090829060449082905afa9081156115d5575f916115a6575b50151590565b6115c8915060203d6020116115ce575b6115c081836102a5565b810190611524565b5f6115a0565b503d6115b6565b611533565b906001600160401b0381116102a05760405191611601601f8301601f1916602001846102a5565b81835236828201116103ce57815f92602092838601378301015260018151106116b05760ff6001809201511614611672576f6d6573736167655f657374696d61746560801b5f5260226020527ff6d0a8c4d29a6c40ec20e9d296bdd352737d40420ca47a215d38bbb0f70f54dd5490565b6d70726f6f665f657374696d61746560901b5f5260226020527f1aa6958768a1fb882d44b7683c3835427cad8e4c92861ec0e077ef0d72171eb95490565b60405162461bcd60e51b8152602060048201526013602482015272746f55696e74385f6f75744f66426f756e647360681b6044820152606490fd5b634e487b7160e01b5f52601160045260245ffdfea2646970667358221220daa7f661ceac58349d84cc836c923042e1f6627261e7c42becdc0b7316b34f4564736f6c634300081a00338a35acfbc15ff81a39ae7d344fd709f28e8600b4aa8c65c6b64bfe7fe36bd19ba2646970667358221220ae841bb7de033ac85b5c376d3d4eceab1176881d319a87338092d3cebedceed064736f6c634300081a0033","linkReferences":{}},"methodIdentifiers":{"adapter1()":"1fcaecb8","adapter2()":"f59e2075","adapter3()":"eed7e6a6","mockedGasService()":"55d9311d","setupMockAdapters()":"612cd56d","testAdapters(uint256)":"7b792ace"},"id":140}