{"abi":[{"type":"constructor","inputs":[{"name":"root_","type":"address","internalType":"address"},{"name":"poolManager_","type":"address","internalType":"address"},{"name":"investmentManager_","type":"address","internalType":"address"},{"name":"gasService_","type":"address","internalType":"address"}],"stateMutability":"nonpayable"},{"type":"receive","stateMutability":"payable"},{"type":"function","name":"MAX_ADAPTER_COUNT","inputs":[],"outputs":[{"name":"","type":"uint8","internalType":"uint8"}],"stateMutability":"view"},{"type":"function","name":"PRIMARY_ADAPTER_ID","inputs":[],"outputs":[{"name":"","type":"uint8","internalType":"uint8"}],"stateMutability":"view"},{"type":"function","name":"QUOTA_SLOT","inputs":[],"outputs":[{"name":"","type":"bytes32","internalType":"bytes32"}],"stateMutability":"view"},{"type":"function","name":"RECOVERY_CHALLENGE_PERIOD","inputs":[],"outputs":[{"name":"","type":"uint256","internalType":"uint256"}],"stateMutability":"view"},{"type":"function","name":"activeSessionId","inputs":[],"outputs":[{"name":"","type":"uint64","internalType":"uint64"}],"stateMutability":"view"},{"type":"function","name":"adapters","inputs":[{"name":"","type":"uint256","internalType":"uint256"}],"outputs":[{"name":"","type":"address","internalType":"address"}],"stateMutability":"view"},{"type":"function","name":"deny","inputs":[{"name":"user","type":"address","internalType":"address"}],"outputs":[],"stateMutability":"nonpayable"},{"type":"function","name":"disputeMessageRecovery","inputs":[{"name":"adapter","type":"address","internalType":"address"},{"name":"messageHash","type":"bytes32","internalType":"bytes32"}],"outputs":[],"stateMutability":"nonpayable"},{"type":"function","name":"estimate","inputs":[{"name":"payload","type":"bytes","internalType":"bytes"}],"outputs":[{"name":"perAdapter","type":"uint256[]","internalType":"uint256[]"},{"name":"total","type":"uint256","internalType":"uint256"}],"stateMutability":"view"},{"type":"function","name":"executeMessageRecovery","inputs":[{"name":"adapter","type":"address","internalType":"address"},{"name":"message","type":"bytes","internalType":"bytes"}],"outputs":[],"stateMutability":"nonpayable"},{"type":"function","name":"file","inputs":[{"name":"what","type":"bytes32","internalType":"bytes32"},{"name":"payer","type":"address","internalType":"address"},{"name":"isAllowed","type":"bool","internalType":"bool"}],"outputs":[],"stateMutability":"nonpayable"},{"type":"function","name":"file","inputs":[{"name":"what","type":"bytes32","internalType":"bytes32"},{"name":"addresses","type":"address[]","internalType":"address[]"}],"outputs":[],"stateMutability":"nonpayable"},{"type":"function","name":"file","inputs":[{"name":"what","type":"bytes32","internalType":"bytes32"},{"name":"instance","type":"address","internalType":"address"}],"outputs":[],"stateMutability":"nonpayable"},{"type":"function","name":"file","inputs":[{"name":"what","type":"bytes32","internalType":"bytes32"},{"name":"data1","type":"uint8","internalType":"uint8"},{"name":"data2","type":"address","internalType":"address"}],"outputs":[],"stateMutability":"nonpayable"},{"type":"function","name":"gasService","inputs":[],"outputs":[{"name":"","type":"address","internalType":"contract IGasService"}],"stateMutability":"view"},{"type":"function","name":"handle","inputs":[{"name":"message","type":"bytes","internalType":"bytes"}],"outputs":[],"stateMutability":"nonpayable"},{"type":"function","name":"investmentManager","inputs":[],"outputs":[{"name":"","type":"address","internalType":"address"}],"stateMutability":"view"},{"type":"function","name":"messageHandlers","inputs":[{"name":"messageId","type":"uint8","internalType":"uint8"}],"outputs":[{"name":"","type":"address","internalType":"address"}],"stateMutability":"view"},{"type":"function","name":"payers","inputs":[{"name":"payer","type":"address","internalType":"address"}],"outputs":[{"name":"","type":"bool","internalType":"bool"}],"stateMutability":"view"},{"type":"function","name":"poolManager","inputs":[],"outputs":[{"name":"","type":"address","internalType":"address"}],"stateMutability":"view"},{"type":"function","name":"quorum","inputs":[],"outputs":[{"name":"","type":"uint8","internalType":"uint8"}],"stateMutability":"view"},{"type":"function","name":"recoverTokens","inputs":[{"name":"token","type":"address","internalType":"address"},{"name":"receiver","type":"address","internalType":"address"},{"name":"amount","type":"uint256","internalType":"uint256"}],"outputs":[],"stateMutability":"nonpayable"},{"type":"function","name":"recoveries","inputs":[{"name":"adapter","type":"address","internalType":"address"},{"name":"messageHash","type":"bytes32","internalType":"bytes32"}],"outputs":[{"name":"timestamp","type":"uint256","internalType":"uint256"}],"stateMutability":"view"},{"type":"function","name":"rely","inputs":[{"name":"user","type":"address","internalType":"address"}],"outputs":[],"stateMutability":"nonpayable"},{"type":"function","name":"root","inputs":[],"outputs":[{"name":"","type":"address","internalType":"contract IRoot"}],"stateMutability":"view"},{"type":"function","name":"send","inputs":[{"name":"message","type":"bytes","internalType":"bytes"},{"name":"source","type":"address","internalType":"address"}],"outputs":[],"stateMutability":"payable"},{"type":"function","name":"topUp","inputs":[],"outputs":[],"stateMutability":"payable"},{"type":"function","name":"votes","inputs":[{"name":"messageHash","type":"bytes32","internalType":"bytes32"}],"outputs":[{"name":"","type":"uint16[8]","internalType":"uint16[8]"}],"stateMutability":"view"},{"type":"function","name":"wards","inputs":[{"name":"","type":"address","internalType":"address"}],"outputs":[{"name":"","type":"uint256","internalType":"uint256"}],"stateMutability":"view"},{"type":"event","name":"Deny","inputs":[{"name":"user","type":"address","indexed":true,"internalType":"address"}],"anonymous":false},{"type":"event","name":"DisputeMessageRecovery","inputs":[{"name":"messageHash","type":"bytes32","indexed":false,"internalType":"bytes32"},{"name":"adapter","type":"address","indexed":false,"internalType":"address"}],"anonymous":false},{"type":"event","name":"ExecuteMessage","inputs":[{"name":"message","type":"bytes","indexed":false,"internalType":"bytes"},{"name":"adapter","type":"address","indexed":false,"internalType":"address"}],"anonymous":false},{"type":"event","name":"ExecuteMessageRecovery","inputs":[{"name":"message","type":"bytes","indexed":false,"internalType":"bytes"},{"name":"adapter","type":"address","indexed":false,"internalType":"address"}],"anonymous":false},{"type":"event","name":"File","inputs":[{"name":"what","type":"bytes32","indexed":true,"internalType":"bytes32"},{"name":"adapters","type":"address[]","indexed":false,"internalType":"address[]"}],"anonymous":false},{"type":"event","name":"File","inputs":[{"name":"what","type":"bytes32","indexed":true,"internalType":"bytes32"},{"name":"instance","type":"address","indexed":false,"internalType":"address"}],"anonymous":false},{"type":"event","name":"File","inputs":[{"name":"what","type":"bytes32","indexed":true,"internalType":"bytes32"},{"name":"messageId","type":"uint8","indexed":false,"internalType":"uint8"},{"name":"manager","type":"address","indexed":false,"internalType":"address"}],"anonymous":false},{"type":"event","name":"File","inputs":[{"name":"what","type":"bytes32","indexed":true,"internalType":"bytes32"},{"name":"caller","type":"address","indexed":false,"internalType":"address"},{"name":"isAllowed","type":"bool","indexed":false,"internalType":"bool"}],"anonymous":false},{"type":"event","name":"InitiateMessageRecovery","inputs":[{"name":"messageHash","type":"bytes32","indexed":false,"internalType":"bytes32"},{"name":"adapter","type":"address","indexed":false,"internalType":"address"}],"anonymous":false},{"type":"event","name":"ProcessMessage","inputs":[{"name":"message","type":"bytes","indexed":false,"internalType":"bytes"},{"name":"adapter","type":"address","indexed":false,"internalType":"address"}],"anonymous":false},{"type":"event","name":"ProcessProof","inputs":[{"name":"messageHash","type":"bytes32","indexed":false,"internalType":"bytes32"},{"name":"adapter","type":"address","indexed":false,"internalType":"address"}],"anonymous":false},{"type":"event","name":"ReceiveNativeTokens","inputs":[{"name":"sender","type":"address","indexed":true,"internalType":"address"},{"name":"amount","type":"uint256","indexed":false,"internalType":"uint256"}],"anonymous":false},{"type":"event","name":"RecoverMessage","inputs":[{"name":"adapter","type":"address","indexed":false,"internalType":"address"},{"name":"message","type":"bytes","indexed":false,"internalType":"bytes"}],"anonymous":false},{"type":"event","name":"RecoverProof","inputs":[{"name":"adapter","type":"address","indexed":false,"internalType":"address"},{"name":"messageHash","type":"bytes32","indexed":false,"internalType":"bytes32"}],"anonymous":false},{"type":"event","name":"Rely","inputs":[{"name":"user","type":"address","indexed":true,"internalType":"address"}],"anonymous":false},{"type":"event","name":"SendMessage","inputs":[{"name":"message","type":"bytes","indexed":false,"internalType":"bytes"}],"anonymous":false}],"bytecode":{"object":"0x60a03461011457601f6134bd38819003918201601f19168301916001600160401b0383118484101761011857808492608094604052833981010312610114576100478161012c565b906100546020820161012c565b9061006d60606100666040840161012c565b920161012c565b91335f525f602052600160405f205560405193337fdd0e34038ac38b2a1ce960229778ac48a8719bc900b6c4f8d0475c6e8b385a605f80a26001600160a01b03908116608052600180549282166001600160a01b031993841617905560028054938216938316939093179092556003805493909216921691909117905561337c9081610141823960805181818161046c015281816111a3015281816116ce0152612f950152f35b5f80fd5b634e487b7160e01b5f52604160045260245ffd5b51906001600160a01b03821682036101145756fe60806040526004361015610022575b3615610018575f80fd5b610020612148565b005b5f3560e01c8063167da1c2146101f15780631703a018146101ec5780631a3355a4146101e7578063202d45d3146101e25780632b38cd96146101dd578063361081b5146101d85780634a714c24146101d35780634b31bb10146101ce5780634ef501ac146101c95780635f3e849f146101c4578063635f5d9a146101bf57806365fae35e146101ba5780636a22d8cc146101b55780637aa21e28146101b05780639c52a7f1146101ab5780639ef729c5146101a6578063b032a7ae146101a1578063bc8d601f1461019c578063bf353dbb14610197578063bf48bcb614610192578063d4e8be831461018d578063d4f19a2d14610188578063da92a24114610183578063dc29f1de1461017e578063dc4c90d314610179578063e766cc1214610174578063e7bb75cd1461016f578063ebf0c7171461016a5763f7ba64e30361000e576116fd565b6116b9565b611670565b61148f565b611423565b611357565b61133c565b61131f565b6111f0565b61117e565b611116565b6110d9565b6110ae565b61100e565b610f9b565b610f3b565b610f13565b610e9f565b610e77565b610d0b565b610cc4565b610c51565b610c11565b610b21565b610ab7565b61041f565b6103b2565b610315565b610215565b6001600160a01b0381160361020757565b5f80fd5b8015150361020757565b3461020757606036600319011261020757600435602435610235816101f6565b6044356102418161020b565b335f525f602052610258600160405f2054146117db565b6570617965727360d01b83036102c6577f560cc286eeb62dc966f55c712a92e7443c48363b7e0e408b37a5d243242a00e09160409160018060a01b0382165f526007602052825f2060ff1981541660ff8315151617905582519160018060a01b0316825215156020820152a2005b60405162461bcd60e51b815260206004820152601f60248201527f476174657761792f66696c652d756e7265636f676e697a65642d706172616d006044820152606490fd5b5f91031261020757565b34610207575f36600319011261020757600654156103ad575f80516020613307833981519152546001600160a01b03165f908152600560205260409081902090516103a991610395919061036882611831565b549060ff8216815260406001600160401b0360ff8460081c169384602085015260101c1691015260ff1690565b60405160ff90911681529081906020820190565b0390f35b610c79565b34610207576040366003190112610207576100206004356103d2816101f6565b60243590335f525f6020526103ed600160405f2054146117db565b612176565b9181601f84011215610207578235916001600160401b038311610207576020838186019501011161020757565b6040366003190112610207576004356001600160401b0381116102075761044a9036906004016103f2565b60243591610457836101f6565b604051635c975abb60e01b81526020816004817f00000000000000000000000000000000000000000000000000000000000000006001600160a01b03165afa8015610759576104ae915f91610a98575b50156118db565b6002546104cb906001600160a01b03165b6001600160a01b031690565b33148015610a7b575b8015610a34575b6104e490611969565b6105196105276104f5368585611933565b6020815191012060405192839160208301602191600160f81b825260018201520190565b03601f198101835282611851565b600654906105368215156119cd565b6003545f805160206132e78339815191529590865c9061055e906001600160a01b03166104bf565b6040516373b3660960e11b815291906020838061057f8b8b60048401611a42565b0381845afa928315610759575f93610a13575b506040516373b3660960e11b815293602085806105b28960048301611a77565b0381855afa948515610759575f956109f2575b5082156107b557505f9594929392919050855b85811061061f57505050505050505f7f69331a26390a78389351d9264561047b757948e9b0a1a9dfc6bec2b230b50953935d5b61061a60405192839283611a42565b0390a1005b908161064b6104bf61063661069198979695610c8d565b905460039190911b1c6001600160a01b031690565b918189149081156107ae57610661368d8d611933565b935b6001600160a01b031691156107a6576020875b604051809a8192630bfb963b60e01b83528860048401611abc565b0381855afa978815610759575f98610772575b5087816106b66106bb93831115611b00565b610e65565b96813b15610207575f6040518092632d0c758360e01b825281806106e3308a60048401611ad8565b0391865af180156107595761075e575b50803b1561020757604051630aec6b9f60e21b8152925f9184918290849082906107209060048301611a77565b03925af19182156107595760019261073f575b500193909192936105d8565b8061074d5f61075393611851565b8061030b565b5f610733565b6118d0565b8061074d5f61076c93611851565b5f6106f3565b6106bb9198506107989060203d811161079f575b6107908183611851565b810190611a13565b97906106a4565b503d610786565b602086610676565b8493610663565b6107e393949599506020925090875f8a936040519687958694859363492fac9160e01b855260048501611a88565b03925af1908115610759575f916109c3575b501561097e575f9291835b8381106108345750505050507f69331a26390a78389351d9264561047b757948e9b0a1a9dfc6bec2b230b50953925061060b565b6108436104bf61063683610c8d565b90858114801561097757610858368a8a611933565b925b6001600160a01b0316901561096c5761088b6020865b60405180938192630bfb963b60e01b83528860048401611abc565b0381855afa908115610759575f9161094e575b5047811115610903575b50803b1561020757604051630aec6b9f60e21b8152925f9184918290849082906108d59060048301611a77565b03925af1918215610759576001926108ef575b5001610800565b8061074d5f6108fd93611851565b5f6108e8565b813b15610207575f6040518092632d0c758360e01b8252818061092a308a60048401611ad8565b0391865af1801561075957156108a8578061074d5f61094893611851565b5f6108a8565b610966915060203d811161079f576107908183611851565b5f61089e565b61088b602085610870565b899261085a565b60405162461bcd60e51b815260206004820152601c60248201527f476174657761792f6e6f742d656e6f7567682d6761732d66756e6473000000006044820152606490fd5b6109e5915060203d6020116109eb575b6109dd8183611851565b8101906118b8565b5f6107f5565b503d6109d3565b610a0c91955060203d60201161079f576107908183611851565b935f6105c5565b610a2d91935060203d60201161079f576107908183611851565b915f610592565b506104e4610a726104bf610a65610a54610a4f368888611933565b6121d3565b60ff165f52600860205260405f2090565b546001600160a01b031690565b331490506104db565b50600154610a91906001600160a01b03166104bf565b33146104d4565b610ab1915060203d6020116109eb576109dd8183611851565b5f6104a7565b34610207576020366003190112610207576004356101009081604051610add8282611851565b3690375f526004602052610af360405f20611b07565b604051905f825b60088210610b0757505050f35b60208060019261ffff865116815201930191019091610afa565b3461020757604036600319011261020757600435610b3e816101f6565b6024356001600160401b038111610207577fcbb3502d1e713d169118fddaa5f836808845e17d30907e0c5dec84b32e21209d91610b8261061a9236906004016103f2565b9290915f610bf9610b94368787611933565b60208151910120610bdd610bc982610bbc8760018060a01b03165f52600960205260405f2090565b905f5260205260405f2090565b54610bd5811515611b8e565b421015611be9565b6001600160a01b0384165f908152600960205260409020610bbc565b55610c058185856126cb565b60405193849384611c44565b3461020757602036600319011261020757600435610c2e816101f6565b60018060a01b03165f526007602052602060ff60405f2054166040519015158152f35b34610207575f366003190112610207576002546040516001600160a01b039091168152602090f35b634e487b7160e01b5f52603260045260245ffd5b6006548110156103ad5760065f5260205f2001905f90565b600654156103ad5760065f9081525f8051602061330783398151915291565b34610207576020366003190112610207576004356006548110156102075760065f525f8051602061330783398151915201546040516001600160a01b039091168152602090f35b3461020757606036600319011261020757600435610d28816101f6565b60243590610d35826101f6565b60443590335f525f602052610d50600160405f2054146117db565b6001600160a01b03811673eeeeeeeeeeeeeeeeeeeeeeeeeeeeeeeeeeeeeeee03610d7e575061002091612b91565b5f9283809360405190602082019363a9059cbb60e01b855260018060a01b03166024830152604482015260448152610db7606482611851565b51925af1610dc3612b3a565b81610e22575b5015610dd157005b60405162461bcd60e51b8152602060048201526024808201527f536166655472616e736665724c69622f736166652d7472616e736665722d66616044820152631a5b195960e21b6064820152608490fd5b8051801592508215610e37575b50505f610dc9565b610e4a92506020809183010191016118b8565b5f80610e2f565b634e487b7160e01b5f52601160045260245ffd5b91908203918211610e7257565b610e51565b34610207575f3660031901126102075760205f805160206132e7833981519152604051908152f35b3461020757602036600319011261020757600435610ebc816101f6565b335f525f602052610ed3600160405f2054146117db565b6001600160a01b03165f818152602081905260408120600190557fdd0e34038ac38b2a1ce960229778ac48a8719bc900b6c4f8d0475c6e8b385a609080a2005b34610207575f366003190112610207576003546040516001600160a01b039091168152602090f35b34610207576040366003190112610207576024356004356001600160401b0382116102075736602383011215610207578160040135906001600160401b038211610207573660248360051b85010111610207576024610020930190611c5d565b3461020757602036600319011261020757600435610fb8816101f6565b335f525f602052610fcf600160405f2054146117db565b6001600160a01b03165f8181526020819052604081208190557f184450df2e323acec0ed3b5c7531b81f9b4cdef7914dfd4c0a4317416bb5251b9080a2005b34610207575f36600319011261020757600654156103ad575f80516020613307833981519152546001600160a01b03165f908152600560205260409081902081516103a992611094929091906001600160401b039061106c83611831565b5460ff8116835260ff8160081c16602084015260101c1691829101526001600160401b031690565b6040516001600160401b0390911681529081906020820190565b34610207575f36600319011261020757602060405160088152f35b6024359060ff8216820361020757565b346102075760203660031901126102075760043560ff8116809103610207575f526008602052602060018060a01b0360405f205416604051908152f35b3461020757602036600319011261020757600435611133816101f6565b60018060a01b03165f525f602052602060405f2054604051908152f35b602060031982011261020757600435906001600160401b0382116102075761117a916004016103f2565b9091565b346102075761118c36611150565b604051635c975abb60e01b815291906020836004817f00000000000000000000000000000000000000000000000000000000000000006001600160a01b03165afa92831561075957610020936111e9915f91610a985750156118db565b3391612a58565b3461020757604036600319011261020757600435602435611210816101f6565b335f525f602052611227600160405f2054146117db565b696761735365727669636560b01b820361128957600380546001600160a01b0319166001600160a01b0383161790555f8051602061332783398151915290611284905b6040516001600160a01b0390911681529081906020820190565b0390a2005b7034b73b32b9ba36b2b73a26b0b730b3b2b960791b82036112d757600280546001600160a01b0319166001600160a01b0383161790555f80516020613327833981519152906112849061126a565b6a3837b7b626b0b730b3b2b960a91b82036102c657600180546001600160a01b0319166001600160a01b0383161790555f80516020613327833981519152906112849061126a565b34610207575f36600319011261020757602060405162093a808152f35b34610207575f36600319011261020757602060405160018152f35b5f36600319011261020757335f52600760205260ff60405f205416156113de57341561138f57345f805160206132e78339815191525d005b60405162461bcd60e51b815260206004820152602160248201527f476174657761792f63616e6e6f742d746f7075702d776974682d6e6f7468696e6044820152606760f81b6064820152608490fd5b60405162461bcd60e51b815260206004820152601e60248201527f476174657761792f6f6e6c792d7061796572732d63616e2d746f702d757000006044820152606490fd5b34610207575f366003190112610207576001546040516001600160a01b039091168152602090f35b92919060408401906040855280518092526020606086019101915f5b81811061147957505060209150930152565b8351835260209384019390920191600101611467565b346102075761149d36611150565b905f916105196114b16104f5368486611933565b6003546114c6906001600160a01b03166104bf565b90604051936373b3660960e11b8552602085806114e7878560048401611a42565b0381865afa948515610759575f9561164f575b50602060405180946373b3660960e11b8252818061151b8760048301611a77565b03915afa928315610759575f9361162e575b509190600694939454926115408461208b565b955f95865b86881061155b57604051806103a98c8c8361144b565b90919293949596986115b36020838c14805f146116275785905b15611613578c6115966104bf80610636611590368d8f611933565b94610c8d565b90604051809581948293630bfb963b60e01b845260048401611abc565b03915afa8015610759576001928c8c6115df945f946115ed575b5083916115d9916120bd565b526120ef565b990196959493929190611545565b6115d99192945061160b9060203d811161079f576107908183611851565b9391906115cd565b8c6115966104bf6104bf6106368d94610c8d565b8990611575565b61164891935060203d60201161079f576107908183611851565b915f61152d565b61166991955060203d60201161079f576107908183611851565b935f6114fa565b346102075760403660031901126102075760043561168d816101f6565b6024359060018060a01b03165f52600960205260405f20905f52602052602060405f2054604051908152f35b34610207575f366003190112610207576040517f00000000000000000000000000000000000000000000000000000000000000006001600160a01b03168152602090f35b34610207576060366003190112610207576004356117196110c9565b604435611725816101f6565b335f525f60205261173c600160405f2054146117db565b666d65737361676560c81b83036102c6578161177e601c60ff7f9098672b12e96c9bc7e28fb6f69c2e7977eba6ea19c25100f6076cb30142f2d09516116120fc565b6117b6826117978360ff165f52600860205260405f2090565b80546001600160a01b0319166001600160a01b03909216919091179055565b6040805160ff90921682526001600160a01b0390921660208201529081908101611284565b156117e257565b60405162461bcd60e51b8152602060048201526013602482015272105d5d1a0bdb9bdd0b585d5d1a1bdc9a5e9959606a1b6044820152606490fd5b634e487b7160e01b5f52604160045260245ffd5b606081019081106001600160401b0382111761184c57604052565b61181d565b90601f801991011681019081106001600160401b0382111761184c57604052565b60405190611881606083611851565b565b9060405161189081611831565b60406001600160401b0382945460ff8116845260ff8160081c16602085015260101c16910152565b9081602091031261020757516118cd8161020b565b90565b6040513d5f823e3d90fd5b156118e257565b60405162461bcd60e51b815260206004820152600e60248201526d11d85d195dd85e4bdc185d5cd95960921b6044820152606490fd5b6001600160401b03811161184c57601f01601f191660200190565b92919261193f82611918565b9161194d6040519384611851565b829481845281830111610207578281602093845f960137010152565b1561197057565b60405162461bcd60e51b815260206004820152601760248201527623b0ba32bbb0bc97b4b73b30b634b216b6b0b730b3b2b960491b6044820152606490fd5b601d11156119b957565b634e487b7160e01b5f52602160045260245ffd5b156119d457565b60405162461bcd60e51b815260206004820152601760248201527611d85d195dd85e4bdb9bdd0b5a5b9a5d1a585b1a5e9959604a1b6044820152606490fd5b90816020910312610207575190565b908060209392818452848401375f828201840152601f01601f1916010190565b9160206118cd938181520191611a22565b805180835260209291819084018484015e5f828201840152601f01601f1916010190565b9060206118cd928181520190611a53565b6001600160a01b0390911681526040602082018190526118cd93910191611a22565b60ff5f199116019060ff8211610e7257565b929190611ad3602091604086526040860190611a53565b930152565b90611af0602091949394604084526040840190611a53565b6001600160a01b03909416910152565b1561097e57565b90611b82604051925461ffff81168452611b2e6020850161ffff8360101c1661ffff169052565b602081901c61ffff166040850152603081901c61ffff166060850152604081901c61ffff166080850152605081901c61ffff1660a0850152606081901c61ffff1660c085015260701c61ffff1660e0840152565b61188161010083611851565b15611b9557565b60405162461bcd60e51b815260206004820152602660248201527f476174657761792f6d6573736167652d7265636f766572792d6e6f742d696e696044820152651d1a585d195960d21b6064820152608490fd5b15611bf057565b60405162461bcd60e51b815260206004820152602660248201527f476174657761792f6368616c6c656e67652d706572696f642d6861732d6e6f746044820152650b595b99195960d21b6064820152608490fd5b91602091611af091959495604085526040850191611a22565b929091335f525f602052611c77600160405f2054146117db565b67616461707465727360c01b84036102c657611c9281612c28565b9260ff841692611ca3841515611e62565b611cb06008851115611eaa565b600654908115611e5b57611cfc611cf7611ce7611cce610636610ca5565b6001600160a01b03165f90815260056020526040902090565b5460101c6001600160401b031690565b611eec565b915b5f5b8160ff821610611e3c5750505f5b60ff811686811015611df55760ff91611dee89611da2611cce611d4986611d61611d5b611d558f8f611d4960019d611d4e93611cce93611f1b565b611f2b565b5460ff1690565b60ff1690565b15611f35565b611d8c611d6d88611f81565b95611d82611d79611872565b60ff9098168852565b60ff166020870152565b6001600160401b038b1660408601528c8c611f1b565b81518154602084015160409094015169ffffffffffffffff000060109190911b1661ff0060089590951b9490941660ff90921669ffffffffffffffffffff199091161717919091179055565b0116611d0e565b5050959450507f22944054ba3525dd8d666ad676ed32afdb8ad661de1a1625e43ffdb40777d38d9250611e288282611fa9565b611e376040519283928361202d565b0390a2565b805f611e50611cce610636611e5695610c8d565b55611f0a565b611d00565b5f91611cfe565b15611e6957565b60405162461bcd60e51b815260206004820152601960248201527811d85d195dd85e4bd95b5c1d1e4b5859185c1d195c8b5cd95d603a1b6044820152606490fd5b15611eb157565b60405162461bcd60e51b815260206004820152601360248201527208ec2e8caeec2f25ecaf0c6cacac8e65adac2f606b1b6044820152606490fd5b6001600160401b036001911601906001600160401b038211610e7257565b60ff1660ff8114610e725760010190565b91908110156103ad5760051b0190565b356118cd816101f6565b15611f3c57565b60405162461bcd60e51b815260206004820152601d60248201527f476174657761792f6e6f2d6475706c6963617465732d616c6c6f7765640000006044820152606490fd5b60ff60019116019060ff8211610e7257565b818110611f9e575050565b5f8155600101611f93565b6001600160401b03821161184c57600160401b821161184c5760065482600655808310612006575b5060065f5260205f205f5b838110611fe95750505050565b6001906020843594611ffa866101f6565b01938184015501611fdc565b60065f52612027905f80516020613307833981519152908101908401611f93565b5f611fd1565b60208082528101839052604001915f5b81811061204a5750505090565b909192602080600192863561205e816101f6565b848060a01b03168152019401910191909161203d565b6001600160401b03811161184c5760051b60200190565b9061209582612074565b6120a26040519182611851565b82815280926120b3601f1991612074565b0190602036910137565b80518210156103ad5760209160051b010190565b9062093a808201809211610e7257565b9060028201809211610e7257565b91908201809211610e7257565b1561210357565b60405162461bcd60e51b815260206004820152601c60248201527f476174657761792f68617264636f6465642d6d6573736167652d6964000000006044820152606490fd5b6040513481527f29812eee8f36a46feac7e82c3816ce672e0bec5128eb6573b4edbb41c73508ef60203392a2565b6001600160a01b03165f81815260096020908152604080832085845282528083209290925581519384528301919091527f896f148c5c988b077f8424172a4b5bd09373f216967d85878656b50fc57abd299190819081015b0390a1565b60018151106121e3576001015190565b60405162461bcd60e51b8152602060048201526013602482015272746f55696e74385f6f75744f66426f756e647360681b6044820152606490fd5b1561222557565b60405162461bcd60e51b815260206004820152601760248201527623b0ba32bbb0bc97b4b73b30b634b216b0b230b83a32b960491b6044820152606490fd5b1561226b57565b60405162461bcd60e51b815260206004820152601460248201527323b0ba32bbb0bc97b73796b932b1bab939b4b7b760611b6044820152606490fd5b156122ae57565b60405162461bcd60e51b815260206004820152602c60248201527f476174657761792f6e6f2d7265636f766572792d776974682d6f6e652d61646160448201526b1c1d195c8b585b1b1bddd95960a21b6064820152608490fd5b1561230f57565b60405162461bcd60e51b815260206004820152601b60248201527f476174657761792f6e6f6e2d6d6573736167652d6164617074657200000000006044820152606490fd5b1561235b57565b60405162461bcd60e51b815260206004820152601960248201527823b0ba32bbb0bc97b737b716b83937b7b316b0b230b83a32b960391b6044820152606490fd5b611881906001810190611f93565b91909160088310156103ad57601e908360041c019260011b1690565b61ffff1661ffff8114610e725760010190565b90600182811c92168015612407575b60208310146123f357565b634e487b7160e01b5f52602260045260245ffd5b91607f16916123e8565b9190601f811161242057505050565b611881925f5260205f20906020601f840160051c8301931061244a575b601f0160051c0190611f93565b909150819061243d565b9092916001600160401b03811161184c576124798161247384546123d9565b84612411565b5f601f82116001146124b75781906124a89394955f926124ac575b50508160011b915f199060031b1c19161790565b9055565b013590505f80612494565b601f198216946124ca845f5260205f2090565b915f5b8781106125045750836001959697106124eb575b505050811b019055565b01355f19600384901b60f8161c191690555f80806124e1565b909260206001819286860135815501940191016124cd565b9060405191825f82549261252f846123d9565b80845293600181169081156125985750600114612554575b5061188192500383611851565b90505f9291925260205f20905f915b81831061257c575050906020611881928201015f612547565b6020919350806001915483858901015201910190918492612563565b90506020925061188194915060ff191682840152151560051b8201015f612547565b929190604084525f908054906125cf826123d9565b918260408801526001811690815f146126465750600114612604575b50506001600160a01b0390911660209390930192909252565b5f90815260208120939250905b80821061262b5750909150830160600160206118816125eb565b9192600181602092546060858a010152019101909291612611565b61188195945060609250602093915060ff191682880152151560051b86010191926125eb565b61267681546123d9565b9081612680575050565b81601f5f9311600114612691575055565b818352602083206126ad91601f0160051c810190600101611f93565b808252602082209081548360011b9084198560031b1c191617905555565b916126ee6126e98260018060a01b03165f52600560205260405f2090565b611883565b9161270760ff6126ff855160ff1690565b16151561221e565b60ff612717610a4f368488611933565b1693600285148015612a4e575b612a1f5760018095149360208101908660ff612741845160ff1690565b161480612a17575b6129dc5761282f61282961282461286193895f1461298a5761276a8b612354565b6127ce61278061277b368b8b611933565b6130cb565b604080518281526001600160a01b038d1660208201527f5bdddcca2b7825338c6056f216bf04e536b944b22805a3c71e17fb447963d4ce91819081015b0390a15f52600460205260405f2090565b9a60408201908c6127e683516001600160401b031690565b918101916001600160401b0361281261280685546001600160401b031690565b6001600160401b031690565b91160361294b575b5050505160ff1690565b611aaa565b886123aa565b61284961284482845461ffff9160031b1c1690565b6123c6565b9061ffff8084549260031b9316831b921b1916179055565b61287261286d87611b07565b613129565b60ff612882611d55845160ff1690565b91161061293057936128bf6128b97fb1cbd68ad0dd15fb8b37bb7e1c4aa93b18ba31119d85fb0bbe798bef7a9a1eb6965160ff1690565b876131d3565b15612913575050600283016128dc5f6128d78361251c565b612ea8565b6128eb604051928392836125ba565b0390a15b6129006128fb82611b07565b61324d565b6129075750565b6002611881910161266c565b909161292890610c055f6128d7368787611933565b0390a16128ef565b509150911561293f575b505050565b60026118819301612454565b6129829261295b6129689261239c565b516001600160401b031690565b6001600160401b03166001600160401b0319825416179055565b5f808c61281a565b6129938b612308565b6127ce897fbe876b1f4194b0013fcf2ee01a95c09f8968b7bbbf8894466f45476cf40d77c28a8a6127bd6129c8368484611933565b602081519101209460405193849384611c44565b5050917fb1cbd68ad0dd15fb8b37bb7e1c4aa93b18ba31119d85fb0bbe798bef7a9a1eb694506121ce919350610c055f6128d7368787611933565b508515612749565b91506118819350612a499250612a345f612264565b612a426001600654116122a7565b3691611933565b612c74565b5060038514612724565b91612a766126e98260018060a01b03165f52600560205260405f2090565b91612a8760ff6126ff855160ff1690565b60ff612a97610a4f368488611933565b1693600285148015612b30575b612b1a5760018095149360208101908660ff612ac1845160ff1690565b161480612b12575b6129dc5761282f61282961282461286193895f14612afa5761276a8b60ff612af2845160ff1690565b161415612354565b6129938b60ff612b0b845160ff1690565b1614612308565b508515612ac9565b91506118819350612a499250612a346001612264565b5060038514612aa4565b3d15612b64573d90612b4b82611918565b91612b596040519384611851565b82523d5f602084013e565b606090565b90612b7382611918565b612b806040519182611851565b82815280926120b3601f1991611918565b6040515f9283929190612ba5602083611851565b838252612bb184611918565b602083019290601f190136843751925af1612bca612b3a565b5015612bd257565b60405162461bcd60e51b815260206004820152602860248201527f536166655472616e736665724c69622f736166652d7472616e736665722d65746044820152671a0b59985a5b195960c21b6064820152608490fd5b60ff8111612c365760ff1690565b60405162461bcd60e51b81526020600482015260166024820152754d6174684c69622f75696e74382d6f766572666c6f7760501b6044820152606490fd5b612c7d816130cb565b6035825110612d6c57604182015160601c916002612ca2612c9d836121d3565b61327f565b612cab816119af565b03612d435750907fdd72858239c0b570c27eb3c35fa880487851235c441562df97b2accea36876a291612cf660ff6126ff611d4e8560018060a01b03165f52600560205260405f2090565b612cff426120d1565b6001600160a01b0383165f908152600960205260409020612d21908390610bbc565b55604080519182526001600160a01b03909216602082015290819081016121ce565b612d51612c9d6003926121d3565b612d5a816119af565b14612d63575050565b61188191612176565b60405162461bcd60e51b8152602060048201526015602482015274746f416464726573735f6f75744f66426f756e647360581b6044820152606490fd5b15612db057565b60405162461bcd60e51b815260206004820152601f60248201527f476174657761792f756e726567697374657265642d6d6573736167652d6964006044820152606490fd5b15612dfc57565b60405162461bcd60e51b815260206004820152602560248201527f476174657761792f6e6f2d7265637572736976652d6261746368696e672d616c6044820152641b1bddd95960da1b6064820152608490fd5b15612e5657565b60405162461bcd60e51b8152602060048201526019602482015278476174657761792f636f727275707465642d6d65737361676560381b6044820152606490fd5b9081518110156103ad570160200190565b90612eb2826121d3565b9060ff821660048103612f7f5750612ecb915015612df5565b80519160015b83612edb826120e1565b11612f7957612ef4612eed828561328e565b61ffff1690565b612f06612f0082612b69565b926120e1565b91612f1c86612f1584866120ef565b1115612e4f565b5f5b828110612f3f57506001612f3191612ea8565b612f3a916120ef565b612ed1565b80612f66612f58612f52600194886120ef565b89612e97565b516001600160f81b03191690565b5f1a612f728285612e97565b5301612f1e565b50915050565b90506005811015806130c0575b156130125750507f00000000000000000000000000000000000000000000000000000000000000006001600160a01b03165b6001600160a01b0316803b1561020757604051635fa45e5b60e11b8152915f918391829084908290612ff39060048301611a77565b03925af18015610759576130045750565b8061074d5f61188193611851565b60088103613036575050600354613031906001600160a01b03166104bf565b612fbe565b6009811015806130b5575b156130595750506001546001600160a01b0316612fbe565b601481101590816130a9575b501561307d57506002546001600160a01b0316612fbe565b610a656130959160ff165f52600860205260405f2090565b6130316001600160a01b0382161515612da9565b601c915011155f613065565b506013811115613041565b506007811115612f8c565b60218151106130db576021015190565b60405162461bcd60e51b8152602060048201526015602482015274746f427974657333325f6f75744f66426f756e647360581b6044820152606490fd5b9060088110156103ad5760051b0190565b905f915f5b6008811061313a575050565b61ffff6131478284613118565b5116613156575b60010161312e565b92613162600191611f0a565b93905061314e565b61ffff5f199116019061ffff8211610e7257565b60ff168015610e72575f190190565b1561319457565b60405162461bcd60e51b815260206004820152601760248201527641727261794c69622f696e76616c69642d76616c75657360481b6044820152606490fd5b5f5b600881106131ec57505060ff61188191161561318d565b60ff83161561293a5761ffff8061320383856123aa565b90549060031b1c1616613219575b6001016131d5565b9161324560019161324061322d86866123aa565b61284961ffff83548360031b1c1661316a565b61317e565b929050613211565b5f5b6008811061325e575050600190565b61ffff61326b8284613118565b51166132795760010161324f565b50505f90565b60ff16601d8110156119b95790565b9081516002820190818311610e7257106132aa57016002015190565b60405162461bcd60e51b8152602060048201526014602482015273746f55696e7431365f6f75744f66426f756e647360601b6044820152606490fdfecb4a8f834a5ecf6e2452e6023d95ff3bae3ab8e43eeefad9d0f6946e6a5fac74f652222313e28459528d920b65115c16c04f3efc82aaedc97be59f3f377c0d3f8fef588b5fc1afbf5b2f06c1a435d513f208da2e6704c3d8f0e0ec91167066baa2646970667358221220bf970ae41f5a724a536bab027f0acfce471092734c6bb51e899e2ec0b5ff1a9d64736f6c634300081a0033","linkReferences":{}},"methodIdentifiers":{"MAX_ADAPTER_COUNT()":"b032a7ae","PRIMARY_ADAPTER_ID()":"da92a241","QUOTA_SLOT()":"635f5d9a","RECOVERY_CHALLENGE_PERIOD()":"d4f19a2d","activeSessionId()":"9ef729c5","adapters(uint256)":"4ef501ac","deny(address)":"9c52a7f1","disputeMessageRecovery(address,bytes32)":"1a3355a4","estimate(bytes)":"e766cc12","executeMessageRecovery(address,bytes)":"361081b5","file(bytes32,address)":"d4e8be83","file(bytes32,address,bool)":"167da1c2","file(bytes32,address[])":"7aa21e28","file(bytes32,uint8,address)":"f7ba64e3","gasService()":"6a22d8cc","handle(bytes)":"bf48bcb6","investmentManager()":"4b31bb10","messageHandlers(uint8)":"bc8d601f","payers(address)":"4a714c24","poolManager()":"dc4c90d3","quorum()":"1703a018","recoverTokens(address,address,uint256)":"5f3e849f","recoveries(address,bytes32)":"e7bb75cd","rely(address)":"65fae35e","root()":"ebf0c717","send(bytes,address)":"202d45d3","topUp()":"dc29f1de","votes(bytes32)":"2b38cd96","wards(address)":"bf353dbb"},"id":13}