{"abi":[{"type":"function","name":"centrifugeChain","inputs":[],"outputs":[{"name":"","type":"address","internalType":"contract MockCentrifugeChain"}],"stateMutability":"view"},{"type":"function","name":"setupCentrifugeChain","inputs":[{"name":"testAdapters","type":"address[]","internalType":"address[]"}],"outputs":[{"name":"","type":"address","internalType":"address"}],"stateMutability":"nonpayable"}],"bytecode":{"object":"0x608080604052346015576125ea908161001a8239f35b5f80fdfe6080806040526004361015610012575f80fd5b5f3560e01c9081632822ec521461005d575063e3b5eeb314610032575f80fd5b34610059575f366003190112610059575f546040516001600160a01b039091168152602090f35b5f80fd5b346100595760203660031901126100595760043567ffffffffffffffff811161005957366023820112156100595780600401359067ffffffffffffffff821161018e578160051b91601f19603f840116840184811067ffffffffffffffff82111761018e5760405283526020830190602482938201019036821161005957602401915b8183106101a257505050604051916123f280840184811067ffffffffffffffff82111761018e57604090859493926101c38639602081019260208252518093520191905f5b81811061016c5750505003905ff08015610161575f80546001600160a01b0319166001600160a01b039092169182179055604051908152602090f35b6040513d5f823e3d90fd5b82516001600160a01b0316845285945060209384019390920191600101610125565b634e487b7160e01b5f52604160045260245ffd5b82356001600160a01b0381168103610059578152602092830192016100e056fe60806040523461017e576123f28038038061001981610182565b92833981019060208183031261017e578051906001600160401b03821161017e570181601f8201121561017e578051916001600160401b03831161013b578260051b9160208061006a818601610182565b80968152019382010191821161017e57602001915b81831061015e5783600160ff19600c541617600c55600160ff19601f541617601f555f5b815181101561014f576020600582901b8301810151905491906001600160a01b03166801000000000000000083101561013b5760018301806020558310156101275760205f527fc97bfaf2f8ee708c303a06d134f5ecd8389ae0432af62dc132a24118292866bb90920180546001600160a01b0319169092179091556001016100a3565b634e487b7160e01b5f52603260045260245ffd5b634e487b7160e01b5f52604160045260245ffd5b60405161224a90816101a88239f35b82516001600160a01b038116810361017e5781526020928301920161007f565b5f80fd5b6040519190601f01601f191682016001600160401b0381118382101761013b5760405256fe60806040526004361015610011575f80fd5b5f3560e01c806304f2ce6e14610274578063089948b51461026f57806309c5eabe1461026a578063189eb692146102655780631ed7831c14610260578063290cd5521461025b5780632ade3880146102565780632b8961011461025157806338ef96811461024c5780633e5e3c23146102475780633ef46309146102425780633f7286f41461023d5780633fb930f3146102385780634ef501ac1461023357806366d9a9a01461022e5780637b042669146102295780637b2209251461022457806385226c811461021f578063868d91461461021a5780638aa2e5b0146102155780638f971c8b14610210578063916a17c61461020b57806391ba22751461020657806395a2ef2a14610201578063b0464fdc146101fc578063b5508aa9146101f7578063ba414fa6146101f2578063bef5ad50146101ed578063c47744ab146101e8578063c77d5fe6146101e3578063cb5cbeef146101de578063dafd6bfa146101d9578063dd4b0c40146101d4578063e20c9f71146101cf578063ea01e89a146101ca578063f8a8fd6d146101c5578063fa7626d4146101c05763fe2b2faf146101bb575f80fd5b611a29565b611a07565b6119f5565b61195b565b6118de565b61186d565b611820565b61177e565b6116fe565b611697565b6115e9565b6115c5565b61153a565b611491565b611415565b611398565b6112ef565b611122565b6110bb565b61101a565b610f8f565b610f07565b610e39565b610d75565b610c77565b610bfe565b610b81565b610ade565b610a61565b6109f0565b6109a2565b6108f9565b610789565b6106fc565b610633565b610581565b610493565b6103a5565b600435906001600160401b038216820361028f57565b5f80fd5b608435906001600160401b038216820361028f57565b604435906001600160401b038216820361028f57565b606435906001600160401b038216820361028f57565b602435906001600160801b03198216820361028f57565b600435906001600160a01b038216820361028f57565b602435906001600160a01b038216820361028f57565b606435906001600160a01b038216820361028f57565b604435906001600160a01b038216820361028f57565b60a435906001600160a01b038216820361028f57565b606090600319011261028f576004356001600160401b038116810361028f57906024356001600160801b03198116810361028f57906044356001600160a01b038116810361028f5790565b3461028f5761040f6103b63661035a565b604051600160fc1b602082015260c09390931b6001600160c01b03191660218401526001600160801b0319909116602983015260601b6001600160601b0319166039820152602d815261040a604d8261050f565b612017565b005b602435906001600160801b038216820361028f57565b604435906001600160801b038216820361028f57565b606435906001600160801b038216820361028f57565b600435906001600160801b038216820361028f57565b608435906001600160801b038216820361028f57565b35906001600160801b038216820361028f57565b3461028f57604036600319011261028f5761040f6104af610279565b61040a6104ba610411565b916104cd60405193849260208401611a91565b03601f19810183528261050f565b634e487b7160e01b5f52604160045260245ffd5b604081019081106001600160401b0382111761050a57604052565b6104db565b90601f801991011681019081106001600160401b0382111761050a57604052565b6001600160401b03811161050a57601f01601f191660200190565b92919261055782610530565b91610565604051938461050f565b82948184528183011161028f578281602093845f960137010152565b3461028f57602036600319011261028f576004356001600160401b03811161028f573660238201121561028f5761040a61040f91369060248160040135910161054b565b60c090600319011261028f576004356001600160401b038116810361028f57906024356001600160801b03198116810361028f5790604435906064356001600160801b038116810361028f57906084356001600160801b038116810361028f579061063060a461047f565b90565b3461028f5761040f610644366105c5565b604051601760f81b602082015260c09690961b6001600160c01b03191660218701526001600160801b031994851660298701526039860193909352608091821b84166059860152811b831660698086019190915291901b9091166079830152815261040a60898261050f565b5f91031261028f57565b60206040818301928281528451809452019201905f5b8181106106dd5750505090565b82516001600160a01b03168452602093840193909201916001016106d0565b3461028f575f36600319011261028f57604051601680548083525f91825260208301917fd833147d7dc355ba459fc788f669e58cfaf9dc25ddcd0702e87d69c7b512428991905b81811061076a576107668561075a8187038261050f565b604051918291826106ba565b0390f35b82546001600160a01b0316845260209093019260019283019201610743565b3461028f5761040f61079a366105c5565b604051600d60f91b602082015260c09690961b6001600160c01b03191660218701526001600160801b031994851660298701526039860193909352608091821b84166059860152811b831660698086019190915291901b9091166079830152815261040a60898261050f565b805180835260209291819084018484015e5f828201840152601f01601f1916010190565b9080602083519182815201916020808360051b8301019401925f915b83831061085557505050505090565b9091929394602080610873600193601f198682030187528951610806565b97019301930191939290610846565b602081016020825282518091526040820191602060408360051b8301019401925f915b8383106108b457505050505090565b90919293946020806108ea600193603f198682030187526040838b51878060a01b0381511684520151918185820152019061082a565b970193019301919392906108a5565b3461028f575f36600319011261028f57601e5461091581611ac8565b90610923604051928361050f565b808252601e5f9081527f50bb669a95c7b50b7e8a6f09454034b2b14cf2b85c730dca9a539ca82cb6e350602084015b83831061096757604051806107668782610882565b6002602060019260405161097a816104ef565b848060a01b038654168152610990858701611ba7565b83820152815201920192019190610952565b3461028f57602036600319011261028f5761040f6104cd61040a6109c4610279565b604051600560f91b602082015260c09190911b6001600160c01b03191660218201529182906029820190565b3461028f5761040f610a013661035a565b604051601360f81b602082015260c09390931b6001600160c01b03191660218401526001600160801b03199091166029830152600160f91b603983015260601b6001600160601b031916603a80830191909152815261040a605a8261050f565b3461028f575f36600319011261028f57604051601880548083525f91825260208301917fb13d2d76d1f4b7be834882e410b3e3a8afaf69f83600ae24db354391d2378d2e91905b818110610abf576107668561075a8187038261050f565b82546001600160a01b0316845260209093019260019283019201610aa8565b3461028f5760a036600319011261028f5761040f610afa610279565b610b026102d5565b610b0a610427565b610b1261043d565b90610b1b610293565b604051600760f91b60208201526001600160c01b031960c096871b811660218301526001600160801b03199586166029830152608093841b861660398301529390921b90931660498201529190921b90911660598201526041815261040a60618261050f565b3461028f575f36600319011261028f57604051601780548083525f91825260208301917fc624b66cc0138b8fabc209247f72d758e1cf3343756d543badbf24212bed8c1591905b818110610bdf576107668561075a8187038261050f565b82546001600160a01b0316845260209093019260019283019201610bc8565b3461028f57602036600319011261028f5761040f610c1a6102ec565b604051600560f81b602082015260609190911b6001600160601b03191660218201526015815261040a60358261050f565b602054811015610c635760205f5260205f2001905f90565b634e487b7160e01b5f52603260045260245ffd5b3461028f57602036600319011261028f5760043560205481101561028f57610ca0602091610c4b565b905460405160039290921b1c6001600160a01b03168152f35b90602080835192838152019201905f5b818110610cd65750505090565b82516001600160e01b031916845260209384019390920191600101610cc9565b602081016020825282518091526040820191602060408360051b8301019401925f915b838310610d2857505050505090565b9091929394602080610d66600193603f1986820301875289519083610d568351604084526040840190610806565b9201519084818403910152610cb9565b97019301930191939290610d19565b3461028f575f36600319011261028f57601b54610d9181611ac8565b90610d9f604051928361050f565b808252601b5f9081527f3ad8aa4f87544323a9d1e5dd902f40c356527a7955687113db5f9a85ad579dc1602084015b838310610de357604051806107668782610cf6565b60026020600192604051610df6816104ef565b610dff86611adf565b8152610e0c858701611bfc565b83820152815201920192019190610dce565b9080601f8301121561028f578160206106309335910161054b565b3461028f57608036600319011261028f57610e52610279565b610e5a6102d5565b6044356001600160401b03811161028f57610e79903690600401610e1e565b6064356001600160401b03811161028f5761040f9361040a92610ef9610eb7610eb1610eab6020963690600401610e1e565b93612106565b92612175565b604051600f60f81b8682015260c09490941b6001600160c01b03191660218501526001600160801b031990961660298401529194859290916039840190611e1e565b90815203808452018261050f565b3461028f57604036600319011261028f57610f20610453565b602435906001600160401b038216820361028f57604051600160fb1b602082015260809190911b6001600160801b031916602182015260c09190911b6001600160c01b03191660318201526019815261040f9061040a60398261050f565b90602061063092818152019061082a565b3461028f575f36600319011261028f57601a54610fab81611ac8565b90610fb9604051928361050f565b808252601a5f9081527f057c384a7d1c54f3a1b2e5e67b2617b8224fdfd1ea7234eea573a6ff665ff63e602084015b838310610ffd57604051806107668782610f7e565b60016020819261100c85611adf565b815201920192019190610fe8565b3461028f57604036600319011261028f5761040f611036610279565b61040a611041610411565b604051600560f91b602082015260c084901b6001600160c01b0319166021820152926110909061107e85602981015b03601f19810187528661050f565b6104cd60405193849260208401611a91565b6104cd61109f845161ffff1690565b916110ac815161ffff1690565b60405195869460208601611e30565b3461028f57604036600319011261028f5761040f6110d7610453565b6110df610302565b604051600960f81b602082015260809290921b6001600160801b031916602183015260601b6001600160601b03191660318201526025815261040a60458261050f565b3461028f5760a036600319011261028f5761107061113e610279565b6111466102d5565b9061114f6102a9565b611157610318565b61118f611162610469565b604051600160f81b602082015260c09490941b6001600160c01b0319166021850152929586906029820190565b6111996001612197565b6111a76009865110156121d4565b60405160098082019601601282015b808810611265575050916104cd916112076111fa6111e98661040f9a600961040a9a9952601f8019910116604052611e76565b9260601b6001600160601b03191690565b6001600160601b03191690565b604051600960f91b602082015260c09590951b6001600160c01b03191660218601526001600160801b031996871660298601526001600160b81b03199091166039850152604284015260801b90931660628201529182906072820190565b90966020809189518152019701906111b6565b602081016020825282518091526040820191602060408360051b8301019401925f915b8383106112aa57505050505090565b90919293946020806112e0600193603f198682030187526040838b51878060a01b03815116845201519181858201520190610cb9565b9701930193019193929061129b565b3461028f575f36600319011261028f57601d5461130b81611ac8565b90611319604051928361050f565b808252601d5f9081527f6d4407e7be21f808e6509aa9fa9143369579dd7d760fe20a2c09680fc146134f602084015b83831061135d57604051806107668782611278565b60026020600192604051611370816104ef565b848060a01b038654168152611386858701611bfc565b83820152815201920192019190611348565b3461028f5761040f6113a9366105c5565b604051600b60f91b602082015260c09690961b6001600160c01b03191660218701526001600160801b031994851660298701526039860193909352608091821b84166059860152811b831660698086019190915291901b9091166079830152815261040a60898261050f565b3461028f57608036600319011261028f5761040f6114316102ec565b611439610302565b9061144261032e565b604051600760f81b60208201526001600160601b0319606093841b8116602183015293831b84166041820152911b9091166061820152606435608180830191909152815261040a60a18261050f565b3461028f575f36600319011261028f57601c546114ad81611ac8565b906114bb604051928361050f565b808252601c5f9081527f0e4562a10381dec21b205ed72637e6b1b523bdd0e4d4d50af5cd23dd4500a211602084015b8383106114ff57604051806107668782611278565b60026020600192604051611512816104ef565b848060a01b038654168152611528858701611bfc565b838201528152019201920191906114ea565b3461028f575f36600319011261028f5760195461155681611ac8565b90611564604051928361050f565b80825260195f9081527f944998273e477b495144fb8794c914197f3ccb46be2900f4698fd0ef743c9695602084015b8383106115a857604051806107668782610f7e565b6001602081926115b785611adf565b815201920192019190611593565b3461028f575f36600319011261028f5760206115df611ecd565b6040519015158152f35b3461028f5760a036600319011261028f5761040f611605610279565b61160d6102d5565b61161561032e565b9061161e61043d565b90611627610469565b926001600160601b03199060601b8116604051600760fa1b602082015260c09690961b6001600160c01b03191660218701526001600160801b03199283166029870152166039850152608091821b81166059808601919091529290911b166069830152815261040a60798261050f565b3461028f57604036600319011261028f5761040f6116b3610279565b6116bb610411565b604051600d60f81b602082015260c09290921b6001600160c01b031916602183015260801b6001600160801b03191660298201526019815261040a60398261050f565b3461028f5760c036600319011261028f57611717610279565b61171f6102d5565b906044356001600160401b03811161028f5761173f903690600401610e1e565b6064356001600160401b03811161028f5761175e903690600401610e1e565b6084359160ff8316830361028f5761040f94611778610344565b94611f69565b3461028f57608036600319011261028f5761040f61179a610279565b6117a26102d5565b6117aa61032e565b906117b36102bf565b604051601360f81b60208201526001600160c01b031960c095861b811660218301526001600160801b0319939093166029820152600160f81b603982015260609390931b6001600160601b031916603a84015290921b909116605a8201526042815261040a60628261050f565b3461028f57602036600319011261028f5761040f61183c6102ec565b604051600360f91b602082015260609190911b6001600160601b03191660218201526015815261040a60358261050f565b3461028f5761040f61187e3661035a565b604051601360f81b602082015260c09390931b6001600160c01b03191660218401526001600160801b03199091166029830152600360f81b603983015260601b6001600160601b031916603a80830191909152815261040a605a8261050f565b3461028f575f36600319011261028f57604051601580548083525f91825260208301917f55f448fdea98c4d29eb340757ef0a66cd03dbb9538908a6a81d96026b71ec47591905b81811061193c576107668561075a8187038261050f565b82546001600160a01b0316845260209093019260019283019201611925565b3461028f5760a036600319011261028f5761040f611977610279565b61197f6102d5565b60443561198a61043d565b90611993610469565b604051601b60f81b602082015260c09590951b6001600160c01b03191660218601526001600160801b031993841660298601526039850191909152608091821b8316605980860191909152911b9091166069830152815261040a60798261050f565b3461028f575f36600319011261028f57005b3461028f575f36600319011261028f57602060ff601f54166040519015158152f35b3461028f57606036600319011261028f5761040f611a45610453565b602435611a50610427565b604051601160f81b60208201526001600160801b0319608094851b811660218301526031820193909352921b1660518201526041815261040a60618261050f565b600360fa1b815260c09190911b6001600160c01b031916600182015260809190911b6001600160801b031916600982015260190190565b6001600160401b03811161050a5760051b60200190565b90604051915f8154908160011c9260018316908115611b9d575b602085108214611b895784875286936020850192908115611b6c5750600114611b2d575b5050611b2b9250038361050f565b565b611b3c9192505f5260205f2090565b905f915b848310611b555750611b2b9350015f80611b1d565b805482840152869350602090920191600101611b40565b915050611b2b9491925060ff19168252151560051b015f80611b1d565b634e487b7160e01b5f52602260045260245ffd5b93607f1693611af9565b908154611bb381611ac8565b92611bc1604051948561050f565b81845260208401905f5260205f205f915b838310611bdf5750505050565b600160208192611bee85611adf565b815201920192019190611bd2565b60405181548082529092918390611c1a60208301915f5260205f2090565b925f905b806007830110611d6157611b2b945491818110611d42575b818110611d23575b818110611d04575b818110611ce5575b818110611cc6575b818110611ca7575b818110611c89575b10611c74575b50038361050f565b6001600160e01b03191681526020015f611c6c565b602083811b6001600160e01b03191685529093600191019301611c66565b604083901b6001600160e01b0319168452926001906020019301611c5e565b606083901b6001600160e01b0319168452926001906020019301611c56565b608083901b6001600160e01b0319168452926001906020019301611c4e565b60a083901b6001600160e01b0319168452926001906020019301611c46565b60c083901b6001600160e01b0319168452926001906020019301611c3e565b6001600160e01b031960e084901b168452926001906020019301611c36565b916008919350610100600191611e108754611d87838260e01b63ffffffff60e01b169052565b60c081901b6001600160e01b031916602084015260a081901b6001600160e01b0319166040840152608081901b6001600160e01b0319166060840152606081901b6001600160e01b0319166080840152604081901b6001600160e01b03191660a0840152602081901b6001600160e01b03191660c08401526001600160e01b03191660e0830152565b019401920185929391611c1e565b805191908290602001825e015f815290565b6002926003611e5d92610630979694600160fa1b825261ffff60f01b9060f01b1660018201520190611e1e565b60f09190911b6001600160f01b03191681520190611e1e565b80516020909101516001600160b81b0319811692919060098210611e98575050565b6001600160b81b031960099290920360031b82901b16169150565b9081602091031261028f575190565b6040513d5f823e3d90fd5b60085460ff168015611edc5790565b50604051630667f9d760e41b8152737109709ecfa91a80626ff3989d68f67f5b1dd12d600482018190526519985a5b195960d21b6024830152602090829060449082905afa908115611f64575f91611f35575b50151590565b611f57915060203d602011611f5d575b611f4f818361050f565b810190611eb3565b5f611f2f565b503d611f45565b611ec2565b909392611b2b9561040a94611fce611f8b611f85603597612106565b94612175565b604051600b60f81b602082015260c09690961b6001600160c01b03191660218701526001600160801b031990981660298601529396879490936039860190611e1e565b92835260f81b6001600160f81b031916602083015260601b6001600160601b031916602182015260159190039081018452018261050f565b906020610630928181520190610806565b90612043916120518151602083012060405194859160208301602191600160f81b825260018201520190565b03601f19810185528461050f565b5f5b6020548110156121005761209061208461208461206f84610c4b565b905460039190911b1c6001600160a01b031690565b6001600160a01b031690565b90806120f95782915b803b1561028f576040516304e2f55f60e11b8152925f9184918290849082906120c59060048301612006565b03925af1918215611f64576001926120df575b5001612053565b806120ed5f6120f39361050f565b806106b0565b5f6120d8565b8491612099565b50509050565b8051608003608081116121615761215b916104cd8261212761063094610530565b90612135604051928361050f565b808252612144601f1991610530565b013660208301376040519485936020850190611e1e565b90611e1e565b634e487b7160e01b5f52601160045260245ffd5b602081519101519060208110612189575090565b5f199060200360031b1b1690565b1561219e57565b60405162461bcd60e51b815260206004820152600e60248201526d736c6963655f6f766572666c6f7760901b6044820152606490fd5b156121db57565b60405162461bcd60e51b8152602060048201526011602482015270736c6963655f6f75744f66426f756e647360781b6044820152606490fdfea2646970667358221220a489f6eafd07f9648f33391ea8040b80ff5657414b55a161dcc71e18da9c5e0e64736f6c634300081a0033a26469706673582212205f930e39be1ceea6b7a036095ebb72c0bbdf1bf7c2e89cb62de1916fe6c45db764736f6c634300081a0033","linkReferences":{}},"methodIdentifiers":{"centrifugeChain()":"e3b5eeb3","setupCentrifugeChain(address[])":"2822ec52"},"id":141}