{"abi":[{"type":"function","name":"chainlinkMock","inputs":[],"outputs":[{"name":"","type":"address","internalType":"contract mockChainlink"}],"stateMutability":"view"},{"type":"function","name":"setupMockChainlink","inputs":[],"outputs":[{"name":"","type":"address","internalType":"address"}],"stateMutability":"nonpayable"}],"bytecode":{"object":"0x6080806040523460155761022d908161001a8239f35b5f80fdfe60808060405260043610156011575f80fd5b5f3560e01c908163539be2e0146058575063a964f81f14602f575f80fd5b346054575f3660031901126054575f546040516001600160a01b039091168152602090f35b5f80fd5b346054575f36600319011260545761012280820182811067ffffffffffffffff82111760c15782916100d6833903905ff0801560b6575f80546001600160a01b0319166001600160a01b039092169182179055604051908152602090f35b6040513d5f823e3d90fd5b634e487b7160e01b5f52604160045260245ffdfe60808060405234601c576305f5e1005f5561010190816100218239f35b5f80fdfe60808060405260043610156011575f80fd5b5f3560e01c9081630fdb11cf1460855750806391b7f5ed14606f5763feaf968c146039575f80fd5b34606b575f366003190112606b5760a05f54604051905f825260208201525f60408201525f60608201525f6080820152f35b5f80fd5b34606b576020366003190112606b576004355f55005b34606b575f366003190112606b575f54906402540be4008202918083046402540be400149015171560b7576020918152f35b634e487b7160e01b5f52601160045260245ffdfea264697066735822122011642317720f365782545f0b215b67186cd2f21a713bafaa8993c923a2d3ce6264736f6c634300081a0033a264697066735822122066843703448cb6412ae78ca9ceae62e8dbc2c64f2867efc03aee159d8eef0a1164736f6c634300081a0033","linkReferences":{}},"methodIdentifiers":{"chainlinkMock()":"a964f81f","setupMockChainlink()":"539be2e0"},"id":142}