{"abi":[{"type":"function","name":"ClaimcancelDepositRequest","inputs":[{"name":"_vault","type":"address","internalType":"address"}],"outputs":[],"stateMutability":"nonpayable"},{"type":"function","name":"DEFAULT_ADMIN_ROLE","inputs":[],"outputs":[{"name":"","type":"bytes32","internalType":"bytes32"}],"stateMutability":"view"},{"type":"function","name":"Lzybra","inputs":[],"outputs":[{"name":"","type":"address","internalType":"contract ILZYBRA"}],"stateMutability":"view"},{"type":"function","name":"UserDepReqVaultCollatAsset","inputs":[{"name":"","type":"address","internalType":"address"},{"name":"","type":"address","internalType":"address"}],"outputs":[{"name":"","type":"uint256","internalType":"uint256"}],"stateMutability":"view"},{"type":"function","name":"UserVaultTrancheAsset","inputs":[{"name":"","type":"address","internalType":"address"},{"name":"","type":"address","internalType":"address"}],"outputs":[{"name":"","type":"uint256","internalType":"uint256"}],"stateMutability":"view"},{"type":"function","name":"VAULT_MANAGER_ROLE","inputs":[],"outputs":[{"name":"","type":"bytes32","internalType":"bytes32"}],"stateMutability":"view"},{"type":"function","name":"addVault","inputs":[{"name":"_vault","type":"address","internalType":"address"}],"outputs":[],"stateMutability":"nonpayable"},{"type":"function","name":"calc_share","inputs":[{"name":"amount","type":"uint256","internalType":"uint256"},{"name":"_vault","type":"address","internalType":"address"}],"outputs":[{"name":"","type":"uint256","internalType":"uint256"}],"stateMutability":"view"},{"type":"function","name":"cancelDepositRequest","inputs":[{"name":"_vault","type":"address","internalType":"address"}],"outputs":[],"stateMutability":"nonpayable"},{"type":"function","name":"cancelWithdrawRequest","inputs":[{"name":"_vault","type":"address","internalType":"address"}],"outputs":[],"stateMutability":"nonpayable"},{"type":"function","name":"collateralAsset","inputs":[],"outputs":[{"name":"","type":"address","internalType":"contract IERC20"}],"stateMutability":"view"},{"type":"function","name":"configurator","inputs":[],"outputs":[{"name":"","type":"address","internalType":"contract Iconfigurator"}],"stateMutability":"view"},{"type":"function","name":"deposit","inputs":[{"name":"_vault","type":"address","internalType":"address"},{"name":"mintAmount","type":"uint256","internalType":"uint256"}],"outputs":[],"stateMutability":"nonpayable"},{"type":"function","name":"getAsset","inputs":[{"name":"_vault","type":"address","internalType":"address"}],"outputs":[{"name":"","type":"address","internalType":"address"}],"stateMutability":"view"},{"type":"function","name":"getBorrowed","inputs":[{"name":"_vault","type":"address","internalType":"address"},{"name":"user","type":"address","internalType":"address"}],"outputs":[{"name":"","type":"uint256","internalType":"uint256"}],"stateMutability":"view"},{"type":"function","name":"getCollateralAssetPrice","inputs":[],"outputs":[{"name":"","type":"uint256","internalType":"uint256"}],"stateMutability":"view"},{"type":"function","name":"getCollateralRatioAndLiquidationInfo","inputs":[{"name":"user","type":"address","internalType":"address"},{"name":"_vault","type":"address","internalType":"address"}],"outputs":[{"name":"shouldLiquidate","type":"bool","internalType":"bool"},{"name":"collateralRatio","type":"uint256","internalType":"uint256"}],"stateMutability":"nonpayable"},{"type":"function","name":"getPoolTotalCirculation","inputs":[],"outputs":[{"name":"","type":"uint256","internalType":"uint256"}],"stateMutability":"view"},{"type":"function","name":"getRoleAdmin","inputs":[{"name":"role","type":"bytes32","internalType":"bytes32"}],"outputs":[{"name":"","type":"bytes32","internalType":"bytes32"}],"stateMutability":"view"},{"type":"function","name":"getTrancheAssetPrice","inputs":[{"name":"_vault","type":"address","internalType":"address"}],"outputs":[{"name":"","type":"uint256","internalType":"uint256"}],"stateMutability":"view"},{"type":"function","name":"getUserTrancheAsset","inputs":[{"name":"vault","type":"address","internalType":"address"},{"name":"user","type":"address","internalType":"address"}],"outputs":[{"name":"","type":"uint256","internalType":"uint256"}],"stateMutability":"view"},{"type":"function","name":"getVaultType","inputs":[],"outputs":[{"name":"","type":"uint8","internalType":"uint8"}],"stateMutability":"pure"},{"type":"function","name":"grantRole","inputs":[{"name":"role","type":"bytes32","internalType":"bytes32"},{"name":"account","type":"address","internalType":"address"}],"outputs":[],"stateMutability":"nonpayable"},{"type":"function","name":"hasRole","inputs":[{"name":"role","type":"bytes32","internalType":"bytes32"},{"name":"account","type":"address","internalType":"address"}],"outputs":[{"name":"","type":"bool","internalType":"bool"}],"stateMutability":"view"},{"type":"function","name":"initialize","inputs":[{"name":"_priceFeedAddress","type":"address","internalType":"address"},{"name":"_collateralAsset","type":"address","internalType":"address"},{"name":"_lzybra","type":"address","internalType":"address"},{"name":"_poolmanager","type":"address","internalType":"address"},{"name":"_configurator","type":"address","internalType":"address"}],"outputs":[],"stateMutability":"nonpayable"},{"type":"function","name":"isVault","inputs":[{"name":"_vault","type":"address","internalType":"address"}],"outputs":[{"name":"","type":"bool","internalType":"bool"}],"stateMutability":"view"},{"type":"function","name":"liquidation","inputs":[{"name":"provider","type":"address","internalType":"address"},{"name":"_vault","type":"address","internalType":"address"},{"name":"onBehalfOf","type":"address","internalType":"address"},{"name":"assetAmount","type":"uint256","internalType":"uint256"}],"outputs":[],"stateMutability":"nonpayable"},{"type":"function","name":"owner","inputs":[],"outputs":[{"name":"","type":"address","internalType":"address"}],"stateMutability":"view"},{"type":"function","name":"poolManager","inputs":[],"outputs":[{"name":"","type":"address","internalType":"contract IPoolManager"}],"stateMutability":"view"},{"type":"function","name":"priceFeed","inputs":[],"outputs":[{"name":"","type":"address","internalType":"contract AggregatorV3Interface"}],"stateMutability":"view"},{"type":"function","name":"proxiableUUID","inputs":[],"outputs":[{"name":"","type":"bytes32","internalType":"bytes32"}],"stateMutability":"view"},{"type":"function","name":"removeVault","inputs":[{"name":"_vault","type":"address","internalType":"address"}],"outputs":[],"stateMutability":"nonpayable"},{"type":"function","name":"renounceOwnership","inputs":[],"outputs":[],"stateMutability":"nonpayable"},{"type":"function","name":"renounceRole","inputs":[{"name":"role","type":"bytes32","internalType":"bytes32"},{"name":"account","type":"address","internalType":"address"}],"outputs":[],"stateMutability":"nonpayable"},{"type":"function","name":"repayingDebt","inputs":[{"name":"provider","type":"address","internalType":"address"},{"name":"_vault","type":"address","internalType":"address"},{"name":"lzybra_amount","type":"uint256","internalType":"uint256"}],"outputs":[],"stateMutability":"nonpayable"},{"type":"function","name":"requestDeposit","inputs":[{"name":"assetAmount","type":"uint256","internalType":"uint256"},{"name":"_vault","type":"address","internalType":"address"}],"outputs":[],"stateMutability":"nonpayable"},{"type":"function","name":"requestWithdraw","inputs":[{"name":"tranche_amount","type":"uint256","internalType":"uint256"},{"name":"onBehalfOf","type":"address","internalType":"address"},{"name":"_vault","type":"address","internalType":"address"}],"outputs":[],"stateMutability":"nonpayable"},{"type":"function","name":"revokeRole","inputs":[{"name":"role","type":"bytes32","internalType":"bytes32"},{"name":"account","type":"address","internalType":"address"}],"outputs":[],"stateMutability":"nonpayable"},{"type":"function","name":"supportsInterface","inputs":[{"name":"interfaceId","type":"bytes4","internalType":"bytes4"}],"outputs":[{"name":"","type":"bool","internalType":"bool"}],"stateMutability":"view"},{"type":"function","name":"transferOwnership","inputs":[{"name":"newOwner","type":"address","internalType":"address"}],"outputs":[],"stateMutability":"nonpayable"},{"type":"function","name":"upgradeTo","inputs":[{"name":"newImplementation","type":"address","internalType":"address"}],"outputs":[],"stateMutability":"nonpayable"},{"type":"function","name":"upgradeToAndCall","inputs":[{"name":"newImplementation","type":"address","internalType":"address"},{"name":"data","type":"bytes","internalType":"bytes"}],"outputs":[],"stateMutability":"payable"},{"type":"function","name":"vaultExists","inputs":[{"name":"","type":"address","internalType":"address"}],"outputs":[{"name":"","type":"bool","internalType":"bool"}],"stateMutability":"view"},{"type":"function","name":"withdraw","inputs":[{"name":"_vault","type":"address","internalType":"address"}],"outputs":[],"stateMutability":"nonpayable"},{"type":"event","name":"AdminChanged","inputs":[{"name":"previousAdmin","type":"address","indexed":false,"internalType":"address"},{"name":"newAdmin","type":"address","indexed":false,"internalType":"address"}],"anonymous":false},{"type":"event","name":"BeaconUpgraded","inputs":[{"name":"beacon","type":"address","indexed":true,"internalType":"address"}],"anonymous":false},{"type":"event","name":"CancelDepositRequest","inputs":[{"name":"onBehalfOf","type":"address","indexed":true,"internalType":"address"},{"name":"asset","type":"address","indexed":false,"internalType":"address"},{"name":"_vault","type":"address","indexed":false,"internalType":"address"}],"anonymous":false},{"type":"event","name":"CancelWithdrawRequest","inputs":[{"name":"onBehalfOf","type":"address","indexed":true,"internalType":"address"},{"name":"asset","type":"address","indexed":false,"internalType":"address"},{"name":"_vault","type":"address","indexed":false,"internalType":"address"},{"name":"amount","type":"uint256","indexed":false,"internalType":"uint256"}],"anonymous":false},{"type":"event","name":"DebugBool","inputs":[{"name":"message","type":"string","indexed":false,"internalType":"string"},{"name":"value","type":"bool","indexed":false,"internalType":"bool"}],"anonymous":false},{"type":"event","name":"DebugUint","inputs":[{"name":"message","type":"string","indexed":false,"internalType":"string"},{"name":"value","type":"uint256","indexed":false,"internalType":"uint256"}],"anonymous":false},{"type":"event","name":"DepositAsset","inputs":[{"name":"onBehalfOf","type":"address","indexed":true,"internalType":"address"},{"name":"asset","type":"address","indexed":false,"internalType":"address"},{"name":"_vault","type":"address","indexed":false,"internalType":"address"},{"name":"amount","type":"uint256","indexed":false,"internalType":"uint256"}],"anonymous":false},{"type":"event","name":"FeeDistribution","inputs":[{"name":"feeAddress","type":"address","indexed":true,"internalType":"address"},{"name":"feeAmount","type":"uint256","indexed":false,"internalType":"uint256"}],"anonymous":false},{"type":"event","name":"Initialized","inputs":[{"name":"version","type":"uint8","indexed":false,"internalType":"uint8"}],"anonymous":false},{"type":"event","name":"LiquidationRecord","inputs":[{"name":"provider","type":"address","indexed":true,"internalType":"address"},{"name":"keeper","type":"address","indexed":true,"internalType":"address"},{"name":"onBehalfOf","type":"address","indexed":true,"internalType":"address"},{"name":"eusdamount","type":"uint256","indexed":false,"internalType":"uint256"},{"name":"LiquidateAssetAmount","type":"uint256","indexed":false,"internalType":"uint256"},{"name":"keeperReward","type":"uint256","indexed":false,"internalType":"uint256"}],"anonymous":false},{"type":"event","name":"OwnershipTransferred","inputs":[{"name":"previousOwner","type":"address","indexed":true,"internalType":"address"},{"name":"newOwner","type":"address","indexed":true,"internalType":"address"}],"anonymous":false},{"type":"event","name":"RepayingDebt","inputs":[{"name":"user","type":"address","indexed":true,"internalType":"address"},{"name":"_vault","type":"address","indexed":false,"internalType":"address"},{"name":"LZYBRAAmount","type":"uint256","indexed":false,"internalType":"uint256"}],"anonymous":false},{"type":"event","name":"RequestDepositAsset","inputs":[{"name":"onBehalfOf","type":"address","indexed":true,"internalType":"address"},{"name":"asset","type":"address","indexed":false,"internalType":"address"},{"name":"_vault","type":"address","indexed":false,"internalType":"address"},{"name":"amount","type":"uint256","indexed":false,"internalType":"uint256"}],"anonymous":false},{"type":"event","name":"RequestWithdrawAsset","inputs":[{"name":"sponsor","type":"address","indexed":true,"internalType":"address"},{"name":"asset","type":"address","indexed":false,"internalType":"address"},{"name":"_vault","type":"address","indexed":false,"internalType":"address"},{"name":"amount","type":"uint256","indexed":false,"internalType":"uint256"}],"anonymous":false},{"type":"event","name":"RoleAdminChanged","inputs":[{"name":"role","type":"bytes32","indexed":true,"internalType":"bytes32"},{"name":"previousAdminRole","type":"bytes32","indexed":true,"internalType":"bytes32"},{"name":"newAdminRole","type":"bytes32","indexed":true,"internalType":"bytes32"}],"anonymous":false},{"type":"event","name":"RoleGranted","inputs":[{"name":"role","type":"bytes32","indexed":true,"internalType":"bytes32"},{"name":"account","type":"address","indexed":true,"internalType":"address"},{"name":"sender","type":"address","indexed":true,"internalType":"address"}],"anonymous":false},{"type":"event","name":"RoleRevoked","inputs":[{"name":"role","type":"bytes32","indexed":true,"internalType":"bytes32"},{"name":"account","type":"address","indexed":true,"internalType":"address"},{"name":"sender","type":"address","indexed":true,"internalType":"address"}],"anonymous":false},{"type":"event","name":"Upgraded","inputs":[{"name":"implementation","type":"address","indexed":true,"internalType":"address"}],"anonymous":false},{"type":"event","name":"WithdrawAsset","inputs":[{"name":"sponsor","type":"address","indexed":true,"internalType":"address"},{"name":"asset","type":"address","indexed":false,"internalType":"address"},{"name":"_vault","type":"address","indexed":false,"internalType":"address"},{"name":"amount","type":"uint256","indexed":false,"internalType":"uint256"}],"anonymous":false}],"bytecode":{"object":"0x60a0806040523460305730608052613c4790816100358239608051818181610a4601528181610dcd01526114fe0152f35b5f80fdfe6080806040526004361015610012575f80fd5b5f905f3560e01c90816301ffc9a71461269c5750806312e20d031461221a5780631459457a14611f26578063154bd65014611f0357806316d3759514611ec557806321e7da7a14611e9c578063248a9ca314611e70578063256b5a0214611dd957806328e32d3b14611d3d57806329344f0814611bcc5780632b507df814611ba35780632f2ff15d14611afa57806330b8b2c614611a8157806332f25a3a146117e757806336568abe146117555780633659cfe6146114e0578063372f5bca146113ab57806347e7ef24146110435780634bc326e6146102bf5780634f1ef28614610d5657806351cff8d914610af157806352d1902d14610a335780635d2cd2a7146109545780635e5a24a41461092c578063652b9b41146108ec578063715018a61461088f578063741bef1a1461086557806375baf37f146106275780638da5cb5b1461083c5780638ffade6e1461080157806391d14854146107b65780639754d1dc146107975780639c2a948114610643578063a217fddf14610627578063aa09ac641461048e578063aabaecd614610464578063b47dfa4914610437578063c983b6a3146103e3578063ceb68c2314610387578063d367af6914610358578063d547741f14610313578063d8dc42ba146102bf578063dc4c90d3146102955763f2fde38b14610202575f80fd5b346102925760203660031901126102925761021b6126ef565b6102236135a3565b6001600160a01b0381161561023e5761023b906135fb565b80f35b60405162461bcd60e51b815260206004820152602660248201527f4f776e61626c653a206e6577206f776e657220697320746865207a65726f206160448201526564647265737360d01b6064820152608490fd5b80fd5b5034610292578060031936011261029257610160546040516001600160a01b039091168152602090f35b50346102925760403660031901126102925760406102db6126ef565b916102e4612705565b9260018060a01b03168152610166602052209060018060a01b03165f52602052602060405f2054604051908152f35b50346102925760403660031901126102925761023b600435610333612705565b9061035361034e825f5261012d602052600160405f20015490565b613242565b613447565b503461029257604036600319011261029257602061037f610377612705565b600435612ee1565b604051908152f35b5034610292576020366003190112610292576103a16126ef565b6103a9613169565b6001600160a01b031680825261016a60205260408220546103cc9060ff16612783565b815261016a60205260408120805460ff1916905580f35b50346102925760403660031901126102925760406103ff6126ef565b91610408612705565b9260018060a01b03168152610165602052209060018060a01b03165f52602052602060405f2054604051908152f35b503461029257604036600319011261029257602061037f6104566126ef565b61045e612705565b90612e8c565b5034610292578060031936011261029257610162546040516001600160a01b039091168152602090f35b5034610292576060366003190112610292576104a86126ef565b6104b0612705565b906044359060018060a01b03831684526101676020526040842060018060a01b0382165f526020528160405f2054106105d15760246104ef8483612ba5565b6101635460405163ae91874960e01b815230600482015293919250602091849182906001600160a01b03165afa9182156105c657869261058e575b501061058a57816105617f70d563965065caab8e66bee6c1fe078f66549e2781ddbdf720f10005b7abf25393838661058495612f9e565b604080516001600160a01b03909516855260208501919091523393918291820190565b0390a280f35b8380fd5b9091506020813d6020116105be575b816105aa60209383612731565b810103126105ba5751905f61052a565b5f80fd5b3d915061059d565b6040513d88823e3d90fd5b60405162461bcd60e51b815260206004820152602860248201527f52657061796d656e7420616d6f756e7420657863656564732070726f766964656044820152671c89dcc81919589d60c21b6064820152608490fd5b5034610292578060031936011261029257602090604051908152f35b50346102925760203660031901126102925761065d6126ef565b6001600160a01b03811680835261016a60205260408320549091906106849060ff16612783565b33835261016560205260408320825f526020526106a660405f20541515612b59565b813b156107885782604051632e73c18d60e21b8152816004820152336024820152818160448183885af1801561078c57610773575b50506020600492604051938480926338d52e0f60e01b82525afa918215610768578392610724575b506105845f80516020613bd2833981519152916040519182913395836127d9565b5f80516020613bd28339815191529192506107596105849160203d602011610761575b6107518183612731565b81019061281e565b929150610703565b503d610747565b6040513d85823e3d90fd5b8161077d91612731565b61078857825f6106db565b8280fd5b6040513d84823e3d90fd5b5034610292578060031936011261029257602061016454604051908152f35b50346102925760403660031901126102925760406107d2612705565b91600435815261012d602052209060018060a01b03165f52602052602060ff60405f2054166040519015158152f35b503461029257604036600319011261029257604061082e6108206126ef565b610828612705565b90612ba5565b825191151582526020820152f35b50346102925780600319360112610292576097546040516001600160a01b039091168152602090f35b5034610292578060031936011261029257610161546040516001600160a01b039091168152602090f35b50346102925780600319360112610292576108a86135a3565b609780546001600160a01b0319811690915581906001600160a01b03167f8be0079c531659141344cd1fd0a4f28419497f9722a3daafe3b4186f6b6457e08280a380f35b50346102925760203660031901126102925760209060ff906040906001600160a01b036109176126ef565b16815261016a84522054166040519015158152f35b503461029257806003193601126102925760206040515f80516020613b928339815191528152f35b50346102925760203660031901126102925761096e6126ef565b6001600160a01b03811680835261016a60205260408320549091906109959060ff16612783565b33835261016660205260408320825f526020526109b760405f20541515612b59565b813b156107885782604051632b9d9c1f60e01b8152816004820152336024820152818160448183885af1801561078c576107735750506020600492604051938480926338d52e0f60e01b82525afa91821561076857839261072457506105845f80516020613bd2833981519152916040519182913395836127d9565b50346102925780600319360112610292577f00000000000000000000000000000000000000000000000000000000000000006001600160a01b03163003610a8b5760206040515f80516020613bb28339815191528152f35b60405162461bcd60e51b815260206004820152603860248201527f555550535570677261646561626c653a206d757374206e6f742062652063616c6044820152771b1959081d1a1c9bdd59da0819195b1959d85d1958d85b1b60421b6064820152608490fd5b503461029257602036600319011261029257610b0b6126ef565b6001600160a01b03811680835261016a6020526040832054610b2f9060ff16612783565b610b37613287565b60405163eaed1d0760e01b815260048101849052336024820152602081604481855afa908115610d4b578491610d19575b508015610cd857604051635d043b2960e11b81529060208280610b9033308660048501612a55565b038188875af1918215610ccd578592610c79575b507f37e6496681d2c16ab49733a2a6cf0916ebaa3e90250d01f84cec59f546d8cf2492610c3e91610bd53387612e8c565b610c6a575b610be486336138aa565b33875261016860205260408720549187526101666020526040872060018060a01b0333165f52602052610c1c60405f2091825461283d565b9055610162546001600160a01b031690610c36908461283d565b9033906130bf565b61016254604051339490928392610c5f92906001600160a01b031684612a75565b0390a2600160c95580f35b610c7486336134ca565b610bda565b9091506020813d602011610cc5575b81610c9560209383612731565b810103126105ba5751907f37e6496681d2c16ab49733a2a6cf0916ebaa3e90250d01f84cec59f546d8cf24610ba4565b3d9150610c88565b6040513d87823e3d90fd5b60405162461bcd60e51b815260206004820152601960248201527821b630b4b6b0b136329020b6b7bab73a1034b9903d32b9379760391b6044820152606490fd5b90506020813d602011610d43575b81610d3460209383612731565b810103126105ba57515f610b68565b3d9150610d27565b6040513d86823e3d90fd5b50604036600319011261029257610d6b6126ef565b6024359067ffffffffffffffff821161078857366023830112156107885781600401359183610d9984612767565b91610da76040519384612731565b848352602083019436602482840101116107885780602460209301873783010152610e1f7f00000000000000000000000000000000000000000000000000000000000000006001600160a01b0316610e0130821415612a97565b5f80516020613bb2833981519152546001600160a01b031614612af8565b610e276135a3565b7f4910fdfa16fed3260ed0e7147f7cc6da11a60208b5b9406d12a635614ffd91435460ff1615610e5c575061023b915061381a565b6040516352d1902d60e01b81529091906001600160a01b03821690602081600481855afa86918161100b575b50610ee95760405162461bcd60e51b815260206004820152602e60248201527f45524331393637557067726164653a206e657720696d706c656d656e7461746960448201526d6f6e206973206e6f74205555505360901b6064820152608490fd5b5f80516020613bb283398151915203610fb457610f058261381a565b7fbc7cd75a20ee27fd9adebab32041f755214dbc6bffa90cc0225b39da2e5c2d3b8580a283825115801590610fac575b610f41575b5050505080f35b80610fa29460405194610f55606087612731565b602786527f416464726573733a206c6f772d6c6576656c2064656c65676174652063616c6c6020870152660819985a5b195960ca1b60408701525190845af4610f9c613ab1565b91613ae0565b505f808083610f3a565b506001610f35565b60405162461bcd60e51b815260206004820152602960248201527f45524331393637557067726164653a20756e737570706f727465642070726f786044820152681a58589b195555525160ba1b6064820152608490fd5b9091506020813d60201161103b575b8161102760209383612731565b810103126110375751905f610e88565b8680fd5b3d915061101a565b50346105ba5760403660031901126105ba5761105d6126ef565b6001600160a01b0381165f81815261016a6020526040902054602435906110869060ff16612783565b61108e613287565b604051634caf510d60e11b81525f600482015233602482015291602083604481845afa92831561128c575f93611377575b50821561132857604051630b8b4a6160e21b8152602081806110e633308960048501612a55565b03815f865af190811561128c575f916112f6575b50815f5261016660205260405f2060018060a01b0333165f5260205261112560405f20918254612811565b9055805f5261016560205260405f2060018060a01b0333165f526020525f604081205560246111578361016454612811565b610163546040516333050e8160e21b81523060048201529260209184919082906001600160a01b03165afa91821561128c575f926112c2575b5011611297576111a084336138aa565b5f5261016760205260405f2060018060a01b0333165f5260205260405f206111c9828254612811565b905561015f546001600160a01b0316803b156105ba576040516340c10f1960e01b815233600482015260248101839052905f908290604490829084905af1801561128c57611250575b50906112427f6a4adbbd81a984b448d707cb10bbbfdb04654b5897d0d673a5b12283ca897f839261016454612811565b61016455610c3e83336134ca565b7f6a4adbbd81a984b448d707cb10bbbfdb04654b5897d0d673a5b12283ca897f83929194505f61127f91612731565b6112425f94919250611212565b6040513d5f823e3d90fd5b60405162461bcd60e51b81526020600482015260036024820152621154d360ea1b6044820152606490fd5b9091506020813d6020116112ee575b816112de60209383612731565b810103126105ba5751905f611190565b3d91506112d1565b90506020813d602011611320575b8161131160209383612731565b810103126105ba57515f6110fa565b3d9150611304565b60405162461bcd60e51b815260206004820152602160248201527f4465706f7369742073686f756c64206e6f74206265206c657373207468616e206044820152600360fc1b6064820152608490fd5b9092506020813d6020116113a3575b8161139360209383612731565b810103126105ba5751915f6110bf565b3d9150611386565b346105ba5760203660031901126105ba576001600160a01b036113cc6126ef565b16805f5261016a6020526113e660ff60405f205416612783565b60405163555dac9160e11b81525f600482015233602482015290602082604481845afa91821561128c575f926114ac575b508115611467576101625461143a908390309033906001600160a01b031661341f565b5f5261016560205260405f2060018060a01b0333165f5260205261146360405f2091825461283d565b9055005b60405162461bcd60e51b815260206004820152601d60248201527f4e6f206465706f73697420617661696c61626c6520746f20636c61696d0000006044820152606490fd5b9091506020813d6020116114d8575b816114c860209383612731565b810103126105ba57519082611417565b3d91506114bb565b346105ba5760203660031901126105ba576114f96126ef565b6115327f00000000000000000000000000000000000000000000000000000000000000006001600160a01b0316610e0130821415612a97565b61153a6135a3565b60405190602061154a8184612731565b5f8352808301601f1982013682377f4910fdfa16fed3260ed0e7147f7cc6da11a60208b5b9406d12a635614ffd91435460ff161561159057505061158e915061381a565b005b6040516352d1902d60e01b81529192916001600160a01b038316908481600481855afa5f9181611726575b5061161c5760405162461bcd60e51b815260048101869052602e60248201527f45524331393637557067726164653a206e657720696d706c656d656e7461746960448201526d6f6e206973206e6f74205555505360901b6064820152608490fd5b5f80516020613bb2833981519152036116cf576116388361381a565b7fbc7cd75a20ee27fd9adebab32041f755214dbc6bffa90cc0225b39da2e5c2d3b5f80a28351158015906116c8575b61166d57005b5f809161158e957f416464726573733a206c6f772d6c6576656c2064656c65676174652063616c6c604051966116a4606089612731565b60278852870152660819985a5b195960ca1b60408701525190845af4610f9c613ab1565b505f611667565b60405162461bcd60e51b815260048101859052602960248201527f45524331393637557067726164653a20756e737570706f727465642070726f786044820152681a58589b195555525160ba1b6064820152608490fd5b9091508581813d831161174e575b61173e8183612731565b810103126105ba575190876115bb565b503d611734565b346105ba5760403660031901126105ba5761176e612705565b336001600160a01b0382160361178a5761158e90600435613447565b60405162461bcd60e51b815260206004820152602f60248201527f416363657373436f6e74726f6c3a2063616e206f6e6c792072656e6f756e636560448201526e103937b632b9903337b91039b2b63360891b6064820152608490fd5b346105ba5760603660031901126105ba57600435611803612705565b61180b61271b565b9160018060a01b038316805f5261016a60205261182e60ff60405f205416612783565b611836613287565b6001600160a01b03831615611a3c5781156119fe575f818152610166602090815260408083203384529091529020541515806119db575b1561198b5761187c8483612ee1565b9060405163a8d5fd6560e01b8152602081600481855afa801561128c578285916118ad935f9161196c575b506132dd565b60206040518092633ea0e43760e11b8252815f816118d030338b60048501612a55565b03925af1801561128c57611938575b5061190d907f6d85bcb21eb16bba2c48b63f27e90cdf58ee1d5437697e1e4fe0bd2ade4dae45938533612f9e565b6101625460405133949092839261192e92906001600160a01b031684612a75565b0390a2600160c955005b906020823d602011611964575b8161195260209383612731565b810103126105ba57905061190d6118df565b3d9150611945565b611985915060203d602011610761576107518183612731565b896118a7565b60405162461bcd60e51b815260206004820152602260248201527f496e73756666696369656e742061737365747320666f72207769746864726177604482015261185b60f21b6064820152608490fd5b505f8181526101666020908152604080832033845290915290205482111561186d565b60405162461bcd60e51b8152602060048201526016602482015275125b9d985b1a59081d1c985b98da1948185b5bdd5b9d60521b6044820152606490fd5b60405162461bcd60e51b815260206004820152601b60248201527f496e76616c69642062656e6566696369617279206164647265737300000000006044820152606490fd5b346105ba5760203660031901126105ba57600460206001600160a01b03611aa66126ef565b16604051928380926338d52e0f60e01b82525afa801561128c576020915f91611add575b506040516001600160a01b039091168152f35b611af49150823d8411610761576107518183612731565b82611aca565b346105ba5760403660031901126105ba57600435611b16612705565b90611b3161034e825f5261012d602052600160405f20015490565b805f5261012d60205260405f2060018060a01b0383165f5260205260ff60405f20541615611b5b57005b5f81815261012d602090815260408083206001600160a01b0395909516808452949091528120805460ff19166001179055339291905f80516020613b728339815191529080a4005b346105ba575f3660031901126105ba57610163546040516001600160a01b039091168152602090f35b346105ba5760403660031901126105ba57600435611be8612705565b9060018060a01b03821690815f5261016a602052611c0c60ff60405f205416612783565b611c14613287565b815f5261016560205260405f2060018060a01b0333165f5260205260405f20611c3e828254612811565b905561016254611c5a90829085906001600160a01b03166132dd565b61016254611c76908290309033906001600160a01b031661341f565b602060405180936385b77f4560e01b8252815f81611c9930338960048501612a55565b03925af1801561128c57611cec575b6101625460405133947f1c650a8a704b6477ef5554b49dae41e3a1fb31aba276cde12246339eea23fa9794509092839261192e92906001600160a01b031684612a75565b6020823d602011611d35575b81611d0560209383612731565b810103126105ba577f1c650a8a704b6477ef5554b49dae41e3a1fb31aba276cde12246339eea23fa979150611ca8565b3d9150611cf8565b346105ba575f3660031901126105ba5761016154604051633fabe5a360e21b81529060a090829060049082906001600160a01b03165afa801561128c575f90611d8c575b602090604051908152f35b5060a0813d60a011611dd1575b81611da660a09383612731565b810103126105ba5780611dba602092612a3e565b50611dcb6080838301519201612a3e565b50611d81565b3d9150611d99565b346105ba5760203660031901126105ba57611df26126ef565b611dfa613169565b6001600160a01b03165f81815261016a602052604090205460ff16611e34575f90815261016a60205260409020805460ff19166001179055005b60405162461bcd60e51b81526020600482015260146024820152735661756c7420616c72656164792065786973747360601b6044820152606490fd5b346105ba5760203660031901126105ba57602061037f6004355f5261012d602052600160405f20015490565b346105ba575f3660031901126105ba5761015f546040516001600160a01b039091168152602090f35b346105ba5760203660031901126105ba576001600160a01b03611ee66126ef565b165f5261016a602052602060ff60405f2054166040519015158152f35b346105ba5760203660031901126105ba57602061037f611f216126ef565b61285f565b346105ba5760a03660031901126105ba57611f3f6126ef565b611f47612705565b611f4f61271b565b916064356001600160a01b038116908190036105ba576084356001600160a01b03811692908390036105ba575f549460ff8660081c16159586809761220d575b80156121f6575b1561219a5760ff1981166001175f5586612189575b50611fc560ff5f5460081c16611fc081613109565b613109565b611fce336135fb565b611ff960ff5f5460081c16611fe281613109565b611feb81613109565b600160c955611fc081613109565b61015f80546001600160a01b03199081166001600160a01b039384161790915561016180548216938316939093179092556101608054831693909317909255610163805482169390931790925561016280549092169216919091179055335f9081527fa581b17bfc4d6578e300cafbf34fd2dc1fef0270d8c73f88a99dcde2859a6639602052604090205460ff1615612139575b335f9081525f80516020613bf2833981519152602052604090205460ff16156120ed575b6120b757005b61ff00195f54165f557f7f26b83ff96e1f2b6a682f133852f6798a09c465da95921460cefb3847402498602060405160018152a1005b335f8181525f80516020613bf283398151915260205260408120805460ff1916600117905581905f80516020613b92833981519152905f80516020613b728339815191529080a46120b1565b335f8181527fa581b17bfc4d6578e300cafbf34fd2dc1fef0270d8c73f88a99dcde2859a663960205260408120805460ff1916600117905581905f80516020613b728339815191528180a461208d565b61ffff1916610101175f5586611fab565b60405162461bcd60e51b815260206004820152602e60248201527f496e697469616c697a61626c653a20636f6e747261637420697320616c72656160448201526d191e481a5b9a5d1a585b1a5e995960921b6064820152608490fd5b50303b158015611f965750600160ff821614611f96565b50600160ff821610611f8f565b346105ba5760803660031901126105ba576122336126ef565b61223b612705565b61224361271b565b906064359260018060a01b038216805f5261016a60205261226a60ff60405f205416612783565b6122748385612ba5565b91901561263f578560011b928615938781046002148517156124d257825f5261016660205260405f2060018060a01b0388165f5260205260405f2054106125e85761015f54604051636eb1769f60e11b81529060209082906001600160a01b031681806122e53088600484016127d9565b03915afa90811561128c575f916125b6575b50158015906125a4575b156125465761233085670de0b6b3a76400006123266123208a9961285f565b8b6127c6565b0497889184612f9e565b869268056bc75e2d63100000811180612534575b61250b575b6805f68e8131ecf80000111596876124ee575b6001600160a01b038216975f9590338a141590816124e6575b50612458575b505060405163a8d5fd6560e01b815290602082600481865afa90811561128c576123c0925f92612437575b506123b1868661283d565b916001600160a01b03166130bf565b6123ca8383612811565b905f5261016660205260405f2060018060a01b0385165f526020526123f460405f2091825461283d565b90556040519384526020840152604083015260018060a01b0316917f70688bb2ecea401bf452baf8dc22b7ba5fc0ff326fa88d27e8f37cf1f8371c8860603393a4005b61245191925060203d602011610761576107518183612731565b90896123a6565b90919450600a8202918204600a1417156124d257606490049260405163a8d5fd6560e01b8152602081600481865afa90811561128c576124ac9186915f916124b3575b5033906001600160a01b03166130bf565b878061237b565b6124cc915060203d602011610761576107518183612731565b8a61249b565b634e487b7160e01b5f52601160045260245ffd5b90508a612375565b9250600b8302838104600b148517156124d257600a90049261235c565b92506805f68e8131ecf8000068056bc75e2d6310000061252b858a6127c6565b04939050612349565b506805f68e8131ecf800008110612344565b60405162461bcd60e51b815260206004820152603060248201527f50726f76696465722073686f756c6420617574686f72697a65204c5a5942524160448201526f103337b9103634b8bab4b230ba34b7b760811b6064820152608490fd5b50336001600160a01b03821614612301565b90506020813d6020116125e0575b816125d160209383612731565b810103126105ba5751886122f7565b3d91506125c4565b60405162461bcd60e51b815260206004820152602960248201527f41206d6178206f662035302520636f6c6c61746572616c2063616e206265206c6044820152681a5c5d5a59185d195960ba1b6064820152608490fd5b60405162461bcd60e51b815260206004820152602f60248201527f436f6c6c61746572616c20726174696f2069732061626f7665206c697175696460448201526e185d1a5bdb881d1a1c995cda1bdb19608a1b6064820152608490fd5b346105ba5760203660031901126105ba576004359063ffffffff60e01b82168092036105ba57602091637965db0b60e01b81149081156126de575b5015158152f35b6301ffc9a760e01b149050836126d7565b600435906001600160a01b03821682036105ba57565b602435906001600160a01b03821682036105ba57565b604435906001600160a01b03821682036105ba57565b90601f8019910116810190811067ffffffffffffffff82111761275357604052565b634e487b7160e01b5f52604160045260245ffd5b67ffffffffffffffff811161275357601f01601f191660200190565b1561278a57565b60405162461bcd60e51b815260206004820152601460248201527315985d5b1d08191bd95cc81b9bdd08195e1a5cdd60621b6044820152606490fd5b818102929181159184041417156124d257565b6001600160a01b0391821681529116602082015260400190565b81156127fd570490565b634e487b7160e01b5f52601260045260245ffd5b919082018092116124d257565b908160209103126105ba57516001600160a01b03811681036105ba5790565b919082039182116124d257565b519067ffffffffffffffff821682036105ba57565b61016054604051631f06e1a760e11b81526001600160a01b039283169290911690602081600481865afa90811561128c575f91612a04575b5060405163b7adb4c560e01b815292602084600481845afa93841561128c575f946129be575b506020600491604051928380926338d52e0f60e01b82525afa91821561128c5760409367ffffffffffffffff936064935f9161299f575b5085516342a1d83f60e11b81529490921660048501526001600160801b03199590951660248401526001600160a01b03166044830152909283919082905afa90811561128c575f9161294e575b506001600160801b031690565b90506040813d604011612997575b8161296960409383612731565b810103126105ba578051906001600160801b03821682036105ba576020612990910161284a565b505f612941565b3d915061295c565b6129b8915060203d602011610761576107518183612731565b5f6128f4565b9093506020813d6020116129fc575b816129da60209383612731565b810103126105ba57516001600160801b0319811681036105ba579260206128bd565b3d91506129cd565b90506020813d602011612a36575b81612a1f60209383612731565b810103126105ba57612a309061284a565b5f612897565b3d9150612a12565b519069ffffffffffffffffffff821682036105ba57565b9081526001600160a01b0391821660208201529116604082015260600190565b6001600160a01b03918216815291166020820152604081019190915260600190565b15612a9e57565b60405162461bcd60e51b815260206004820152602c60248201527f46756e6374696f6e206d7573742062652063616c6c6564207468726f7567682060448201526b19195b1959d85d1958d85b1b60a21b6064820152608490fd5b15612aff57565b60405162461bcd60e51b815260206004820152602c60248201527f46756e6374696f6e206d7573742062652063616c6c6564207468726f7567682060448201526b6163746976652070726f787960a01b6064820152608490fd5b15612b6057565b60405162461bcd60e51b815260206004820152601e60248201527f7468657265206973206e6f207265717565737420696e2070726f6365737300006044820152606490fd5b612c0f9092919260018060a01b038416805f5261016a602052612bce60ff60405f205416612783565b5f5261016660205260405f2060018060a01b0382165f52602052670de0b6b3a7640000612c0860405f2054612c028761285f565b906127c6565b0493612e8c565b908115612e8357670de0b6b3a76400008302838104670de0b6b3a764000014841517156124d25782612c40916127f3565b6064810290808204606414901517156124d2576101635460405163355360cb60e21b81523060048201529193849291602090839060249082906001600160a01b03165afa91821561128c575f92612e2f575b50907f2c78221d853bf45521bf53ad2802eb4470185a3cad34373f42e4639a8fdeb19760a0848260808396828288829b109d6040519060408252601760408301527610dbdb1b185d195c985b0815985b1d59481a5b881554d1604a1b60608301526020820152a16040519060408252601060408301526f155cd95c881119589d08105b5bdd5b9d60821b60608301526020820152a16040519060408252603560408301527f43616c63756c6174656420436f6c6c61746572616c20526174696f20287363616060830152746c656420746f203165313820666f7220313030252960581b60808301526020820152a16040519060408252603860408301527f42616420436f6c6c61746572616c20526174696f205468726573686f6c6420286060830152777363616c656420746f203165313820666f7220313030252960401b60808301526020820152a17fc0971de8d615669ce336a81fbc0043ac15834948dd39e24e22f73d3304db2e15608060405160408152601060408201526f53686f756c64204c697175696461746560801b6060820152856020820152a1565b91506020823d602011612e7b575b81612e4a60209383612731565b810103126105ba579051907f2c78221d853bf45521bf53ad2802eb4470185a3cad34373f42e4639a8fdeb197612c92565b3d9150612e3d565b5f92505f199150565b6001600160a01b038082165f9081526101676020908152604080832093861683529281528282205461016890915291902054612ede9392612ed8929091612ed291612811565b92613643565b90612811565b90565b6001600160a01b039091165f8181526101676020908152604080832033808552908352818420549484526101668352818420908452909152902054908115612f3557612ede92612f30916127c6565b6127f3565b60405162461bcd60e51b815260206004820152602360248201527f557365724173736574206d7573742062652067726561746572207468616e207a60448201526265726f60e81b6064820152608490fd5b908160209103126105ba575180151581036105ba5790565b92919061015f545f90602060405180926323b872dd60e01b8252815f81612fcb8b8d309060048501612a75565b03926001600160a01b03165af1801561128c57613092575b5061015f546001600160a01b0316803b156105ba57604051632770a7eb60e21b81526001600160a01b03969096166004870152602486018590525f908690604490829084905af191821561128c576130779560409361307d575b5060018060a01b03168152610167602052209060018060a01b03165f5260205260405f2061306c82825461283d565b90556101645461283d565b61016455565b61308a9192505f90612731565b5f905f61303d565b6130b39060203d6020116130b8575b6130ab8183612731565b810190612f86565b612fe3565b503d6130a1565b60405163a9059cbb60e01b60208201526001600160a01b03909216602483015260448201929092526131079161310282606481015b03601f198101845283612731565b61370e565b565b1561311057565b60405162461bcd60e51b815260206004820152602b60248201527f496e697469616c697a61626c653a20636f6e7472616374206973206e6f74206960448201526a6e697469616c697a696e6760a81b6064820152608490fd5b335f9081525f80516020613bf2833981519152602052604090205460ff161561318e57565b61323e602061322660116131a133613929565b6037846131ba5f80516020613b92833981519152613a0f565b60405196879476020b1b1b2b9b9a1b7b73a3937b61d1030b1b1b7bab73a1604d1b828701528051918291018587015e8401907001034b99036b4b9b9b4b733903937b6329607d1b84830152805192839101604883015e01015f838201520301601f198101835282612731565b60405162461bcd60e51b8152918291600483016137f0565b0390fd5b5f81815261012d6020908152604080832033845290915290205460ff16156132675750565b6020613226601161323e936037846131ba61328133613929565b93613a0f565b600260c9541461329857600260c955565b60405162461bcd60e51b815260206004820152601f60248201527f5265656e7472616e637947756172643a207265656e7472616e742063616c6c006044820152606490fd5b604051636eb1769f60e11b81526001600160a01b039190911692906020818061330a8630600484016127d9565b0381875afa90811561128c575f916133ed575b5081811061332c575b50505050565b6133359161283d565b600a810290808204600a14901517156124d25760405163095ea7b360e01b81526001600160a01b03929092166004830152602482015290602090829060449082905f905af190811561128c575f916133ce575b5015613397575f808080613326565b60405162461bcd60e51b815260206004820152600f60248201526e105c1c1c9bdd985b0819985a5b1959608a1b6044820152606490fd5b6133e7915060203d6020116130b8576130ab8183612731565b5f613388565b90506020813d602011613417575b8161340860209383612731565b810103126105ba57515f61331d565b3d91506133fb565b90613102906130f4613107956040519586936323b872dd60e01b602086015260248501612a75565b805f5261012d60205260405f2060018060a01b0383165f5260205260ff60405f205416613472575050565b5f81815261012d602090815260408083206001600160a01b0395909516808452949091528120805460ff19169055339291907ff6391f5c32d9c69d2a47ea670b442974b53935d1edc7fd64eb21e047a839171b9080a4565b6024916134d691612ba5565b6101635460405163ae91874960e01b815230600482015293919250602091849182906001600160a01b03165afa91821561128c575f9261356f575b501061351957565b60405162461bcd60e51b815260206004820152602860248201527f436f6c6c61746572616c20726174696f2069732062656c6f77207361666520746044820152671a1c995cda1bdb1960c21b6064820152608490fd5b9091506020813d60201161359b575b8161358b60209383612731565b810103126105ba5751905f613511565b3d915061357e565b6097546001600160a01b031633036135b757565b606460405162461bcd60e51b815260206004820152602060248201527f4f776e61626c653a2063616c6c6572206973206e6f7420746865206f776e65726044820152fd5b609780546001600160a01b039283166001600160a01b0319821681179092559091167f8be0079c531659141344cd1fd0a4f28419497f9722a3daafe3b4186f6b6457e05f80a3565b6001600160a01b039182165f90815261016760209081526040808320858516845282529182902054610163549251630440bd9560e21b81523060048201529394909284916024918391165afa91821561128c575f926136d8575b50612710926136b46301e13380936136d3936127c6565b9060018060a01b03165f52610169602052612c0260405f20544261283d565b040490565b91506020823d602011613706575b816136f360209383612731565b810103126105ba5790519061271061369d565b3d91506136e6565b906137689160018060a01b03165f806040519361372c604086612731565b602085527f5361666545524332303a206c6f772d6c6576656c2063616c6c206661696c6564602086015260208151910182855af1610f9c613ab1565b80519081159182156137d6575b50501561377e57565b60405162461bcd60e51b815260206004820152602a60248201527f5361666545524332303a204552433230206f7065726174696f6e20646964206e6044820152691bdd081cdd58d8d9595960b21b6064820152608490fd5b6137e99250602080918301019101612f86565b5f80613775565b602060409281835280519182918282860152018484015e5f828201840152601f01601f1916010190565b803b1561384f575f80516020613bb283398151915280546001600160a01b0319166001600160a01b0392909216919091179055565b60405162461bcd60e51b815260206004820152602d60248201527f455243313936373a206e657720696d706c656d656e746174696f6e206973206e60448201526c1bdd08184818dbdb9d1c9858dd609a1b6064820152608490fd5b6001600160a01b0381165f818152610169602052604090205490929042116138d157505050565b6138da91613643565b815f526101686020526138f260405f20918254612811565b90555f526101696020524260405f2055565b908151811015613915570160200190565b634e487b7160e01b5f52603260045260245ffd5b613933602a612767565b906139416040519283612731565b602a825261394f602a612767565b6020830190601f19013682378251156139155760309053815160011015613915576078602183015360295b600181116139ce575061398a5790565b606460405162461bcd60e51b815260206004820152602060248201527f537472696e67733a20686578206c656e67746820696e73756666696369656e746044820152fd5b90600f81166010811015613915576f181899199a1a9b1b9c1cb0b131b232b360811b901a6139fc8385613904565b5360041c9080156124d2575f190161397a565b613a196042612767565b90613a276040519283612731565b60428252613a356042612767565b6020830190601f19013682378251156139155760309053815160011015613915576078602183015360415b60018111613a70575061398a5790565b90600f81166010811015613915576f181899199a1a9b1b9c1cb0b131b232b360811b901a613a9e8385613904565b5360041c9080156124d2575f1901613a60565b3d15613adb573d90613ac282612767565b91613ad06040519384612731565b82523d5f602084013e565b606090565b91929015613b425750815115613af4575090565b3b15613afd5790565b60405162461bcd60e51b815260206004820152601d60248201527f416464726573733a2063616c6c20746f206e6f6e2d636f6e74726163740000006044820152606490fd5b825190915015613b555750805190602001fd5b60405162461bcd60e51b815290819061323e90600483016137f056fe2f8788117e7eff1d82e926ec794901d17c78024a50270940304540a733656f0d7d6d8b9b446e2d961101099c17de9758016a0de4ad2bd37ba4da59dcd2a1e69a360894a13ba1a3210667c828492db98dca3e2076cc3735a920a3ca505d382bbced83d5cddaa36a05f1239bdab95df20d225bce1cccf67c4e5c17bb755acd15e1be8fa8a289033c6c5a389cd35b5112094b863d8682047ac2e576306468d93ca0a2646970667358221220fa62a22661796fbf45595cd905c0a8543333c139eac64c5851e4b263726012bb64736f6c634300081a0033","linkReferences":{}},"methodIdentifiers":{"ClaimcancelDepositRequest(address)":"372f5bca","DEFAULT_ADMIN_ROLE()":"a217fddf","Lzybra()":"21e7da7a","UserDepReqVaultCollatAsset(address,address)":"c983b6a3","UserVaultTrancheAsset(address,address)":"4bc326e6","VAULT_MANAGER_ROLE()":"5e5a24a4","addVault(address)":"256b5a02","calc_share(uint256,address)":"d367af69","cancelDepositRequest(address)":"9c2a9481","cancelWithdrawRequest(address)":"5d2cd2a7","collateralAsset()":"aabaecd6","configurator()":"2b507df8","deposit(address,uint256)":"47e7ef24","getAsset(address)":"30b8b2c6","getBorrowed(address,address)":"b47dfa49","getCollateralAssetPrice()":"28e32d3b","getCollateralRatioAndLiquidationInfo(address,address)":"8ffade6e","getPoolTotalCirculation()":"9754d1dc","getRoleAdmin(bytes32)":"248a9ca3","getTrancheAssetPrice(address)":"154bd650","getUserTrancheAsset(address,address)":"d8dc42ba","getVaultType()":"75baf37f","grantRole(bytes32,address)":"2f2ff15d","hasRole(bytes32,address)":"91d14854","initialize(address,address,address,address,address)":"1459457a","isVault(address)":"652b9b41","liquidation(address,address,address,uint256)":"12e20d03","owner()":"8da5cb5b","poolManager()":"dc4c90d3","priceFeed()":"741bef1a","proxiableUUID()":"52d1902d","removeVault(address)":"ceb68c23","renounceOwnership()":"715018a6","renounceRole(bytes32,address)":"36568abe","repayingDebt(address,address,uint256)":"aa09ac64","requestDeposit(uint256,address)":"29344f08","requestWithdraw(uint256,address,address)":"32f25a3a","revokeRole(bytes32,address)":"d547741f","supportsInterface(bytes4)":"01ffc9a7","transferOwnership(address)":"f2fde38b","upgradeTo(address)":"3659cfe6","upgradeToAndCall(address,bytes)":"4f1ef286","vaultExists(address)":"16d37595","withdraw(address)":"51cff8d9"},"id":46}