{"abi":[{"type":"function","name":"ZybraProtocolRewardsPool","inputs":[],"outputs":[{"name":"","type":"address","internalType":"contract IProtocolRewardsPool"}],"stateMutability":"view"},{"type":"function","name":"becomeRedemptionProvider","inputs":[{"name":"_bool","type":"bool","internalType":"bool"}],"outputs":[],"stateMutability":"nonpayable"},{"type":"function","name":"distributeRewards","inputs":[],"outputs":[],"stateMutability":"nonpayable"},{"type":"function","name":"flashloanFee","inputs":[],"outputs":[{"name":"","type":"uint256","internalType":"uint256"}],"stateMutability":"view"},{"type":"function","name":"getBadCollateralRatio","inputs":[{"name":"pool","type":"address","internalType":"address"}],"outputs":[{"name":"","type":"uint256","internalType":"uint256"}],"stateMutability":"view"},{"type":"function","name":"getProtocolRewardsPool","inputs":[],"outputs":[{"name":"","type":"address","internalType":"address"}],"stateMutability":"view"},{"type":"function","name":"getSafeCollateralRatio","inputs":[{"name":"pool","type":"address","internalType":"address"}],"outputs":[{"name":"","type":"uint256","internalType":"uint256"}],"stateMutability":"view"},{"type":"function","name":"getVaultWeight","inputs":[{"name":"pool","type":"address","internalType":"address"}],"outputs":[{"name":"","type":"uint256","internalType":"uint256"}],"stateMutability":"view"},{"type":"function","name":"initialize","inputs":[{"name":"_lzybra","type":"address","internalType":"address"},{"name":"_stableToken","type":"address","internalType":"address"}],"outputs":[],"stateMutability":"nonpayable"},{"type":"function","name":"isRedemptionProvider","inputs":[{"name":"user","type":"address","internalType":"address"}],"outputs":[{"name":"","type":"bool","internalType":"bool"}],"stateMutability":"view"},{"type":"function","name":"lzybra","inputs":[],"outputs":[{"name":"","type":"address","internalType":"contract ILZYBRA"}],"stateMutability":"view"},{"type":"function","name":"lzybraMiningIncentives","inputs":[],"outputs":[{"name":"","type":"address","internalType":"contract IlzybraMiningIncentives"}],"stateMutability":"view"},{"type":"function","name":"mintVault","inputs":[{"name":"","type":"address","internalType":"address"}],"outputs":[{"name":"","type":"bool","internalType":"bool"}],"stateMutability":"view"},{"type":"function","name":"mintVaultMaxSupply","inputs":[{"name":"","type":"address","internalType":"address"}],"outputs":[{"name":"","type":"uint256","internalType":"uint256"}],"stateMutability":"view"},{"type":"function","name":"owner","inputs":[],"outputs":[{"name":"","type":"address","internalType":"address"}],"stateMutability":"view"},{"type":"function","name":"premiumTradingEnabled","inputs":[],"outputs":[{"name":"","type":"bool","internalType":"bool"}],"stateMutability":"view"},{"type":"function","name":"proxiableUUID","inputs":[],"outputs":[{"name":"","type":"bytes32","internalType":"bytes32"}],"stateMutability":"view"},{"type":"function","name":"redemptionFee","inputs":[],"outputs":[{"name":"","type":"uint256","internalType":"uint256"}],"stateMutability":"view"},{"type":"function","name":"refreshMintReward","inputs":[{"name":"user","type":"address","internalType":"address"}],"outputs":[],"stateMutability":"nonpayable"},{"type":"function","name":"renounceOwnership","inputs":[],"outputs":[],"stateMutability":"nonpayable"},{"type":"function","name":"setBadCollateralRatio","inputs":[{"name":"pool","type":"address","internalType":"address"},{"name":"newRatio","type":"uint256","internalType":"uint256"}],"outputs":[],"stateMutability":"nonpayable"},{"type":"function","name":"setBorrowApy","inputs":[{"name":"pool","type":"address","internalType":"address"},{"name":"newApy","type":"uint256","internalType":"uint256"}],"outputs":[],"stateMutability":"nonpayable"},{"type":"function","name":"setFlashloanFee","inputs":[{"name":"fee","type":"uint256","internalType":"uint256"}],"outputs":[],"stateMutability":"nonpayable"},{"type":"function","name":"setKeeperRatio","inputs":[{"name":"pool","type":"address","internalType":"address"},{"name":"newRatio","type":"uint256","internalType":"uint256"}],"outputs":[],"stateMutability":"nonpayable"},{"type":"function","name":"setMaxStableRatio","inputs":[{"name":"_ratio","type":"uint256","internalType":"uint256"}],"outputs":[],"stateMutability":"nonpayable"},{"type":"function","name":"setMintVaultMaxSupply","inputs":[{"name":"pool","type":"address","internalType":"address"},{"name":"maxSupply","type":"uint256","internalType":"uint256"}],"outputs":[],"stateMutability":"nonpayable"},{"type":"function","name":"setPremiumTradingEnabled","inputs":[{"name":"isActive","type":"bool","internalType":"bool"}],"outputs":[],"stateMutability":"nonpayable"},{"type":"function","name":"setProtocolRewardsPool","inputs":[{"name":"addr","type":"address","internalType":"address"}],"outputs":[],"stateMutability":"nonpayable"},{"type":"function","name":"setRedemptionFee","inputs":[{"name":"newFee","type":"uint256","internalType":"uint256"}],"outputs":[],"stateMutability":"nonpayable"},{"type":"function","name":"setSafeCollateralRatio","inputs":[{"name":"pool","type":"address","internalType":"address"},{"name":"newRatio","type":"uint256","internalType":"uint256"}],"outputs":[],"stateMutability":"nonpayable"},{"type":"function","name":"setTokenMiner","inputs":[{"name":"_contracts","type":"address[]","internalType":"address[]"},{"name":"_bools","type":"bool[]","internalType":"bool[]"}],"outputs":[],"stateMutability":"nonpayable"},{"type":"function","name":"setVaultBurnPaused","inputs":[{"name":"pool","type":"address","internalType":"address"},{"name":"isActive","type":"bool","internalType":"bool"}],"outputs":[],"stateMutability":"nonpayable"},{"type":"function","name":"setVaultMintPaused","inputs":[{"name":"pool","type":"address","internalType":"address"},{"name":"isActive","type":"bool","internalType":"bool"}],"outputs":[],"stateMutability":"nonpayable"},{"type":"function","name":"setVaultWeight","inputs":[{"name":"vault","type":"address","internalType":"address"},{"name":"weight","type":"uint256","internalType":"uint256"}],"outputs":[],"stateMutability":"nonpayable"},{"type":"function","name":"stableToken","inputs":[],"outputs":[{"name":"","type":"address","internalType":"address"}],"stateMutability":"view"},{"type":"function","name":"tokenMiner","inputs":[{"name":"","type":"address","internalType":"address"}],"outputs":[{"name":"","type":"bool","internalType":"bool"}],"stateMutability":"view"},{"type":"function","name":"transferOwnership","inputs":[{"name":"newOwner","type":"address","internalType":"address"}],"outputs":[],"stateMutability":"nonpayable"},{"type":"function","name":"upgradeTo","inputs":[{"name":"newImplementation","type":"address","internalType":"address"}],"outputs":[],"stateMutability":"nonpayable"},{"type":"function","name":"upgradeToAndCall","inputs":[{"name":"newImplementation","type":"address","internalType":"address"},{"name":"data","type":"bytes","internalType":"bytes"}],"outputs":[],"stateMutability":"payable"},{"type":"function","name":"vaultBurnPaused","inputs":[{"name":"","type":"address","internalType":"address"}],"outputs":[{"name":"","type":"bool","internalType":"bool"}],"stateMutability":"view"},{"type":"function","name":"vaultKeeperRatio","inputs":[{"name":"","type":"address","internalType":"address"}],"outputs":[{"name":"","type":"uint256","internalType":"uint256"}],"stateMutability":"view"},{"type":"function","name":"vaultMintFeeApy","inputs":[{"name":"","type":"address","internalType":"address"}],"outputs":[{"name":"","type":"uint256","internalType":"uint256"}],"stateMutability":"view"},{"type":"function","name":"vaultMintPaused","inputs":[{"name":"","type":"address","internalType":"address"}],"outputs":[{"name":"","type":"bool","internalType":"bool"}],"stateMutability":"view"},{"type":"event","name":"AdminChanged","inputs":[{"name":"previousAdmin","type":"address","indexed":false,"internalType":"address"},{"name":"newAdmin","type":"address","indexed":false,"internalType":"address"}],"anonymous":false},{"type":"event","name":"BadCollateralRatioChanged","inputs":[{"name":"pool","type":"address","indexed":true,"internalType":"address"},{"name":"newRatio","type":"uint256","indexed":false,"internalType":"uint256"}],"anonymous":false},{"type":"event","name":"BeaconUpgraded","inputs":[{"name":"beacon","type":"address","indexed":true,"internalType":"address"}],"anonymous":false},{"type":"event","name":"BorrowApyChanged","inputs":[{"name":"pool","type":"address","indexed":true,"internalType":"address"},{"name":"newApy","type":"uint256","indexed":false,"internalType":"uint256"}],"anonymous":false},{"type":"event","name":"CurvePoolChanged","inputs":[{"name":"oldAddr","type":"address","indexed":false,"internalType":"address"},{"name":"newAddr","type":"address","indexed":false,"internalType":"address"},{"name":"timestamp","type":"uint256","indexed":false,"internalType":"uint256"}],"anonymous":false},{"type":"event","name":"FlashloanFeeUpdated","inputs":[{"name":"fee","type":"uint256","indexed":false,"internalType":"uint256"}],"anonymous":false},{"type":"event","name":"KeeperRatioChanged","inputs":[{"name":"pool","type":"address","indexed":true,"internalType":"address"},{"name":"newSlippage","type":"uint256","indexed":false,"internalType":"uint256"}],"anonymous":false},{"type":"event","name":"OwnershipTransferred","inputs":[{"name":"previousOwner","type":"address","indexed":true,"internalType":"address"},{"name":"newOwner","type":"address","indexed":true,"internalType":"address"}],"anonymous":false},{"type":"event","name":"ProtocolRewardsPoolChanged","inputs":[{"name":"pool","type":"address","indexed":true,"internalType":"address"},{"name":"timestamp","type":"uint256","indexed":false,"internalType":"uint256"}],"anonymous":false},{"type":"event","name":"RedemptionFeeChanged","inputs":[{"name":"newSlippage","type":"uint256","indexed":false,"internalType":"uint256"}],"anonymous":false},{"type":"event","name":"RedemptionProvider","inputs":[{"name":"user","type":"address","indexed":true,"internalType":"address"},{"name":"status","type":"bool","indexed":false,"internalType":"bool"}],"anonymous":false},{"type":"event","name":"SafeCollateralRatioChanged","inputs":[{"name":"pool","type":"address","indexed":true,"internalType":"address"},{"name":"newRatio","type":"uint256","indexed":false,"internalType":"uint256"}],"anonymous":false},{"type":"event","name":"SendProtocolRewards","inputs":[{"name":"token","type":"address","indexed":true,"internalType":"address"},{"name":"amount","type":"uint256","indexed":false,"internalType":"uint256"},{"name":"timestamp","type":"uint256","indexed":false,"internalType":"uint256"}],"anonymous":false},{"type":"event","name":"TokenMinerChanges","inputs":[{"name":"pool","type":"address","indexed":true,"internalType":"address"},{"name":"status","type":"bool","indexed":false,"internalType":"bool"}],"anonymous":false},{"type":"event","name":"Upgraded","inputs":[{"name":"implementation","type":"address","indexed":true,"internalType":"address"}],"anonymous":false},{"type":"event","name":"VaultWeightChanged","inputs":[{"name":"pool","type":"address","indexed":true,"internalType":"address"},{"name":"weight","type":"uint256","indexed":false,"internalType":"uint256"},{"name":"timestamp","type":"uint256","indexed":false,"internalType":"uint256"}],"anonymous":false}],"bytecode":{"object":"0x60a08060405234603057306080526121489081610035823960805181818161074c01528181610bb501526119750152f35b5f80fdfe60806040526004361015610011575f80fd5b5f3560e01c8063045e3992146102bf57806306a96bd8146102ba5780631102f654146102b557806311109878146102b057806314ce97b6146102ab5780632506f457146102a65780632a20029f146102a1578063311f463f1461029c5780633659cfe6146102975780633e60be9314610292578063400f05141461028d578063458f581514610288578063485cc95514610283578063496a25481461027e5780634f1ef2861461027957806352d1902d146102745780635ba0f6e81461026f578063671b6be71461026a5780636f4a2cd014610265578063715018a61461026057806375d389d81461025b5780637890444c146102565780637d4c7ac4146102515780637dbc1df01461024c5780638da5cb5b14610247578063a9d75b2b14610242578063ac8047d21461023d578063ae91874914610238578063b300a55914610233578063b3495faa1461022e578063bf21c60c14610229578063c026b83c14610224578063cc143a041461021f578063d3946c0f1461021a578063d3e07ac51461021a578063d54d832c14610215578063da48d6db14610210578063de10de261461020b578063dffa735314610206578063e4e6347314610201578063e914555e146101fc578063f2afd399146101f75763f2fde38b146101f2575f80fd5b611716565b6116d6565b61160c565b6115e7565b61159c565b611525565b6114a9565b611482565b61145a565b61141f565b6113df565b61139f565b611350565b611315565b6112ee565b6112bf565b611297565b61126f565b6111cc565b611100565b6110c0565b610fa5565b610f3d565b610d50565b610c7e565b610c61565b610ba3565b610b28565b610998565b610867565b61084a565b6107f9565b6107d1565b610727565b610698565b610619565b6105f1565b6104cd565b61048d565b610452565b610343565b61030b565b6001600160a01b038116036102d557565b5f80fd5b801515036102d557565b60409060031901126102d5576004356102fb816102c4565b90602435610308816102d9565b90565b346102d55761034161031c366102e3565b9060018060a01b03165f5260cb60205260405f209060ff801983541691151516179055565b005b346102d55760403660031901126102d557600435610360816102c4565b60243561037860018060a01b036097541633146117b4565b6001600160a01b0382165f81815260c9602052604090205490929060ff161561040f5781806103f361040a936103da680ad78ebc5ac62000007fa3eac843ab69b71ba88f67a83ad0c96effe9ed3b04e7237c10647be1f2e23f969711156117ff565b6001600160a01b03165f90815260d36020526040902090565b556040805191825242602083015290918291820190565b0390a2005b60405162461bcd60e51b8152602060048201526002602482015261272b60f11b6044820152606490fd5b6001600160a01b03165f90815260cd6020526040902090565b346102d55760203660031901126102d55760043561046f816102c4565b60018060a01b03165f5260cf602052602060405f2054604051908152f35b346102d55760203660031901126102d5576004356104aa816102c4565b60018060a01b03165f5260cc602052602060ff60405f2054166040519015158152f35b346102d55760403660031901126102d5576004356104ea816102c4565b6024359061050360018060a01b036097541633146117b4565b6802b5e3af16b1880000821015806105d4575b8061059b575b15610570576001600160a01b03165f81815260ce6020908152604091829020849055905192835290917f0f60d813585da594a28a262efab5bced0a9d165081234b309528a31813774200918190810161040a565b60405162461bcd60e51b81526020600482015260036024820152624c4e4160e81b6044820152606490fd5b506001600160a01b0381165f90815260cd6020526040902054678ac7230489e7ffff1981019081116105cf5782111561051c565b611806565b506804e1003b28d9280000821115610516565b5f9103126102d557565b346102d5575f3660031901126102d55760d7546040516001600160a01b039091168152602090f35b346102d55760203660031901126102d557600435610636816102c4565b61064b60018060a01b036097541633146117b4565b60d680546001600160a01b0319166001600160a01b039290921691821790556040514281527f6e89bfbef3e66fbc75d7aa3075d0d7a8d5594739fd7788ef265a50cb7112228090602090a2005b346102d55760203660031901126102d5576004356106c160018060a01b036097541633146117b4565b61271081116106f9577f9c9392b37ed1f1b5c601ad172ce8871d989b1d271acc7103939f5df3acd8c23e6020604051838152a160d855005b60405162461bcd60e51b8152602060048201526002602482015261115360f21b6044820152606490fd5b0390fd5b346102d55760203660031901126102d557610341600435610747816102c4565b61079e7f00000000000000000000000000000000000000000000000000000000000000006001600160a01b03166107803082141561181a565b5f805160206120f3833981519152546001600160a01b03161461187b565b6107b360018060a01b036097541633146117b4565b604051906107c2602083610ae5565b5f808352366020840137611d51565b346102d5575f3660031901126102d55760d5546040516001600160a01b039091168152602090f35b346102d55760203660031901126102d557600435610816816102d9565b61082b60018060a01b036097541633146117b4565b60da805460ff60a01b191691151560a01b60ff60a01b16919091179055005b346102d5575f3660031901126102d557602060d454604051908152f35b346102d55760403660031901126102d557600435610884816102c4565b602435610890816102c4565b5f549060ff8260081c165f1461095d57303b155b15610901576108c6916108bb9060081c60ff161590565b92836108da576118dc565b6108cc57005b61034161ff00195f54165f55565b6108ec61010061ff00195f5416175f55565b6108fc600160ff195f5416175f55565b6118dc565b60405162461bcd60e51b815260206004820152602e60248201527f496e697469616c697a61626c653a20636f6e747261637420697320616c72656160448201526d191e481a5b9a5d1a585b1a5e995960921b6064820152608490fd5b60ff8216156108a4565b9181601f840112156102d55782359167ffffffffffffffff83116102d5576020808501948460051b0101116102d557565b346102d55760403660031901126102d55760043567ffffffffffffffff81116102d5576109c9903690600401610967565b9060243567ffffffffffffffff81116102d5576109ea903690600401610967565b92610a0060018060a01b036097541633146117b4565b5f5b818110610a0b57005b80610a5e610a1c6001938887611941565b35610a26816102d9565b610a31838689611941565b35610a3b816102c4565b848060a01b03165f5260d260205260405f209060ff801983541691151516179055565b610a69818487611941565b35610a73816102c4565b7fa0789b0d30b3d9a410c797d6232174404901f2279f5f3ba8d04d278b83249364610ac8610aaa610aa5858b8a611941565b611965565b92604051918291878060a01b03169482919091602081019215159052565b0390a201610a02565b634e487b7160e01b5f52604160045260245ffd5b90601f8019910116810190811067ffffffffffffffff821117610b0757604052565b610ad1565b67ffffffffffffffff8111610b0757601f01601f191660200190565b60403660031901126102d557600435610b40816102c4565b6024359067ffffffffffffffff82116102d557366023830112156102d557816004013590610b6d82610b0c565b91610b7b6040519384610ae5565b80835236602482860101116102d5576020815f9260246103419701838701378401015261196f565b346102d5575f3660031901126102d5577f00000000000000000000000000000000000000000000000000000000000000006001600160a01b03163003610bfb576040515f805160206120f38339815191528152602090f35b60405162461bcd60e51b815260206004820152603860248201527f555550535570677261646561626c653a206d757374206e6f742062652063616c6044820152771b1959081d1a1c9bdd59da0819195b1959d85d1958d85b1b60421b6064820152608490fd5b346102d5575f3660031901126102d557602060d854604051908152f35b346102d55760403660031901126102d557600435610c9b816102c4565b60243590610cb460018060a01b036097541633146117b4565b60c88211610d0b576001600160a01b03165f81815260cf6020908152604091829020849055905192835290917fc7dada501d4e07227a9a98b0a99d1e62037cdaa7dbed9ffff973ce654c4700f2918190810161040a565b60405162461bcd60e51b815260206004820152601b60248201527f426f72726f77204150592063616e6e6f742065786365656420322500000000006044820152606490fd5b346102d5575f3660031901126102d55760da54610d8390610d77906001600160a01b031681565b6001600160a01b031690565b6040516370a0823160e01b815230600482015290602082602481845afa918215610eda575f92610f0c575b50683635c9adc5dea00000821015610dc257005b60d654610e1891602091849190610de1906001600160a01b0316610d77565b60405163a9059cbb60e01b81526001600160a01b0390911660048201526024810192909252909283919082905f9082906044820190565b03925af18015610eda57610edf575b5060d654610e3d906001600160a01b0316610d77565b803b156102d55760405163246132f960e01b8152600481018390525f6024820181905290918290604490829084905af18015610eda57610ec0575b5060da54604080519283524260208401526001600160a01b03909116917fe7e1af2362367a378dc8f5d7dbedafd63d7a9a11bac7cff67c0e6fd2e4790948918190810161040a565b80610ece5f610ed493610ae5565b806105e7565b5f610e78565b611a8d565b610f009060203d602011610f05575b610ef88183610ae5565b810190611a98565b610e27565b503d610eee565b610f2f91925060203d602011610f36575b610f278183610ae5565b810190611a7e565b905f610dae565b503d610f1d565b346102d5575f3660031901126102d557610f6260018060a01b036097541633146117b4565b609780546001600160a01b031981169091555f906001600160a01b03167f8be0079c531659141344cd1fd0a4f28419497f9722a3daafe3b4186f6b6457e08280a3005b346102d55760403660031901126102d557600435610fc2816102c4565b602435610fda60018060a01b036097541633146117b4565b6040516375baf37f60e01b81526001600160a01b038316929091602083600481875afa928315610eda5761105361040a9360ff7fa914772c47bbc447e139861fdebda9910f871aa03a5113a43c83e7763fb817029685945f91611091575b5016611064576104396808ac7230489e800000841015611b5c565b556040519081529081906020820190565b6001600160a01b0381165f90815260ce60205260409020610439906110899054611ac6565b841015611adb565b6110b3915060203d6020116110b9575b6110ab8183610ae5565b810190611aad565b5f611038565b503d6110a1565b346102d55760203660031901126102d5576004356110dd816102c4565b60018060a01b03165f5260d1602052602060ff60405f2054166040519015158152f35b346102d55760403660031901126102d55760043561111d816102c4565b6024359061113660018060a01b036097541633146117b4565b6005821161118d576001600160a01b03165f81815260d06020908152604091829020849055905192835290917f90a6f6cf7f8b3a4f71e90bec9f994baff84e3ca6445ea2f7246a4aeabbdf8cea918190810161040a565b60405162461bcd60e51b81526020600482015260176024820152764d6178204b65657065722072657761726420697320352560481b6044820152606490fd5b346102d55760203660031901126102d5576004356111f560018060a01b036097541633146117b4565b6101f4811161122f576020817f4dbf9634a3aaf3bc15ab627faeaac7c6b0a4754ead77206f1c11277356f2878f9260d455604051908152a1005b60405162461bcd60e51b81526020600482015260186024820152774d617820526564656d7074696f6e2046656520697320352560401b6044820152606490fd5b346102d5575f3660031901126102d5576097546040516001600160a01b039091168152602090f35b346102d5575f3660031901126102d55760da546040516001600160a01b039091168152602090f35b346102d55760203660031901126102d55760206112e66004356112e1816102c4565b611bc8565b604051908152f35b346102d55760203660031901126102d55760206112e6600435611310816102c4565b611c1b565b346102d55760203660031901126102d557600435611332816102c4565b60018060a01b03165f5260d0602052602060405f2054604051908152f35b346102d55760403660031901126102d55760043561136d816102c4565b6024359061138660018060a01b036097541633146117b4565b6001600160a01b03165f90815260ca6020526040902055005b346102d55760203660031901126102d5576004356113bc816102c4565b60018060a01b03165f5260d2602052602060ff60405f2054166040519015158152f35b346102d55760203660031901126102d5576004356113fc816102c4565b60018060a01b03165f5260cb602052602060ff60405f2054166040519015158152f35b346102d55760203660031901126102d55760043561143c816102c4565b60018060a01b03165f5260ca602052602060405f2054604051908152f35b346102d5575f3660031901126102d55760d6546040516001600160a01b039091168152602090f35b346102d55760203660031901126102d55760206112e66004356114a4816102c4565b611c54565b346102d55760203660031901126102d5576004356114d260018060a01b036097541633146117b4565b61271081116114e05760d955005b60405162461bcd60e51b815260206004820152601b60248201527f546865206d6178696d756d2076616c75652069732031305f30303000000000006044820152606490fd5b346102d5575f60203660031901126102d557600435611543816102c4565b60d5546001600160a01b031690813b156102d55760405163fce67e0d60e01b81526001600160a01b039091166004820152905f908290602490829084905af18015610eda57611590575080f35b61034191505f90610ae5565b346102d5576103416115ad366102e3565b906115c360018060a01b036097541633146117b4565b60018060a01b03165f5260cc60205260405f209060ff801983541691151516179055565b346102d5575f3660031901126102d557602060ff60da5460a01c166040519015158152f35b346102d55760203660031901126102d557600435611629816102d9565b60d5546001600160a01b0316803b156102d55760405163fce67e0d60e01b8152336004820152905f908290602490829084905af18015610eda576116c2575b50335f90815260d16020526040902061168c908260ff801983541691151516179055565b604051901515815233907f3d9a02fcbaf508c27fa7c97d8e5795c8619e39299b3e8b7779fbe1f8d5de797090806020810161040a565b80610ece5f6116d093610ae5565b5f611668565b346102d55760203660031901126102d5576004356116f3816102c4565b60018060a01b03165f5260c9602052602060ff60405f2054166040519015158152f35b346102d55760203660031901126102d557600435611733816102c4565b61174860018060a01b036097541633146117b4565b6001600160a01b038116156117605761034190611e70565b60405162461bcd60e51b815260206004820152602660248201527f4f776e61626c653a206e6577206f776e657220697320746865207a65726f206160448201526564647265737360d01b6064820152608490fd5b156117bb57565b606460405162461bcd60e51b815260206004820152602060248201527f4f776e61626c653a2063616c6c6572206973206e6f7420746865206f776e65726044820152fd5b156106f957565b634e487b7160e01b5f52601160045260245ffd5b1561182157565b60405162461bcd60e51b815260206004820152602c60248201527f46756e6374696f6e206d7573742062652063616c6c6564207468726f7567682060448201526b19195b1959d85d1958d85b1b60a21b6064820152608490fd5b1561188257565b60405162461bcd60e51b815260206004820152602c60248201527f46756e6374696f6e206d7573742062652063616c6c6564207468726f7567682060448201526b6163746976652070726f787960a01b6064820152608490fd5b906118f660ff5f5460081c166118f181611e10565b611e10565b6118ff33611e70565b603260d4556101f460d85561138860d95560da80546001600160a01b039283166001600160a01b03199182161790915560d78054939092169216919091179055565b91908110156119515760051b0190565b634e487b7160e01b5f52603260045260245ffd5b35610308816102d9565b906119a97f00000000000000000000000000000000000000000000000000000000000000006001600160a01b03166107803082141561181a565b6119be60018060a01b036097541633146117b4565b7f4910fdfa16fed3260ed0e7147f7cc6da11a60208b5b9406d12a635614ffd91435460ff16156119f457506119f290611fbc565b565b6040516352d1902d60e01b8152906020826004816001600160a01b0387165afa5f9281611a5d575b50611a3a5760405162461bcd60e51b81528061072360048201611d02565b6119f292611a585f805160206120f383398151915260019414611ca4565b611eb8565b611a7791935060203d602011610f3657610f278183610ae5565b915f611a1c565b908160209103126102d5575190565b6040513d5f823e3d90fd5b908160209103126102d55751610308816102d9565b908160209103126102d5575160ff811681036102d55790565b90678ac7230489e8000082018092116105cf57565b15611ae257565b60405162461bcd60e51b815260206004820152604660248201527f6c7a79627261207661756c74207361666520636f6c6c61746572616c5261746960448201527f6f2073686f756c64206d6f7265207468616e2062616420636f6c6c61746572616064820152656c526174696f60d01b608482015260a490fd5b15611b6357565b60405162461bcd60e51b815260206004820152603760248201527f6c7a79627261207661756c74207361666520636f6c6c61746572616c526174696044820152766f2073686f756c64206d6f7265207468616e203136302560481b6064820152608490fd5b6001600160a01b03165f81815260c9602052604090205460ff1615611c1657805f5260d360205260405f205415611c08575f5260d360205260405f205490565b5068056bc75e2d6310000090565b505f90565b6001600160a01b03165f81815260cd602052604090205415611c46575f5260cd60205260405f205490565b506808ac7230489e80000090565b6001600160a01b0381165f81815260ce602052604090205490919015611c8457505f5260ce60205260405f205490565b611c8e9150611c1b565b678ac7230489e7ffff1981019081116105cf5790565b15611cab57565b60405162461bcd60e51b815260206004820152602960248201527f45524331393637557067726164653a20756e737570706f727465642070726f786044820152681a58589b195555525160ba1b6064820152608490fd5b60809060208152602e60208201527f45524331393637557067726164653a206e657720696d706c656d656e7461746960408201526d6f6e206973206e6f74205555505360901b60608201520190565b90611d7d7f4910fdfa16fed3260ed0e7147f7cc6da11a60208b5b9406d12a635614ffd91435460ff1690565b15611d8c57506119f290611fbc565b6040516352d1902d60e01b8152906020826004816001600160a01b0387165afa5f9281611def575b50611dd25760405162461bcd60e51b81528061072360048201611d02565b6119f292611a585f805160206120f38339815191525f9414611ca4565b611e0991935060203d602011610f3657610f278183610ae5565b915f611db4565b15611e1757565b60405162461bcd60e51b815260206004820152602b60248201527f496e697469616c697a61626c653a20636f6e7472616374206973206e6f74206960448201526a6e697469616c697a696e6760a81b6064820152608490fd5b609780546001600160a01b039283166001600160a01b0319821681179092559091167f8be0079c531659141344cd1fd0a4f28419497f9722a3daafe3b4186f6b6457e05f80a3565b9091611ec382611fbc565b604051906001600160a01b0383167fbc7cd75a20ee27fd9adebab32041f755214dbc6bffa90cc0225b39da2e5c2d3b5f80a283511590811591611fb4575b50611f0b57505050565b813b15611f6357505f8281926020611f5995519201905af43d15611f5c573d611f3381610b0c565b90611f416040519283610ae5565b81523d5f602083013e5b611f5361204c565b91612097565b50565b6060611f4b565b62461bcd60e51b815260206004820152602660248201527f416464726573733a2064656c65676174652063616c6c20746f206e6f6e2d636f6044820152651b9d1c9858dd60d21b6064820152608490fd5b90505f611f01565b803b15611ff1575f805160206120f383398151915280546001600160a01b0319166001600160a01b0392909216919091179055565b60405162461bcd60e51b815260206004820152602d60248201527f455243313936373a206e657720696d706c656d656e746174696f6e206973206e60448201526c1bdd08184818dbdb9d1c9858dd609a1b6064820152608490fd5b6040519061205b606083610ae5565b60278252660819985a5b195960ca1b6040837f416464726573733a206c6f772d6c6576656c2064656c65676174652063616c6c60208201520152565b909190156120a3575090565b8151156120b35750805190602001fd5b604460209160405192839162461bcd60e51b83528160048401528051918291826024860152018484015e5f828201840152601f01601f19168101030190fdfe360894a13ba1a3210667c828492db98dca3e2076cc3735a920a3ca505d382bbca2646970667358221220d7d4d8fd790d545c8b65f26c2f34d4a34d085f3959ea62a82181966bbad12f1964736f6c634300081a0033","linkReferences":{}},"methodIdentifiers":{"ZybraProtocolRewardsPool()":"d3946c0f","becomeRedemptionProvider(bool)":"e914555e","distributeRewards()":"6f4a2cd0","flashloanFee()":"5ba0f6e8","getBadCollateralRatio(address)":"d54d832c","getProtocolRewardsPool()":"d3e07ac5","getSafeCollateralRatio(address)":"ae918749","getVaultWeight(address)":"ac8047d2","initialize(address,address)":"485cc955","isRedemptionProvider(address)":"7890444c","lzybra()":"2506f457","lzybraMiningIncentives()":"3e60be93","mintVault(address)":"f2afd399","mintVaultMaxSupply(address)":"cc143a04","owner()":"8da5cb5b","premiumTradingEnabled()":"e4e63473","proxiableUUID()":"52d1902d","redemptionFee()":"458f5815","refreshMintReward(address)":"de10de26","renounceOwnership()":"715018a6","setBadCollateralRatio(address,uint256)":"14ce97b6","setBorrowApy(address,uint256)":"671b6be7","setFlashloanFee(uint256)":"311f463f","setKeeperRatio(address,uint256)":"7d4c7ac4","setMaxStableRatio(uint256)":"da48d6db","setMintVaultMaxSupply(address,uint256)":"b3495faa","setPremiumTradingEnabled(bool)":"400f0514","setProtocolRewardsPool(address)":"2a20029f","setRedemptionFee(uint256)":"7dbc1df0","setSafeCollateralRatio(address,uint256)":"75d389d8","setTokenMiner(address[],bool[])":"496a2548","setVaultBurnPaused(address,bool)":"dffa7353","setVaultMintPaused(address,bool)":"045e3992","setVaultWeight(address,uint256)":"06a96bd8","stableToken()":"a9d75b2b","tokenMiner(address)":"bf21c60c","transferOwnership(address)":"f2fde38b","upgradeTo(address)":"3659cfe6","upgradeToAndCall(address,bytes)":"4f1ef286","vaultBurnPaused(address)":"11109878","vaultKeeperRatio(address)":"b300a559","vaultMintFeeApy(address)":"1102f654","vaultMintPaused(address)":"c026b83c"},"id":8}