{"abi":[{"type":"constructor","inputs":[{"name":"poolId_","type":"uint64","internalType":"uint64"},{"name":"trancheId_","type":"bytes16","internalType":"bytes16"},{"name":"asset_","type":"address","internalType":"address"},{"name":"share_","type":"address","internalType":"address"},{"name":"root_","type":"address","internalType":"address"},{"name":"escrow_","type":"address","internalType":"address"},{"name":"manager_","type":"address","internalType":"address"}],"stateMutability":"nonpayable"},{"type":"function","name":"AUTHORIZE_OPERATOR_TYPEHASH","inputs":[],"outputs":[{"name":"","type":"bytes32","internalType":"bytes32"}],"stateMutability":"view"},{"type":"function","name":"DOMAIN_SEPARATOR","inputs":[],"outputs":[{"name":"","type":"bytes32","internalType":"bytes32"}],"stateMutability":"view"},{"type":"function","name":"asset","inputs":[],"outputs":[{"name":"","type":"address","internalType":"address"}],"stateMutability":"view"},{"type":"function","name":"authorizations","inputs":[{"name":"controller","type":"address","internalType":"address"},{"name":"nonce","type":"bytes32","internalType":"bytes32"}],"outputs":[{"name":"used","type":"bool","internalType":"bool"}],"stateMutability":"view"},{"type":"function","name":"authorizeOperator","inputs":[{"name":"controller","type":"address","internalType":"address"},{"name":"operator","type":"address","internalType":"address"},{"name":"approved","type":"bool","internalType":"bool"},{"name":"nonce","type":"bytes32","internalType":"bytes32"},{"name":"deadline","type":"uint256","internalType":"uint256"},{"name":"signature","type":"bytes","internalType":"bytes"}],"outputs":[{"name":"success","type":"bool","internalType":"bool"}],"stateMutability":"nonpayable"},{"type":"function","name":"cancelDepositRequest","inputs":[{"name":"","type":"uint256","internalType":"uint256"},{"name":"controller","type":"address","internalType":"address"}],"outputs":[],"stateMutability":"nonpayable"},{"type":"function","name":"cancelRedeemRequest","inputs":[{"name":"","type":"uint256","internalType":"uint256"},{"name":"controller","type":"address","internalType":"address"}],"outputs":[],"stateMutability":"nonpayable"},{"type":"function","name":"claimCancelDepositRequest","inputs":[{"name":"","type":"uint256","internalType":"uint256"},{"name":"receiver","type":"address","internalType":"address"},{"name":"controller","type":"address","internalType":"address"}],"outputs":[{"name":"assets","type":"uint256","internalType":"uint256"}],"stateMutability":"nonpayable"},{"type":"function","name":"claimCancelRedeemRequest","inputs":[{"name":"","type":"uint256","internalType":"uint256"},{"name":"receiver","type":"address","internalType":"address"},{"name":"controller","type":"address","internalType":"address"}],"outputs":[{"name":"shares","type":"uint256","internalType":"uint256"}],"stateMutability":"nonpayable"},{"type":"function","name":"claimableCancelDepositRequest","inputs":[{"name":"","type":"uint256","internalType":"uint256"},{"name":"controller","type":"address","internalType":"address"}],"outputs":[{"name":"claimableAssets","type":"uint256","internalType":"uint256"}],"stateMutability":"view"},{"type":"function","name":"claimableCancelRedeemRequest","inputs":[{"name":"","type":"uint256","internalType":"uint256"},{"name":"controller","type":"address","internalType":"address"}],"outputs":[{"name":"claimableShares","type":"uint256","internalType":"uint256"}],"stateMutability":"view"},{"type":"function","name":"claimableDepositRequest","inputs":[{"name":"","type":"uint256","internalType":"uint256"},{"name":"controller","type":"address","internalType":"address"}],"outputs":[{"name":"claimableAssets","type":"uint256","internalType":"uint256"}],"stateMutability":"view"},{"type":"function","name":"claimableRedeemRequest","inputs":[{"name":"","type":"uint256","internalType":"uint256"},{"name":"controller","type":"address","internalType":"address"}],"outputs":[{"name":"claimableShares","type":"uint256","internalType":"uint256"}],"stateMutability":"view"},{"type":"function","name":"convertToAssets","inputs":[{"name":"shares","type":"uint256","internalType":"uint256"}],"outputs":[{"name":"assets","type":"uint256","internalType":"uint256"}],"stateMutability":"view"},{"type":"function","name":"convertToShares","inputs":[{"name":"assets","type":"uint256","internalType":"uint256"}],"outputs":[{"name":"shares","type":"uint256","internalType":"uint256"}],"stateMutability":"view"},{"type":"function","name":"deny","inputs":[{"name":"user","type":"address","internalType":"address"}],"outputs":[],"stateMutability":"nonpayable"},{"type":"function","name":"deploymentChainId","inputs":[],"outputs":[{"name":"","type":"uint256","internalType":"uint256"}],"stateMutability":"view"},{"type":"function","name":"deposit","inputs":[{"name":"assets","type":"uint256","internalType":"uint256"},{"name":"receiver","type":"address","internalType":"address"},{"name":"controller","type":"address","internalType":"address"}],"outputs":[{"name":"shares","type":"uint256","internalType":"uint256"}],"stateMutability":"nonpayable"},{"type":"function","name":"deposit","inputs":[{"name":"assets","type":"uint256","internalType":"uint256"},{"name":"receiver","type":"address","internalType":"address"}],"outputs":[{"name":"shares","type":"uint256","internalType":"uint256"}],"stateMutability":"nonpayable"},{"type":"function","name":"escrow","inputs":[],"outputs":[{"name":"","type":"address","internalType":"address"}],"stateMutability":"view"},{"type":"function","name":"file","inputs":[{"name":"what","type":"bytes32","internalType":"bytes32"},{"name":"data","type":"address","internalType":"address"}],"outputs":[],"stateMutability":"nonpayable"},{"type":"function","name":"invalidateNonce","inputs":[{"name":"nonce","type":"bytes32","internalType":"bytes32"}],"outputs":[],"stateMutability":"nonpayable"},{"type":"function","name":"isOperator","inputs":[{"name":"","type":"address","internalType":"address"},{"name":"","type":"address","internalType":"address"}],"outputs":[{"name":"","type":"bool","internalType":"bool"}],"stateMutability":"view"},{"type":"function","name":"isPermissioned","inputs":[{"name":"controller","type":"address","internalType":"address"}],"outputs":[{"name":"","type":"bool","internalType":"bool"}],"stateMutability":"view"},{"type":"function","name":"manager","inputs":[],"outputs":[{"name":"","type":"address","internalType":"contract IInvestmentManager"}],"stateMutability":"view"},{"type":"function","name":"maxDeposit","inputs":[{"name":"controller","type":"address","internalType":"address"}],"outputs":[{"name":"maxAssets","type":"uint256","internalType":"uint256"}],"stateMutability":"view"},{"type":"function","name":"maxMint","inputs":[{"name":"controller","type":"address","internalType":"address"}],"outputs":[{"name":"maxShares","type":"uint256","internalType":"uint256"}],"stateMutability":"view"},{"type":"function","name":"maxRedeem","inputs":[{"name":"controller","type":"address","internalType":"address"}],"outputs":[{"name":"maxShares","type":"uint256","internalType":"uint256"}],"stateMutability":"view"},{"type":"function","name":"maxWithdraw","inputs":[{"name":"controller","type":"address","internalType":"address"}],"outputs":[{"name":"maxAssets","type":"uint256","internalType":"uint256"}],"stateMutability":"view"},{"type":"function","name":"mint","inputs":[{"name":"shares","type":"uint256","internalType":"uint256"},{"name":"receiver","type":"address","internalType":"address"}],"outputs":[{"name":"assets","type":"uint256","internalType":"uint256"}],"stateMutability":"nonpayable"},{"type":"function","name":"mint","inputs":[{"name":"shares","type":"uint256","internalType":"uint256"},{"name":"receiver","type":"address","internalType":"address"},{"name":"controller","type":"address","internalType":"address"}],"outputs":[{"name":"assets","type":"uint256","internalType":"uint256"}],"stateMutability":"nonpayable"},{"type":"function","name":"onCancelDepositClaimable","inputs":[{"name":"controller","type":"address","internalType":"address"},{"name":"assets","type":"uint256","internalType":"uint256"}],"outputs":[],"stateMutability":"nonpayable"},{"type":"function","name":"onCancelRedeemClaimable","inputs":[{"name":"controller","type":"address","internalType":"address"},{"name":"shares","type":"uint256","internalType":"uint256"}],"outputs":[],"stateMutability":"nonpayable"},{"type":"function","name":"onDepositClaimable","inputs":[{"name":"controller","type":"address","internalType":"address"},{"name":"assets","type":"uint256","internalType":"uint256"},{"name":"shares","type":"uint256","internalType":"uint256"}],"outputs":[],"stateMutability":"nonpayable"},{"type":"function","name":"onRedeemClaimable","inputs":[{"name":"controller","type":"address","internalType":"address"},{"name":"assets","type":"uint256","internalType":"uint256"},{"name":"shares","type":"uint256","internalType":"uint256"}],"outputs":[],"stateMutability":"nonpayable"},{"type":"function","name":"onRedeemRequest","inputs":[{"name":"controller","type":"address","internalType":"address"},{"name":"owner","type":"address","internalType":"address"},{"name":"shares","type":"uint256","internalType":"uint256"}],"outputs":[],"stateMutability":"nonpayable"},{"type":"function","name":"pendingCancelDepositRequest","inputs":[{"name":"","type":"uint256","internalType":"uint256"},{"name":"controller","type":"address","internalType":"address"}],"outputs":[{"name":"isPending","type":"bool","internalType":"bool"}],"stateMutability":"view"},{"type":"function","name":"pendingCancelRedeemRequest","inputs":[{"name":"","type":"uint256","internalType":"uint256"},{"name":"controller","type":"address","internalType":"address"}],"outputs":[{"name":"isPending","type":"bool","internalType":"bool"}],"stateMutability":"view"},{"type":"function","name":"pendingDepositRequest","inputs":[{"name":"","type":"uint256","internalType":"uint256"},{"name":"controller","type":"address","internalType":"address"}],"outputs":[{"name":"pendingAssets","type":"uint256","internalType":"uint256"}],"stateMutability":"view"},{"type":"function","name":"pendingRedeemRequest","inputs":[{"name":"","type":"uint256","internalType":"uint256"},{"name":"controller","type":"address","internalType":"address"}],"outputs":[{"name":"pendingShares","type":"uint256","internalType":"uint256"}],"stateMutability":"view"},{"type":"function","name":"poolId","inputs":[],"outputs":[{"name":"","type":"uint64","internalType":"uint64"}],"stateMutability":"view"},{"type":"function","name":"previewDeposit","inputs":[{"name":"","type":"uint256","internalType":"uint256"}],"outputs":[{"name":"","type":"uint256","internalType":"uint256"}],"stateMutability":"pure"},{"type":"function","name":"previewMint","inputs":[{"name":"","type":"uint256","internalType":"uint256"}],"outputs":[{"name":"","type":"uint256","internalType":"uint256"}],"stateMutability":"pure"},{"type":"function","name":"previewRedeem","inputs":[{"name":"","type":"uint256","internalType":"uint256"}],"outputs":[{"name":"","type":"uint256","internalType":"uint256"}],"stateMutability":"pure"},{"type":"function","name":"previewWithdraw","inputs":[{"name":"","type":"uint256","internalType":"uint256"}],"outputs":[{"name":"","type":"uint256","internalType":"uint256"}],"stateMutability":"pure"},{"type":"function","name":"priceLastUpdated","inputs":[],"outputs":[{"name":"","type":"uint64","internalType":"uint64"}],"stateMutability":"view"},{"type":"function","name":"pricePerShare","inputs":[],"outputs":[{"name":"","type":"uint256","internalType":"uint256"}],"stateMutability":"view"},{"type":"function","name":"recoverTokens","inputs":[{"name":"token","type":"address","internalType":"address"},{"name":"to","type":"address","internalType":"address"},{"name":"amount","type":"uint256","internalType":"uint256"}],"outputs":[],"stateMutability":"nonpayable"},{"type":"function","name":"redeem","inputs":[{"name":"shares","type":"uint256","internalType":"uint256"},{"name":"receiver","type":"address","internalType":"address"},{"name":"controller","type":"address","internalType":"address"}],"outputs":[{"name":"assets","type":"uint256","internalType":"uint256"}],"stateMutability":"nonpayable"},{"type":"function","name":"rely","inputs":[{"name":"user","type":"address","internalType":"address"}],"outputs":[],"stateMutability":"nonpayable"},{"type":"function","name":"requestDeposit","inputs":[{"name":"assets","type":"uint256","internalType":"uint256"},{"name":"controller","type":"address","internalType":"address"},{"name":"owner","type":"address","internalType":"address"}],"outputs":[{"name":"","type":"uint256","internalType":"uint256"}],"stateMutability":"nonpayable"},{"type":"function","name":"requestRedeem","inputs":[{"name":"shares","type":"uint256","internalType":"uint256"},{"name":"controller","type":"address","internalType":"address"},{"name":"owner","type":"address","internalType":"address"}],"outputs":[{"name":"","type":"uint256","internalType":"uint256"}],"stateMutability":"nonpayable"},{"type":"function","name":"root","inputs":[],"outputs":[{"name":"","type":"address","internalType":"contract IRoot"}],"stateMutability":"view"},{"type":"function","name":"setEndorsedOperator","inputs":[{"name":"owner","type":"address","internalType":"address"},{"name":"approved","type":"bool","internalType":"bool"}],"outputs":[],"stateMutability":"nonpayable"},{"type":"function","name":"setOperator","inputs":[{"name":"operator","type":"address","internalType":"address"},{"name":"approved","type":"bool","internalType":"bool"}],"outputs":[{"name":"success","type":"bool","internalType":"bool"}],"stateMutability":"nonpayable"},{"type":"function","name":"share","inputs":[],"outputs":[{"name":"","type":"address","internalType":"address"}],"stateMutability":"view"},{"type":"function","name":"supportsInterface","inputs":[{"name":"interfaceId","type":"bytes4","internalType":"bytes4"}],"outputs":[{"name":"","type":"bool","internalType":"bool"}],"stateMutability":"pure"},{"type":"function","name":"totalAssets","inputs":[],"outputs":[{"name":"","type":"uint256","internalType":"uint256"}],"stateMutability":"view"},{"type":"function","name":"trancheId","inputs":[],"outputs":[{"name":"","type":"bytes16","internalType":"bytes16"}],"stateMutability":"view"},{"type":"function","name":"wards","inputs":[{"name":"","type":"address","internalType":"address"}],"outputs":[{"name":"","type":"uint256","internalType":"uint256"}],"stateMutability":"view"},{"type":"function","name":"withdraw","inputs":[{"name":"assets","type":"uint256","internalType":"uint256"},{"name":"receiver","type":"address","internalType":"address"},{"name":"controller","type":"address","internalType":"address"}],"outputs":[{"name":"shares","type":"uint256","internalType":"uint256"}],"stateMutability":"nonpayable"},{"type":"event","name":"CancelDepositClaim","inputs":[{"name":"receiver","type":"address","indexed":true,"internalType":"address"},{"name":"controller","type":"address","indexed":true,"internalType":"address"},{"name":"requestId","type":"uint256","indexed":true,"internalType":"uint256"},{"name":"sender","type":"address","indexed":false,"internalType":"address"},{"name":"assets","type":"uint256","indexed":false,"internalType":"uint256"}],"anonymous":false},{"type":"event","name":"CancelDepositClaimable","inputs":[{"name":"controller","type":"address","indexed":true,"internalType":"address"},{"name":"requestId","type":"uint256","indexed":true,"internalType":"uint256"},{"name":"assets","type":"uint256","indexed":false,"internalType":"uint256"}],"anonymous":false},{"type":"event","name":"CancelDepositRequest","inputs":[{"name":"controller","type":"address","indexed":true,"internalType":"address"},{"name":"requestId","type":"uint256","indexed":true,"internalType":"uint256"},{"name":"sender","type":"address","indexed":false,"internalType":"address"}],"anonymous":false},{"type":"event","name":"CancelRedeemClaim","inputs":[{"name":"receiver","type":"address","indexed":true,"internalType":"address"},{"name":"controller","type":"address","indexed":true,"internalType":"address"},{"name":"requestId","type":"uint256","indexed":true,"internalType":"uint256"},{"name":"sender","type":"address","indexed":false,"internalType":"address"},{"name":"shares","type":"uint256","indexed":false,"internalType":"uint256"}],"anonymous":false},{"type":"event","name":"CancelRedeemClaimable","inputs":[{"name":"controller","type":"address","indexed":true,"internalType":"address"},{"name":"requestId","type":"uint256","indexed":true,"internalType":"uint256"},{"name":"shares","type":"uint256","indexed":false,"internalType":"uint256"}],"anonymous":false},{"type":"event","name":"CancelRedeemRequest","inputs":[{"name":"controller","type":"address","indexed":true,"internalType":"address"},{"name":"requestId","type":"uint256","indexed":true,"internalType":"uint256"},{"name":"sender","type":"address","indexed":false,"internalType":"address"}],"anonymous":false},{"type":"event","name":"Deny","inputs":[{"name":"user","type":"address","indexed":true,"internalType":"address"}],"anonymous":false},{"type":"event","name":"Deposit","inputs":[{"name":"sender","type":"address","indexed":true,"internalType":"address"},{"name":"owner","type":"address","indexed":true,"internalType":"address"},{"name":"assets","type":"uint256","indexed":false,"internalType":"uint256"},{"name":"shares","type":"uint256","indexed":false,"internalType":"uint256"}],"anonymous":false},{"type":"event","name":"DepositClaimable","inputs":[{"name":"controller","type":"address","indexed":true,"internalType":"address"},{"name":"requestId","type":"uint256","indexed":true,"internalType":"uint256"},{"name":"assets","type":"uint256","indexed":false,"internalType":"uint256"},{"name":"shares","type":"uint256","indexed":false,"internalType":"uint256"}],"anonymous":false},{"type":"event","name":"DepositRequest","inputs":[{"name":"controller","type":"address","indexed":true,"internalType":"address"},{"name":"owner","type":"address","indexed":true,"internalType":"address"},{"name":"requestId","type":"uint256","indexed":true,"internalType":"uint256"},{"name":"sender","type":"address","indexed":false,"internalType":"address"},{"name":"assets","type":"uint256","indexed":false,"internalType":"uint256"}],"anonymous":false},{"type":"event","name":"File","inputs":[{"name":"what","type":"bytes32","indexed":true,"internalType":"bytes32"},{"name":"data","type":"address","indexed":false,"internalType":"address"}],"anonymous":false},{"type":"event","name":"OperatorSet","inputs":[{"name":"controller","type":"address","indexed":true,"internalType":"address"},{"name":"operator","type":"address","indexed":true,"internalType":"address"},{"name":"approved","type":"bool","indexed":false,"internalType":"bool"}],"anonymous":false},{"type":"event","name":"RedeemClaimable","inputs":[{"name":"controller","type":"address","indexed":true,"internalType":"address"},{"name":"requestId","type":"uint256","indexed":true,"internalType":"uint256"},{"name":"assets","type":"uint256","indexed":false,"internalType":"uint256"},{"name":"shares","type":"uint256","indexed":false,"internalType":"uint256"}],"anonymous":false},{"type":"event","name":"RedeemRequest","inputs":[{"name":"controller","type":"address","indexed":true,"internalType":"address"},{"name":"owner","type":"address","indexed":true,"internalType":"address"},{"name":"requestId","type":"uint256","indexed":true,"internalType":"uint256"},{"name":"sender","type":"address","indexed":false,"internalType":"address"},{"name":"assets","type":"uint256","indexed":false,"internalType":"uint256"}],"anonymous":false},{"type":"event","name":"Rely","inputs":[{"name":"user","type":"address","indexed":true,"internalType":"address"}],"anonymous":false},{"type":"event","name":"Withdraw","inputs":[{"name":"sender","type":"address","indexed":true,"internalType":"address"},{"name":"receiver","type":"address","indexed":true,"internalType":"address"},{"name":"owner","type":"address","indexed":true,"internalType":"address"},{"name":"assets","type":"uint256","indexed":false,"internalType":"uint256"},{"name":"shares","type":"uint256","indexed":false,"internalType":"uint256"}],"anonymous":false}],"bytecode":{"object":"0x6101e080604052346102e85760e0816130c6803803809161002082856102ff565b8339810103126102e8578051906001600160401b03821682036102e8576020810151916001600160801b0319831683036102e85761006060408301610336565b602061006e60608501610336565b94600461007d60808701610336565b9461009660c061008f60a08a01610336565b9801610336565b97335f525f8552600160405f20556040519586948593337fdd0e34038ac38b2a1ce960229778ac48a8719bc900b6c4f8d0475c6e8b385a605f80a260c05260e0526101005261012081905263313ce56760e01b82526001600160a01b03165afa9081156102f4575f916102b4575b506101405260018060a01b031660805260a05260018060a01b031660018060a01b0319600154161760015560405161013d6040826102ff565b600a81526943656e7472696675676560b01b6020909101527fe416b338a274162320c79445ae6604141d1cb08275eb27011b69f002dc094d0561016052604080519061018990826102ff565b600181526020810190603160f81b82525190208061018052466101a05261016051906040519060208201927f8b73c3c69bb8fe3d512ecc4cf759cc79239f7b179b0ffacaa9a75d522b39400f8452604083015260608201524660808201523060a082015260a081526101fc60c0826102ff565b5190206101c052604051612d7b908161034b82396080518181816108710152611fa2015260a0518181816113a4015281816116d60152611f40015260c05181610c02015260e05181611ab8015261010051818181610bb30152611600015261012051818181610576015281816111c5015281816112c501526118b80152610140518161179c015261016051816123700152610180518161239601526101a051818181611d5b01526122fb01526101c051816123210152f35b90506020813d6020116102ec575b816102cf602093836102ff565b810103126102e8575160ff811681036102e8575f610104565b5f80fd5b3d91506102c2565b6040513d5f823e3d90fd5b601f909101601f19168101906001600160401b0382119082101761032257604052565b634e487b7160e01b5f52604160045260245ffd5b51906001600160a01b03821682036102e85756fe60806040526004361015610011575f80fd5b5f3560e01c8062a06d19146103d457806301e1d114146103cf57806301ffc9a7146103ca5780630263704b146103c557806307a2d13a146103c05780630a28a477146102c15780630d62c332146103bb57806321f075ee146103b6578063234f0e3b146103b157806326c6f96c146103ac5780632b9d9c1f146103a75780632cdfbae5146103a25780632e2d29841461039d5780633644e5151461039857806338d52e0f146103935780633e0dc34e1461038e578063402d267d14610389578063481c6a75146103845780634b5fd6661461037f5780634cdad506146102c157806352aaead81461037a578063558a7297146103755780635f3e849f1461037057806365fae35e1461036b57806369d77a44146103665780636e553f6514610361578063711b58ff1461035c57806378d77ecb146103575780637c1b50c4146103525780637d41c86e1461034d57806384ce2bf71461034857806385b77f451461034357806394bf804d1461033e57806399530b0614610339578063995ea21a146103345780639c52a7f11461032f578063a21ec79f1461032a578063a8d5fd6514610325578063aabb592214610320578063b04a5e051461031b578063b3d7f6b9146102c1578063b460af9414610316578063b6363cf214610311578063b7adb4c51461030c578063b9cf063414610307578063ba08765214610302578063bf353dbb146102fd578063c63d75b6146102f8578063c6e6f592146102f3578063cd0d0096146102ee578063cdf5bba3146102e9578063ce96cb77146102e4578063d4e8be83146102df578063d905777e146102da578063da39b3e7146102d5578063e2fdcc17146102d0578063eaed1d07146102cb578063ebf0c717146102c6578063ef8b30f7146102c1578063f15b65b1146102bc5763f5a23d8d146102b7575f80fd5b612016565b611fd1565b6107b8565b611f8d565b611f6f565b611f2b565b611f12565b611eef565b611e0d565b611dc8565b611d7e565b611d44565b611d01565b611cbc565b611c85565b611bae565b611ae8565b611aa3565b611a47565b611971565b61192c565b6118e7565b6118a3565b611873565b611804565b6117e6565b611788565b611760565b6115b4565b61155d565b611295565b611229565b611175565b6110c7565b611048565b610f78565b610f08565b610e0e565b610d80565b610cdb565b610c71565b610c49565b610c26565b610be2565b610b9e565b610b84565b610b6b565b610b0d565b610a07565b61097d565b610944565b610811565b6107cd565b610792565b610724565b6105f3565b610551565b610443565b600435906001600160a01b03821682036103ef57565b5f80fd5b602435906001600160a01b03821682036103ef57565b60609060031901126103ef57600435906024356001600160a01b03811681036103ef57906044356001600160a01b03811681036103ef5790565b346103ef5761045136610409565b90915061045d816129ce565b60015461047a906001600160a01b03165b6001600160a01b031690565b91602060405180946311dcd79160e01b8252815f8161049e8888306004850161206a565b03925af19081156105425761050d935f92610511575b5060405191925f926001600160a01b0391821692909116907f9c133d4657dc9cd12f4c08cef86ef778dbbe03f3ad3b661ff14d36bc3febb1fb90806104fa873383612098565b0390a46040519081529081906020820190565b0390f35b5f92506105359060203d60201161053b575b61052d8183611084565b81019061205b565b916104b4565b503d610523565b61208d565b5f9103126103ef57565b346103ef575f3660031901126103ef576040516318160ddd60e01b81526020816004817f00000000000000000000000000000000000000000000000000000000000000006001600160a01b03165afa8015610542576105b7915f916105c2575b506120f5565b604051908152602090f35b6105db915060203d60201161053b5761052d8183611084565b5f6105b1565b6001600160e01b03198116036103ef57565b346103ef5760203660031901126103ef5761050d600435610613816105e1565b63ffffffff60e01b16630ce3bbe560e41b81149081156106e9575b81156106d8575b81156106c7575b81156106b6575b81156106a5575b8115610694575b8115610683575b8115610672575b5060405190151581529081906020820190565b6301ffc9a760e01b1490505f61065f565b6378d77ecb60e01b81149150610658565b6354f2843960e11b81149150610651565b632f0a18c560e01b8114915061064a565b63e76cffc760e01b81149150610643565b638bf840e360e01b8114915061063c565b63e3bc4e6560e01b81149150610635565b631883ba3960e21b8114915061062e565b60609060031901126103ef576004356001600160a01b03811681036103ef57906024359060443590565b346103ef575f7f4dd5187225a2ae5f5ea35ca7b1732180f848cc4b6f7dce34b4c5e9f384d77dec610754366106fa565b9092913385528460205261076e60016040872054146120b3565b6040805194855260208501929092526001600160a01b03169290819081015b0390a3005b346103ef5760203660031901126103ef5760206107b06004356120f5565b604051908152f35b346103ef5760203660031901126103ef575f80fd5b346103ef575f3660031901126103ef5760206040517fa3efcf8cb518126a85cdfd1c1102ee539e0700189f80926e1ac37144450473fa8152f35b801515036103ef57565b346103ef5760403660031901126103ef5761082a6103d9565b6024359061083782610807565b6001600160a01b0381169061084e33831415612153565b60405163854b89d560e01b81523360048201526020816024816001600160a01b037f0000000000000000000000000000000000000000000000000000000000000000165afa8015610542576108f2926108b36108e19287945f91610915575b506121c5565b6001600160a01b03165f90815260036020526040902033905b9060018060a01b03165f5260205260405f2090565b9060ff801983541691151516179055565b604051911515825233915f80516020612ce683398151915290806020810161078d565b610937915060203d60201161093d575b61092f8183611084565b8101906121b0565b5f6108ad565b503d610925565b346103ef5760203660031901126103ef57600435335f52600260205260405f20905f5260205260405f20600160ff198254161790555f80f35b346103ef5760403660031901126103ef576109c2602061099b6103f3565b60018060a01b036001541660405180809581946306ff657760e31b8352306004840161220d565b03915afa80156105425761050d915f916109e8575b506040519081529081906020820190565b610a01915060203d60201161053b5761052d8183611084565b5f6109d7565b346103ef5760403660031901126103ef57610a206103f3565b610a29816129ce565b600154610a3e906001600160a01b031661046e565b90813b156103ef575f6040518093638b44deb160e01b8252818381610a683388306004850161206a565b03925af1918215610542575f92610ab9575b506040513381526001600160a01b03909116907fa16c0f2cab616ed5d17cd544655b00d7062a1df7c457960cc8b9bf60770f923690806020810161078d565b80610ac784610acd93611084565b80610547565b5f610a7a565b60609060031901126103ef576004356001600160a01b03811681036103ef57906024356001600160a01b03811681036103ef579060443590565b346103ef575f610b665f80516020612d06833981519152610b2d36610ad3565b9291939033865285602052610b4860016040882054146120b3565b6040516001600160a01b039182169590911693909182913383612098565b0390a4005b346103ef5760206107b0610b7e36610409565b91612251565b346103ef575f3660031901126103ef5760206107b06122f8565b346103ef575f3660031901126103ef576040517f00000000000000000000000000000000000000000000000000000000000000006001600160a01b03168152602090f35b346103ef575f3660031901126103ef57602060405167ffffffffffffffff7f0000000000000000000000000000000000000000000000000000000000000000168152f35b346103ef5760203660031901126103ef5760206107b0610c446103d9565b6123db565b346103ef575f3660031901126103ef576001546040516001600160a01b039091168152602090f35b346103ef5760403660031901126103ef575f610c8b6103d9565b7fe60d0cd4e01ab7d1e0cf1917bddb6779ca8db0fb23138e3b7a4bab6a727b9661602060243592338552848252610cc860016040872054146120b3565b6040519384526001600160a01b031692a3005b346103ef575f3660031901126103ef576001546040516308332b4560e11b815230600482015290602090829060249082906001600160a01b03165afa8015610542575f90610d3b575b60405167ffffffffffffffff919091168152602090f35b506020813d602011610d78575b81610d5560209383611084565b810103126103ef575167ffffffffffffffff811681036103ef5761050d90610d24565b3d9150610d48565b346103ef5760403660031901126103ef57610d996103d9565b602435610da581610807565b6001600160a01b03821691610de79082906108e190610dc633871415612153565b335f52600360205260405f209060018060a01b03165f5260205260405f2090565b60405190151581525f80516020612ce683398151915260203392a360405160018152602090f35b346103ef575f80610e60610e6e82610e2536610ad3565b94919493909333845283602052610e4260016040862054146120b3565b604051928391602083019663a9059cbb60e01b885260248401612098565b03601f198101835282611084565b51925af1610e7a612a51565b81610ed9575b5015610e8857005b60405162461bcd60e51b8152602060048201526024808201527f536166655472616e736665724c69622f736166652d7472616e736665722d66616044820152631a5b195960e21b6064820152608490fd5b8051801592508215610eee575b50505f610e80565b610f0192506020809183010191016121b0565b5f80610ee6565b346103ef5760203660031901126103ef57610f216103d9565b335f525f602052610f38600160405f2054146120b3565b6001600160a01b03165f818152602081905260408120600190557fdd0e34038ac38b2a1ce960229778ac48a8719bc900b6c4f8d0475c6e8b385a609080a2005b346103ef57610f8636610409565b909150610f92816129ce565b600154610fa7906001600160a01b031661046e565b91602060405180946339517e6560e11b8252815f81610fcb8888306004850161206a565b03925af19081156105425761050d935f92611027575b5060405191925f926001600160a01b0391821692909116907f295a9a8b44c0ac92394b0da92ef469784ff064156f08dab8316760c064c6cd2f90806104fa873383612098565b5f92506110429060203d60201161053b5761052d8183611084565b91610fe1565b346103ef5760403660031901126103ef5760206107b06004356110696103f3565b3391612251565b634e487b7160e01b5f52604160045260245ffd5b90601f8019910116810190811067ffffffffffffffff8211176110a657604052565b611070565b67ffffffffffffffff81116110a657601f01601f191660200190565b346103ef5760c03660031901126103ef576110e06103d9565b6110e86103f3565b90604435906110f682610807565b6064356084359060a4359367ffffffffffffffff85116103ef57366023860112156103ef5784600401359561112a876110ab565b946111386040519687611084565b87865236602489890101116103ef575f60208961050d9a60246111639b01838b0137880101526124ee565b60405190151581529081906020820190565b346103ef5760203660031901126103ef5761118e6103d9565b604051630fa1e71360e41b81525f600482018190526001600160a01b039283166024830152604482015290602090829060649082907f0000000000000000000000000000000000000000000000000000000000000000165afa80156105425761050d915f9161120a575060405190151581529081906020820190565b611223915060203d60201161093d5761092f8183611084565b5f61065f565b346103ef5760403660031901126103ef5761126e60206112476103f3565b60018060a01b0360015416604051808095819463010476c960e71b8352306004840161220d565b03915afa80156105425761050d915f9161120a575060405190151581529081906020820190565b346103ef576112a336610409565b6040516370a0823160e01b81526001600160a01b0382811660048301529193917f00000000000000000000000000000000000000000000000000000000000000001690602081602481855afa9081156105425761130b9184915f9161153e575b5010156126a0565b6001600160a01b0384165f9081526003602090815260408083203384529091529020611339905b5460ff1690565b1561153857835b600154611355906001600160a01b031661046e565b602060405180926321d26ff560e21b8252815f8161137a888d8d8d30600487016126f6565b03925af1801561054257611395915f91611519575b50612729565b604051630fa1e71360e41b81527f00000000000000000000000000000000000000000000000000000000000000009190602081806113d888878c60048501612780565b0381875afa80156105425783926113fa89926020945f916114fc575b506127a2565b60405163887ca24960e01b81526001600160a01b039182166004820152918116602483015292909216604483015260648201859052816084815f875af190816114df575b506114c55782611469926020925f6040518096819582946323b872dd60e01b84528c60048501612780565b03925af18015610542575f94610b48611498925f80516020612d068339815191529488916114a6575b506127ed565b0390a46040515f8152602090f35b6114bf915060203d60201161093d5761092f8183611084565b5f611492565b50505f80516020612d068339815191526114985f94610b48565b6114f79060203d60201161093d5761092f8183611084565b61143e565b6115139150853d871161093d5761092f8183611084565b5f6113f4565b611532915060203d60201161093d5761092f8183611084565b5f61138f565b33611340565b611557915060203d60201161053b5761052d8183611084565b5f611303565b346103ef5760403660031901126103ef575f6115776103d9565b7f0ede66e1b0b7bef549c7d3a5c885444b371535620c089dc7b92ddf8550edaa19602060243592338552848252610cc860016040872054146120b3565b346103ef576115c236610409565b90916001600160a01b038216913383148015611734575b6115e290612843565b6040516370a0823160e01b81526001600160a01b03821660048201527f00000000000000000000000000000000000000000000000000000000000000009190602081806024810103816001600160a01b0387165afa908115610542576116529185915f9161153e575010156126a0565b600154611667906001600160a01b031661046e565b9460206040518097620bcc0d60e41b8252815f8161168c3389898d30600487016126f6565b03925af195861561054257847fbb58420bb8ce44e11b84e214cc0de10ce5e7c24d0355b2815c3d758b514cae7294611498946116d45f9a6116fb958c91611715575b5061288f565b7f000000000000000000000000000000000000000000000000000000000000000091612c1b565b6040516001600160a01b0390911693909182913383612098565b61172e915060203d60201161093d5761092f8183611084565b5f6116ce565b506115e2611759611332336108cc8560018060a01b03165f52600360205260405f2090565b90506115d9565b346103ef5760403660031901126103ef5760206107b06004356117816103f3565b3391612914565b346103ef575f3660031901126103ef5760ff7f000000000000000000000000000000000000000000000000000000000000000016604d81116117d2576107b0602091600a0a6120f5565b634e487b7160e01b5f52601160045260245ffd5b346103ef5760403660031901126103ef5760206107b0610c446103f3565b346103ef5760203660031901126103ef5761181d6103d9565b335f525f602052611834600160405f2054146120b3565b6001600160a01b03165f8181526020819052604081208190557f184450df2e323acec0ed3b5c7531b81f9b4cdef7914dfd4c0a4317416bb5251b9080a2005b346103ef575f7fad23d6d908f14df9b90c8c580954f8a95c4a6e3261e49af08db21e6aaadcd128610754366106fa565b346103ef575f3660031901126103ef576040517f00000000000000000000000000000000000000000000000000000000000000006001600160a01b03168152602090f35b346103ef5760403660031901126103ef576109c260206119056103f3565b60018060a01b03600154166040518080958194631495d74f60e01b8352306004840161220d565b346103ef5760403660031901126103ef576109c2602061194a6103f3565b60018060a01b036001541660405180809581946308a44dc760e21b8352306004840161220d565b346103ef5761197f36610409565b919061198a836129ce565b60015461199f906001600160a01b031661046e565b9260206040518095636fe6a09760e11b8252815f816119c487898b3060048601612227565b03925af19283156105425761050d945f94611a26575b5060408051918252602082018590526001600160a01b03928316939092169133917ffbde797d201c681b91056529119e0b02407c7bb96a4a2c75c01fc9667232c8db91819081016104fa565b611a4091945060203d60201161053b5761052d8183611084565b925f6119da565b346103ef5760403660031901126103ef57602060ff611a97611a676103d9565b611a6f6103f3565b6001600160a01b039182165f9081526003865260408082209290931681526020919091522090565b54166040519015158152f35b346103ef575f3660031901126103ef576040517f00000000000000000000000000000000000000000000000000000000000000006001600160801b0319168152602090f35b346103ef5760403660031901126103ef57611b016103f3565b611b0a816129ce565b600154611b1f906001600160a01b031661046e565b90813b156103ef575f604051809363230096f760e21b8252818381611b493388306004850161206a565b03925af1918215610542575f92611b9a575b506040513381526001600160a01b03909116907f4ae0134aad5d0e98e82f45680facd628ee6b5aa85ad9a85248a7ef47319f8c5090806020810161078d565b80610ac784611ba893611084565b5f611b5b565b346103ef57611bbc36610409565b9190611bc7836129ce565b600154611bdc906001600160a01b031661046e565b926020604051809563fea53be160e01b8252815f81611c0187898b3060048601612227565b03925af19283156105425761050d945f94611c64575b506040805185815260208101929092526001600160a01b03928316939092169133917ffbde797d201c681b91056529119e0b02407c7bb96a4a2c75c01fc9667232c8db91819081016104fa565b611c7e91945060203d60201161053b5761052d8183611084565b925f611c17565b346103ef5760203660031901126103ef576001600160a01b03611ca66103d9565b165f525f602052602060405f2054604051908152f35b346103ef5760203660031901126103ef576109c26020611cda6103d9565b60018060a01b0360015416604051808095819463f2e586db60e01b8352306004840161220d565b346103ef5760203660031901126103ef57600154604051633e5541f160e01b81529060209082906001600160a01b031681806109c2600480359030908401612098565b346103ef575f3660031901126103ef5760206040517f00000000000000000000000000000000000000000000000000000000000000008152f35b346103ef5760403660031901126103ef57611d976103d9565b6024359060018060a01b03165f52600260205260405f20905f52602052602060ff60405f2054166040519015158152f35b346103ef5760203660031901126103ef576109c26020611de66103d9565b60018060a01b036001541660405180809581946308c22e9b60e41b8352306004840161220d565b346103ef5760403660031901126103ef57600435611e296103f3565b335f525f602052611e40600160405f2054146120b3565b6636b0b730b3b2b960c91b8203611e9e57600180546001600160a01b0319166001600160a01b039290921691821790556040519081527f8fef588b5fc1afbf5b2f06c1a435d513f208da2e6704c3d8f0e0ec91167066ba90602090a2005b60405162461bcd60e51b8152602060048201526024808201527f455243373534305661756c742f66696c652d756e7265636f676e697a65642d706044820152636172616d60e01b6064820152608490fd5b346103ef5760203660031901126103ef5760206107b0611f0d6103d9565b6128e7565b346103ef5760206107b0611f2536610409565b91612914565b346103ef575f3660031901126103ef576040517f00000000000000000000000000000000000000000000000000000000000000006001600160a01b03168152602090f35b346103ef5760403660031901126103ef5760206107b0611f0d6103f3565b346103ef575f3660031901126103ef576040517f00000000000000000000000000000000000000000000000000000000000000006001600160a01b03168152602090f35b346103ef5760403660031901126103ef5761126e6020611fef6103f3565b60018060a01b03600154166040518080958194631b5fa0df60e21b8352306004840161220d565b346103ef5760403660031901126103ef576109c260206120346103f3565b60018060a01b03600154166040518080958194638ae5ecff60e01b8352306004840161220d565b908160209103126103ef575190565b6001600160a01b0391821681529181166020830152909116604082015260600190565b6040513d5f823e3d90fd5b6001600160a01b039091168152602081019190915260400190565b156120ba57565b60405162461bcd60e51b8152602060048201526013602482015272105d5d1a0bdb9bdd0b585d5d1a1bdc9a5e9959606a1b6044820152606490fd5b60206121229160018060a01b036001541660405180809581946350603df360e01b83523060048401612098565b03915afa908115610542575f91612137575090565b612150915060203d60201161053b5761052d8183611084565b90565b1561215a57565b60405162461bcd60e51b815260206004820152602860248201527f455243373534305661756c742f63616e6e6f742d7365742d73656c662d61732d60448201526737b832b930ba37b960c11b6064820152608490fd5b908160209103126103ef575161215081610807565b156121cc57565b60405162461bcd60e51b8152602060048201526019602482015278115490cdcd4d0c15985d5b1d0bdb9bdd0b595b991bdc9cd959603a1b6044820152606490fd5b6001600160a01b0391821681529116602082015260400190565b6001600160a01b039182168152602081019290925291821660408201529116606082015260800190565b92919261225d846129ce565b60015460405163c6f1649f60e01b81529060209082906001600160a01b0316815f8161228f8b8a8a3060048601612227565b03925af18015610542575f80516020612d26833981519152915f916122d9575b50604080519384526020840182905290956001600160a01b0390811694169290819081015b0390a3565b6122f2915060203d60201161053b5761052d8183611084565b5f6122af565b467f000000000000000000000000000000000000000000000000000000000000000003612343577f000000000000000000000000000000000000000000000000000000000000000090565b60405160208101907f8b73c3c69bb8fe3d512ecc4cf759cc79239f7b179b0ffacaa9a75d522b39400f82527f000000000000000000000000000000000000000000000000000000000000000060408201527f000000000000000000000000000000000000000000000000000000000000000060608201524660808201523060a082015260a081526123d560c082611084565b51902090565b60206121229160018060a01b03600154166040518080958194630760168760e41b8352306004840161220d565b1561240f57565b60405162461bcd60e51b8152602060048201526014602482015273115490cdcd4d0c15985d5b1d0bd95e1c1a5c995960621b6044820152606490fd5b1561245257565b60405162461bcd60e51b815260206004820152601f60248201527f455243373534305661756c742f617574686f72697a6174696f6e2d75736564006044820152606490fd5b1561249e57565b60405162461bcd60e51b815260206004820152602260248201527f455243373534305661756c742f696e76616c69642d617574686f72697a61746960448201526137b760f11b6064820152608490fd5b6001600160a01b0382811696908216959394859461250e888a1415612153565b8042111561251b90612408565b6001600160a01b0384165f90815260026020526040902082905f918252602052604090205460ff161561254d9061244b565b6001600160a01b0384165f90815260026020526040902082905f91825260205260409020805460ff191660011790556125846122f8565b604080517fa3efcf8cb518126a85cdfd1c1102ee539e0700189f80926e1ac37144450473fa602082019081526001600160a01b03888116938301939093529188166060820152881515608082015260a081019490945260c080850193909352918352916125f260e082611084565b51902060405161190160f01b602082019081526022820193909352604280820192909252908152612624606282611084565b519020906126329183612b13565b61263b90612497565b6001600160a01b03165f9081526003602052604090206001600160a01b039091165f9081526020919091526040902090612680919060ff801983541691151516179055565b60405190151581525f80516020612ce683398151915290602090a3600190565b156126a757565b60405162461bcd60e51b815260206004820152602160248201527f455243373534305661756c742f696e73756666696369656e742d62616c616e636044820152606560f81b6064820152608490fd5b6001600160a01b039182168152602081019290925291821660408201529181166060830152909116608082015260a00190565b1561273057565b60405162461bcd60e51b815260206004820152602260248201527f455243373534305661756c742f726571756573742d72656465656d2d6661696c604482015261195960f21b6064820152608490fd5b6001600160a01b03918216815291166020820152604081019190915260600190565b156127a957565b606460405162461bcd60e51b815260206004820152602060248201527f455243373534305661756c742f7265737472696374696f6e732d6661696c65646044820152fd5b156127f457565b60405162461bcd60e51b815260206004820152602160248201527f455243373534305661756c742f7472616e736665722d66726f6d2d6661696c656044820152601960fa1b6064820152608490fd5b1561284a57565b60405162461bcd60e51b815260206004820152601a60248201527f455243373534305661756c742f696e76616c69642d6f776e65720000000000006044820152606490fd5b1561289657565b60405162461bcd60e51b815260206004820152602360248201527f455243373534305661756c742f726571756573742d6465706f7369742d6661696044820152621b195960ea1b6064820152608490fd5b60206121229160018060a01b036001541660405180809581946395b734fb60e01b8352306004840161220d565b929192612920846129ce565b600154604051633a4d2cd160e01b8152919060209083906001600160a01b0316815f816129538b8a893060048601612227565b03925af1918215610542575f9261299e575b5060408051838152602081019290925291946001600160a01b039081169316915f80516020612d268339815191529190819081016122d4565b5f80516020612d268339815191529192506129c79060203d60201161053b5761052d8183611084565b9190612965565b60018060a01b0316338114908115612a2e575b50156129e957565b60405162461bcd60e51b815260206004820152601f60248201527f455243373534305661756c742f696e76616c69642d636f6e74726f6c6c6572006044820152606490fd5b5f90815260036020908152604080832033845290915281205460ff1691506129e1565b3d15612a7b573d90612a62826110ab565b91612a706040519384611084565b82523d5f602084013e565b606090565b15612a8757565b60405162461bcd60e51b815260206004820152601b60248201527f5369676e61747572654c69622f696e76616c69642d7369676e657200000000006044820152606490fd5b9060609260209183526040828401528051918291826040860152018484015e5f828201840152601f01601f1916010190565b908160209103126103ef5751612150816105e1565b5f93929091906001600160a01b038316612b2e811515612a80565b6041825114612bc4575b50823b612b4457505050565b5f93945090610e60612b708594936040519283916020830195630b135d3f60e11b875260248401612acc565b51915afa612b7c612a51565b81612bb8575b81612b8b575090565b8051630b135d3f60e11b92506001600160e01b031991612bb391810160209081019101612afe565b161490565b80516020149150612b82565b60208281015160408085015160608087015183518981525f91821a818801529384019490945282015281805260809060015afa15610542575f516001600160a01b031614612c12575f612b38565b50600193505050565b905f8094612c458295610e6060405193849260208401976323b872dd60e01b895260248501612780565b51925af1612c51612a51565b81612cb6575b5015612c5f57565b60405162461bcd60e51b815260206004820152602960248201527f536166655472616e736665724c69622f736166652d7472616e736665722d66726044820152681bdb4b59985a5b195960ba1b6064820152608490fd5b8051801592508215612ccb575b50505f612c57565b612cde92506020809183010191016121b0565b5f80612cc356feceb576d9f15e4e200fdb5096d64d5dfd667e16def20c1eefd14256d8e3faa2671fdc681a13d8c5da54e301c7ce6542dcde4581e4725043fdab2db12ddc574506dcbc1c05240f31ff3ad067ef1ee35ce4997762752e3a095284754544f4c709d7a2646970667358221220f6a3a6275f2a1c9dc5d637fb87c3e7bc0fd5aa4b1655ceefce9991cb842b260564736f6c634300081a0033","linkReferences":{}},"methodIdentifiers":{"AUTHORIZE_OPERATOR_TYPEHASH()":"0d62c332","DOMAIN_SEPARATOR()":"3644e515","asset()":"38d52e0f","authorizations(address,bytes32)":"cdf5bba3","authorizeOperator(address,address,bool,bytes32,uint256,bytes)":"711b58ff","cancelDepositRequest(uint256,address)":"b9cf0634","cancelRedeemRequest(uint256,address)":"2b9d9c1f","claimCancelDepositRequest(uint256,address,address)":"69d77a44","claimCancelRedeemRequest(uint256,address,address)":"00a06d19","claimableCancelDepositRequest(uint256,address)":"aabb5922","claimableCancelRedeemRequest(uint256,address)":"b04a5e05","claimableDepositRequest(uint256,address)":"995ea21a","claimableRedeemRequest(uint256,address)":"eaed1d07","convertToAssets(uint256)":"07a2d13a","convertToShares(uint256)":"c6e6f592","deny(address)":"9c52a7f1","deploymentChainId()":"cd0d0096","deposit(uint256,address)":"6e553f65","deposit(uint256,address,address)":"2e2d2984","escrow()":"e2fdcc17","file(bytes32,address)":"d4e8be83","invalidateNonce(bytes32)":"234f0e3b","isOperator(address,address)":"b6363cf2","isPermissioned(address)":"78d77ecb","manager()":"481c6a75","maxDeposit(address)":"402d267d","maxMint(address)":"c63d75b6","maxRedeem(address)":"d905777e","maxWithdraw(address)":"ce96cb77","mint(uint256,address)":"94bf804d","mint(uint256,address,address)":"da39b3e7","onCancelDepositClaimable(address,uint256)":"4b5fd666","onCancelRedeemClaimable(address,uint256)":"84ce2bf7","onDepositClaimable(address,uint256,uint256)":"a21ec79f","onRedeemClaimable(address,uint256,uint256)":"0263704b","onRedeemRequest(address,address,uint256)":"2cdfbae5","pendingCancelDepositRequest(uint256,address)":"f15b65b1","pendingCancelRedeemRequest(uint256,address)":"7c1b50c4","pendingDepositRequest(uint256,address)":"26c6f96c","pendingRedeemRequest(uint256,address)":"f5a23d8d","poolId()":"3e0dc34e","previewDeposit(uint256)":"ef8b30f7","previewMint(uint256)":"b3d7f6b9","previewRedeem(uint256)":"4cdad506","previewWithdraw(uint256)":"0a28a477","priceLastUpdated()":"52aaead8","pricePerShare()":"99530b06","recoverTokens(address,address,uint256)":"5f3e849f","redeem(uint256,address,address)":"ba087652","rely(address)":"65fae35e","requestDeposit(uint256,address,address)":"85b77f45","requestRedeem(uint256,address,address)":"7d41c86e","root()":"ebf0c717","setEndorsedOperator(address,bool)":"21f075ee","setOperator(address,bool)":"558a7297","share()":"a8d5fd65","supportsInterface(bytes4)":"01ffc9a7","totalAssets()":"01e1d114","trancheId()":"b7adb4c5","wards(address)":"bf353dbb","withdraw(uint256,address,address)":"b460af94"},"id":2}