{"abi":[{"type":"constructor","inputs":[{"name":"messageCost_","type":"uint64","internalType":"uint64"},{"name":"proofCost_","type":"uint64","internalType":"uint64"},{"name":"gasPrice_","type":"uint128","internalType":"uint128"},{"name":"tokenPrice_","type":"uint256","internalType":"uint256"}],"stateMutability":"nonpayable"},{"type":"function","name":"deny","inputs":[{"name":"user","type":"address","internalType":"address"}],"outputs":[],"stateMutability":"nonpayable"},{"type":"function","name":"estimate","inputs":[{"name":"payload","type":"bytes","internalType":"bytes"}],"outputs":[{"name":"","type":"uint256","internalType":"uint256"}],"stateMutability":"view"},{"type":"function","name":"file","inputs":[{"name":"what","type":"bytes32","internalType":"bytes32"},{"name":"value","type":"uint64","internalType":"uint64"}],"outputs":[],"stateMutability":"nonpayable"},{"type":"function","name":"gasPrice","inputs":[],"outputs":[{"name":"","type":"uint128","internalType":"uint128"}],"stateMutability":"view"},{"type":"function","name":"handle","inputs":[{"name":"message","type":"bytes","internalType":"bytes"}],"outputs":[],"stateMutability":"nonpayable"},{"type":"function","name":"lastUpdatedAt","inputs":[],"outputs":[{"name":"","type":"uint64","internalType":"uint64"}],"stateMutability":"view"},{"type":"function","name":"messageCost","inputs":[],"outputs":[{"name":"","type":"uint64","internalType":"uint64"}],"stateMutability":"view"},{"type":"function","name":"proofCost","inputs":[],"outputs":[{"name":"","type":"uint64","internalType":"uint64"}],"stateMutability":"view"},{"type":"function","name":"rely","inputs":[{"name":"user","type":"address","internalType":"address"}],"outputs":[],"stateMutability":"nonpayable"},{"type":"function","name":"shouldRefuel","inputs":[{"name":"","type":"address","internalType":"address"},{"name":"","type":"bytes","internalType":"bytes"}],"outputs":[{"name":"success","type":"bool","internalType":"bool"}],"stateMutability":"pure"},{"type":"function","name":"tokenPrice","inputs":[],"outputs":[{"name":"","type":"uint256","internalType":"uint256"}],"stateMutability":"view"},{"type":"function","name":"updateGasPrice","inputs":[{"name":"value","type":"uint128","internalType":"uint128"},{"name":"computedAt","type":"uint64","internalType":"uint64"}],"outputs":[],"stateMutability":"nonpayable"},{"type":"function","name":"updateTokenPrice","inputs":[{"name":"value","type":"uint256","internalType":"uint256"}],"outputs":[],"stateMutability":"nonpayable"},{"type":"function","name":"wards","inputs":[{"name":"","type":"address","internalType":"address"}],"outputs":[{"name":"","type":"uint256","internalType":"uint256"}],"stateMutability":"view"},{"type":"event","name":"Deny","inputs":[{"name":"user","type":"address","indexed":true,"internalType":"address"}],"anonymous":false},{"type":"event","name":"File","inputs":[{"name":"what","type":"bytes32","indexed":true,"internalType":"bytes32"},{"name":"value","type":"uint64","indexed":false,"internalType":"uint64"}],"anonymous":false},{"type":"event","name":"Rely","inputs":[{"name":"user","type":"address","indexed":true,"internalType":"address"}],"anonymous":false},{"type":"event","name":"UpdateGasPrice","inputs":[{"name":"value","type":"uint128","indexed":false,"internalType":"uint128"},{"name":"computedAt","type":"uint256","indexed":false,"internalType":"uint256"}],"anonymous":false},{"type":"event","name":"UpdateTokenPrice","inputs":[{"name":"value","type":"uint256","indexed":false,"internalType":"uint256"}],"anonymous":false}],"bytecode":{"object":"0x60803461011057601f610de838819003918201601f19168301916001600160401b03831184841017610114578084926080946040528339810103126101105761004781610128565b61005360208301610128565b6040830151929091906001600160801b0384168403610110576060015191335f525f602052600160405f205560405193337fdd0e34038ac38b2a1ce960229778ac48a8719bc900b6c4f8d0475c6e8b385a605f80a26001600160401b0391821660409390931b6fffffffffffffffff0000000000000000169290921760809290921b6001600160801b03191691909117600155600391909155600280546001600160401b03191642909216919091179055610cab908161013d8239f35b5f80fd5b634e487b7160e01b5f52604160045260245ffd5b51906001600160401b03821682036101105756fe60806040526004361015610011575f80fd5b5f3560e01c806309eab351146100f45780631293092e146100ef5780631d0ca2e6146100ea5780633309fd68146100e5578063492fac91146100e057806354aea127146100db57806365fae35e146100d6578063676c0d77146100d15780637ff9b596146100cc5780639c52a7f1146100c7578063bf353dbb146100c2578063bf48bcb6146100bd578063e766cc12146100b85763fe173b97146100b3575f80fd5b610810565b61075a565b610693565b61062e565b6105bf565b6105a2565b610548565b6104d8565b6104b2565b61046c565b610403565b6102a1565b610278565b610113565b602435906001600160401b038216820361010f57565b5f80fd5b3461010f57604036600319011261010f576004356001600160801b0381169081810361010f576101416100f9565b90335f525f602052610159600160405f205414610830565b8215610233576101a67f10ce9b06a6a645c5d87d4e58ab08bcbe9455297f8df1ab3c030fb1cfb1eb3fc49361019f61019360015460801c90565b6001600160801b031690565b1415610949565b6101ce6101bb6002546001600160401b031690565b6001600160401b03808516911610610995565b600180546001600160801b0316608083901b6001600160801b03191617905561020d826001600160401b03166001600160401b03196002541617600255565b604080516001600160801b039290921682526001600160401b03929092166020820152a1005b60405162461bcd60e51b815260206004820152601f60248201527f476173536572766963652f70726963652d63616e6e6f742d62652d7a65726f006044820152606490fd5b3461010f575f36600319011261010f5760206001600160401b0360015460401c16604051908152f35b3461010f57604036600319011261010f576004356102bd6100f9565b335f525f6020526102d4600160405f205414610830565b6a1b595cdcd859d950dbdcdd60aa1b8203610356576001805467ffffffffffffffff60401b1916604083901b67ffffffffffffffff60401b161790557f10fbf5311f0b0b99de084cdac4114a3d88c3bc7cf3ae525e61217ad1a97bca3090610351905b6040516001600160401b0390911681529081906020820190565b0390a2005b681c1c9bdbd990dbdcdd60ba1b82036103b357610351816103ae7f10fbf5311f0b0b99de084cdac4114a3d88c3bc7cf3ae525e61217ad1a97bca30936001600160401b03166001600160401b03196001541617600155565b610337565b60405162461bcd60e51b815260206004820152602260248201527f476173536572766963652f66696c652d756e7265636f676e697a65642d706172604482015261616d60f01b6064820152608490fd5b3461010f575f36600319011261010f5760206001600160401b0360015416604051908152f35b600435906001600160a01b038216820361010f57565b9181601f8401121561010f578235916001600160401b03831161010f576020838186019501011161010f57565b3461010f57604036600319011261010f57610485610429565b506024356001600160401b03811161010f576104a590369060040161043f565b5050602060405160018152f35b3461010f575f36600319011261010f5760206001600160401b0360025416604051908152f35b3461010f57602036600319011261010f576104f1610429565b335f525f602052610508600160405f205414610830565b6001600160a01b03165f818152602081905260408120600190557fdd0e34038ac38b2a1ce960229778ac48a8719bc900b6c4f8d0475c6e8b385a609080a2005b3461010f57602036600319011261010f577f8ef650d2de4208447ddb5de6a4d2bd95d7d04c957df933ff2548882ea2025a386020600435335f525f8252610595600160405f205414610830565b80600355604051908152a1005b3461010f575f36600319011261010f576020600354604051908152f35b3461010f57602036600319011261010f576105d8610429565b335f525f6020526105ef600160405f205414610830565b6001600160a01b03165f8181526020819052604081208190557f184450df2e323acec0ed3b5c7531b81f9b4cdef7914dfd4c0a4317416bb5251b9080a2005b3461010f57602036600319011261010f576001600160a01b0361064f610429565b165f525f602052602060405f2054604051908152f35b602060031982011261010f57600435906001600160401b03821161010f5761068f9160040161043f565b9091565b3461010f576106a136610665565b335f525f6020526106b8600160405f205414610830565b60ff6106cd6106c83684866109f1565b610af9565b16601d811015610755576008036107105761070861070361070e936106fb6106f63686846109f1565b610a60565b9336916109f1565b610aad565b90610872565b005b60405162461bcd60e51b815260206004820152601a60248201527f476173536572766963652f696e76616c69642d6d6573736167650000000000006044820152606490fd5b610a4c565b3461010f57600160ff6107796106c861077236610665565b36916109f1565b16036107dc576107d86107c86107bf6001546107aa61079e826001600160401b031690565b6001600160401b031690565b906001600160801b039060801c5b1690610b44565b60035490610b44565b6040519081529081906020820190565b0390f35b6001546107d8906107c89061080b90604081901c6001600160401b0316906001600160801b039060801c6107b8565b6107bf565b3461010f575f36600319011261010f57602060015460801c604051908152f35b1561083757565b60405162461bcd60e51b8152602060048201526013602482015272105d5d1a0bdb9bdd0b585d5d1a1bdc9a5e9959606a1b6044820152606490fd5b90335f525f60205261088a600160405f205414610830565b6001600160801b038216918215610233576108cf7f10ce9b06a6a645c5d87d4e58ab08bcbe9455297f8df1ab3c030fb1cfb1eb3fc49361019f61019360015460801c90565b6108e46101bb6002546001600160401b031690565b600180546001600160801b0316608083901b6001600160801b031916179055610923826001600160401b03166001600160401b03196002541617600255565b604080516001600160801b039290921682526001600160401b03929092166020820152a1565b1561095057565b60405162461bcd60e51b815260206004820152601c60248201527f476173536572766963652f616c72656164792d7365742d7072696365000000006044820152606490fd5b1561099c57565b60405162461bcd60e51b8152602060048201526019602482015278476173536572766963652f6f757464617465642d707269636560381b6044820152606490fd5b634e487b7160e01b5f52604160045260245ffd5b9291926001600160401b038211610a475760405191601f8101601f19908116603f011683016001600160401b03811184821017610a475760405282948184528183011161010f578281602093845f960137010152565b6109dd565b634e487b7160e01b5f52602160045260245ffd5b6011815110610a70576011015190565b60405162461bcd60e51b8152602060048201526015602482015274746f55696e743132385f6f75744f66426f756e647360581b6044820152606490fd5b6019815110610abd576019015190565b60405162461bcd60e51b8152602060048201526014602482015273746f55696e7436345f6f75744f66426f756e647360601b6044820152606490fd5b6001815110610b09576001015190565b60405162461bcd60e51b8152602060048201526013602482015272746f55696e74385f6f75744f66426f756e647360681b6044820152606490fd5b90670de0b6b3a764000090610b5a828285610be7565b9209610b635790565b60018101809111610b715790565b634e487b7160e01b5f52601160045260245ffd5b8115610b8f570490565b634e487b7160e01b5f52601260045260245ffd5b15610baa57565b60405162461bcd60e51b81526020600482015260156024820152744d6174683a206d756c446976206f766572666c6f7760581b6044820152606490fd5b90915f198383099280830292838086109503948086039514610c6557908291610c11868411610ba3565b09600182190182168092046002816003021880820260020302808202600203028082026002030280820260020302808202600203028091026002030293600183805f03040190848311900302920304170290565b505090610c729250610b85565b9056fea2646970667358221220f72b535016a4a2587286004b3ff37fa64df5945f51030a4a390eb905072072a764736f6c634300081a0033","linkReferences":{}},"methodIdentifiers":{"deny(address)":"9c52a7f1","estimate(bytes)":"e766cc12","file(bytes32,uint64)":"1d0ca2e6","gasPrice()":"fe173b97","handle(bytes)":"bf48bcb6","lastUpdatedAt()":"54aea127","messageCost()":"1293092e","proofCost()":"3309fd68","rely(address)":"65fae35e","shouldRefuel(address,bytes)":"492fac91","tokenPrice()":"7ff9b596","updateGasPrice(uint128,uint64)":"09eab351","updateTokenPrice(uint256)":"676c0d77","wards(address)":"bf353dbb"},"id":12}