{"abi":[{"type":"constructor","inputs":[{"name":"escrow_","type":"address","internalType":"address"},{"name":"vaultFactory_","type":"address","internalType":"address"},{"name":"trancheFactory_","type":"address","internalType":"address"}],"stateMutability":"nonpayable"},{"type":"function","name":"addAsset","inputs":[{"name":"assetId","type":"uint128","internalType":"uint128"},{"name":"asset","type":"address","internalType":"address"}],"outputs":[],"stateMutability":"nonpayable"},{"type":"function","name":"addPool","inputs":[{"name":"poolId","type":"uint64","internalType":"uint64"}],"outputs":[],"stateMutability":"nonpayable"},{"type":"function","name":"addTranche","inputs":[{"name":"poolId","type":"uint64","internalType":"uint64"},{"name":"trancheId","type":"bytes16","internalType":"bytes16"},{"name":"name","type":"string","internalType":"string"},{"name":"symbol","type":"string","internalType":"string"},{"name":"decimals","type":"uint8","internalType":"uint8"},{"name":"hook","type":"address","internalType":"address"}],"outputs":[],"stateMutability":"nonpayable"},{"type":"function","name":"allowAsset","inputs":[{"name":"poolId","type":"uint64","internalType":"uint64"},{"name":"assetId","type":"uint128","internalType":"uint128"}],"outputs":[],"stateMutability":"nonpayable"},{"type":"function","name":"assetToId","inputs":[{"name":"","type":"address","internalType":"address"}],"outputs":[{"name":"assetId","type":"uint128","internalType":"uint128"}],"stateMutability":"view"},{"type":"function","name":"canTrancheBeDeployed","inputs":[{"name":"poolId","type":"uint64","internalType":"uint64"},{"name":"trancheId","type":"bytes16","internalType":"bytes16"}],"outputs":[{"name":"","type":"bool","internalType":"bool"}],"stateMutability":"view"},{"type":"function","name":"deny","inputs":[{"name":"user","type":"address","internalType":"address"}],"outputs":[],"stateMutability":"nonpayable"},{"type":"function","name":"deployTranche","inputs":[{"name":"poolId","type":"uint64","internalType":"uint64"},{"name":"trancheId","type":"bytes16","internalType":"bytes16"}],"outputs":[{"name":"","type":"address","internalType":"address"}],"stateMutability":"nonpayable"},{"type":"function","name":"deployVault","inputs":[{"name":"poolId","type":"uint64","internalType":"uint64"},{"name":"trancheId","type":"bytes16","internalType":"bytes16"},{"name":"asset","type":"address","internalType":"address"}],"outputs":[{"name":"","type":"address","internalType":"address"}],"stateMutability":"nonpayable"},{"type":"function","name":"disallowAsset","inputs":[{"name":"poolId","type":"uint64","internalType":"uint64"},{"name":"assetId","type":"uint128","internalType":"uint128"}],"outputs":[],"stateMutability":"nonpayable"},{"type":"function","name":"escrow","inputs":[],"outputs":[{"name":"","type":"address","internalType":"contract IEscrow"}],"stateMutability":"view"},{"type":"function","name":"file","inputs":[{"name":"what","type":"bytes32","internalType":"bytes32"},{"name":"data","type":"address","internalType":"address"}],"outputs":[],"stateMutability":"nonpayable"},{"type":"function","name":"gasService","inputs":[],"outputs":[{"name":"","type":"address","internalType":"contract IGasService"}],"stateMutability":"view"},{"type":"function","name":"gateway","inputs":[],"outputs":[{"name":"","type":"address","internalType":"contract IGateway"}],"stateMutability":"view"},{"type":"function","name":"getTranche","inputs":[{"name":"poolId","type":"uint64","internalType":"uint64"},{"name":"trancheId","type":"bytes16","internalType":"bytes16"}],"outputs":[{"name":"","type":"address","internalType":"address"}],"stateMutability":"view"},{"type":"function","name":"getTranchePrice","inputs":[{"name":"poolId","type":"uint64","internalType":"uint64"},{"name":"trancheId","type":"bytes16","internalType":"bytes16"},{"name":"asset","type":"address","internalType":"address"}],"outputs":[{"name":"price","type":"uint128","internalType":"uint128"},{"name":"computedAt","type":"uint64","internalType":"uint64"}],"stateMutability":"view"},{"type":"function","name":"getVault","inputs":[{"name":"poolId","type":"uint64","internalType":"uint64"},{"name":"trancheId","type":"bytes16","internalType":"bytes16"},{"name":"assetId","type":"uint128","internalType":"uint128"}],"outputs":[{"name":"","type":"address","internalType":"address"}],"stateMutability":"view"},{"type":"function","name":"getVault","inputs":[{"name":"poolId","type":"uint64","internalType":"uint64"},{"name":"trancheId","type":"bytes16","internalType":"bytes16"},{"name":"asset","type":"address","internalType":"address"}],"outputs":[{"name":"","type":"address","internalType":"address"}],"stateMutability":"view"},{"type":"function","name":"getVaultAsset","inputs":[{"name":"vault","type":"address","internalType":"address"}],"outputs":[{"name":"","type":"address","internalType":"address"},{"name":"","type":"bool","internalType":"bool"}],"stateMutability":"view"},{"type":"function","name":"handle","inputs":[{"name":"message","type":"bytes","internalType":"bytes"}],"outputs":[],"stateMutability":"nonpayable"},{"type":"function","name":"handleTransfer","inputs":[{"name":"assetId","type":"uint128","internalType":"uint128"},{"name":"recipient","type":"address","internalType":"address"},{"name":"amount","type":"uint128","internalType":"uint128"}],"outputs":[],"stateMutability":"nonpayable"},{"type":"function","name":"handleTransferTrancheTokens","inputs":[{"name":"poolId","type":"uint64","internalType":"uint64"},{"name":"trancheId","type":"bytes16","internalType":"bytes16"},{"name":"destinationAddress","type":"address","internalType":"address"},{"name":"amount","type":"uint128","internalType":"uint128"}],"outputs":[],"stateMutability":"nonpayable"},{"type":"function","name":"idToAsset","inputs":[{"name":"assetId","type":"uint128","internalType":"uint128"}],"outputs":[{"name":"","type":"address","internalType":"address"}],"stateMutability":"view"},{"type":"function","name":"investmentManager","inputs":[],"outputs":[{"name":"","type":"address","internalType":"address"}],"stateMutability":"view"},{"type":"function","name":"isAllowedAsset","inputs":[{"name":"poolId","type":"uint64","internalType":"uint64"},{"name":"asset","type":"address","internalType":"address"}],"outputs":[{"name":"","type":"bool","internalType":"bool"}],"stateMutability":"view"},{"type":"function","name":"isPoolActive","inputs":[{"name":"poolId","type":"uint64","internalType":"uint64"}],"outputs":[{"name":"","type":"bool","internalType":"bool"}],"stateMutability":"view"},{"type":"function","name":"recoverTokens","inputs":[{"name":"token","type":"address","internalType":"address"},{"name":"to","type":"address","internalType":"address"},{"name":"amount","type":"uint256","internalType":"uint256"}],"outputs":[],"stateMutability":"nonpayable"},{"type":"function","name":"rely","inputs":[{"name":"user","type":"address","internalType":"address"}],"outputs":[],"stateMutability":"nonpayable"},{"type":"function","name":"removeVault","inputs":[{"name":"poolId","type":"uint64","internalType":"uint64"},{"name":"trancheId","type":"bytes16","internalType":"bytes16"},{"name":"asset","type":"address","internalType":"address"}],"outputs":[],"stateMutability":"nonpayable"},{"type":"function","name":"trancheFactory","inputs":[],"outputs":[{"name":"","type":"address","internalType":"contract ITrancheFactory"}],"stateMutability":"view"},{"type":"function","name":"transferAssets","inputs":[{"name":"asset","type":"address","internalType":"address"},{"name":"recipient","type":"bytes32","internalType":"bytes32"},{"name":"amount","type":"uint128","internalType":"uint128"}],"outputs":[],"stateMutability":"nonpayable"},{"type":"function","name":"transferTrancheTokens","inputs":[{"name":"poolId","type":"uint64","internalType":"uint64"},{"name":"trancheId","type":"bytes16","internalType":"bytes16"},{"name":"destinationDomain","type":"uint8","internalType":"enum Domain"},{"name":"destinationId","type":"uint64","internalType":"uint64"},{"name":"recipient","type":"bytes32","internalType":"bytes32"},{"name":"amount","type":"uint128","internalType":"uint128"}],"outputs":[],"stateMutability":"nonpayable"},{"type":"function","name":"updateRestriction","inputs":[{"name":"poolId","type":"uint64","internalType":"uint64"},{"name":"trancheId","type":"bytes16","internalType":"bytes16"},{"name":"update","type":"bytes","internalType":"bytes"}],"outputs":[],"stateMutability":"nonpayable"},{"type":"function","name":"updateTrancheHook","inputs":[{"name":"poolId","type":"uint64","internalType":"uint64"},{"name":"trancheId","type":"bytes16","internalType":"bytes16"},{"name":"hook","type":"address","internalType":"address"}],"outputs":[],"stateMutability":"nonpayable"},{"type":"function","name":"updateTrancheMetadata","inputs":[{"name":"poolId","type":"uint64","internalType":"uint64"},{"name":"trancheId","type":"bytes16","internalType":"bytes16"},{"name":"name","type":"string","internalType":"string"},{"name":"symbol","type":"string","internalType":"string"}],"outputs":[],"stateMutability":"nonpayable"},{"type":"function","name":"updateTranchePrice","inputs":[{"name":"poolId","type":"uint64","internalType":"uint64"},{"name":"trancheId","type":"bytes16","internalType":"bytes16"},{"name":"assetId","type":"uint128","internalType":"uint128"},{"name":"price","type":"uint128","internalType":"uint128"},{"name":"computedAt","type":"uint64","internalType":"uint64"}],"outputs":[],"stateMutability":"nonpayable"},{"type":"function","name":"vaultFactory","inputs":[],"outputs":[{"name":"","type":"address","internalType":"contract ERC7540VaultFactory"}],"stateMutability":"view"},{"type":"function","name":"wards","inputs":[{"name":"","type":"address","internalType":"address"}],"outputs":[{"name":"","type":"uint256","internalType":"uint256"}],"stateMutability":"view"},{"type":"event","name":"AddAsset","inputs":[{"name":"assetId","type":"uint128","indexed":true,"internalType":"uint128"},{"name":"asset","type":"address","indexed":true,"internalType":"address"}],"anonymous":false},{"type":"event","name":"AddPool","inputs":[{"name":"poolId","type":"uint64","indexed":true,"internalType":"uint64"}],"anonymous":false},{"type":"event","name":"AddTranche","inputs":[{"name":"poolId","type":"uint64","indexed":true,"internalType":"uint64"},{"name":"trancheId","type":"bytes16","indexed":true,"internalType":"bytes16"}],"anonymous":false},{"type":"event","name":"AllowAsset","inputs":[{"name":"poolId","type":"uint64","indexed":true,"internalType":"uint64"},{"name":"asset","type":"address","indexed":true,"internalType":"address"}],"anonymous":false},{"type":"event","name":"Deny","inputs":[{"name":"user","type":"address","indexed":true,"internalType":"address"}],"anonymous":false},{"type":"event","name":"DeployTranche","inputs":[{"name":"poolId","type":"uint64","indexed":true,"internalType":"uint64"},{"name":"trancheId","type":"bytes16","indexed":true,"internalType":"bytes16"},{"name":"tranche","type":"address","indexed":true,"internalType":"address"}],"anonymous":false},{"type":"event","name":"DeployVault","inputs":[{"name":"poolId","type":"uint64","indexed":true,"internalType":"uint64"},{"name":"trancheId","type":"bytes16","indexed":true,"internalType":"bytes16"},{"name":"asset","type":"address","indexed":true,"internalType":"address"},{"name":"vault","type":"address","indexed":false,"internalType":"address"}],"anonymous":false},{"type":"event","name":"DisallowAsset","inputs":[{"name":"poolId","type":"uint64","indexed":true,"internalType":"uint64"},{"name":"asset","type":"address","indexed":true,"internalType":"address"}],"anonymous":false},{"type":"event","name":"File","inputs":[{"name":"what","type":"bytes32","indexed":true,"internalType":"bytes32"},{"name":"data","type":"address","indexed":false,"internalType":"address"}],"anonymous":false},{"type":"event","name":"PriceUpdate","inputs":[{"name":"poolId","type":"uint64","indexed":true,"internalType":"uint64"},{"name":"trancheId","type":"bytes16","indexed":true,"internalType":"bytes16"},{"name":"asset","type":"address","indexed":true,"internalType":"address"},{"name":"price","type":"uint256","indexed":false,"internalType":"uint256"},{"name":"computedAt","type":"uint64","indexed":false,"internalType":"uint64"}],"anonymous":false},{"type":"event","name":"Rely","inputs":[{"name":"user","type":"address","indexed":true,"internalType":"address"}],"anonymous":false},{"type":"event","name":"RemoveVault","inputs":[{"name":"poolId","type":"uint64","indexed":true,"internalType":"uint64"},{"name":"trancheId","type":"bytes16","indexed":true,"internalType":"bytes16"},{"name":"asset","type":"address","indexed":true,"internalType":"address"},{"name":"vault","type":"address","indexed":false,"internalType":"address"}],"anonymous":false},{"type":"event","name":"TransferAssets","inputs":[{"name":"asset","type":"address","indexed":true,"internalType":"address"},{"name":"sender","type":"address","indexed":true,"internalType":"address"},{"name":"recipient","type":"bytes32","indexed":true,"internalType":"bytes32"},{"name":"amount","type":"uint128","indexed":false,"internalType":"uint128"}],"anonymous":false},{"type":"event","name":"TransferTrancheTokens","inputs":[{"name":"poolId","type":"uint64","indexed":true,"internalType":"uint64"},{"name":"trancheId","type":"bytes16","indexed":true,"internalType":"bytes16"},{"name":"sender","type":"address","indexed":true,"internalType":"address"},{"name":"destinationDomain","type":"uint8","indexed":false,"internalType":"enum Domain"},{"name":"destinationId","type":"uint64","indexed":false,"internalType":"uint64"},{"name":"destinationAddress","type":"bytes32","indexed":false,"internalType":"bytes32"},{"name":"amount","type":"uint128","indexed":false,"internalType":"uint128"}],"anonymous":false}],"bytecode":{"object":"0x60a03461010d57601f614cb438819003918201601f19168301916001600160401b038311848410176101115780849260609460405283398101031261010d5761004781610125565b90610060604061005960208401610125565b9201610125565b90335f525f602052600160405f205560405192337fdd0e34038ac38b2a1ce960229778ac48a8719bc900b6c4f8d0475c6e8b385a605f80a26001600160a01b03908116608052600380546001600160a01b0319908116938316939093179055600480549092169216919091179055614b7a908161013a8239608051818181610472015281816116e301528181611b9001528181611e0a0152818161209d01528181612b7601526138420152f35b5f80fd5b634e487b7160e01b5f52604160045260245ffd5b51906001600160a01b038216820361010d5756fe60806040526004361015610011575f80fd5b5f3560e01c806304dbf1981461027457806304f2ce6e1461026f578063089948b51461026a578063116191b61461026557806316a3d7bc146102605780631f1b5aba1461025b57806320309ef1146102565780632b896101146102515780632fc165ba1461024c5780633bc54707146102475780633ef46309146102425780634b31bb101461023d5780635f3e849f1461023857806365fae35e146102335780636a22d8cc1461022e5780637b0426691461022957806381bc8a46146102245780638543b07e1461021f57806387e3a5691461021a5780638aa2e5b0146102155780638c6b2530146102105780639c52a7f11461020b5780639ee2addd14610206578063a096bf5714610201578063aae0f932146101fc578063b21ea409146101f7578063b6405b39146101f2578063bf353dbb146101ed578063bf48bcb6146101e8578063c47744ab146101e3578063c6526074146101de578063c77d5fe6146101d9578063ca9d67c8146101d4578063cee8983d146101cf578063d4e8be83146101ca578063d8a06f73146101c5578063dfb3b551146101c05763e2fdcc17146101bb575f80fd5b612b61565b612ae6565b612abe565b6128c4565b612884565b6127e9565b612764565b612736565b61266a565b61222e565b6121f4565b611f31565b611d9c565b611bbe565b611b10565b611ae8565b611a75565b6117fa565b61154a565b61150c565b61143c565b611312565b611146565b611103565b61108f565b610f7a565b610f52565b610d59565b610d2d565b610cea565b610c31565b610b7b565b610a70565b61097f565b610957565b610872565b610717565b61032b565b600435906001600160401b038216820361028f57565b5f80fd5b608435906001600160401b038216820361028f57565b606435906001600160401b038216820361028f57565b602435906001600160801b03198216820361028f57565b6001600160a01b0381160361028f57565b606090600319011261028f576004356001600160401b038116810361028f57906024356001600160801b03198116810361028f5790604435610328816102d6565b90565b3461028f57610339366102e7565b9161037782600161035b846001600160401b03165f52600660205260405f2090565b6001600160801b03199092165f90815291016020526040902090565b80546001600160a01b031692909190610391841515612ba5565b6103a361039e8684613104565b612bfc565b6103bd6001600160a01b0385165b6001600160a01b031690565b60405163f815c03d60e01b81526001600160a01b038716600482015290602090829060249082905afa801561065257610407915f916106f8575b506001600160a01b031615612c68565b602082610412612cbf565b6002546001600160a01b03169661043b8861042c84612d17565b6001600160a01b039091169052565b6003545f908a906104a790610458906001600160a01b03166103b1565b604051631c9a15a560e11b81529b8c9791968896879591937f00000000000000000000000000000000000000000000000000000000000000006001600160a01b031692908d9060048901612d75565b03925af1938415610652575f946106d7575b50604051636f307dc360e01b81526001600160a01b0386169390602081600481885afa90816106aa575b5061066b576105216104f3610a0e565b6001600160a01b03881681525f60208281018290526001600160a01b03891682526007905260409020612dcf565b8054610537906103b1906001600160a01b031681565b803b1561028f576040516332fd71af60e11b81526001600160a01b0387166004820152905f908290602490829084905af180156106525761058d926103b1926103b192610657575b50546001600160a01b031690565b803b1561028f57845f916105b89783604051809a81958294630368a3a560e31b845260048401612e05565b03925af19485156106525761063495610638575b506040516001600160a01b03851681526001600160801b031991909116916001600160401b0316907f3f42aad4ddbe5b3cf996d67cbb7832c6adfa405c3399a4dd5f5d1c0eeb88e77590602090a46040516001600160a01b0390911681529081906020820190565b0390f35b806106465f61064c936109ed565b8061094d565b5f6105cc565b612c5d565b806106465f610665936109ed565b5f61057f565b6106a5610676610a0e565b6001600160a01b0388168152600160208201526001600160a01b0387165f908152600760205260409020612dcf565b610521565b6106cb9060203d6020116106d0575b6106c381836109ed565b810190612c48565b6104e3565b503d6106b9565b6106f191945060203d6020116106d0576106c381836109ed565b925f6104b9565b610711915060203d6020116106d0576106c381836109ed565b5f6103f7565b3461028f576103b161074c6103b161072e366102e7565b9491335f525f602052610747600160405f205414612e1f565b613731565b6107606001600160a01b0382161515612f1d565b604051637f5a7c7b60e01b8152602081600481855afa80156106525761079c915f916107e5575b506001600160a01b0384811691161415612f65565b803b1561028f5760405163d4e8be8360e01b8152905f9082908183816107c58860048301612fa8565b03925af18015610652576107d557005b806106465f6107e3936109ed565b005b6107fe915060203d6020116106d0576106c381836109ed565b5f610787565b602435906001600160801b038216820361028f57565b606435906001600160801b038216820361028f57565b604435906001600160801b038216820361028f57565b600435906001600160801b038216820361028f57565b60a435906001600160801b038216820361028f57565b3461028f57604036600319011261028f5761088b610279565b610893610804565b335f525f6020526108aa600160405f205414612e1f565b6108bb6108b683613ea2565b613075565b6001600160801b03165f908152600960205260409020546001600160a01b0316906001600160401b03906108f08315156130bc565b165f8181526006602090815260408083206001600160a01b03861684526002019091529020610927905b805460ff19166001179055565b7fff23b5af88125468027898f9fb432c3c087107512fcff75621d11942ebf483ed5f80a3005b5f91031261028f57565b3461028f575f36600319011261028f576001546040516001600160a01b039091168152602090f35b3461028f57604036600319011261028f5760206109af61099d610279565b602435906109aa826102d6565b613104565b6040519015158152f35b634e487b7160e01b5f52604160045260245ffd5b604081019081106001600160401b038211176109e857604052565b6109b9565b90601f801991011681019081106001600160401b038211176109e857604052565b60405190610a1d6040836109ed565b565b6001600160401b0381116109e857601f01601f191660200190565b929192610a4682610a1f565b91610a5460405193846109ed565b82948184528183011161028f578281602093845f960137010152565b3461028f57606036600319011261028f57610a89610279565b610a916102bf565b604435906001600160401b03821161028f573660238301121561028f576103b16103b191610acc610ae4943690602481600401359101610a3a565b94335f525f602052610747600160405f205414612e1f565b610af86001600160a01b0382161515612f1d565b604051637f5a7c7b60e01b8152602081600481855afa908115610652575f91610b5c575b506001600160a01b031691610b328315156131f5565b823b1561028f576107c5925f9283604051809681958294637aeba8d560e01b845260048401613260565b610b75915060203d6020116106d0576106c381836109ed565b5f610b1c565b3461028f575f608036600319011261028f57610b95610279565b610b9d6102bf565b9060443590610bab826102d6565b610bdc610bb661081a565b93335f525f602052610bce600160405f205414612e1f565b6001600160a01b0392613731565b1691610be9831515612f1d565b823b1561028f57610c13925f92836040518096819582946340c10f1960e01b8452600484016132f0565b03925af1801561065257610c25575080f35b6107e391505f906109ed565b3461028f57602036600319011261028f576001600160401b03610c52610279565b335f525f602052610c69600160405f205414612e1f565b16805f52600660205260405f208054610ca5574290557f28d6040dea8c2130b7a53f31f1c59e0771c45cac20965972891b1bdea59a12565f80a2005b60405162461bcd60e51b815260206004820152601e60248201527f506f6f6c4d616e616765722f706f6f6c2d616c72656164792d616464656400006044820152606490fd5b3461028f57602036600319011261028f57600435610d07816102d6565b60018060a01b03165f52600a602052602060018060801b0360405f205416604051908152f35b3461028f57604036600319011261028f5760206109af610d4b610279565b610d536102bf565b9061336f565b3461028f5760a036600319011261028f57610d72610279565b610d7a6102bf565b90610d83610830565b7f777e4456be8980c10584d31feb96cb990929613c73e8a0b826c36e22239a80986001600160401b0384610f3c610db861081a565b94610f146002610e4f610e42610dcc610293565b94335f525f602052610de4600160405f205414612e1f565b610e298c610e098a600161035b846001600160401b03165f52600660205260405f2090565b8054909a6001600160a01b039091161580159290610f41575b5050612ba5565b6001600160801b03165f90815260096020526040902090565b546001600160a01b031690565b9401610e9a610e90610e84610e7488859060018060a01b03165f5260205260405f2090565b5460801c6001600160401b031690565b6001600160401b031690565b87851610156133fd565b610ed785610ea6610a0e565b6001600160801b038b168152926001600160401b03861660208501529060018060a01b03165f5260205260405f2090565b8151815460209093015167ffffffffffffffff60801b60809190911b166001600160c01b03199093166001600160801b0390911617919091179055565b6040516001600160a01b03909316976001600160801b03191696909316949192839283611419565b0390a4005b610f4b925061336f565b8e8e610e22565b3461028f575f36600319011261028f576002546040516001600160a01b039091168152602090f35b3461028f57606036600319011261028f575f80600435610f99816102d6565b602435610fa5816102d6565b33835282602052610fbc6001604085205414612e1f565b60405163a9059cbb60e01b602082019081526001600160a01b039092166024820152604480358183015281528390610ff56064826109ed565b51925af1611001614333565b81611060575b501561100f57005b60405162461bcd60e51b8152602060048201526024808201527f536166655472616e736665724c69622f736166652d7472616e736665722d66616044820152631a5b195960e21b6064820152608490fd5b8051801592508215611075575b50505f611007565b611088925060208091830101910161420d565b5f8061106d565b3461028f57602036600319011261028f576004356110ac816102d6565b335f525f6020526110c3600160405f205414612e1f565b6001600160a01b03165f818152602081905260408120600190557fdd0e34038ac38b2a1ce960229778ac48a8719bc900b6c4f8d0475c6e8b385a609080a2005b3461028f575f36600319011261028f576005546040516001600160a01b039091168152602090f35b9080601f8301121561028f5781602061032893359101610a3a565b3461028f57608036600319011261028f5761115f610279565b6111676102bf565b6044356001600160401b03811161028f5761118690369060040161112b565b90606435906001600160401b03821161028f576103b16103b1916111b16111c994369060040161112b565b95335f525f602052610747600160405f205414612e1f565b906111de6001600160a01b0383161515612f1d565b6040516306fdde0360e01b81525f81600481865afa908115610652575f916112f8575b50602081519101208151602083012014801590611297575b6112229061361c565b813b1561028f575f61124891604051809381926304bd623760e11b835260048301613663565b038183865af1801561065257611283575b50803b1561028f576040516304bd623760e11b8152905f9082908183816107c58860048301613681565b806106465f611291936109ed565b5f611259565b506040516395d89b4160e01b81525f81600481865afa801561065257611222915f916112d6575b50602081519101208451602086012014159050611219565b6112f291503d805f833e6112ea81836109ed565b8101906135ba565b5f6112be565b61130c91503d805f833e6112ea81836109ed565b5f611201565b3461028f57606036600319011261028f576113b66020611330610279565b61138a610e4261136f6103b16103b1610e4261134a6102bf565b600161035b611357610830565b996001600160401b03165f52600660205260405f2090565b6001600160801b039093165f90815260096020526040902090565b60405163f815c03d60e01b81526001600160a01b03909116600482015292839190829081906024820190565b03915afa801561065257610634915f916113fa575b506113e06001600160a01b03821615156136a1565b6040516001600160a01b0390911681529081906020820190565b611413915060203d6020116106d0576106c381836109ed565b5f6113cb565b6001600160801b0390911681526001600160401b03909116602082015260400190565b3461028f576114986001600160401b03600261148261145a366102e7565b949091165f526006602052600160405f20019060018060801b0319165f5260205260405f2090565b019060018060a01b03165f5260205260405f2090565b6114fc6114ee6001600160401b03604051936114b3856109cd565b546001600160801b038116855260801c166020840181815293906114e1906001600160401b031615156136e9565b516001600160801b031690565b91516001600160401b031690565b9061063460405192839283611419565b3461028f57604036600319011261028f57602061153861152a610279565b6115326102bf565b90613731565b6040516001600160a01b039091168152f35b3461028f57604036600319011261028f57611563610846565b60243561156f816102d6565b335f525f602052611586600160405f205414612e1f565b6001600160801b0382169061159c82151561392a565b6001600160801b0383165f9081526009602052604090206115d0906001600160a01b03906115c990610e42565b161561398c565b61161261160c6116006115f38460018060a01b03165f52600a60205260405f2090565b546001600160801b031690565b6001600160801b031690565b156139d8565b60405163313ce56760e01b81526001600160a01b03821693602082600481885afa91821561065257601260ff6116d694611663935f916117cb575b501661165c6002821015613a38565b1115613a8f565b6001600160801b0381165f9081526009602052604090206116a09084905b80546001600160a01b0319166001600160a01b03909216919091179055565b6001600160a01b0383165f908152600a6020526040902080546001600160801b0319166001600160801b03909216919091179055565b6002546001600160a01b037f000000000000000000000000000000000000000000000000000000000000000081169116813b1561028f575f61172d916040518093819263aec42a1760e01b83528760048401612e05565b038183865af18015610652576117b7575b50803b1561028f5760405163aec42a1760e01b8152915f91839182908490829061176d90309060048401612e05565b03925af18015610652576117a3575b507f026b80f878bff537616c7c58a285528373ac3ddd56b2d5988d11009d9f29b9d05f80a3005b806106465f6117b1936109ed565b5f61177c565b806106465f6117c5936109ed565b5f61173e565b6117ed915060203d6020116117f3575b6117e581836109ed565b810190613a23565b5f61164d565b503d6117db565b3461028f57611808366102e7565b919091335f525f602052611822600160405f205414612e1f565b61184383600161035b856001600160401b03165f52600660205260405f2090565b8054909190611862906103b1906001600160a01b031681811515612ba5565b60405163f815c03d60e01b81526001600160a01b03831660048201529290602090849060249082905afa928315610652575f93611a54575b506118af6001600160a01b0384161515613ae7565b6003546118c4906001600160a01b03166103b1565b6002546001600160a01b031690803b1561028f57604051631f2a36e760e01b8152915f9183918290849082906118fe908b60048401612e05565b03925af1801561065257611a40575b506001600160a01b0383165f90815260076020526040812055805461193c906103b1906001600160a01b031681565b803b1561028f57604051639c52a7f160e01b81526001600160a01b0385166004820152905f908290602490829084905af1801561065257611991926103b1926103b1926106575750546001600160a01b031690565b90813b1561028f57604051630368a3a560e31b81526001600160a01b03821660048201525f6024820181905290928390604490829084905af1908115610652577f0a9656825c0b30e40fb4eb11e28eef6c45f68464b88791ae0c6c38f9af758c89926001600160401b0392611a2c575b506040516001600160a01b0394851681529316946001600160801b0319169316918060208101610f3c565b806106465f611a3a936109ed565b5f611a01565b806106465f611a4e936109ed565b5f61190d565b611a6e91935060203d6020116106d0576106c381836109ed565b915f61189a565b3461028f57602036600319011261028f57600435611a92816102d6565b335f525f602052611aa9600160405f205414612e1f565b6001600160a01b03165f8181526020819052604081208190557f184450df2e323acec0ed3b5c7531b81f9b4cdef7914dfd4c0a4317416bb5251b9080a2005b3461028f575f36600319011261028f576004546040516001600160a01b039091168152602090f35b3461028f57606036600319011261028f576107e3611b2c610846565b602435611b38816102d6565b611b40610830565b91335f525f602052611b58600160405f205414612e1f565b6001600160801b03165f908152600960205260409020546001600160a01b031691611b848315156130bc565b6001600160801b0316917f00000000000000000000000000000000000000000000000000000000000000006001600160a01b031690614362565b3461028f5760c036600319011261028f57611bd7610279565b611bdf6102bf565b90604435600281101561028f57611bf46102a9565b60843590611c0061085c565b90611c116103b16103b18888613731565b91611c266001600160a01b0384161515612f1d565b823b1561028f575f6040518094632770a7eb60e21b8252818381611c4e8733600484016132f0565b03925af1928315610652578493611d88575b50611c6b828661444c565b600154611ce990611c84906001600160a01b03166103b1565b604051600960f91b60208201526001600160c01b031960c08b901b1660218201526001600160801b03198b811660298301526001600160b81b03199490941660398201526042810197909752608084901b9092166062870152605286526072866109ed565b803b1561028f5760405163202d45d360e01b8152945f918691829084908290611d1790309060048401613b73565b03925af1908115610652577f17485d0b940a284b532fde2cb0b693b195cb04e5dd60018615c72bc512043a4394610f3c92611d74575b5060405133986001600160801b031916976001600160401b03169690948594909185613b9b565b806106465f611d82936109ed565b5f611d4d565b806106465f611d96936109ed565b5f611c60565b3461028f57606036600319011261028f57600435611db9816102d6565b60243590611dc5610830565b6001600160a01b0382165f908152600a602052604090208390611de7906115f3565b611dfb6001600160801b03821615156130bc565b611e396001600160801b0384167f00000000000000000000000000000000000000000000000000000000000000006001600160a01b03163387614362565b600154611e9790611e52906001600160a01b03166103b1565b604051601160f81b60208201526001600160801b0319608094851b8116602183015260318201959095529285901b9093166051830152604182529091906061836109ed565b803b1561028f5760405163202d45d360e01b8152915f918391829084908290611ec590309060048401613b73565b03925af1801561065257611f1d575b506040516001600160801b03909116815233916001600160a01b0316907f954ddb5bf95277dca7beeda7a7d2da1a364e55ac8512ac9576cc787073b891d6908060208101610f3c565b806106465f611f2b936109ed565b5f611ed4565b3461028f57604036600319011261028f57611f4a610279565b611f526102bf565b90611f65611f60838361336f565b613bd4565b612013611f70612ce1565b600254611f89906001600160a01b031661042c83612d17565b611f963061042c83612d29565b6020611fcd85611fb7866001600160401b03165f52600860205260405f2090565b9060018060801b0319165f5260205260405f2090565b600454909290611fe5906001600160a01b03166103b1565b835460ff165f60405180978195829463e3e0cbfd60e01b84528c8c60028c019160018d019160048801613cd9565b03925af1918215610652575f926121cc575b50600301546001600160a01b03165b6001600160a01b038116612173575b506120698161168185600161035b876001600160401b03165f52600660205260405f2090565b61209061208b84611fb7856001600160401b03165f52600860205260405f2090565b613dbf565b6002546001600160a01b037f0000000000000000000000000000000000000000000000000000000000000000811692911691803b1561028f5760405163aec42a1760e01b8152925f9184918290849082906120ef908860048401612e05565b03925af1918215610652576106349261215f575b506040519384936001600160a01b038316916001600160801b031916906001600160401b03167fb12ef8d5843321abaa5bea49fc930e0f0eb5b77bc38e733eab180665d42429945f80a46001600160a01b031682526020820190565b806106465f61216d936109ed565b5f612103565b6001600160a01b038216803b1561028f5760405163d4e8be8360e01b8152915f9183918290849082906121a99060048301612fa8565b03925af18015610652571561204357806106465f6121c6936109ed565b5f612043565b6120349192506121ec60039160203d6020116106d0576106c381836109ed565b929150612025565b3461028f57602036600319011261028f57600435612211816102d6565b60018060a01b03165f525f602052602060405f2054604051908152f35b3461028f57602036600319011261028f576004356001600160401b03811161028f573660238201121561028f578060040135906001600160401b03821161028f57366024838301011161028f5760240190335f525f602052612296600160405f205414612e1f565b6122a96122a4368385610a3a565b6144db565b6122b281613b64565b600981036122eb57506122e56122e06107e3936122d86122d3368684610a3a565b614885565b933691610a3a565b6147ff565b9061376e565b6122f481613b64565b600a8103612319575061230f6107e392612314923691610a3a565b61454d565b613313565b61232281613b64565b600b81036123b65750906107e39161233e61230f368385610a3a565b9161235261234d368484610a3a565b6145a9565b61236d612368612363368686610a3a565b6146ff565b614971565b906123b06123ab61238f61238a612385368989610a3a565b614a1c565b614a69565b946123a361239e368984610a3a565b614b14565b963691610a3a565b614825565b94613ebc565b6123bf81613b64565b600c81036123eb57506123e56123e06107e3936122d861230f368684610a3a565b6148c5565b90612fc8565b6123f481613b64565b600d810361241b57506124156123e06107e3936122d861230f368684610a3a565b90613df6565b61242481613b64565b600e810361248f5750906107e39161244061230f368385610a3a565b9161244f61234d368484610a3a565b612489612484612468612463368787610a3a565b6148a5565b9361247c612477368884610a3a565b6148b5565b953691610a3a565b614599565b936133a4565b61249881613b64565b600f81036124e45750906107e3916124b461230f368385610a3a565b916124de61238a6123856124cc61234d368787610a3a565b9361247c612368612363368985610a3a565b92613454565b6124ed81613b64565b601081036125295750906107e39161252361251e61250f61230f368587610a3a565b936122d861234d368684610a3a565b614812565b91612e61565b61253281613b64565b6011810361256e5750906107e3916125686125636125546122d3368587610a3a565b936122d86122e0368684610a3a565b614895565b91613b33565b61257781613b64565b601281036125cf5750906107e39161259361230f368385610a3a565b916125c96125c46125a861234d368686610a3a565b926125bc6125b7368784610a3a565b6147af565b943691610a3a565b614838565b92613282565b806125db601392613b64565b03612625576107e39161261f6125f561230f368585610a3a565b9261261961261361260a61234d368588610a3a565b94833691610a3a565b91613de2565b90614673565b9161313c565b60405162461bcd60e51b815260206004820152601b60248201527f506f6f6c4d616e616765722f696e76616c69642d6d65737361676500000000006044820152606490fd5b3461028f57604036600319011261028f57612683610279565b61268b610804565b335f525f6020526126a2600160405f205414612e1f565b6126ae6108b683613ea2565b6001600160801b03165f908152600960205260409020546001600160a01b0316906001600160401b03906126e38315156130bc565b165f8181526006602090815260408083206001600160a01b03861684526002019091529020805460ff191690557f8a79eb59f2b5ee3c9216e700e768958dceca514030c77d89756d297a31661a355f80a3005b3461028f57602036600319011261028f5760206109af612754610279565b613ea2565b60ff81160361028f57565b3461028f5760c036600319011261028f5761277d610279565b6127856102bf565b906044356001600160401b03811161028f576127a590369060040161112b565b91606435926001600160401b03841161028f576127c96107e394369060040161112b565b90608435926127d784612759565b60a435946127e4866102d6565b613ebc565b3461028f57602036600319011261028f57600435612806816102d6565b60018060a01b03165f52600760205260405f206128676128606040519261282c846109cd565b549261285360018060a01b03851680835260ff602084019660a01c161515865215156136a1565b516001600160a01b031690565b9151151590565b604080516001600160a01b03939093168352901515602083015290f35b3461028f57602036600319011261028f576001600160801b036128a5610846565b165f526009602052602060018060a01b0360405f205416604051908152f35b3461028f57604036600319011261028f576004356024356128e4816102d6565b335f525f6020526128fb600160405f205414612e1f565b666761746577617960c81b820361294457600180546001600160a01b0319166001600160a01b0383161790555f80516020614b258339815191529061293f906113e0565b0390a2005b7034b73b32b9ba36b2b73a26b0b730b3b2b960791b820361299257600280546001600160a01b0319166001600160a01b0383161790555f80516020614b258339815191529061293f906113e0565b6d7472616e636865466163746f727960901b82036129dd57600480546001600160a01b0319166001600160a01b0383161790555f80516020614b258339815191529061293f906113e0565b6b7661756c74466163746f727960a01b8203612a2657600380546001600160a01b0319166001600160a01b0383161790555f80516020614b258339815191529061293f906113e0565b696761735365727669636560b01b8203612a6d57600580546001600160a01b0319166001600160a01b0383161790555f80516020614b258339815191529061293f906113e0565b60405162461bcd60e51b815260206004820152602360248201527f506f6f6c4d616e616765722f66696c652d756e7265636f676e697a65642d706160448201526272616d60e81b6064820152608490fd5b3461028f575f36600319011261028f576003546040516001600160a01b039091168152602090f35b3461028f576113b660206001600160401b03612b346103b16103b1610e42612b0d366102e7565b969091165f5260068752600160405f20019060018060801b0319165f5260205260405f2090565b60405163f815c03d60e01b81526001600160a01b0390921660048301529092839190829081906024820190565b3461028f575f36600319011261028f576040517f00000000000000000000000000000000000000000000000000000000000000006001600160a01b03168152602090f35b15612bac57565b60405162461bcd60e51b815260206004820152602260248201527f506f6f6c4d616e616765722f7472616e6368652d646f65732d6e6f742d6578696044820152611cdd60f21b6064820152608490fd5b15612c0357565b60405162461bcd60e51b815260206004820152601f60248201527f506f6f6c4d616e616765722f61737365742d6e6f742d737570706f72746564006044820152606490fd5b9081602091031261028f5751610328816102d6565b6040513d5f823e3d90fd5b15612c6f57565b60405162461bcd60e51b815260206004820152602260248201527f506f6f6c4d616e616765722f7661756c742d616c72656164792d6465706c6f79604482015261195960f21b6064820152608490fd5b60408051909190612cd083826109ed565b6001815291601f1901366020840137565b60405160609190612cf283826109ed565b6002815291601f1901366020840137565b634e487b7160e01b5f52603260045260245ffd5b805115612d245760200190565b612d03565b805160011015612d245760400190565b90602080835192838152019201905f5b818110612d565750505090565b82516001600160a01b0316845260209384019390920191600101612d49565b6001600160401b0390911681526001600160801b031990911660208201526001600160a01b03918216604082015291811660608301529182166080820152911660a082015260e060c0820181905261032892910190612d39565b8151815460209093015160ff60a01b90151560a01b166001600160a81b03199093166001600160a01b0390911617919091179055565b6001600160a01b0391821681529116602082015260400190565b15612e2657565b60405162461bcd60e51b8152602060048201526013602482015272105d5d1a0bdb9bdd0b585d5d1a1bdc9a5e9959606a1b6044820152606490fd5b6103b1612e83926103b192335f525f602052610747600160405f205414612e1f565b612e976001600160a01b0382161515612f1d565b604051637f5a7c7b60e01b8152602081600481855afa801561065257612ed2915f916107e557506001600160a01b0384811691161415612f65565b803b1561028f5760405163d4e8be8360e01b8152915f918391829084908290612efe9060048301612fa8565b03925af1801561065257612f0f5750565b806106465f610a1d936109ed565b15612f2457565b60405162461bcd60e51b81526020600482015260196024820152782837b7b626b0b730b3b2b917bab735b737bbb716ba37b5b2b760391b6044820152606490fd5b15612f6c57565b60405162461bcd60e51b8152602060048201526014602482015273506f6f6c4d616e616765722f6f6c642d686f6f6b60601b6044820152606490fd5b63686f6f6b60e01b81526001600160a01b03909116602082015260400190565b90335f525f602052612fe0600160405f205414612e1f565b612fec6108b683613ea2565b6001600160801b03165f908152600960205260409020546001600160a01b0316906001600160401b03906130218315156130bc565b165f8181526006602090815260408083206001600160a01b0386168452600201909152902061304f9061091a565b7fff23b5af88125468027898f9fb432c3c087107512fcff75621d11942ebf483ed5f80a3565b1561307c57565b60405162461bcd60e51b8152602060048201526018602482015277141bdbdb13585b9859d95c8bda5b9d985b1a590b5c1bdbdb60421b6044820152606490fd5b156130c357565b60405162461bcd60e51b8152602060048201526019602482015278141bdbdb13585b9859d95c8bdd5b9adb9bdddb8b585cdcd95d603a1b6044820152606490fd5b60ff916001600160401b0361313792165f526006602052600260405f20019060018060a01b03165f5260205260405f2090565b541690565b6103b161315e926103b192335f525f602052610747600160405f205414612e1f565b6131726001600160a01b0382161515612f1d565b604051637f5a7c7b60e01b8152602081600481855afa908115610652575f916131d6575b506001600160a01b0316916131ac8315156131f5565b823b1561028f57612efe925f9283604051809681958294637aeba8d560e01b845260048401613260565b6131ef915060203d6020116106d0576106c381836109ed565b5f613196565b156131fc57565b60405162461bcd60e51b8152602060048201526018602482015277506f6f6c4d616e616765722f696e76616c69642d686f6f6b60401b6044820152606490fd5b805180835260209291819084018484015e5f828201840152601f01601f1916010190565b6001600160a01b0390911681526040602082018190526103289291019061323c565b9061329e90335f525f602052610bce600160405f205414612e1f565b16916132ab831515612f1d565b823b1561028f576132d5925f92836040518096819582946340c10f1960e01b8452600484016132f0565b03925af18015610652576132e65750565b5f610a1d916109ed565b6001600160a01b0390911681526001600160801b03909116602082015260400190565b6001600160401b0390335f525f602052613333600160405f205414612e1f565b16805f52600660205260405f208054610ca5574290557f28d6040dea8c2130b7a53f31f1c59e0771c45cac20965972891b1bdea59a12565f80a2565b6001600160401b03165f9081526008602090815260408083206001600160801b031990941683529290522060ff905416151590565b9291816133f87f777e4456be8980c10584d31feb96cb990929613c73e8a0b826c36e22239a80989396610f146002610e4f610e426001600160401b0397335f525f602052610de4600160405f205414612e1f565b0390a4565b1561340457565b60405162461bcd60e51b815260206004820152602260248201527f506f6f6c4d616e616765722f63616e6e6f742d7365742d6f6c6465722d707269604482015261636560f01b6064820152608490fd5b6103b1613476926103b192335f525f602052610747600160405f205414612e1f565b9061348b6001600160a01b0383161515612f1d565b6040516306fdde0360e01b81525f81600481865afa908115610652575f916135a0575b50602081519101208151602083012014801590613547575b6134cf9061361c565b813b1561028f575f6134f591604051809381926304bd623760e11b835260048301613663565b038183865af1801561065257613533575b50803b1561028f576040516304bd623760e11b8152915f918391829084908290612efe9060048301613681565b806106465f613541936109ed565b5f613506565b506040516395d89b4160e01b81525f81600481865afa8015610652576134cf915f91613586575b506020815191012084516020860120141590506134c6565b61359a91503d805f833e6112ea81836109ed565b5f61356e565b6135b491503d805f833e6112ea81836109ed565b5f6134ae565b60208183031261028f578051906001600160401b03821161028f570181601f8201121561028f578051906135ed82610a1f565b926135fb60405194856109ed565b8284526020838301011161028f57815f9260208093018386015e8301015290565b1561362357565b60405162461bcd60e51b8152602060048201526018602482015277506f6f6c4d616e616765722f6f6c642d6d6574616461746160401b6044820152606490fd5b90604061032892636e616d6560e01b8152816020820152019061323c565b90604061032892651cde5b589bdb60d21b8152816020820152019061323c565b156136a857565b60405162461bcd60e51b8152602060048201526019602482015278141bdbdb13585b9859d95c8bdd5b9adb9bdddb8b5d985d5b1d603a1b6044820152606490fd5b156136f057565b60405162461bcd60e51b8152602060048201526019602482015278506f6f6c4d616e616765722f756e6b6e6f776e2d707269636560381b6044820152606490fd5b6001600160401b03165f9081526006602090815260408083206001600160801b0319909416835260019093019052206001600160a01b0390541690565b90335f525f602052613786600160405f205414612e1f565b6001600160801b0382169061379c82151561392a565b6001600160801b0383165f9081526009602052604090206137c9906001600160a01b03906115c990610e42565b6137ec61160c6116006115f38460018060a01b03165f52600a60205260405f2090565b60405163313ce56760e01b81526001600160a01b03821693602082600481885afa91821561065257601260ff61383594611663935f916117cb57501661165c6002821015613a38565b6002546001600160a01b037f000000000000000000000000000000000000000000000000000000000000000081169116813b1561028f575f61388c916040518093819263aec42a1760e01b83528760048401612e05565b038183865af1801561065257613916575b50803b1561028f5760405163aec42a1760e01b8152915f9183918290849082906138cc90309060048401612e05565b03925af1801561065257613902575b507f026b80f878bff537616c7c58a285528373ac3ddd56b2d5988d11009d9f29b9d05f80a3565b806106465f613910936109ed565b5f6138db565b806106465f613924936109ed565b5f61389d565b1561393157565b60405162461bcd60e51b815260206004820152602d60248201527f506f6f6c4d616e616765722f61737365742d69642d6861732d746f2d62652d6760448201526c07265617465722d7468616e2d3609c1b6064820152608490fd5b1561399357565b60405162461bcd60e51b815260206004820152601b60248201527f506f6f6c4d616e616765722f61737365742d69642d696e2d75736500000000006044820152606490fd5b156139df57565b606460405162461bcd60e51b815260206004820152602060248201527f506f6f6c4d616e616765722f61737365742d616464726573732d696e2d7573656044820152fd5b9081602091031261028f575161032881612759565b15613a3f57565b60405162461bcd60e51b815260206004820152602260248201527f506f6f6c4d616e616765722f746f6f2d6665772d61737365742d646563696d616044820152616c7360f01b6064820152608490fd5b15613a9657565b60405162461bcd60e51b815260206004820152602360248201527f506f6f6c4d616e616765722f746f6f2d6d616e792d61737365742d646563696d604482015262616c7360e81b6064820152608490fd5b15613aee57565b60405162461bcd60e51b815260206004820152601e60248201527f506f6f6c4d616e616765722f7661756c742d6e6f742d6465706c6f79656400006044820152606490fd5b90610a1d9291335f525f602052611b58600160405f205414612e1f565b634e487b7160e01b5f52602160045260245ffd5b601d1115613b6e57565b613b50565b90613b8b60209194939460408452604084019061323c565b6001600160a01b03909416910152565b929493909460808401956002811015613b6e576060936001600160401b03918652166020850152604084015260018060801b0316910152565b15613bdb57565b60405162461bcd60e51b815260206004820152601d60248201527f506f6f6c4d616e616765722f7472616e6368652d6e6f742d61646465640000006044820152606490fd5b90600182811c92168015613c4e575b6020831014613c3a57565b634e487b7160e01b5f52602260045260245ffd5b91607f1691613c2f565b5f9291815491613c6783613c20565b8083529260018116908115613cbc5750600114613c8357505050565b5f9081526020812093945091925b838310613ca2575060209250010190565b600181602092949394548385870101520191019190613c91565b915050602093945060ff929192191683830152151560051b010190565b9293613d14610328979560ff946001600160401b03613d229516875260018060801b031916602087015260c0604087015260c0860190613c58565b908482036060860152613c58565b9316608082015260a0818403910152612d39565b818110613d41575050565b5f8155600101613d36565b634e487b7160e01b5f52601160045260245ffd5b613d6a8154613c20565b9081613d74575050565b81601f5f9311600114613d85575055565b81835260208320613da191601f0160051c810190600101613d36565b808252602082209081548360011b9084198560031b1c191617905555565b60035f91828155613dd260018201613d60565b613dde60028201613d60565b0155565b601819810191908211613df157565b613d4c565b90335f525f602052613e0e600160405f205414612e1f565b613e1a6108b683613ea2565b6001600160801b03165f908152600960205260409020546001600160a01b0316906001600160401b0390613e4f8315156130bc565b165f8181526006602090815260408083206001600160a01b03861684526002019091529020805460ff191690557f8a79eb59f2b5ee3c9216e700e768958dceca514030c77d89756d297a31661a355f80a3565b6001600160401b03165f52600660205260405f2054151590565b949193909293335f525f602052613ed9600160405f205414612e1f565b613ef6601260ff8416613eef600282101561409f565b11156140fe565b613f026108b687613ea2565b613f2184611fb7886001600160401b03165f52600860205260405f2090565b91613f3960ff613f32855460ff1690565b161561415e565b613f556001600160a01b03613f4e878a613731565b16156141b5565b6001600160a01b0384168015908115614002575b506001600160401b0396613fa7600394613f9e613fd0989795613f8e613fb0966131f5565b865460ff191660ff909116178655565b60018501614268565b60028301614268565b0180546001600160a01b0319166001600160a01b03909216919091179055565b6001600160801b03191691167f6b65bb0d0163a4bbc3be142ed1e316b4d5d3da351159a1d15ee284d6e30b454f5f80a3565b6040516301ffc9a760e01b8152632b53a76160e21b6004820152939594929150602090849060249082905afa96871561065257613fa7613fd096613f9e613fb094613f8e60016001600160401b039d60039a5f91614070575b50151514965050959798505094505096613f69565b614092915060203d602011614098575b61408a81836109ed565b81019061420d565b5f61405b565b503d614080565b156140a657565b60405162461bcd60e51b815260206004820152602a60248201527f506f6f6c4d616e616765722f746f6f2d6665772d7472616e6368652d746f6b656044820152696e2d646563696d616c7360b01b6064820152608490fd5b1561410557565b60405162461bcd60e51b815260206004820152602b60248201527f506f6f6c4d616e616765722f746f6f2d6d616e792d7472616e6368652d746f6b60448201526a656e2d646563696d616c7360a81b6064820152608490fd5b1561416557565b60405162461bcd60e51b815260206004820152602260248201527f506f6f6c4d616e616765722f7472616e6368652d616c72656164792d65786973604482015261747360f01b6064820152608490fd5b156141bc57565b60405162461bcd60e51b8152602060048201526024808201527f506f6f6c4d616e616765722f7472616e6368652d616c72656164792d6465706c6044820152631bde595960e21b6064820152608490fd5b9081602091031261028f5751801515810361028f5790565b9190601f811161423457505050565b610a1d925f5260205f20906020601f840160051c8301931061425e575b601f0160051c0190613d36565b9091508190614251565b91909182516001600160401b0381116109e85761428f816142898454613c20565b84614225565b6020601f82116001146142ce5781906142bf9394955f926142c3575b50508160011b915f199060031b1c19161790565b9055565b015190505f806142ab565b601f198216906142e1845f5260205f2090565b915f5b81811061431b57509583600195969710614303575b505050811b019055565b01515f1960f88460031b161c191690555f80806142f9565b9192602060018192868b0151815501940192016142e4565b3d1561435d573d9061434482610a1f565b9161435260405193846109ed565b82523d5f602084013e565b606090565b6040516323b872dd60e01b602082019081526001600160a01b0393841660248301529390921660448301526064808301949094529281525f928392909183906143ac6084826109ed565b51925af16143b8614333565b8161441d575b50156143c657565b60405162461bcd60e51b815260206004820152602960248201527f536166655472616e736665724c69622f736166652d7472616e736665722d66726044820152681bdb4b59985a5b195960ba1b6064820152608490fd5b8051801592508215614432575b50505f6143be565b614445925060208091830101910161420d565b5f8061442a565b6002811015613b6e5760405160f89190911b6001600160f81b031916602082015260c09190911b6001600160c01b03191660218201526009815261449a906144956029826109ed565b614758565b602081519101519068ffffffffffffffffff60b81b821691600982106144bf57505090565b6001600160b81b031960099290920360031b82901b1616919050565b60018151106144f7576001015160ff16601d811015613b6e5790565b60405162461bcd60e51b8152602060048201526013602482015272746f55696e74385f6f75744f66426f756e647360681b6044820152606490fd5b90601f8201809211613df157565b91908201809211613df157565b600981511061455d576009015190565b60405162461bcd60e51b8152602060048201526014602482015273746f55696e7436345f6f75744f66426f756e647360601b6044820152606490fd5b604181511061455d576041015190565b60198151106145b9576029015190565b60405162461bcd60e51b8152602060048201526015602482015274746f427974657331365f6f75744f66426f756e647360581b6044820152606490fd5b156145fd57565b60405162461bcd60e51b815260206004820152600e60248201526d736c6963655f6f766572666c6f7760901b6044820152606490fd5b1561463a57565b60405162461bcd60e51b8152602060048201526011602482015270736c6963655f6f75744f66426f756e647360781b6044820152606490fd5b6146878261468081614532565b10156145f6565b61469e8151614697846019614540565b1115614633565b816146b55750506040515f81526020810160405290565b60405191601f8116916019831560051b80858701019484860193010101905b8084106146ec5750508252601f01601f191660405290565b90926020809185518152019301906146d4565b61470960016145f6565b61471a815161469760806019614540565b60405190602082019060390160a083015b80831061474557505060808252601f01601f191660405290565b909160208091845181520192019061472b565b61476260016145f6565b614772815161469760095f614540565b6040519060098083019101601283015b80831061479c57505060098252601f01601f191660405290565b9091602080918451815201920190614782565b60368151106147c2576042015160601c90565b60405162461bcd60e51b8152602060048201526015602482015274746f416464726573735f6f75744f66426f756e647360581b6044820152606490fd5b60258151106147c2576031015160601c90565b602d8151106147c2576039015160601c90565b60ce8151106147c25760da015160601c90565b6052815110614848576052015190565b60405162461bcd60e51b8152602060048201526015602482015274746f55696e743132385f6f75744f66426f756e647360581b6044820152606490fd5b6011815110614848576011015190565b6041815110614848576041015190565b6029815110614848576029015190565b6039815110614848576039015190565b6019815110614848576019015190565b156148dc57565b60405162461bcd60e51b8152602060048201526019602482015278496e7075742073686f756c642062652031323820627974657360381b6044820152606490fd5b908151811015612d24570160200190565b60ff1660ff8114613df15760010190565b9061494982610a1f565b61495660405191826109ed565b8281528092614967601f1991610a1f565b0190602036910137565b61497e60808251146148d5565b5f5b60ff81166080811090816149fa575b50156149a35761499e9061492e565b614980565b60ff166149af8161493f565b915f5b60ff8116838110156149f35760ff91816149eb6149e26149d46001958861491d565b516001600160f81b03191690565b5f1a918861491d565b5301166149b2565b5050505090565b6001600160f81b03199150614a13906149d4908561491d565b1615155f61498f565b60b9815110614a2c5760b9015190565b60405162461bcd60e51b8152602060048201526015602482015274746f427974657333325f6f75744f66426f756e647360581b6044820152606490fd5b5f5b60ff8116602081109081614af6575b5015614a8e57614a899061492e565b614a6b565b60ff614a9a911661493f565b5f5b60ff811690602082108080614ada575b15614ad25715612d245781614ac785614acd941a918561491d565b5361492e565b614a9c565b505050905090565b15612d245784831a60f81b6001600160f81b0319161515614aac565b9015612d245782901a60f81b6001600160f81b03191615155f614a7a565b60ba8151106144f75760ba01519056fe8fef588b5fc1afbf5b2f06c1a435d513f208da2e6704c3d8f0e0ec91167066baa2646970667358221220661b3521efd29d40a077bca564f6e0cf415bec937694fcb9e99fa079d5fcca5864736f6c634300081a0033","linkReferences":{}},"methodIdentifiers":{"addAsset(uint128,address)":"8aa2e5b0","addPool(uint64)":"2b896101","addTranche(uint64,bytes16,string,string,uint8,address)":"c77d5fe6","allowAsset(uint64,uint128)":"089948b5","assetToId(address)":"2fc165ba","canTrancheBeDeployed(uint64,bytes16)":"3bc54707","deny(address)":"9c52a7f1","deployTranche(uint64,bytes16)":"b6405b39","deployVault(uint64,bytes16,address)":"04dbf198","disallowAsset(uint64,uint128)":"c47744ab","escrow()":"e2fdcc17","file(bytes32,address)":"d4e8be83","gasService()":"6a22d8cc","gateway()":"116191b6","getTranche(uint64,bytes16)":"87e3a569","getTranchePrice(uint64,bytes16,address)":"8543b07e","getVault(uint64,bytes16,address)":"dfb3b551","getVault(uint64,bytes16,uint128)":"81bc8a46","getVaultAsset(address)":"ca9d67c8","handle(bytes)":"bf48bcb6","handleTransfer(uint128,address,uint128)":"a096bf57","handleTransferTrancheTokens(uint64,bytes16,address,uint128)":"20309ef1","idToAsset(uint128)":"cee8983d","investmentManager()":"4b31bb10","isAllowedAsset(uint64,address)":"16a3d7bc","isPoolActive(uint64)":"c6526074","recoverTokens(address,address,uint256)":"5f3e849f","rely(address)":"65fae35e","removeVault(uint64,bytes16,address)":"8c6b2530","trancheFactory()":"9ee2addd","transferAssets(address,bytes32,uint128)":"b21ea409","transferTrancheTokens(uint64,bytes16,uint8,uint64,bytes32,uint128)":"aae0f932","updateRestriction(uint64,bytes16,bytes)":"1f1b5aba","updateTrancheHook(uint64,bytes16,address)":"04f2ce6e","updateTrancheMetadata(uint64,bytes16,string,string)":"7b042669","updateTranchePrice(uint64,bytes16,uint128,uint128,uint64)":"3ef46309","vaultFactory()":"d8a06f73","wards(address)":"bf353dbb"},"id":5}